000   10300009200722
100   9503051878151840000000000008475000000008475000200000001041040722064924937893RSJKVV0722993191324203   1030000900030000   541119000160190110000000084Pro (1) Global (Pazund YANGONARTAUNG MMR11007220649249378930722000000000000000   10300002F00104100000000000000000000016950     
100   35710950299583890000000000100000000000100000002000000010410407220617319365815959120722667471231203   1030000900030000   481419000108190110000000045Amara Communications   YANGON        MMR11007220617319365810722000000000000000   10300003F00104100000000000000000000030000     
100   9503051020044919000000000005600000000005600000200000001041040722030040929278UWFWJI0722168300940203   1030000900030000   541119000283190110000000177Pro1 Global (Insein)   YANGON        MMR11007220300409292780722000000000000000   10300002F00104100000000000000000000011200     
100   95031900000216930000000000100200000000100200002000000010410407220631410141625E093F0722000003921123   1030000900030000   333300010001202104000002717Near Me Android        Yangon        MMR11007220631410141620722000000000000000   10300014F05104100000000000000000000020000     
100   95030201000069990000000000010000000000010000002000000010410407220605433543120289490722000003921011   1030000900030000   333400010001202104000002022ACS                    Yangon        MMR11007220605433543120722000000000000000   10200002F05104100000000000000000000006000     
100   35710500196015640000000000000500000000000500002000000010410407220705489385548197410722137351348203   1030000900030000   541119000138190110000000083SeinGayHarParami Cente YANGON        MMR11007220705489385540722000000000000000   10300005F00104100000000000000000000000100     
100   35710500100851220000000000035000000000035000002000000010410407211709233923627254510722000003919767   1030000900030000   333400010001202104000002022ACS                    Yangon        MMR11007211709233923620722000000000000000   10300005F05104100000000000000000000021000     
100   95031201000913380000000000010000000000010000002000000010410407220155032503703333330722000003919955   1030000900030000   333800010001202104000003301uab bank               Yangon        MMR11007220155032503700722000000000000000   10300009F05104100000000000000000000006000     
100   950319000003880400000000020002000000020002000020000000104104072213282358230842N24F0722000003922437   1030000900030000   333300010001202104000002717Near Me Android        Yangon        MMR11007221328235823080722000000000000000   10300014F05104100000000000000000000020000     
100   35710900231231550000000000800000000000800000002000000010410407220503569337209463510722009331156203   1030000900030000   594419000454190110000000307Shwe San Eain (Junctio YANGONN       MMR11007220503569337200722000000000000000   10300003F00104100000000000000000000240000     
100   95051080183021190000000000286500000000286500002000000010410407221250469517839596650722836201946203   1030000900030000   594419000454190110000000307Shwe San Eain (Junctio YANGONN       MMR11007221250469517830722000000000000000   10300005F00104100000000000000000000120330     
100   35710830162742750000000000027000000000027000002000000010410407221253449518826277540722852231944203   1030000900030000   569119000350190110000000217Bench (Myanmar Plaza)  YANGON        MMR11007221253449518820722000000000000000   10300003F00104100000000000000000000008100     
100   35710830206426990000000000008150000000008150002000000010410407221156359498334552860722484261835203   1030000900030000   541119000170190110000000085SeinGayHar (Dagon Cent YANGONUNG     MMR11007221156359498330722000000000000000   10300003F00104100000000000000000000001630     
100   95031900013578980000000000079200000000079200002000000010410407221157359498788TX14F0722498271835203   1030000900030000   541119000286190110000000177Pro1 Global (Insein)   YANGON        MMR11007221157359498780722000000000000000   10300014F00104100000000000000000000015840     
100   95031900009028270000000000100200000000100200002000000010410407221130130013444MR14F0722000003922181   1030000900030000   333300010001202104000002717Near Me Android        Yangon        MMR11007221130130013440722000000000000000   10300014F05104100000000000000000000020000     
100   62346600141943990000000000035000000000035000002000000010410407220341021102732588770722000003920252   1030000900030000   333400010001202104000002022ACS                    Yangon        MMR11007220341021102730722000000000000000   10300005F05104100000000000000000000021000     
100   62443001703005910000000000030000000000030000002000000010410407221117239482689916480722134471723203   1030000900030000   592119000255190110000000150HtunHtunOo Liquor (May YANGONONE     MMR11007221117239482680722000000000000000   10300005F00104100000000000000000000012600     
100   62921400001143040000000000050200000000050200002000000010410407220337400740883333330722000003920238   1030000900030000   333300010001202104000002717Near Me Android        Yangon        MMR11007220337400740880722000000000000000   10300009F05104100000000000000000000020000     
100   35710500124201940000000000107200000000107200002000000010410407220750482048103829920722000003921464   1030000900030000   333300010001202104000002659MSP                    Yangon        MMR11007220750482048100722000000000000000   10300005F05104100000000000000000000020000     
100   35710500160592790000000000002500000000002500002000000010410407220354532453700515060722000003920328   1030000900030000   333400010001202104000002022ACS                    Yangon        MMR11007220354532453700722000000000000000   10300005F05104100000000000000000000001500     
100   62346600139114210000000000007800000000007800002000000010410407220635229373092856860722853051322203   1030000900030000   541119000172190110000000085SeinGayHar (Dagon Cent YANGONUNG     MMR11007220635229373090722000000000000000   10300005F00104100000000000000000000001560     
100   35710830740047470000000000001800000000001800002000000010410407220638079374126752690722875081307203   1030000900030000   541119000170190110000000085SeinGayHar (Dagon Cent YANGONUNG     MMR11007220638079374120722000000000000000   10300003F00104100000000000000000000000360     
100   95030518883996940000000000011385000000011385002000000010410407220644409376667UBCHS0722933141340203   1030000900030000   581219000029190110000000026BCC (TC)               YANGONUT      MMR11007220644409376660722000000000000000   10300002F00104100000000000000000000003871     
100   9503051882580240000000000000090000000000090000200000001041040722064518937698LWBRGM0722939151318203   1030000900030000   581219000481190110000000334Shwepalin (TLKK)       YANGONIN      MMR11007220645189376980722000000000000000   10300002F00104100000000000000000000000306     
100   62343301000197570000000000030200000000030200002000000010410407221020585058240000000722000003922003   1030000900030000   333300010001202104000002717Near Me Android        Yangon        MMR11007221020585058240722000000000000000   10300004F05104100000000000000000000020000     
100   95031500100350340000000000010000000000010000002000000010410407220746581658223333330722000003921450   1030000900030000   333400010001202104000002022ACS                    Yangon        MMR11007220746581658220722000000000000000   10300012F05104100000000000000000000006000     
100   95031900011474890000000000010000000000010000002000000010410407221354192419146FU24F0722000003922491   1030000900030000   333400010001202104000002022ACS                    Yangon        MMR11007221354192419140722000000000000000   10300014F05104100000000000000000000006000     
100   95031900011880040000000000026000000000026000002000000010410407220438180818251AY73F0722000003920567   1030000900030000   333800010001202104000003301uab bank               Yangon        MMR11007220438180818250722000000000000000   10300014F05104100000000000000000000015600     
100   35710500140114540000000000004000000000004000002000000010410407220733360336676713540722000003921394   1030000900030000   333300010001202104000000109Myanmar National Airli Yangon        MMR11007220733360336670722000000000000000   10300005F05104100000000000000000000020000     
100   35710830089087570000000000005000000000005000002000000010410407220659422942426756380722000003921254   1030000900030000   333400010001202104000002022ACS                    Yangon        MMR11007220659422942420722000000000000000   10300003F05104100000000000000000000003000     
100   95030518975746830000000000019800000000019800002000000010410407220732049395094EQ2WZ0722311021404203   1030000900030000   569119000573190110000000413CNC Mens Wear(SanYeikN YANGONUT      MMR11007220732049395090722000000000000000   10300002F00104100000000000000000000005940     
100   35710830657386590000000000002500000000002500002000000010410407221115319481704857970722100451731203   1030000900030000   581219000727190110000000559Shake Cake&Bakery(Thuw YANGONNGKUUN  MMR11007221115319481700722000000000000000   10300003F00104100000000000000000000000850     
100   95031011300123870000000000003000000000003000002000000010410407220356002600600252550722000003920317   1030000900030000   333400010001202104000002022ACS                    Yangon        MMR11007220356002600600722000000000000000   10300005F05104100000000000000000000001800     
100   9503051873045880000000000003500000000003500000200000001041040722015840284028SS08UC0722000003919958   1030000900030000   333400010001202104000002022ACS                    Yangon        MMR11007220158402840280722000000000000000   10300002F05104100000000000000000000021000     
100   62343301000268360000000000002500000000002500002000000010410407220158472847540000000722000003919960   1030000900030000   333400010001202104000002022ACS                    Yangon        MMR11007220158472847540722000000000000000   10300004F05104100000000000000000000001500     
100   62441900102788790000000000002500000000002500002000000010410407220402543254715033790722000003920380   1030000900030000   333400010001202104000002022ACS                    Yangon        MMR11007220402543254710722000000000000000   10300003F05104100000000000000000000001500     
100   35710500193732890000000000050200000000050200002000000010410407220424555455039023690722000003920482   1030000900030000   333300010001202104000002659MSP                    Yangon        MMR11007220424555455030722000000000000000   10300005F05104100000000000000000000020000     
100   35710950560778060000000000035000000000035000002000000010410407221226355635466714520722000003922301   1030000900030000   333400010001202104000002022ACS                    Yangon        MMR11007221226355635460722000000000000000   10300003F05104100000000000000000000021000     
100   9503051895740765000000000002300000000002300000200000001041040722050618933813DLFGTY0722038361118203   1030000900030000   594319000084190110000000059Innwa Books            YANGONUT      MMR11007220506189338130722000000000000000   10300002F00104100000000000000000000006900     
100   35710500134011690000000000022440000000022440002000000010410407220821379414405640590722741511437203   1030000900030000   581219000004190110000000002Yoogane Korea Rest;(MP YANGON        MMR11007220821379414400722000000000000000   10300005F00104100000000000000000000007630     
100   9503051877733598000000000002620000000002620000200000001041040722100306945338722BLU0722506331606203   1030000900030000   541119000282190110000000177Pro1 Global (Insein)   YANGON        MMR11007221003069453380722000000000000000   10300002F00104100000000000000000000005240     
100   35710950605643360000000000042400000000042400002000000010410407221003129453406354420722507331612203   1030000900030000   569919000555190110000000402D & C Myanmar (MP)     YANGON        MMR11007221003129453400722000000000000000   10300003F00104100000000000000000000012720     
100   35710830531198960000000000065450000000065450002000000010410407221004129453813938330722515341612203   1030000900030000   581219000206190110000000108Beauty in the Pot      YANGON        MMR11007221004129453810722000000000000000   10300003F00104100000000000000000000022253     
100   62346600188264340000000000025000000000025000002000000010410407220350399310053196780722459201039203   1030000900030000   554119000348190110000000215New Day Energy - 5     YANGONONE     MMR11007220350399310050722000000000000000   10300005F00104100000000000000000000003750     
100   9503051889088023000000000001845000000001845000200000001041040722035041931006R0K6IP0722460201041203   1030000900030000   581219000205190110000000107Canton Paradise        YANGON        MMR11007220350419310060722000000000000000   10300002F00104100000000000000000000006273     
100   9503051883010940000000000002890000000002890000200000001041040722040501931511RASRBL0722550351001203   1030000900030000   599919000190190110000000094119 Fashion (North Okk YANGONOKKALAP MMR11007220405019315110722000000000000000   10300002F00104100000000000000000000008670     
100   35650713600000970000000000051400000000051400002000000010410407220407369316100957660722572371036203   1030000900030000   541119000115190110000000078Sein Gay Har Kan Thar  YANGONOKKALAP MMR11007220407369316100722000000000000000   10300005F00104100000000000000000000017990     
100   9503051883337707000000000011124000000011124000200000001041040722041114931742ZSXMSR0722602411014203   1030000900030000   806219000357190110000000225Victoria Hospital      YANGONONE     MMR11007220411149317420722000000000000000   10300002F00104100000000000000000000033372     
100   62346600115464680000000000267400000000267400002000000010410407220744479399608880540722388141447203   1030000900030000   541119000284190110000000177Pro1 Global (Insein)   YANGON        MMR11007220744479399600722000000000000000   10300005F00104100000000000000000000053480     
100   35710500151008760000000000065500000000065500002000000010410407221026019462098119580722681561601203   1030000900030000   806219000356190110000000225Victoria Hospital      YANGONONE     MMR11007221026019462090722000000000000000   10300005F00104100000000000000000000019650     
100   9503051897762809000000000002670000000002670000200000001041040722075125940234ZACISA0722460211425203   1030000900030000   581219000205190110000000107Canton Paradise        YANGON        MMR11007220751259402340722000000000000000   10300002F00104100000000000000000000009078     
100   62346600180806020000000000035000000000035000002000000010410407220532030203639930040722000003920842   1030000900030000   333400010001202104000002022ACS                    Yangon        MMR11007220532030203630722000000000000000   10300005F05104100000000000000000000021000     
100   9503051876367901000000000008520000000008520000200000001041040722074522152221NLJQR10722000003921441   1030000900030000   333300010001202104000002659MSP                    Yangon        MMR11007220745221522210722000000000000000   10300002F05104100000000000000000000020000     
100   62346600189354330000000000008900000000008900002000000010410407220643199376140148680722920131319203   1030000900030000   599919000194190110000000098119Fashion(Mingalartau YANGONARTAUNG MMR11007220643199376140722000000000000000   10300005F00104100000000000000000000002670     
100   62346600111504510000000000015850000000015850002000000010410407220353009310921395960722477231000203   1030000900030000   541119000286190110000000177Pro1 Global (Insein)   YANGON        MMR11007220353009310920722000000000000000   10300005F00104100000000000000000000003170     
100   95031900002503420000000000083540000000083540002000000010410407220901559430244Y904F0722095311555203   1030000900030000   541119000159190110000000084Pro (1) Global (Pazund YANGONIKANAUN MMR11007220901559430240722000000000000000   10300014F00104100000000000000000000016708     
100   9503051872495706000000000002567000000002567000200000001041040722082423941581AGPO7B0722775541423203   1030000900030000   806219000356190110000000225Victoria Hospital      YANGONONE     MMR11007220824239415810722000000000000000   10300002F00104100000000000000000000007701     
100   35710500380113990000000000009240000000009240002000000010410407220827059416554512470722793571405203   1030000900030000   581219000722190110000000553Noodle Bowl            YANGON        MMR11007220827059416550722000000000000000   10300005F00104100000000000000000000003142     
100   35710500174685450000000000059500000000059500002000000010410407220828509417243420010722805581450203   1030000900030000   541119000374190110000000178Pro (1) Global (East D YANGONMYOTHIT MMR11007220828509417240722000000000000000   10300005F00104100000000000000000000011900     
100   35710830060749820000000000187800000000187800002000000010410407221426479549662840500722323562047203   1030000900030000   581219000368190110000000241Beauty In The Pot (PHS YANGON        MMR11007221426479549660722000000000000000   10300003F00104100000000000000000000063852     
100   62346600178572160000000000079350000000079350002000000010410407221440039553494051040722350102103203   1030000900030000   581219000590190110000000430The Tea Club           YANGON        MMR11007221440039553490722000000000000000   10300005F00104100000000000000000000026979     
100   35710830290726170000000000005000000000005000002000000010410407221526279566645283560722425562127203   1030000900030000   581319000363190110000000236Safe House Club        YANGON        MMR11007221526279566640722000000000000000   10300003F00104100000000000000000000001700     
100   35710500104984080000000000010000000000010000002000000010410407221244131413623522530722000003922345   1030000900030000   333400010001202104000002022ACS                    Yangon        MMR11007221244131413620722000000000000000   10300005F05104100000000000000000000006000     
100   950319000017522600000000001702000000001702000020000000104104072204483318334184183F0722000003920625   1030000900030000   333300010001202104000002659MSP                    Yangon        MMR11007220448331833410722000000000000000   10300014F05104100000000000000000000020000     
100   35710830789196500000000000044700000000044700002000000010410407220740409398153748630722361101440203   1030000900030000   581219000635190110000000466King BBQ Time City     YANGONUT      MMR11007220740409398150722000000000000000   10300003F00104100000000000000000000015198     
100   62346600136159070000000001300200000001300200002000000010410407221126265626832669450722000003922176   1030000900030000   333300010001202104000000505Near Me iOS            Yangon        MMR11007221126265626830722000000000000000   10300005F05104100000000000000000000020000     
100   9503051890169291000000000002590000000002590000200000001041040722132059952801XR7PKT0722993501959203   1030000900030000   581219000205190110000000107Canton Paradise        YANGON        MMR11007221320599528010722000000000000000   10300002F00104100000000000000000000008806     
100   9503051872422296000000000007660000000007660000200000001041040722122053950739ZTABV00722668501853203   1030000900030000   581219000368190110000000241Beauty In The Pot (PHS YANGON        MMR11007221220539507390722000000000000000   10300002F00104100000000000000000000026044     
100   9503051897627648000000000002580000000002580000200000001041040722122309950825KIILVP0722685531809203   1030000900030000   591219000688190110000000519Shwe Ohh Pharmacy ST-7 YANGONUNG     MMR11007221223099508250722000000000000000   10300002F00104100000000000000000000007740     
100   9503051894891684000000000002000000000002000000200000001041040722074739173982AEATZE0722000003921453   1030000900030000   333400010001202104000002022ACS                    Yangon        MMR11007220747391739820722000000000000000   10300002F05104100000000000000000000012000     
100   35710830959310010000000000020000000000020000002000000010410407221256442644965569610722000003922373   1030000900030000   333400010001202104000002022ACS                    Yangon        MMR11007221256442644960722000000000000000   10300003F05104100000000000000000000012000     
100   95010121409064700000000000010200000000010200002000000010410407220809573957511349670722000003921547   1030000900030000   333300010001202104000002659MSP                    Yangon        MMR11007220809573957510722000000000000000   10100001F05104100000000000000000000020000     
100   35710830874959810000000000010000000000010000002000000010410407221106163616627153060722000003922093   1030000900030000   333400010001202104000002022ACS                    Yangon        MMR11007221106163616620722000000000000000   10300003F05104100000000000000000000006000     
100   35710830033429110000000000034500000000034500002000000010410407220323509300883994230722294530950203   1030000900030000   541119000166190110000000085SeinGayHar (Dagon Cent YANGONUNG     MMR11007220323509300880722000000000000000   10300003F00104100000000000000000000006900     
100   9503051894241310000000000001711500000001711500200000001041040722085100942571XB2XQQ0722980211500203   1030000900030000   581219000280190110000000175Min Lan Restaurant (Ka YANGONARTAUNG MMR11007220851009425710722000000000000000   10300002F00104100000000000000000000005819     
100   62443000860033210000000000438000000000438000002000000010410407221126289486296318690722209561728203   1030000900030000   594419000454190110000000307Shwe San Eain (Junctio YANGONN       MMR11007221126289486290722000000000000000   10300005F00104100000000000000000000183960     
100   9503051893208781000000000011980000000011980000200000001041040722083145941819D6NNWQ0722818011545203   1030000900030000   594419000452190110000000305Yangoods-Bogyokeaungsa YANGONN       MMR11007220831459418190722000000000000000   10300002F00104100000000000000000000035940     
100   35710830097277430000000000238000000000238000002000000010410407221208349502904553670722580381834203   1030000900030000   581319000362190110000000236Safe House Club        YANGON        MMR11007221208349502900722000000000000000   10300003F00104100000000000000000000080920     
100   62343301015297210000000000035000000000035000002000000010410407220043551355560000000722000003919880   1030000900030000   333400010001202104000002022ACS                    Yangon        MMR11007220043551355560722000000000000000   10300004F05104100000000000000000000021000     
100   35710830447544050000000000003600000000003600002000000010410407220812299410827431040722664421429203   1030000900030000   541119000176190110000000086SeinGayHar (Hlaing Tha YANGONTHARYA  MMR11007220812299410820722000000000000000   10300003F00104100000000000000000000000720     
100   35710500123264410000000000200200000000200200002000000010410407220318304830351147850722000003920166   1030000900030000   333300010001202104000002717Near Me Android        Yangon        MMR11007220318304830350722000000000000000   10300005F05104100000000000000000000020000     
100   9503051884183589000000000004861500000004861500200000001041040722061656936551BNJPMN0722657461256203   1030000900030000   581219000280190110000000175Min Lan Restaurant (Ka YANGONARTAUNG MMR11007220616569365510722000000000000000   10300002F00104100000000000000000000016529     
100   9503051895335822000000000018600000000018600000200000001041040722061708936562JNTJJM0722661471208203   1030000900030000   541119000283190110000000177Pro1 Global (Insein)   YANGON        MMR11007220617089365620722000000000000000   10300002F00104100000000000000000000037200     
100   35710500145342400000000000361250000000361250002000000010410407220931259441433894710722296011625203   1030000900030000   541119000286190110000000177Pro1 Global (Insein)   YANGON        MMR11007220931259441430722000000000000000   10300005F00104100000000000000000000072250     
100   9503051020413353000000000000475000000000475000200000001041040722031527929795SEZQWO0722252450927203   1030000900030000   541119000380190110000000248Victoria Hyper Mart    YANGON        MMR11007220315279297950722000000000000000   10300002F00104100000000000000000000000950     
100   9503051891480796000000000000050000000000050000200000001041040722033646930539NI5FET0722370061046203   1030000900030000   581219000481190110000000334Shwepalin (TLKK)       YANGONIN      MMR11007220336469305390722000000000000000   10300002F00104100000000000000000000000170     
100   9503051876885860000000000015200000000015200000200000001041040722034006930641KKNAKZ0722382101006203   1030000900030000   541119000374190110000000178Pro (1) Global (East D YANGONMYOTHIT MMR11007220340069306410722000000000000000   10300002F00104100000000000000000000030400     
100   62346600162047330000000000144000000000144000002000000010410407220831499418240400270722819011549203   1030000900030000   594419000631190110000000462Shwe San Eain GemsTime YANGONUT      MMR11007220831499418240722000000000000000   10300005F00104100000000000000000000043200     
100   35710830787221530000000000035000000000035000002000000010410407220602323232306748820722000003920997   1030000900030000   333400010001202104000002022ACS                    Yangon        MMR11007220602323232300722000000000000000   10300003F05104100000000000000000000021000     
100   9503051890528421000000000000905000000000905000200000001041040722101520945784R5LTAS0722580451620203   1030000900030000   541119000380190110000000248Victoria Hyper Mart    YANGON        MMR11007221015209457840722000000000000000   10300002F00104100000000000000000000001810     
100   35710830601216530000000000270000000000270000002000000010410407221019039459376701650722608491603203   1030000900030000   594419000584190110000000424Zwe Htet Gems & Jewell MANDALAYHARSA MMR11007221019039459370722000000000000000   10300003F00104100000000000000000000081000     
100   35710500166519270000000000038450000000038450002000000010410407221022129460544630640722638521612203   1030000900030000   541119000115190110000000078Sein Gay Har Kan Thar  YANGONOKKALAP MMR11007221022129460540722000000000000000   10300005F00104100000000000000000000007690     
100   35710830913535720000000000400000000000400000002000000010410407220744029399364134370722385141402203   1030000900030000   481219000710190110000000541I Sure Technology Co., YANGONAUNG    MMR11007220744029399360722000000000000000   10300003F00104100000000000000000000120000     
100   62346600116356590000000000001850000000001850002000000010410407220744049399391858910722386141404203   1030000900030000   591219000607190110000000447Shwe Ohh Pharmacy St-3 YANGONINDAING MMR11007220744049399390722000000000000000   10300005F00104100000000000000000000000555     
100   35710500173310320000000000306000000000306000002000000010410407220749189401425306490722427191418203   1030000900030000   594419000631190110000000462Shwe San Eain GemsTime YANGONUT      MMR11007220749189401420722000000000000000   10300005F00104100000000000000000000091800     
100   35710830915261360000000000029085000000029085002000000010410407220751099402208079940722454211409203   1030000900030000   581219000280190110000000175Min Lan Restaurant (Ka YANGONARTAUNG MMR11007220751099402200722000000000000000   10300003F00104100000000000000000000009889     
100   35710500380983620000000000010000000000010000002000000010410407221454299557701240840722380242129203   1030000900030000   554119000346190110000000213New Day Energy - 3     YANGONOKKALAP MMR11007221454299557700722000000000000000   10300005F00104100000000000000000000001500     
100   35710830261355240000000000005200000000005200002000000010410407221130130013641804800722000003922187   1030000900030000   333300010001202104000002659MSP                    Yangon        MMR11007221130130013640722000000000000000   10300003F05104100000000000000000000020000     
100   62622000248909520000000000005000000000005000002000000010410407220752219402798896110722482221421203   1030000900030000   581219000185190110000000089KER Rendezvous - 4Floo YANGONONE     MMR11007220752219402790722000000000000000   10300006F00104100000000000000000000001700     
100   9503051019904909000000000002880000000002880000200000001041040722114130949206NOZU4K0722332111830203   1030000900030000   729819000533190110000000381Artists Nail Spa & Aca YANGON        MMR11007221141309492060722000000000000000   10300002F00104100000000000000000000008640     
100   35710500350705470000000000028500000000028500002000000010410407221202239500732139150722539321823203   1030000900030000   569119000350190110000000217Bench (Myanmar Plaza)  YANGON        MMR11007221202239500730722000000000000000   10300005F00104100000000000000000000008550     
100   62346600161626910000000000384750000000384750002000000010410407220651159379592254230722008211315203   1030000900030000   541119000289190110000000178Pro (1) Global (East D YANGONMYOTHIT MMR11007220651159379590722000000000000000   10300005F00104100000000000000000000076950     
100   9503051020955676000000000189035000000189035000200000001041040722070049938338JKMSKM0722093301349203   1030000900030000   541119000161190110000000084Pro (1) Global (Pazund YANGONARTAUNG MMR11007220700499383380722000000000000000   10300002F00104100000000000000000000378070     
100   35710830787221530000000000035000000000035000002000000010410407220556552655904926990722000003920965   1030000900030000   333400010001202104000002022ACS                    Yangon        MMR11007220556552655900722000000000000000   10300003F05104100000000000000000000021000     
100   9503051896837909000000000003360000000003360000200000001041040722130220952185OEHHJU0722904321920203   1030000900030000   581219000280190110000000175Min Lan Restaurant (Ka YANGONARTAUNG MMR11007221302209521850722000000000000000   10300002F00104100000000000000000000011424     
100   35710830885461620000000000029478000000029478002000000010410407221531369568094848670722432012236203   1030000900030000   701119000075190110000000024Lotte Hotel            YANGON        MMR11007221531369568090722000000000000000   10300003F00104100000000000000000000010022     
100   62346600111164370000000000007000000000007000002000000010410407221159149499448032660722514291814203   1030000900030000   591219000690190110000000521Shwe Ohh Pharmacy ST-1 YANGONAUNG    MMR11007221159149499440722000000000000000   10300005F00104100000000000000000000002100     
100   35710500180488820000000000020000000000020000002000000010410407221201029500140876490722530311802203   1030000900030000   481219000710190110000000541I Sure Technology Co., YANGONAUNG    MMR11007221201029500140722000000000000000   10300005F00104100000000000000000000006000     
100   35710830679673970000000000114000000000114000002000000010410407221202499500834866210722540321849203   1030000900030000   594419000454190110000000307Shwe San Eain (Junctio YANGONN       MMR11007221202499500830722000000000000000   10300003F00104100000000000000000000034200     
100   62346600131159080000000000231200000000231200002000000010410407221533400340979802280722000003922711   1030000900030000   333300010001202104000002659MSP                    Yangon        MMR11007221533400340970722000000000000000   10300005F05104100000000000000000000020000     
100   35710830642900820000000000027200000000027200002000000010410407220653302330144127550722000003921226   1030000900030000   333300010001202104000002659MSP                    Yangon        MMR11007220653302330140722000000000000000   10300003F05104100000000000000000000020000     
100   35710830465389880000000000003000000000003000002000000010410407221454442444768090120722000003922616   1030000900030000   333400010001202104000002022ACS                    Yangon        MMR11007221454442444760722000000000000000   10300003F05104100000000000000000000001800     
100   35710830049725590000000000037100000000037100002000000010410407220557439357654925370722454271243203   1030000900030000   541119000286190110000000177Pro1 Global (Insein)   YANGON        MMR11007220557439357650722000000000000000   10300003F00104100000000000000000000007420     
100   35710500163780750000000001700000000001700000002000000010410407220602209359433665210722488321220203   1030000900030000   59441900052919011000000037729 Jewellery           YANGONUT      MMR11007220602209359430722000000000000000   10300005F00104100000000000000000000510000     
100   35710830684080030000000001016200000001016200002000000010410407220604019360204230810722515341201203   1030000900030000   541119000287190110000000177Pro1 Global (Insein)   YANGON        MMR11007220604019360200722000000000000000   10300003F00104100000000000000000000203240     
100   9503051888399694000000000003600000000003600000200000001041040722060549936103AGMWTB0722546351249203   1030000900030000   569119000696190110000000527Plus Nine Five Fashion YANGONUT      MMR11007220605499361030722000000000000000   10300002F00104100000000000000000000010800     
100   9503051888338221000000000001155000000001155000200000001041040722132123952820YUQZCB0722999511923203   1030000900030000   581219000722190110000000553Noodle Bowl            YANGON        MMR11007221321239528200722000000000000000   10300002F00104100000000000000000000003927     
100   95031900031981420000000000020800000000020800002000000010410407221321599528428XH24F0722004511959203   1030000900030000   541119000166190110000000085SeinGayHar (Dagon Cent YANGONUNG     MMR11007221321599528420722000000000000000   10300014F00104100000000000000000000004160     
100   62443100364545650000000000258000000000258000002000000010410407221118599483466859880722154481759203   1030000900030000   594419000454190110000000307Shwe San Eain (Junctio YANGONN       MMR11007221118599483460722000000000000000   10300001F00104100000000000000000000108360     
100   35710500100622530000000001365000000001365000002000000010410407221124509485693759600722196541750203   1030000900030000   541119000283190110000000177Pro1 Global (Insein)   YANGON        MMR11007221124509485690722000000000000000   10300005F00104100000000000000000000273000     
100   62346600180211920000000000018000000000018000002000000010410407220726269393007492410722273561326203   1030000900030000   554119000348190110000000215New Day Energy - 5     YANGONONE     MMR11007220726269393000722000000000000000   10300005F00104100000000000000000000002700     
100   9503051893053351000000000000285000000000285000200000001041040722115604949808HGCLUG0722476261804203   1030000900030000   541119000168190110000000085SeinGayHar (Dagon Cent YANGONUNG     MMR11007221156049498080722000000000000000   10300002F00104100000000000000000000000570     
100   95031900000554690000000000035000000000035000002000000010410407221305253525283AE24F0722000003922390   1030000900030000   333400010001202104000002022ACS                    Yangon        MMR11007221305253525280722000000000000000   10300014F05104100000000000000000000021000     
100   35710830261089760000000000041975000000041975002000000010410407220626069369154233650722749561206203   1030000900030000   581219000590190110000000430The Tea Club           YANGON        MMR11007220626069369150722000000000000000   10300003F00104100000000000000000000014272     
100   9503051897829954000000000001750000000001750000200000001041040722085819942869PZKELM0722051281519203   1030000900030000   599519000611190110000000451Puppy Paradise         YANGON        MMR11007220858199428690722000000000000000   10300002F00104100000000000000000000005250     
100   35710830259438520000000000005000000000005000002000000010410407221231010101875212100722000003922314   1030000900030000   333400010001202104000002022ACS                    Yangon        MMR11007221231010101870722000000000000000   10300003F05104100000000000000000000003000     
100   9503051882367929000000000034700000000034700000200000001041040722092531943917PHLWDA0722257551531203   1030000900030000   509419000293190110000000181Shwe Htaw Gold & Jewel YANGON        MMR11007220925319439170722000000000000000   10300002F00104100000000000000000000173500     
100   62441900101621980000000000526000000000526000002000000010410407220708249386358790560722152381324203   1030000900030000   594419000636190110000000467Myat Mahar Gems & Jewe YANGONUT      MMR11007220708249386350722000000000000000   10300003F00104100000000000000000000220920     
100   9503051877904496000000000010020000000010020000200000001041040722061055405565TENMN90722000003921023   1030000900030000   333300010001202104000002659MSP                    Yangon        MMR11007220610554055650722000000000000000   10300002F05104100000000000000000000020000     
100   35710830516062660000000000016100000000016100002000000010410407220939399444595198640722354091639203   1030000900030000   581219000420190110000000281BCC (JC)               YANGONN       MMR11007220939399444590722000000000000000   10300003F00104100000000000000000000005474     
100   9503051890298538000000000004535000000004535000200000001041040722094120944529VACQPK0722374111620203   1030000900030000   581219000231190110000000130MinLan Restaurant(SanC YANGONUNG     MMR11007220941209445290722000000000000000   10300002F00104100000000000000000000015419     
100   62622000884125520000000000011400000000011400002000000010410407220713339388358976840722193431333203   1030000900030000   581219000031190110000000039Tom N Toms Coffee      YANGON        MMR11007220713339388350722000000000000000   10300006F00104100000000000000000000003876     
100   35710830927204560000000000001300000000001300002000000010410407220715199389003743550722203451319203   1030000900030000   541119000170190110000000085SeinGayHar (Dagon Cent YANGONUNG     MMR11007220715199389000722000000000000000   10300003F00104100000000000000000000000260     
100   35710500340624870000000001550000000001550000002000000010410407220716059389216372370722206461305203   1030000900030000   481219000710190110000000541I Sure Technology Co., YANGONAUNG    MMR11007220716059389210722000000000000000   10300005F00104100000000000000000000465000     
100   35710830589454850000000000018200000000018200002000000010410407220719349390574316600722229491334203   1030000900030000   541119000618190110000000452Pro(1) Global-Hlaing T YANGONTHARYA  MMR11007220719349390570722000000000000000   10300003F00104100000000000000000000003640     
100   35710500135925460000000000037250000000037250002000000010410407220509319339286222470722064391131203   1030000900030000   541119000282190110000000177Pro1 Global (Insein)   YANGON        MMR11007220509319339280722000000000000000   10300005F00104100000000000000000000007450     
100   62346600166594070000000000016275000000016275002000000010410407221125569486070573510722201551756203   1030000900030000   581219000280190110000000175Min Lan Restaurant (Ka YANGONARTAUNG MMR11007221125569486070722000000000000000   10300005F00104100000000000000000000005534     
100   95031900053747250000000000112800000000112800002000000010410407221226179509311C424F0722701561817203   1030000900030000   599919000200190110000000104119 Fashion (Thingangy YANGONNGKUUN  MMR11007221226179509310722000000000000000   10300014F00104100000000000000000000033840     
100   95030518880008880000000000007500000000007500002000000010410407221231459511456CBTLL0722749011945203   1030000900030000   541119000144190110000000083SeinGayHarParami Cente YANGON        MMR11007221231459511450722000000000000000   10300002F00104100000000000000000000001500     
100   35710830476120630000000000005000000000005000002000000010410407220618044804329931420722000003921054   1030000900030000   333400010001202104000002022ACS                    Yangon        MMR11007220618044804320722000000000000000   10300003F05104100000000000000000000003000     
100   95030518878274220000000000031500000000031500002000000010410407220136189264465DSKX80722695060818203   1030000900030000   591219000500190110000000347Shwe Ohh Pharmacy -2   YANGONUNG     MMR11007220136189264460722000000000000000   10300002F00104100000000000000000000009450     
100   35710500172306970000000000011550000000011550002000000010410407220145249267167243160722724150824203   1030000900030000   581219000205190110000000107Canton Paradise        YANGON        MMR11007220145249267160722000000000000000   10300005F00104100000000000000000000003927     
100   35710500132939540000000000108950000000108950002000000010410407220222129279574447330722918520812203   1030000900030000   591219000501190110000000348Shwe Ohh Pharmacy (SmL YANGONUT      MMR11007220222129279570722000000000000000   10300005F00104100000000000000000000032685     
100   9503051878151840000000000019845000000019845000200000001041040722065558938146BFKZ5M0722051251358203   1030000900030000   541119000159190110000000084Pro (1) Global (Pazund YANGONIKANAUN MMR11007220655589381460722000000000000000   10300002F00104100000000000000000000039690     
100   35710830412683340000000000033400000000033400002000000010410407220503409337104609280722008331140203   1030000900030000   541119000374190110000000178Pro (1) Global (East D YANGONMYOTHIT MMR11007220503409337100722000000000000000   10300003F00104100000000000000000000006680     
100   35710500124201940000000000119000000000119000002000000010410407220758072807519374970722000003921498   1030000900030000   333300010001202104000002659MSP                    Yangon        MMR11007220758072807510722000000000000000   10300005F05104100000000000000000000020000     
100   950319000118574500000000000272000000000272000020000000104104072204020832080446M73F0722000003920377   1030000900030000   333300010001202104000002717Near Me Android        Yangon        MMR11007220402083208040722000000000000000   10300014F05104100000000000000000000020000     
100   950319000082443500000000000302000000000302000020000000104104072204524922499169283F0722000003920648   1030000900030000   333300010001202104000002717Near Me Android        Yangon        MMR11007220452492249910722000000000000000   10300014F05104100000000000000000000020000     
100   62346600140408990000000000040000000000040000002000000010410407221027059462551674130722693571605203   1030000900030000   541119000763190110000000595Amazing Mart(Anawyahta YANGONTHARYA  MMR11007221027059462550722000000000000000   10300005F00104100000000000000000000008000     
100   35710500194158820000000000039000000000039000002000000010410407220231029282252412860722947010902203   1030000900030000   541119000374190110000000178Pro (1) Global (East D YANGONMYOTHIT MMR11007220231029282250722000000000000000   10300005F00104100000000000000000000007800     
100   35710500197169410000000000045000000000045000002000000010410407220231319282484235540722952010931203   1030000900030000   701119000428190110000000288Hlaine Tet Hotel       YANGONONE     MMR11007220231319282480722000000000000000   10300005F00104100000000000000000000015300     
100   95030518960110590000000000004700000000004700002000000010410407220752029402660ELEIZ0722474221402203   1030000900030000   581219000726190110000000558Shake Cake&Bakery(SiPi YANGONMYOTHIT MMR11007220752029402660722000000000000000   10300002F00104100000000000000000000001598     
100   95051080168801080000000000050000000000050000002000000010410407220514079340807758880722087441107203   1030000900030000   541119000287190110000000177Pro1 Global (Insein)   YANGON        MMR11007220514079340800722000000000000000   10300005F00104100000000000000000000017500     
100   35710830414250900000000000060000000000060000002000000010410407220535229348584905800722222051222203   1030000900030000   594419000454190110000000307Shwe San Eain (Junctio YANGONN       MMR11007220535229348580722000000000000000   10300003F00104100000000000000000000018000     
100   950319000380576100000000000190000000000190000020000000104104072213030995221227C24F0722906331909203   1030000900030000   591219000500190110000000347Shwe Ohh Pharmacy -2   YANGONUNG     MMR11007221303099522120722000000000000000   10300014F00104100000000000000000000005700     
100   62346600125583630000000000036900000000036900002000000010410407221305589522942242720722912351958203   1030000900030000   591219000500190110000000347Shwe Ohh Pharmacy -2   YANGONUNG     MMR11007221305589522940722000000000000000   10300005F00104100000000000000000000011070     
100   35710830061664160000000000144000000000144000002000000010410407221308239523673220880722921381923203   1030000900030000   581219000206190110000000108Beauty in the Pot      YANGON        MMR11007221308239523670722000000000000000   10300003F00104100000000000000000000048960     
100   9503051876690062000000000006000000000006000000200000001041040722130837952376TFNPYP0722924381937203   1030000900030000   541119000377190110000000356Fuji Shopping Center ( MANDALAYHARSI MMR11007221308379523760722000000000000000   10300002F00104100000000000000000000012000     
100   35710830281551400000000000090000000000090000002000000010410407221053149473203944590722932231714203   1030000900030000   551119000291190110000000179Wun Yan Kha Car Auto S YANGON        MMR11007221053149473200722000000000000000   10300003F00104100000000000000000000027000     
100   62444500200291950000000000029000000000029000002000000010410407221055559474082904260722943251755203   1030000900030000   597719000090190110000000064Kyi Pyar Cosmetic (1)  MANDALAYHARSA MMR11007221055559474080722000000000000000   10300002F00104100000000000000000000012180     
100   95030800005046180000000000057650000000057650002000000010410407220903009430716216640722105331500203   1030000900030000   581219000205190110000000107Canton Paradise        YANGON        MMR11007220903009430710722000000000000000   10300003F00104100000000000000000000019601     
100   9503051893807202000000000006080000000006080000200000001041040722090626943188RHPJKE0722119361526203   1030000900030000   541119000163190110000000084Pro (1) Global (Pazund YANGONARTAUNG MMR11007220906269431880722000000000000000   10300002F00104100000000000000000000012160     
100   35710830742144370000000000005250000000005250002000000010410407220916389435806767130722195461538203   1030000900030000   581219000230190110000000129MinLan Restaurant(Maya YANGONONE     MMR11007220916389435800722000000000000000   10300003F00104100000000000000000000001785     
100   35710830434983270000000000089250000000089250002000000010410407221129249487406233750722236591724203   1030000900030000   591219000604190110000000444Shwe Ohh Pharmacy St-1 YANGON        MMR11007221129249487400722000000000000000   10300003F00104100000000000000000000026775     
100   95030510207756290000000000030000000000030000002000000010410407221132059488392OLMEM0722250021805203   1030000900030000   481219000043190110000000048Xiaomi Mobile Shop(Hle YANGONUT      MMR11007221132059488390722000000000000000   10300002F00104100000000000000000000009000     
100   95030201945622200000000000003000000000003000002000000010410407221339580958669356920722000003922457   1030000900030000   333400010001202104000002022ACS                    Yangon        MMR11007221339580958660722000000000000000   10200002F05104100000000000000000000001800     
100   62346600106313860000000000005000000000005000002000000010410407221243271327901535520722000003922343   1030000900030000   333400010001202104000002022ACS                    Yangon        MMR11007221243271327900722000000000000000   10300005F05104100000000000000000000003000     
100   95031010310890210000000000010000000000010000002000000010410407221546561656260515380722000003922737   1030000900030000   333400010001202104000002022ACS                    Yangon        MMR11007221546561656260722000000000000000   10300005F05104100000000000000000000006000     
100   35710830312062450000000000033120000000033120002000000010410407220758429405774320280722582281442203   1030000900030000   581219000423190110000000284BCC (SYS)              YANGON        MMR11007220758429405770722000000000000000   10300003F00104100000000000000000000011261     
100   62441900103662370000000000049000000000049000002000000010410407220807219409009089860722639371421203   1030000900030000   481219000767190110000000599Remax By Telegod(GMP)  YANGONUT      MMR11007220807219409000722000000000000000   10300003F00104100000000000000000000020580     
100   35710500174688910000000000125000000000125000002000000010410407221232559511924339200722761021955203   1030000900030000   594419000454190110000000307Shwe San Eain (Junctio YANGONN       MMR11007221232559511920722000000000000000   10300005F00104100000000000000000000037500     
100   35710830544269020000000000255550000000255550002000000010410407221342479535286721400722102122047203   1030000900030000   581219000206190110000000108Beauty in the Pot      YANGON        MMR11007221342479535280722000000000000000   10300003F00104100000000000000000000086887     
100   62346600180636240000000000003650000000003650002000000010410407221400409541170136610722194302040203   1030000900030000   591219000606190110000000446Shwe Ohh Pharmacy St-2 YANGON        MMR11007221400409541170722000000000000000   10300005F00104100000000000000000000001095     
100   35710500153812860000000000032500000000032500002000000010410407221134549489532063460722275041854203   1030000900030000   597719000530190110000000378Mon Cosmetic (1)       MANDALAYHARSA MMR11007221134549489530722000000000000000   10300005F00104100000000000000000000009750     
100   9503051890872449000000000003852600000003852600200000001041040722113725949048HZ892Q0722300071825203   1030000900030000   701119000076190110000000024Lotte Hotel            YANGON        MMR11007221137259490480722000000000000000   10300002F00104100000000000000000000013099     
100   35710830408639370000000000013500000000013500002000000010410407221138569491114024020722313081856203   1030000900030000   591219000503190110000000350Shwe Ohh Pharmacy (WZD YANGONNGKUUN  MMR11007221138569491110722000000000000000   10300003F00104100000000000000000000004050     
100   950319000279364600000000000186000000000186000020000000104104072212032895011229Z14F0722547331828203   1030000900030000   599919000199190110000000103119 Fashion (BuyMoreGe YANGON        MMR11007221203289501120722000000000000000   10300014F00104100000000000000000000005580     
100   35710500121025370000000000035300000000035300002000000010410407221203479501251945070722549331847203   1030000900030000   581219000205190110000000107Canton Paradise        YANGON        MMR11007221203479501250722000000000000000   10300005F00104100000000000000000000012002     
100   62343302000814000000000000005200000000005200002000000010410407221336500650340000000722000003922455   1030000900030000   333300010001202104000002659MSP                    Yangon        MMR11007221336500650340722000000000000000   10300004F05104100000000000000000000020000     
100   95030801400195500000000000100200000000100200002000000010410407220557182718414120000722000003920974   1030000900030000   333300010001202104000002659MSP                    Yangon        MMR11007220557182718410722000000000000000   10300003F05104100000000000000000000020000     
100   62441901001487920000000000144200000000144200002000000010410407220358212821716873360722000003920352   1030000900030000   333300010001202104000002659MSP                    Yangon        MMR11007220358212821710722000000000000000   10300003F05104100000000000000000000020000     
100   62441901001487920000000000130200000000130200002000000010410407220404513451538909260722000003920399   1030000900030000   333300010001202104000002659MSP                    Yangon        MMR11007220404513451530722000000000000000   10300003F05104100000000000000000000020000     
100   9503051894857834000000000001300000000001300000200000001041040722050009300916FSHO4Y0722000003920700   1030000900030000   333400010001202104000002022ACS                    Yangon        MMR11007220500093009160722000000000000000   10300002F05104100000000000000000000007800     
100   35710500131533150000000000065200000000065200002000000010410407220923085308677205620722000003921813   1030000900030000   333300010001202104000002717Near Me Android        Yangon        MMR11007220923085308670722000000000000000   10300005F05104100000000000000000000020000     
100   62346600199245430000000000013000000000013000002000000010410407221054142414062393910722000003922087   1030000900030000   333400010001202104000002022ACS                    Yangon        MMR11007221054142414060722000000000000000   10300005F05104100000000000000000000007800     
100   35710500158484170000000000730200000000730200002000000010410407220455012501899559750722000003920662   1030000900030000   333300010001202104000002659MSP                    Yangon        MMR11007220455012501890722000000000000000   10300005F05104100000000000000000000020000     
100   35710830026716740000000000010000000000010000002000000010410407221308093809094875060722000003922399   1030000900030000   333400010001202104000002022ACS                    Yangon        MMR11007221308093809090722000000000000000   10300003F05104100000000000000000000006000     
100   35710500330627930000000000035000000000035000002000000010410407220613184318326308910722000003921031   1030000900030000   333400010001202104000002022ACS                    Yangon        MMR11007220613184318320722000000000000000   10300005F05104100000000000000000000021000     
100   9503051895607261000000000002508000000002508000200000001041040722065910938270OVVDPQ0722078291310203   1030000900030000   581219000004190110000000002Yoogane Korea Rest;(MP YANGON        MMR11007220659109382700722000000000000000   10300002F00104100000000000000000000008527     
100   9503051893926747000000000000875000000000875000200000001041040722102256946087QMTXX80722645521656203   1030000900030000   541119000172190110000000085SeinGayHar (Dagon Cent YANGONUNG     MMR11007221022569460870722000000000000000   10300002F00104100000000000000000000001750     
100   62346600106619610000000000186850000000186850002000000010410407221023539461316417660722654531653203   1030000900030000   541119000286190110000000177Pro1 Global (Insein)   YANGON        MMR11007221023539461310722000000000000000   10300005F00104100000000000000000000037370     
100   35710500133927980000000000076000000000076000002000000010410407221024019461388325430722656541601203   1030000900030000   569119000737190110000000569Di Fashion(NorthDagon) YANGONMYOTHIT MMR11007221024019461380722000000000000000   10300005F00104100000000000000000000022800     
100   95031900014866710000000000050200000000050200002000000010410407212239050905862ER53F0722000003919832   1030000900030000   333300010001202104000002717Near Me Android        Yangon        MMR11007212239050905860722000000000000000   10300014F05104100000000000000000000020000     
100   950319000114748900000000000025000000000025000020000000104104072213522822286347U24F0722000003922486   1030000900030000   333400010001202104000002022ACS                    Yangon        MMR11007221352282228630722000000000000000   10300014F05104100000000000000000000001500     
100   35710500162944050000000000035000000000035000002000000010410407221605223522722475920722000003922759   1030000900030000   333400010001202104000002022ACS                    Yangon        MMR11007221605223522720722000000000000000   10300005F05104100000000000000000000021000     
100   950319000320936000000000000502000000000502000020000000104104072210135043502678Z04F0722000003921987   1030000900030000   333300010001202104000002717Near Me Android        Yangon        MMR11007221013504350260722000000000000000   10300014F05104100000000000000000000020000     
100   95031010041472440000000000020000000000020000002000000010410407221312134213680493960722000003922405   1030000900030000   333400010001202104000002022ACS                    Yangon        MMR11007221312134213680722000000000000000   10300005F05104100000000000000000000012000     
100   35710830927614500000000000005000000000005000002000000010410407220245159287425597070722057150915203   1030000900030000   554119000345190110000000212New Day Energy - 2     YANGONAUNG    MMR11007220245159287420722000000000000000   10300003F00104100000000000000000000000750     
100   95031900011308400000000000000500000000000500002000000010410407220251089289465NY63F0722101210908203   1030000900030000   541119000114190110000000078Sein Gay Har Kan Thar  YANGONOKKALAP MMR11007220251089289460722000000000000000   10300014F00104100000000000000000000000100     
100   35710500197575800000000000055400000000055400002000000010410407220256109291050158990722124260910203   1030000900030000   541119000374190110000000178Pro (1) Global (East D YANGONMYOTHIT MMR11007220256109291050722000000000000000   10300005F00104100000000000000000000011080     
100   9503051890502657000000000003450000000003450000200000001041040722061829936616EANZCQ0722676481229203   1030000900030000   599919000200190110000000104119 Fashion (Thingangy YANGONNGKUUN  MMR11007220618299366160722000000000000000   10300002F00104100000000000000000000010350     
100   62346600159976180000000000200900000000200900002000000010410407220831589418273620140722821011558203   1030000900030000   541119000163190110000000084Pro (1) Global (Pazund YANGONARTAUNG MMR11007220831589418270722000000000000000   10300005F00104100000000000000000000040180     
100   95030518879489620000000000369450000000369450002000000010410407220833079418761FZSMJ0722831031507203   1030000900030000   541119000374190110000000178Pro (1) Global (East D YANGONMYOTHIT MMR11007220833079418760722000000000000000   10300002F00104100000000000000000000073890     
100   62443001760020270000000000103400000000103400002000000010410407220837059420010073670722850071505203   1030000900030000   541119000375190110000000178Pro (1) Global (East D YANGONMYOTHIT MMR11007220837059420010722000000000000000   10300005F00104100000000000000000000036190     
100   35710500155411110000000000029800000000029800002000000010410407220845429423641067250722935151542203   1030000900030000   541119000163190110000000084Pro (1) Global (Pazund YANGONARTAUNG MMR11007220845429423640722000000000000000   10300005F00104100000000000000000000005960     
100   95031900047750700000000000635500000000635500002000000010410407221058189474924CA14F0722956281718203   1030000900030000   594419000454190110000000307Shwe San Eain (Junctio YANGONN       MMR11007221058189474920722000000000000000   10300014F00104100000000000000000000190650     
100   35710950514069430000000000038800000000038800002000000010410407221059039475274856790722963291703203   1030000900030000   541119000159190110000000084Pro (1) Global (Pazund YANGONIKANAUN MMR11007221059039475270722000000000000000   10300003F00104100000000000000000000007760     
100   35710500180968570000000000079200000000079200002000000010410407221109029479070179840722032391702203   1030000900030000   541119000283190110000000177Pro1 Global (Insein)   YANGON        MMR11007221109029479070722000000000000000   10300005F00104100000000000000000000015840     
100   950319000476870300000000001269500000001269500020000000104104072210242894615190114F0722663541628203   1030000900030000   541119000079190110000000057Pro (1) Global (Tampaw MANDALAYHARSI MMR11007221024289461510722000000000000000   10300014F00104100000000000000000000025390     
100   35710500341320660000000000024500000000024500002000000010410407220413439318137259540722607431043203   1030000900030000   591219000601190110000000441Shwe Ohh Pharmacy St-3 YANGON        MMR11007220413439318130722000000000000000   10300005F00104100000000000000000000007350     
100   35710830824935850000000000003100000000003100002000000010410407220413559318264221540722610431055203   1030000900030000   541119000168190110000000085SeinGayHar (Dagon Cent YANGONUNG     MMR11007220413559318260722000000000000000   10300003F00104100000000000000000000000620     
100   35710500192947820000000000059000000000059000002000000010410407220422259321383327960722670521025203   1030000900030000   481219000710190110000000541I Sure Technology Co., YANGONAUNG    MMR11007220422259321380722000000000000000   10300005F00104100000000000000000000017700     
100   9503051880547738000000000078395000000078395000200000001041040722042421932208CGYSBP0722680541021203   1030000900030000   541119000374190110000000178Pro (1) Global (East D YANGONMYOTHIT MMR11007220424219322080722000000000000000   10300002F00104100000000000000000000156790     
100   9503051883950384000000000002160000000002160000200000001041040722042653932310UNFWWH0722705561053203   1030000900030000   591219000503190110000000350Shwe Ohh Pharmacy (WZD YANGONNGKUUN  MMR11007220426539323100722000000000000000   10300002F00104100000000000000000000006480     
100   35710500172363480000000000019550000000019550002000000010410407221329369530808648600722036591936203   1030000900030000   581219000205190110000000107Canton Paradise        YANGON        MMR11007221329369530800722000000000000000   10300005F00104100000000000000000000006647     
100   62346600145489090000000000006500000000006500002000000010410407221337539533872181290722093072053203   1030000900030000   541119000380190110000000248Victoria Hyper Mart    YANGON        MMR11007221337539533870722000000000000000   10300005F00104100000000000000000000001300     
100   35710500360961030000000000010000000000010000002000000010410407220257589291774350580722140270958203   1030000900030000   591219000501190110000000348Shwe Ohh Pharmacy (SmL YANGONUT      MMR11007220257589291770722000000000000000   10300005F00104100000000000000000000003000     
100   35650973653876500000000000051925000000051925002000000010410407220700439383351005590722091301343203   1030000900030000   701119000074190110000000024Lotte Hotel            YANGON        MMR11007220700439383350722000000000000000   10300005F00104100000000000000000000030895     
100   62921400030808580000000000035000000000035000002000000010410407220228025802753333330722000003920018   1030000900030000   333400010001202104000002022ACS                    Yangon        MMR11007220228025802750722000000000000000   10300009F05104100000000000000000000021000     
100   35710830391968020000000000006800000000006800002000000010410407220427419323434222560722714571041203   1030000900030000   581219000033190110000000041GloriaJeansCoffee      YANGON        MMR11007220427419323430722000000000000000   10300003F00104100000000000000000000002312     
100   9503051888193196000000000019470000000019470000200000001041040722123856951388Y1RMVM0722784081956203   1030000900030000   581219000205190110000000107Canton Paradise        YANGON        MMR11007221238569513880722000000000000000   10300002F00104100000000000000000000066198     
100   9503051872610205000000000002130000000002130000200000001041040722123951951423CUAPIG0722788091951203   1030000900030000   599919000200190110000000104119 Fashion (Thingangy YANGONNGKUUN  MMR11007221239519514230722000000000000000   10300002F00104100000000000000000000006390     
100   35710830663129910000000000043585000000043585002000000010410407221240149514386132210722793101914203   1030000900030000   581319000651190110000000482Piano Bar              YANGONONE     MMR11007221240149514380722000000000000000   10300003F00104100000000000000000000014819     
100   35710830553312670000000000004700000000004700002000000010410407221241559514942211310722800111955203   1030000900030000   541119000170190110000000085SeinGayHar (Dagon Cent YANGONUNG     MMR11007221241559514940722000000000000000   10300003F00104100000000000000000000000940     
100   95031900021740370000000000099200000000099200002000000010410407221607489578311WC34F0722463372248203   1030000900030000   581319000586190110000000426K2 KTV                 YANGONMYOTHIT MMR11007221607489578310722000000000000000   10300014F00104100000000000000000000033728     
100   95031011040358770000000000210200000000210200002000000010410407220232410241780218670722000003920034   1030000900030000   333300010001202104000002659MSP                    Yangon        MMR11007220232410241780722000000000000000   10300005F05104100000000000000000000020000     
100   35710830465389880000000000003000000000003000002000000010410407221453382338853024910722000003922613   1030000900030000   333400010001202104000002022ACS                    Yangon        MMR11007221453382338850722000000000000000   10300003F05104100000000000000000000001800     
100   62343301002693030000000000005000000000005000002000000010410407220805553555520000000722000003921532   1030000900030000   333400010001202104000002022ACS                    Yangon        MMR11007220805553555520722000000000000000   10300004F05104100000000000000000000003000     
100   9503051872517772000000000000300000000000300000200000001041040722031144414491NC7ESM0722000003920141   1030000900030000   333400010001202104000002022ACS                    Yangon        MMR11007220311444144910722000000000000000   10300002F05104100000000000000000000001800     
100   62921400058103930000000000035000000000035000002000000010410407221111364136233333330722000003922117   1030000900030000   333400010001202104000002022ACS                    Yangon        MMR11007221111364136230722000000000000000   10300009F05104100000000000000000000021000     
100   35710500162944050000000000005000000000005000002000000010410407221611384138743376330722000003922772   1030000900030000   333400010001202104000002022ACS                    Yangon        MMR11007221611384138740722000000000000000   10300005F05104100000000000000000000003000     
100   62921400071573220000000000071000000000071000002000000010410407220417374737763333330722000003920445   1030000900030000   333300010001202104000000109Myanmar National Airli Yangon        MMR11007220417374737760722000000000000000   10300009F05104100000000000000000000020000     
100   62343301000004190000000000020000000000020000002000000010410407211638520852350000000722000003919739   1030000900030000   333400010001202104000002022ACS                    Yangon        MMR11007211638520852350722000000000000000   10300004F05104100000000000000000000012000     
100   95031900015122030000000000300200000000300200002000000010410407220242451245526TX63F0722000003920059   1030000900030000   333300010001202104000002717Near Me Android        Yangon        MMR11007220242451245520722000000000000000   10300014F05104100000000000000000000020000     
100   62346600190619240000000000010950000000010950002000000010410407221345459536183499100722115152045203   1030000900030000   591219000502190110000000349Shwe Ohh Pharmacy -4   YANGON        MMR11007221345459536180722000000000000000   10300005F00104100000000000000000000003285     
100   95030518727216550000000000040000000000040000002000000010410407221318069527057RSQCJ0722973481906203   1030000900030000   591219000506190110000000353Shwe Ohh Pharmacy -8   YANGON        MMR11007221318069527050722000000000000000   10300002F00104100000000000000000000012000     
100   35710500124447720000000000055150000000055150002000000010410407220943509446228448540722390131650203   1030000900030000   581219000206190110000000108Beauty in the Pot      YANGON        MMR11007220943509446220722000000000000000   10300005F00104100000000000000000000018751     
100   35710830218156740000000000002600000000002600002000000010410407221047349470886899930722874171734203   1030000900030000   591219000506190110000000353Shwe Ohh Pharmacy -8   YANGON        MMR11007221047349470880722000000000000000   10300003F00104100000000000000000000000780     
100   95030518858529190000000000178600000000178600002000000010410407221055299473924R9QOV0722938251729203   1030000900030000   591219000601190110000000441Shwe Ohh Pharmacy St-3 YANGON        MMR11007221055299473920722000000000000000   10300002F00104100000000000000000000053580     
100   35710830683095400000000000007038000000007038002000000010410407221220039507124029750722663501803203   1030000900030000   541119000172190110000000085SeinGayHar (Dagon Cent YANGONUNG     MMR11007221220039507120722000000000000000   10300003F00104100000000000000000000001408     
100   35710830158947350000000000066100000000066100002000000010410407221145199493524550190722363151819203   1030000900030000   591219000504190110000000351Shwe Ohh Pharmacy -6   YANGONAW      MMR11007221145199493520722000000000000000   10300003F00104100000000000000000000019830     
100   9503051886654363000000000000200000000000200000200000001041040722114618949394GLRCKW0722376161818203   1030000900030000   729819000594190110000000434Glamour Beauty & Spa(T YANGONUT      MMR11007221146189493940722000000000000000   10300002F00104100000000000000000000000600     
100   35710500175367130000000000036100000000036100002000000010410407221055412541539734050722000003922091   1030000900030000   333300010001202104000002659MSP                    Yangon        MMR11007221055412541530722000000000000000   10300005F05104100000000000000000000020000     
100   9503051894891684000000000001000000000001000000200000001041040722075504250494VVSTLR0722000003921463   1030000900030000   333400010001202104000002022ACS                    Yangon        MMR11007220755042504940722000000000000000   10300002F05104100000000000000000000006000     
100   9503051883333334000000000018875000000018875000200000001041040722070533938544TRFT9R0722134351333203   1030000900030000   541119000375190110000000178Pro (1) Global (East D YANGONMYOTHIT MMR11007220705339385440722000000000000000   10300002F00104100000000000000000000037750     
100   62346600177865550000000000100000000000100000002000000010410407221045499470210044500722861151749203   1030000900030000   573219000403190110000000267NibbanElectronic(North YANGONOKKALAP MMR11007221045499470210722000000000000000   10300005F00104100000000000000000000030000     
100   9503051888117005000000000000792000000000792000200000001041040722104627947041OJJXWB0722865161727203   1030000900030000   581219000371190110000000243Jo Jo Hot Pot (Junctio YANGONN       MMR11007221046279470410722000000000000000   10300002F00104100000000000000000000002693     
100   35710500160592790000000000013000000000013000002000000010410407220227185718200760380722000003920021   1030000900030000   333400010001202104000002022ACS                    Yangon        MMR11007220227185718200722000000000000000   10300005F05104100000000000000000000007800     
100   95031900024249520000000000018500000000018500002000000010410407220623309367781TX83F0722701531230203   1030000900030000   591219000506190110000000353Shwe Ohh Pharmacy -8   YANGON        MMR11007220623309367780722000000000000000   10300014F00104100000000000000000000005550     
100   35710830814768540000000000056350000000056350002000000010410407220625169368746966350722729551216203   1030000900030000   541119000283190110000000177Pro1 Global (Insein)   YANGON        MMR11007220625169368740722000000000000000   10300003F00104100000000000000000000011270     
100   35710830455208700000000000000600000000000600002000000010410407220628149370063737200722776581214203   1030000900030000   541119000168190110000000085SeinGayHar (Dagon Cent YANGONUNG     MMR11007220628149370060722000000000000000   10300003F00104100000000000000000000000120     
100   35710500135435980000000000505000000000505000002000000010410407220629219370547940770722792591221203   1030000900030000   541119000375190110000000178Pro (1) Global (East D YANGONMYOTHIT MMR11007220629219370540722000000000000000   10300005F00104100000000000000000000101000     
100   35710830986970700000000000025800000000025800002000000010410407220951009448906698510722428211600203   1030000900030000   541119000161190110000000084Pro (1) Global (Pazund YANGONARTAUNG MMR11007220951009448900722000000000000000   10300003F00104100000000000000000000005160     
100   950319000083076200000000000024000000000024000020000000104104072209560594508025U04F0722471261605203   1030000900030000   541119000168190110000000085SeinGayHar (Dagon Cent YANGONUNG     MMR11007220956059450800722000000000000000   10300014F00104100000000000000000000000480     
100   95030800057960290000000000089200000000089200002000000010410407220956139450873984960722473261613203   1030000900030000   581219000368190110000000241Beauty In The Pot (PHS YANGON        MMR11007220956139450870722000000000000000   10300003F00104100000000000000000000030328     
100   35710500145443890000000001450000000001450000002000000010410407220343129307658723780722419131012203   1030000900030000   541119000160190110000000084Pro (1) Global (Pazund YANGONARTAUNG MMR11007220343129307650722000000000000000   10300005F00104100000000000000000000290000     
100   35710830252969390000000000014650000000014650002000000010410407220548249353829730200722351181224203   1030000900030000   541119000120190110000000080Sein Gay Har BAK       YANGONADA     MMR11007220548249353820722000000000000000   10300003F00104100000000000000000000002930     
100   62441900102145930000000000050200000000050200002000000010410407221217234723028972570722000003922279   1030000900030000   333300010001202104000002717Near Me Android        Yangon        MMR11007221217234723020722000000000000000   10300003F05104100000000000000000000020000     
100   62346600122739550000000000041876000000041876002000000010410407221326409529917562420722025561940203   1030000900030000   701119000076190110000000024Lotte Hotel            YANGON        MMR11007221326409529910722000000000000000   10300005F00104100000000000000000000014238     
100   95031900012592760000000000100200000000100200002000000010410407220718104810221ZC93F0722000003921331   1030000900030000   333300010001202104000002717Near Me Android        Yangon        MMR11007220718104810220722000000000000000   10300014F05104100000000000000000000020000     
100   62444501100150470000000000749000000000749000002000000010410407220450159331841783720722888201115203   1030000900030000   481219000710190110000000541I Sure Technology Co., YANGONAUNG    MMR11007220450159331840722000000000000000   10300002F00104100000000000000000000314580     
100   35710830238439060000000000091000000000091000002000000010410407220451519332415605570722896211151203   1030000900030000   701119000428190110000000288Hlaine Tet Hotel       YANGONONE     MMR11007220451519332410722000000000000000   10300003F00104100000000000000000000030940     
100   9503051893940581000000000004030000000004030000200000001041040722045822933509HZ6X750722956281122203   1030000900030000   591219000610190110000000450Shwe Ohh Pharmacy St-1 YANGONUNG     MMR11007220458229335090722000000000000000   10300002F00104100000000000000000000012090     
100   95030800015692970000000000050000000000050000002000000010410407220501039336005499930722976311103203   1030000900030000   591219000503190110000000350Shwe Ohh Pharmacy (WZD YANGONNGKUUN  MMR11007220501039336000722000000000000000   10300003F00104100000000000000000000015000     
100   9503051020881336000000000003528000000003528000200000001041040722081239941086S8YRZQ0722665421439203   1030000900030000   581219000231190110000000130MinLan Restaurant(SanC YANGONUNG     MMR11007220812399410860722000000000000000   10300002F00104100000000000000000000011995     
100   9503051888837297000000000095965000000095965000200000001041040722081600941223AOXMDM0722692461400203   1030000900030000   541119000282190110000000177Pro1 Global (Insein)   YANGON        MMR11007220816009412230722000000000000000   10300002F00104100000000000000000000191930     
100   35710500390994190000000000076450000000076450002000000010410407221402009541682299680722203322000203   1030000900030000   591219000759190110000000591Shwe Ohh Pharmacy ST-3 YANGONOKKALAP MMR11007221402009541680722000000000000000   10300005F00104100000000000000000000022935     
100   9503051019964226000000000003730000000003730000200000001041040722140344954223COYACD0722211332044203   1030000900030000   581219000205190110000000107Canton Paradise        YANGON        MMR11007221403449542230722000000000000000   10300002F00104100000000000000000000012682     
100   35710830172521970000000000502200000000502200002000000010410407220349389309773995920722451191038203   1030000900030000   599919000388190110000000251Pro (1) Global (MawlaM AYEYARWADDYGY MMR11007220349389309770722000000000000000   10300003F00104100000000000000000000150660     
100   35710500390259430000000000052100000000052100002000000010410407220350329310011459190722458201032203   1030000900030000   806219000356190110000000225Victoria Hospital      YANGONONE     MMR11007220350329310010722000000000000000   10300005F00104100000000000000000000015630     
100   35710830147048850000000000003000000000003000002000000010410407221314169525665570860722952441916203   1030000900030000   594319000084190110000000059Innwa Books            YANGONUT      MMR11007221314169525660722000000000000000   10300003F00104100000000000000000000000900     
100   35710830345747300000000000014200000000014200002000000010410407221314189525674875640722953441918203   1030000900030000   541119000170190110000000085SeinGayHar (Dagon Cent YANGONUNG     MMR11007221314189525670722000000000000000   10300003F00104100000000000000000000002840     
100   62443001703004760000000000009765000000009765002000000010410407221203589501338469910722552331858203   1030000900030000   581219000232190110000000131MinLanRestaurant(South YANGONOKKALAP MMR11007221203589501330722000000000000000   10300005F00104100000000000000000000005810     
100   62346600156005500000000000168000000000168000002000000010410407221204529501659356520722561341852203   1030000900030000   594419000454190110000000307Shwe San Eain (Junctio YANGONN       MMR11007221204529501650722000000000000000   10300005F00104100000000000000000000050400     
100   95030518826153190000000000210000000000210000002000000010410407221207329502511WCEDW0722571371832203   1030000900030000   592119000256190110000000151Htun Htun Oo Liquor (B YANGON        MMR11007221207329502510722000000000000000   10300002F00104100000000000000000000063000     
100   9503051878028311000000000200020000000200020000200000001041040722003435043588QSMUQA0722000003919872   1030000900030000   333300010001202104000002717Near Me Android        Yangon        MMR11007220034350435880722000000000000000   10300002F05104100000000000000000000020000     
100   35710500144154570000000000069000000000069000002000000010410407221404309542441668350722216342030203   1030000900030000   581219000206190110000000108Beauty in the Pot      YANGON        MMR11007221404309542440722000000000000000   10300005F00104100000000000000000000023460     
100   35710830520461160000000000034100000000034100002000000010410407221420159547707740300722298502015203   1030000900030000   581219000231190110000000130MinLan Restaurant(SanC YANGONUNG     MMR11007221420159547700722000000000000000   10300003F00104100000000000000000000011594     
100   35710830124307230000000001000200000001000200002000000010410407221450142014413004510722000003922604   1030000900030000   333300010001202104000002717Near Me Android        Yangon        MMR11007221450142014410722000000000000000   10300003F05104100000000000000000000020000     
100   35710830492062370000000000012000000000012000002000000010410407220608419362159851910722574381241203   1030000900030000   729819000768190110000000600Urban Beauty Studio    YANGON        MMR11007220608419362150722000000000000000   10300003F00104100000000000000000000003600     
100   95030800073510470000000000883500000000883500002000000010410407220613459364074929000722618431245203   1030000900030000   594419000705190110000000536Zwe Htet Gems & Jewell YANGON        MMR11007220613459364070722000000000000000   10300003F00104100000000000000000000265050     
100   9503051887309678000000000004240000000004240000200000001041040722061442936456KIGT5U0722629441242203   1030000900030000   569919000555190110000000402D & C Myanmar (MP)     YANGON        MMR11007220614429364560722000000000000000   10300002F00104100000000000000000000012720     
100   35710830924557800000000000038400000000038400002000000010410407220259139292318715010722151290913203   1030000900030000   541119000283190110000000177Pro1 Global (Insein)   YANGON        MMR11007220259139292310722000000000000000   10300003F00104100000000000000000000007680     
100   9503051882580240000000000000090000000000090000200000001041040722030010929264LAG6NY0722161300910203   1030000900030000   581219000481190110000000334Shwepalin (TLKK)       YANGONIN      MMR11007220300109292640722000000000000000   10300002F00104100000000000000000000000306     
100   9503051889343030000000000004000000000004000000200000001041040722114121112127UFI2QI0722000003922218   1030000900030000   333800010001202104000003301uab bank               Yangon        MMR11007221141211121270722000000000000000   10300002F05104100000000000000000000024000     
100   95051010109333200000000000005000000000005000002000000010410407221041301130845257240722000003922057   1030000900030000   333400010001202104000002022ACS                    Yangon        MMR11007221041301130840722000000000000000   10300005F05104100000000000000000000003000     
100   62443000103140670000000000010200000000010200002000000010410407220258252825725130230722000003920104   1030000900030000   333300010001202104000002717Near Me Android        Yangon        MMR11007220258252825720722000000000000000   10300005F05104100000000000000000000020000     
100   95030800053295240000000000026900000000026900002000000010410407220956409450993985220722475261640203   1030000900030000   541119000381190110000000248Victoria Hyper Mart    YANGON        MMR11007220956409450990722000000000000000   10300003F00104100000000000000000000005380     
100   9503051895393169000000000001990000000001990000200000001041040722095946945212UHMRV50722485291646203   1030000900030000   599919000638190110000000469MIEVIC Store           YANGONUT      MMR11007220959469452120722000000000000000   10300002F00104100000000000000000000005970     
100   35710500145492300000000000041297000000041297002000000010410407220726369393060627190722274561336203   1030000900030000   581219000422190110000000283BCC (YIH)              YANGON        MMR11007220726369393060722000000000000000   10300005F00104100000000000000000000014041     
100   62346600187077740000000000019580000000019580002000000010410407220727329393404868210722282571332203   1030000900030000   581219000004190110000000002Yoogane Korea Rest;(MP YANGON        MMR11007220727329393400722000000000000000   10300005F00104100000000000000000000006657     
100   62346600128627320000000000156870000000156870002000000010410407220733339395646654240722324031433203   1030000900030000   581219000232190110000000131MinLanRestaurant(South YANGONOKKALAP MMR11007220733339395640722000000000000000   10300005F00104100000000000000000000053336     
100   950319000490245000000000001649000000001649000020000000104104072203114492966669373F0722224410944203   1030000900030000   541119000283190110000000177Pro1 Global (Insein)   YANGON        MMR11007220311449296660722000000000000000   10300014F00104100000000000000000000032980     
100   35710500301462760000000000011385000000011385002000000010410407220816449412443483240722699461444203   1030000900030000   581219000422190110000000283BCC (YIH)              YANGON        MMR11007220816449412440722000000000000000   10300005F00104100000000000000000000003871     
100   62444500100219700000000000015600000000015600002000000010410407220818029413052450680722717481402203   1030000900030000   591219000502190110000000349Shwe Ohh Pharmacy -4   YANGON        MMR11007220818029413050722000000000000000   10300002F00104100000000000000000000006552     
100   9503051882693415000000000008400000000008400000200000001041040722081950941388HMB7UR0722728491450203   1030000900030000   599919000814190110000000643Susen Bag Collection(J YANGONUT      MMR11007220819509413880722000000000000000   10300002F00104100000000000000000000025200     
100   35710830098346220000000000015000000000015000002000000010410407221249449517424715510722831191944203   1030000900030000   569119000350190110000000217Bench (Myanmar Plaza)  YANGON        MMR11007221249449517420722000000000000000   10300003F00104100000000000000000000004500     
100   35710500112531330000000000081400000000081400002000000010410407221422529548469654800722309522052203   1030000900030000   581319000430190110000000554The Glass Bar          YANGONONE     MMR11007221422529548460722000000000000000   10300005F00104100000000000000000000027676     
100   35710830076907030000000000034920000000034920002000000010410407221424259548924573080722315542025203   1030000900030000   581219000032190110000000040Hot Pot King Time City YANGONUT      MMR11007221424259548920722000000000000000   10300003F00104100000000000000000000011873     
100   95051812274912960000000000015400000000015400002000000010410407221146579494246115370722385161857203   1030000900030000   541119000144190110000000083SeinGayHarParami Cente YANGON        MMR11007221146579494240722000000000000000   10300013F00104100000000000000000000005390     
100   62622000437751350000000000129000000000129000002000000010410407220736469396778936730722341061446203   1030000900030000   481219000710190110000000541I Sure Technology Co., YANGONAUNG    MMR11007220736469396770722000000000000000   10300006F00104100000000000000000000038700     
100   950319000471634800000000002655500000002655500020000000104104072207371493969690M93F0722345071414203   1030000900030000   541119000160190110000000084Pro (1) Global (Pazund YANGONARTAUNG MMR11007220737149396960722000000000000000   10300014F00104100000000000000000000053110     
100   9503051896785678000000000011000000000011000000200000001041040722053559934887V24GWX0722230051259203   1030000900030000   729819000768190110000000600Urban Beauty Studio    YANGON        MMR11007220535599348870722000000000000000   10300002F00104100000000000000000000033000     
100   62622000302135120000000000038700000000038700002000000010410407220542389351608946550722305121238203   1030000900030000   573219000378190110000000246Infinity BusinessPanas YANGON        MMR11007220542389351600722000000000000000   10300006F00104100000000000000000000011610     
100   35710830496836740000000000048000000000048000002000000010410407220547379353534117840722341171237203   1030000900030000   541119000163190110000000084Pro (1) Global (Pazund YANGONARTAUNG MMR11007220547379353530722000000000000000   10300003F00104100000000000000000000009600     
100   95031900044824120000000000002350000000002350002000000010410407220551529355538XK83F0722405211252203   1030000900030000   591219000499190110000000346Shwe Ohh Pharmacy -1   YANGON        MMR11007220551529355530722000000000000000   10300014F00104100000000000000000000000705     
100   9503051890560036000000000003000000000003000000200000001041040722055215935571U6YVZG0722413221215203   1030000900030000   599919000648190110000000479Ximi Voque Store       YANGONUT      MMR11007220552159355710722000000000000000   10300002F00104100000000000000000000009000     
100   35710830185007500000000000036800000000036800002000000010410407221315309526123569910722961451930203   1030000900030000   569919000580190110000000420D & C Myanmar (JC)     YANGONUT      MMR11007221315309526120722000000000000000   10300003F00104100000000000000000000011040     
100   35710500391637360000000000027352000000027352002000000010410407221153259497015653650722449231825203   1030000900030000   581219000280190110000000175Min Lan Restaurant (Ka YANGONARTAUNG MMR11007221153259497010722000000000000000   10300005F00104100000000000000000000009300     
100   35710500161145460000000000000550000000000550002000000010410407221154479497559930330722464241847203   1030000900030000   541119000138190110000000083SeinGayHarParami Cente YANGON        MMR11007221154479497550722000000000000000   10300005F00104100000000000000000000000110     
100   62443000803628480000000000007000000000007000002000000010410407221340511051422648140722000003922462   1030000900030000   333400010001202104000002022ACS                    Yangon        MMR11007221340511051420722000000000000000   10300005F05104100000000000000000000004200     
100   62346600190550330000000000003000000000003000002000000010410407211653122312702793850722000003919755   1030000900030000   333400010001202104000002022ACS                    Yangon        MMR11007211653122312700722000000000000000   10300005F05104100000000000000000000001800     
100   9503051877329546000000000000300000000000300000200000001041040722151413441343VMVJAI0722000003922666   1030000900030000   333400010001202104000002022ACS                    Yangon        MMR11007221514134413430722000000000000000   10300002F05104100000000000000000000001800     
100   35710830456564270000000000048400000000048400002000000010410407220923009438223934580722239531500203   1030000900030000   569919000580190110000000420D & C Myanmar (JC)     YANGONUT      MMR11007220923009438220722000000000000000   10300003F00104100000000000000000000014520     
100   35710500391170210000000000022900000000022900002000000010410407220923509438609149040722246531550203   1030000900030000   594319000754190110000000586Sarpaylawka            YANGONUT      MMR11007220923509438600722000000000000000   10300005F00104100000000000000000000006870     
100   9503051894791934000000000010000000000010000000200000001041040722092435943888X7GIL20722250541535203   1030000900030000   481419000108190110000000045Amara Communications   YANGON        MMR11007220924359438880722000000000000000   10300002F00104100000000000000000000030000     
100   35710830829013970000000000022530000000022530002000000010410407221316339526523570120722967461933203   1030000900030000   541119000170190110000000085SeinGayHar (Dagon Cent YANGONUNG     MMR11007221316339526520722000000000000000   10300003F00104100000000000000000000004506     
100   9503051896443757000000000002500000000002500000200000001041040722131824952710VU0GEM0722974481924203   1030000900030000   729819000390190110000000253The Glam Bar Beauty SP YANGONUNG     MMR11007221318249527100722000000000000000   10300002F00104100000000000000000000007500     
100   95050310599777990000000000009000000000009000002000000010410407221109379479278427270722038391737203   1030000900030000   541119000112190110000000077Sein Gay Har Chinatown YANGON        MMR11007221109379479270722000000000000000   10300001F00104100000000000000000000003150     
100   950319000182010100000000001258500000001258500020000000104104072211120794803773F14F0722075421707203   1030000900030000   591219000502190110000000349Shwe Ohh Pharmacy -4   YANGON        MMR11007221112079480370722000000000000000   10300014F00104100000000000000000000037755     
100   35710830755578180000000000047745000000047745002000000010410407221115029481534020960722097451702203   1030000900030000   541119000166190110000000085SeinGayHar (Dagon Cent YANGONUNG     MMR11007221115029481530722000000000000000   10300003F00104100000000000000000000009549     
100   9503051880497611000000000033000000000033000000200000001041040722121304950465PA0G4H0722622431804203   1030000900030000   481219000710190110000000541I Sure Technology Co., YANGONAUNG    MMR11007221213049504650722000000000000000   10300002F00104100000000000000000000099000     
100   35710830181509780000000000600000000000600000002000000010410407221218229506454554550722649481822203   1030000900030000   481219000030190110000000029I Sure Technology CoLt YANGONUT      MMR11007221218229506450722000000000000000   10300003F00104100000000000000000000180000     
100   9503051873857128000000000003500000000003500000200000001041040722123055005527AQQHID0722000003922315   1030000900030000   333400010001202104000002022ACS                    Yangon        MMR11007221230550055270722000000000000000   10300002F05104100000000000000000000021000     
100   9503051882582618000000000003400000000003400000200000001041040722092837944030ASLXUM0722278581537203   1030000900030000   541119000286190110000000177Pro1 Global (Insein)   YANGON        MMR11007220928379440300722000000000000000   10300002F00104100000000000000000000006800     
100   35710500190304830000000000028860000000028860002000000010410407220929589440885000960722287591558203   1030000900030000   541119000138190110000000083SeinGayHarParami Cente YANGON        MMR11007220929589440880722000000000000000   10300005F00104100000000000000000000005772     
100   95031900049024500000000000171200000000171200002000000010410407220312399296945H373F0722227420939203   1030000900030000   541119000283190110000000177Pro1 Global (Insein)   YANGON        MMR11007220312399296940722000000000000000   10300014F00104100000000000000000000034240     
100   9503051020413353000000000000670000000000670000200000001041040722031410929757NBX8OQ0722241440910203   1030000900030000   541119000380190110000000248Victoria Hyper Mart    YANGON        MMR11007220314109297570722000000000000000   10300002F00104100000000000000000000001340     
100   35710500131992500000000000027636000000027636002000000010410407220706169385672905290722139361316203   1030000900030000   581219000371190110000000243Jo Jo Hot Pot (Junctio YANGONN       MMR11007220706169385670722000000000000000   10300005F00104100000000000000000000009396     
100   35710500162746620000000000015000000000015000002000000010410407220707279386023841350722144371327203   1030000900030000   563119000646190110000000477Monster Fashion Access YANGONUT      MMR11007220707279386020722000000000000000   10300005F00104100000000000000000000004500     
100   35710830589454850000000000044400000000044400002000000010410407220708329386445847700722155381332203   1030000900030000   541119000617190110000000452Pro(1) Global-Hlaing T YANGONTHARYA  MMR11007220708329386440722000000000000000   10300003F00104100000000000000000000008880     
100   35710830874553240000000000036350000000036350002000000010410407220709269386884129150722167391326203   1030000900030000   591219000500190110000000347Shwe Ohh Pharmacy -2   YANGONUNG     MMR11007220709269386880722000000000000000   10300003F00104100000000000000000000010905     
100   62343301002693030000000000010000000000010000002000000010410407220803583358270000000722000003921510   1030000900030000   333400010001202104000002022ACS                    Yangon        MMR11007220803583358270722000000000000000   10300004F05104100000000000000000000006000     
100   95031010041472440000000000020000000000020000002000000010410407221323245324930497260722000003922431   1030000900030000   333400010001202104000002022ACS                    Yangon        MMR11007221323245324930722000000000000000   10300005F05104100000000000000000000012000     
100   35710500123268390000000000856450000000856450002000000010410407220630559371224600150722813001355203   1030000900030000   541119000284190110000000177Pro1 Global (Insein)   YANGON        MMR11007220630559371220722000000000000000   10300005F00104100000000000000000000171290     
100   35710830282987670000000000001200000000001200002000000010410407220854349427196423550722017241534203   1030000900030000   541119000172190110000000085SeinGayHar (Dagon Cent YANGONUNG     MMR11007220854349427190722000000000000000   10300003F00104100000000000000000000000240     
100   9503051893393898000000000300000000000300000000200000001041040722085523942747ZUDWW90722025251523203   1030000900030000   806219000358190110000000225Victoria Hospital      YANGONONE     MMR11007220855239427470722000000000000000   10300002F00104100000000000000000000900000     
100   35710950958688500000000001949848000001949848002000000010410407220856569427994862800722035261556203   1030000900030000   806219000358190110000000225Victoria Hospital      YANGONONE     MMR11007220856569427990722000000000000000   10300003F00104100000000000000000000584954     
100   35710830197955080000000000042400000000042400002000000010410407220857469428413930390722043271546203   1030000900030000   569919000555190110000000402D & C Myanmar (MP)     YANGON        MMR11007220857469428410722000000000000000   10300003F00104100000000000000000000012720     
100   9503051884810900000000000020100000000020100000200000001041040722111715948258LWEFUX0722130471715203   1030000900030000   541119000300190110000000184Super One Shopping Mal YANGONTHARYA  MMR11007221117159482580722000000000000000   10300002F00104100000000000000000000040200     
001000000342                   106000620200723