000   10300009200803
100   95031900025399810000000000050200000000050200002000000010410408031234590459829HX2EF0803000003952265   1030000900030000   333300010001202104000002717Near Me Android        Yangon        MMR11008031234590459820803000000000000000   10300014F05104100000000000000000000020000     
100   62443000160219480000000000010000000000010000002000000010410408021644401440585105080803000003951102   1030000900030000   333400010001202104000002022ACS                    Yangon        MMR11008021644401440580803000000000000000   10300005F05104100000000000000000000006000     
100   62443000803628480000000000007000000000007000002000000010410408031250312031304922060803000003952301   1030000900030000   333400010001202104000002022ACS                    Yangon        MMR11008031250312031300803000000000000000   10300005F05104100000000000000000000004200     
100   35710500184694190000000000035000000000035000002000000010410408031150502050193920410803000003952178   1030000900030000   333400010001202104000002022ACS                    Yangon        MMR11008031150502050190803000000000000000   10300005F05104100000000000000000000021000     
100   95031900000216930000000000100200000000100200002000000010410408030957242724945E02EF0803000003952002   1030000900030000   333300010001202104000002717Near Me Android        Yangon        MMR11008030957242724940803000000000000000   10300014F05104100000000000000000000020000     
100   95030800015717640000000000035000000000035000002000000010410408031240141014725391560803000003952279   1030000900030000   333400010001202104000002022ACS                    Yangon        MMR11008031240141014720803000000000000000   10300003F05104100000000000000000000021000     
100   95031900028061580000000000010000000000010000002000000010410408030551112111674BN0EF0803000003951637   1030000900030000   333800010001202104000003301uab bank               Yangon        MMR11008030551112111670803000000000000000   10300014F05104100000000000000000000006000     
100   62346600199915180000000000020000000000020000002000000010410408031451182118350285710803000003952581   1030000900030000   333400010001202104000002022ACS                    Yangon        MMR11008031451182118350803000000000000000   10300005F05104100000000000000000000012000     
100   95031900018250500000000000001000000000001000002000000010410408030404495382599210EF0803196341049215   1030000900030000   541119000115190110000000078Sein Gay Har Kan Thar  YANGONOKKALAP MMR11008030404495382590803000000000000000   10300014F00104100000000000000000000000200     
100   35710500173103250000000000035000000000035000002000000010410408031432410241943244360803000003952539   1030000900030000   333400010001202104000002022ACS                    Yangon        MMR11008031432410241940803000000000000000   10300005F05104100000000000000000000021000     
100   9503051872961483000000000003500000000003500000200000001041040803134300130048XNVZLG0803000003952402   1030000900030000   333400010001202104000002022ACS                    Yangon        MMR11008031343001300480803000000000000000   10300002F05104100000000000000000000021000     
100   95031900008985530000000000200200000000200200002000000010410408030743131313613381EF0803000003951809   1030000900030000   333300010001202104000002717Near Me Android        Yangon        MMR11008030743131313610803000000000000000   10300014F05104100000000000000000000020000     
100   62346600199915180000000000005000000000005000002000000010410408031454022402387576420803000003952585   1030000900030000   333400010001202104000002022ACS                    Yangon        MMR11008031454022402380803000000000000000   10300005F05104100000000000000000000003000     
100   35710830928289940000000000043600000000043600002000000010410408031029535519485100010803839591653215   1030000900030000   599919000196190110000000100119 Fashion Complex (P YANGONOKKALAP MMR11008031029535519480803000000000000000   10300003F00104100000000000000000000013080     
100   62622000176917300000000000010700000000010700002000000010410408031212165557663162570803676421816215   1030000900030000   591219000607190110000000447Shwe Ohh Pharmacy St-3 YANGONINDAING MMR11008031212165557660803000000000000000   10300006F00104100000000000000000000003210     
100   62343302000347060000000000055950000000055950002000000010410408031218515560040000000803713481851215   1030000900030000   581219000205190110000000107Canton Paradise        YANGON        MMR11008031218515560040803000000000000000   10300004F00104100000000000000000000019023     
100   35710500104019150000000000100000000000100000002000000010410408031332085585464858890803186022008215   1030000900030000   592119000589190110000000429Htun Htun Oo Liquor (Y YANGON        MMR11008031332085585460803000000000000000   10300005F00104100000000000000000000030000     
100   9503051884287299000000000006930000000006930000200000001041040803133253558568QFGEJO0803189022053215   1030000900030000   581219000294190110000000182Kou Fu Restaurant (May YANGON        MMR11008031332535585680803000000000000000   10300002F00104100000000000000000000023562     
100   95031900004929770000000000021500000000021500002000000010410408031334585586447743EF0803209042058215   1030000900030000   599919000190190110000000094119 Fashion (North Okk YANGONOKKALAP MMR11008031334585586440803000000000000000   10300014F00104100000000000000000000006450     
100   35710500105999080000000000019000000000019000002000000010410408030807375467395882550803744371437215   1030000900030000   599919000199190110000000103119 Fashion (BuyMoreGe YANGON        MMR11008030807375467390803000000000000000   10300005F00104100000000000000000000005700     
100   35710500122213290000000000015260000000015260002000000010410408030556135421439301780803935261213215   1030000900030000   541119000115190110000000078Sein Gay Har Kan Thar  YANGONOKKALAP MMR11008030556135421430803000000000000000   10300005F00104100000000000000000000003052     
100   9503051020504219000000000500000000000500000000200000001041040803060015542289DGRDGN0803965301215215   1030000900030000   59441900052919011000000037729 Jewellery           YANGONUT      MMR11008030600155422890803000000000000000   10300002F00104100000000000000000001500000     
100   35710500310134910000000000012150000000012150002000000010410408030615085427789792630803040451208215   1030000900030000   591219000501190110000000348Shwe Ohh Pharmacy (SmL YANGONUT      MMR11008030615085427780803000000000000000   10300005F00104100000000000000000000003645     
100   9503051886054010000000000000710000000000710000200000001041040803083040547524OQVSUZ0803880001540215   1030000900030000   581219000033190110000000041GloriaJeansCoffee      YANGON        MMR11008030830405475240803000000000000000   10300002F00104100000000000000000000002414     
100   9503051894585492000000000010300000000010300000200000001041040803081916547123TUHRPF0803799491416215   1030000900030000   594419000631190110000000462Shwe San Eain GemsTime YANGONUT      MMR11008030819165471230803000000000000000   10300002F00104100000000000000000000030900     
100   35710500171422640000000000171150000000171150002000000010410408030957025507137543380803548271602215   1030000900030000   581219000206190110000000108Beauty in the Pot      YANGON        MMR11008030957025507130803000000000000000   10300005F00104100000000000000000000058191     
100   9503051880650060000000000007595000000007595000200000001041040803095857550776UWX2MO0803555281657215   1030000900030000   581219000369190110000000241Beauty In The Pot (PHS YANGON        MMR11008030958575507760803000000000000000   10300002F00104100000000000000000000025823     
100   9503051896722598000000000002485000000002485000200000001041040803083424547674RWLECN0803919041524215   1030000900030000   541119000172190110000000085SeinGayHar (Dagon Cent YANGONUNG     MMR11008030834245476740803000000000000000   10300002F00104100000000000000000000004970     
100   95031900011282240000000000158700000000158700002000000010410408030839315478511VH1EF0803949091531215   1030000900030000   541119000283190110000000177Pro1 Global (Insein)   YANGON        MMR11008030839315478510803000000000000000   10300014F00104100000000000000000000031740     
100   35710500194754150000000000009900000000009900002000000010410408030841065479091309260803962111506215   1030000900030000   599919000195190110000000099119 Fashion Complex (P YANGONN       MMR11008030841065479090803000000000000000   10300005F00104100000000000000000000002970     
100   62441900102269510000000000030470000000030470002000000010410408031018285515177841400803728481628215   1030000900030000   581219000371190110000000243Jo Jo Hot Pot (Junctio YANGONN       MMR11008031018285515170803000000000000000   10300003F00104100000000000000000000018130     
100   62622000759347740000000000021800000000021800002000000010410408031023205517203914180803789531620215   1030000900030000   541119000162190110000000084Pro (1) Global (Pazund YANGONARTAUNG MMR11008031023205517200803000000000000000   10300006F00104100000000000000000000004360     
100   62443000160010490000000000470000000000470000002000000010410408031257402740464532230803000003952311   1030000900030000   333800010001202104000003301uab bank               Yangon        MMR11008031257402740460803000000000000000   10300005F05104100000000000000000000282000     
100   35710830060260990000000000013000000000013000002000000010410408030157362736965601710803000003951273   1030000900030000   333400010001202104000002022ACS                    Yangon        MMR11008030157362736960803000000000000000   10300003F05104100000000000000000000007800     
100   62346600139148880000000000035000000000035000002000000010410408030659265443166867050803299291326215   1030000900030000   569119000655190110000000486High Cultured Fashion  YANGONUT      MMR11008030659265443160803000000000000000   10300005F00104100000000000000000000010500     
100   95030518904332750000000000200000000000200000002000000010410408030703525444806FOYXA0803330331352215   1030000900030000   594419000598190110000000438Shwe NanTaw Jewellery  YANGONN       MMR11008030703525444800803000000000000000   10300002F00104100000000000000000000060000     
100   35710830979658660000000000013300000000013300002000000010410408030707075446075302430803354371307215   1030000900030000   599919000189190110000000093119 Fashion Complex (P YANGONN       MMR11008030707075446070803000000000000000   10300003F00104100000000000000000000003990     
100   35710830950719560000000000001000000000001000002000000010410408030900345486055612630803100301534215   1030000900030000   597719000109190110000000075Girls Generation       YANGONUT      MMR11008030900345486050803000000000000000   10300003F00104100000000000000000000000300     
100   9503051885566741000000000062500000000062500000200000001041040803090122548635N3BGL70803106311522215   1030000900030000   59441900052919011000000037729 Jewellery           YANGONUT      MMR11008030901225486350803000000000000000   10300002F00104100000000000000000000187500     
100   35710500106598270000000000063641000000063641002000000010410408030901595486617715670803114311559215   1030000900030000   701119000076190110000000024Lotte Hotel            YANGON        MMR11008030901595486610803000000000000000   10300005F00104100000000000000000000021638     
100   35710830102306530000000000074750000000074750002000000010410408031219505560295388410803717491850215   1030000900030000   581319000651190110000000482Piano Bar              YANGONONE     MMR11008031219505560290803000000000000000   10300003F00104100000000000000000000025415     
100   62444500200312330000000000013000000000013000002000000010410408030634525434645531060803159041352215   1030000900030000   599919000195190110000000099119 Fashion Complex (P YANGONN       MMR11008030634525434640803000000000000000   10300002F00104100000000000000000000005460     
100   62346600180569330000000000025200000000025200002000000010410408031255585573067850990803952251958215   1030000900030000   591219000602190110000000442Shwe Ohh Pharmacy St-5 YANGONARTAUNG MMR11008031255585573060803000000000000000   10300005F00104100000000000000000000007560     
100   9503051882849835000000000002310000000002310000200000001041040803125618557318VLMZ5U0803955261918215   1030000900030000   581219000280190110000000175Min Lan Restaurant (Ka YANGONARTAUNG MMR11008031256185573180803000000000000000   10300002F00104100000000000000000000007854     
100   35710950234362420000000000055897000000055897002000000010410408031257385573746235670803976271938215   1030000900030000   581219000697190110000000528Pizzamaru Myanmar (MPZ YANGON        MMR11008031257385573740803000000000000000   10300003F00104100000000000000000000019005     
100   9503051886108329000000000001020000000001020000200000001041040803125804557386XCXBGQ0803982281904215   1030000900030000   541119000152190110000000083SeinGayHarParami Cente YANGON        MMR11008031258045573860803000000000000000   10300002F00104100000000000000000000002040     
100   35710830545335580000000000520855000000520855002000000010410408031259025574313793350803992291902215   1030000900030000   701119000494190110000000024Lotte Hotel            YANGON        MMR11008031259025574310803000000000000000   10300003F00104100000000000000000000177091     
100   35710500301463590000000000142500000000142500002000000010410408030713175448234215280803394431317215   1030000900030000   569119000737190110000000569Di Fashion(NorthDagon) YANGONMYOTHIT MMR11008030713175448230803000000000000000   10300005F00104100000000000000000000042750     
100   9503051882294560000000000001410000000001410000200000001041040803055541542121KZ4FGG0803925251241215   1030000900030000   541119000331190110000000206Muditar Supermarket    YANGON        MMR11008030555415421210803000000000000000   10300002F00104100000000000000000000002820     
100   9503051886009873000000000017900000000017900000200000001041040803083101547536EWXVXQ0803883011501215   1030000900030000   541119000081190110000000057Pro (1) Global (Tampaw MANDALAYHARSI MMR11008030831015475360803000000000000000   10300002F00104100000000000000000000035800     
100   62346600174128060000000000011250000000011250002000000010410408030433275392634711300803393031127215   1030000900030000   541119000117190110000000078Sein Gay Har Kan Thar  YANGONOKKALAP MMR11008030433275392630803000000000000000   10300005F00104100000000000000000000002250     
100   35710830806946140000000000009750000000009750002000000010410408030233155352317829050803721030915215   1030000900030000   581219000715190110000000546Akkhaya Tea House(Dago YANGON        MMR11008030233155352310803000000000000000   10300003F00104100000000000000000000003315     
100   35710830927694200000000000006825000000006825002000000010410408030533145413794300660803809031214215   1030000900030000   541119000166190110000000085SeinGayHar (Dagon Cent YANGONUNG     MMR11008030533145413790803000000000000000   10300003F00104100000000000000000000001365     
100   35710830952533490000000000031200000000031200002000000010410408030533255413874900280803811031225215   1030000900030000   541119000162190110000000084Pro (1) Global (Pazund YANGONARTAUNG MMR11008030533255413870803000000000000000   10300003F00104100000000000000000000006240     
100   35710830758608400000000000294000000000294000002000000010410408030225205349745603540803680550820215   1030000900030000   701119000212190110000000114Hotel SS Aung Ban      SHAN BAN      MMR11008030225205349740803000000000000000   10300003F00104100000000000000000000099960     
100   9503051885775417000000000002000000000002000000200000001041040803040548354821TLNZFB0803000003951462   1030000900030000   333400010001202104000002022ACS                    Yangon        MMR11008030405483548210803000000000000000   10300002F05104100000000000000000000012000     
100   95031900047739500000000000023350000000023350002000000010410408030453485399827U80EF0803537231148215   1030000900030000   581219000205190110000000107Canton Paradise        YANGON        MMR11008030453485399820803000000000000000   10300014F00104100000000000000000000007939     
100   62443000103128300000000000014300000000014300002000000010410408030454455400140473620803540241145215   1030000900030000   541119000115190110000000078Sein Gay Har Kan Thar  YANGONOKKALAP MMR11008030454455400140803000000000000000   10300005F00104100000000000000000000005005     
100   35710830238439060000000000040000000000040000002000000010410408030455205400323092710803543251120215   1030000900030000   701119000428190110000000288Hlaine Tet Hotel       YANGONONE     MMR11008030455205400320803000000000000000   10300003F00104100000000000000000000013600     
100   35710500104631620000000000035000000000035000002000000010410408030108045326464932530803460380704215   1030000900030000   554119000344190110000000211New Day Energy - 1     YANGONUNG     MMR11008030108045326460803000000000000000   10300005F00104100000000000000000000005250     
100   35710500391055130000000000048050000000048050002000000010410408030128375332380997220803495580737215   1030000900030000   581219000205190110000000107Canton Paradise        YANGON        MMR11008030128375332380803000000000000000   10300005F00104100000000000000000000016337     
100   9503051019996160000000000000480000000000480000200000001041040803051748540813NOXJQE0803695471148215   1030000900030000   541119000380190110000000248Victoria Hyper Mart    YANGON        MMR11008030517485408130803000000000000000   10300002F00104100000000000000000000000960     
100   95031900021801330000000000200200000000200200002000000010410408030819024902896EE1EF0803000003951866   1030000900030000   333300010001202104000002717Near Me Android        Yangon        MMR11008030819024902890803000000000000000   10300014F05104100000000000000000000020000     
100   9503051889595316000000000019900000000019900000200000001041040803035447537933WFCRQV0803145241047215   1030000900030000   481219000211190110000000113Xiaomi Mobile Shop(9mi YANGONONE     MMR11008030354475379330803000000000000000   10300002F00104100000000000000000000059700     
100   35710950954674630000000000200200000000200200002000000010410408030935520552546725670803000003951962   1030000900030000   333300010001202104000002717Near Me Android        Yangon        MMR11008030935520552540803000000000000000   10300003F05104100000000000000000000020000     
100   35710830086998360000000000075000000000075000002000000010410408030858342834065088980803000003951914   1030000900030000   333300010001202104000000109Myanmar National Airli Yangon        MMR11008030858342834060803000000000000000   10300003F05104100000000000000000000020000     
100   35710830340546420000000000006000000000006000002000000010410408030905235487805666830803135351523215   1030000900030000   581219000083190110000000058313C Bakery            YANGON        MMR11008030905235487800803000000000000000   10300003F00104100000000000000000000002040     
100   62622000000706780000000000006700000000006700002000000010410408031047115526044023570803989171711215   1030000900030000   541119000170190110000000085SeinGayHar (Dagon Cent YANGONUNG     MMR11008031047115526040803000000000000000   10300006F00104100000000000000000000001340     
100   62346600100142450000000000017450000000017450002000000010410408031047305526139149870803991171730215   1030000900030000   591219000690190110000000521Shwe Ohh Pharmacy ST-1 YANGONAUNG    MMR11008031047305526130803000000000000000   10300005F00104100000000000000000000005235     
100   35710500340940840000000000008300000000008300002000000010410408031048155526425334320803996181715215   1030000900030000   541119000172190110000000085SeinGayHar (Dagon Cent YANGONUNG     MMR11008031048155526420803000000000000000   10300005F00104100000000000000000000001660     
100   62346600181283100000000000022955000000022955002000000010410408030902215486785633670803117321521215   1030000900030000   581219000721190110000000552Chilli Pot Mala Xiang  YANGONOKKALAP MMR11008030902215486780803000000000000000   10300005F00104100000000000000000000007805     
100   62441900001462270000000000064500000000064500002000000010410408031048315526525037090803999181731215   1030000900030000   594419000631190110000000462Shwe San Eain GemsTime YANGONUT      MMR11008031048315526520803000000000000000   10300003F00104100000000000000000000027090     
100   62443000140942280000000000039600000000039600002000000010410408031315105579786382490803090451910215   1030000900030000   541119000117190110000000078Sein Gay Har Kan Thar  YANGONOKKALAP MMR11008031315105579780803000000000000000   10300005F00104100000000000000000000013860     
100   950305101959401500000000000220000000000220000020000000104104080313235155826983AUN60803139531951215   1030000900030000   541119000115190110000000078Sein Gay Har Kan Thar  YANGONOKKALAP MMR11008031323515582690803000000000000000   10300002F00104100000000000000000000004400     
100   62443000103174820000000000031100000000031100002000000010410408031328245584219681800803168581924215   1030000900030000   541119000381190110000000248Victoria Hyper Mart    YANGON        MMR11008031328245584210803000000000000000   10300005F00104100000000000000000000010885     
100   35710830794105430000000000013490000000013490002000000010410408031330195584894680230803179002019215   1030000900030000   541119000114190110000000078Sein Gay Har Kan Thar  YANGONOKKALAP MMR11008031330195584890803000000000000000   10300003F00104100000000000000000000002698     
100   95031900043341260000000000052200000000052200002000000010410408031314105579437V13EF0803081441910215   1030000900030000   581219000205190110000000107Canton Paradise        YANGON        MMR11008031314105579430803000000000000000   10300014F00104100000000000000000000017748     
100   9503051877942231000000000000944500000000944500200000001041040803075712546379Q0RFKY0803681271412215   1030000900030000   541119000115190110000000078Sein Gay Har Kan Thar  YANGONOKKALAP MMR11008030757125463790803000000000000000   10300002F00104100000000000000000000001889     
100   9503051878550835000000000003500000000003500000200000001041040803054945541926HNQHPK0803894191245215   1030000900030000   541119000376190110000000178Pro (1) Global (East D YANGONMYOTHIT MMR11008030549455419260803000000000000000   10300002F00104100000000000000000000007000     
100   62346600162662780000000000006525000000006525002000000010410408030551445419880519760803903211244215   1030000900030000   541119000172190110000000085SeinGayHar (Dagon Cent YANGONUNG     MMR11008030551445419880803000000000000000   10300005F00104100000000000000000000001305     
100   35710500184584610000000000015200000000015200002000000010410408030311414141052507090803000003951369   1030000900030000   333300010001202104000002659MSP                    Yangon        MMR11008030311414141050803000000000000000   10300005F05104100000000000000000000020000     
100   95031900040081670000000000069726000000069726002000000010410408031411424142591H73EF0803000003952466   1030000900030000   333800010001202104000003301uab bank               Yangon        MMR11008031411424142590803000000000000000   10300014F05104100000000000000000000041836     
100   95031900021588240000000000035000000000035000002000000010410408031212364236565ZT2EF0803000003952219   1030000900030000   333400010001202104000002022ACS                    Yangon        MMR11008031212364236560803000000000000000   10300014F05104100000000000000000000021000     
100   9503051886118039000000000003500000000003500000200000001041040803155634263493HWVPJM0803000003952682   1030000900030000   333400010001202104000002022ACS                    Yangon        MMR11008031556342634930803000000000000000   10300002F05104100000000000000000000021000     
100   950319000082443500000000000302000000000302000020000000104104080308023532356155B1EF0803000003951837   1030000900030000   333300010001202104000002717Near Me Android        Yangon        MMR11008030802353235610803000000000000000   10300014F05104100000000000000000000020000     
100   35710500350626010000000000044000000000044000002000000010410408030647595439254355530803234171359215   1030000900030000   504719000410190110000000274Ye Optical             YANGONN       MMR11008030647595439250803000000000000000   10300005F00104100000000000000000000013200     
100   35710830545593300000000000011850000000011850002000000010410408030650285440114952010803248201328215   1030000900030000   541119000144190110000000083SeinGayHarParami Cente YANGON        MMR11008030650285440110803000000000000000   10300003F00104100000000000000000000002370     
100   95031900011736260000000000015892000000015892002000000010410408030651505440567101EF0803253211350215   1030000900030000   581219000721190110000000552Chilli Pot Mala Xiang  YANGONOKKALAP MMR11008030651505440560803000000000000000   10300014F00104100000000000000000000005403     
100   35710500320113040000000000050100000000050100002000000010410408030358475380538042310803160281047215   1030000900030000   541119000113190110000000077Sein Gay Har Chinatown YANGON        MMR11008030358475380530803000000000000000   10300005F00104100000000000000000000010020     
100   9503051886395389000000000001330000000001330000200000001041040803040120538152AVGISX0803175311020215   1030000900030000   541119000162190110000000084Pro (1) Global (Pazund YANGONARTAUNG MMR11008030401205381520803000000000000000   10300002F00104100000000000000000000002660     
100   95031900000910430000000000499150000000499150002000000010410408031341415588877X43EF0803259112041215   1030000900030000   581219000205190110000000107Canton Paradise        YANGON        MMR11008031341415588870803000000000000000   10300014F00104100000000000000000000169711     
100   35710500123983900000000000009000000000009000002000000010410408031336465587171685040803228062046215   1030000900030000   591219000504190110000000351Shwe Ohh Pharmacy -6   YANGONAW      MMR11008031336465587170803000000000000000   10300005F00104100000000000000000000002700     
100   62444501100089350000000000099000000000099000002000000010410408031342105589046474500803262122010215   1030000900030000   569919000575190110000000415D & C Myanmar (TW)     YANGON        MMR11008031342105589040803000000000000000   10300002F00104100000000000000000000041580     
100   62343302001888740000000000030475000000030475002000000010410408031354215593080000000803324242021215   1030000900030000   581219000473190110000000326Panjabi-Q              YANGONUT      MMR11008031354215593080803000000000000000   10300004F00104100000000000000000000010362     
100   35710500350029120000000000030240000000030240002000000010410408031357135593889585220803333272013215   1030000900030000   581219000032190110000000040Hot Pot King Time City YANGONUT      MMR11008031357135593880803000000000000000   10300005F00104100000000000000000000010282     
100   9503051895923833000000000000310000000000310000200000001041040803135945559469Y3V3IW0803344292045215   1030000900030000   541119000144190110000000083SeinGayHarParami Cente YANGON        MMR11008031359455594690803000000000000000   10300002F00104100000000000000000000000620     
100   9503051020555260000000000003335000000003335000200000001041040803111735553747YHOWZO0803259471735215   1030000900030000   581219000590190110000000430The Tea Club           YANGON        MMR11008031117355537470803000000000000000   10300002F00104100000000000000000000011339     
100   9503051886810031000000000004300000000004300000200000001041040803111808553772KABPEA0803266481708215   1030000900030000   729819000533190110000000381Artists Nail Spa & Aca YANGON        MMR11008031118085537720803000000000000000   10300002F00104100000000000000000000012900     
100   35710830124468930000000000015100000000015100002000000010410408031121465538988135170803289511746215   1030000900030000   599919000055190110000000050119 Fashion Complex (K YANGONUT      MMR11008031121465538980803000000000000000   10300003F00104100000000000000000000004530     
100   35710830410042000000000000168150000000168150002000000010410408031122105539186222360803292521710215   1030000900030000   591219000501190110000000348Shwe Ohh Pharmacy (SmL YANGONUT      MMR11008031122105539180803000000000000000   10300003F00104100000000000000000000050445     
100   35710950107016160000000000011200000000011200002000000010410408030936125499367186890803379061612215   1030000900030000   594319000754190110000000586Sarpaylawka            YANGONUT      MMR11008030936125499360803000000000000000   10300003F00104100000000000000000000003360     
100   35710830612434150000000000074088000000074088002000000010410408031122255539288135460803295521725215   1030000900030000   581219000697190110000000528Pizzamaru Myanmar (MPZ YANGON        MMR11008031122255539280803000000000000000   10300003F00104100000000000000000000025190     
100   35710500301084170000000000003800000000003800002000000010410408030959175507869316620803558291617215   1030000900030000   599919000188190110000000092119 Fashion (Sanchaung YANGONUNG     MMR11008030959175507860803000000000000000   10300005F00104100000000000000000000001140     
100   35710830259135330000000000021500000000021500002000000010410408030959355507957188780803561291635215   1030000900030000   594319000084190110000000059Innwa Books            YANGONUT      MMR11008030959355507950803000000000000000   10300003F00104100000000000000000000006450     
100   9503051891656965000000000001075000000001075000200000001041040803055316542052J5U8MW0803918231216215   1030000900030000   581419000743190110000000575Chatime Bubble Tea (Ti YANGONUT      MMR11008030553165420520803000000000000000   10300002F00104100000000000000000000001612     
100   35710500102586790000000000047700000000047700002000000010410408030554485420941805220803923241248215   1030000900030000   569919000555190110000000402D & C Myanmar (MP)     YANGON        MMR11008030554485420940803000000000000000   10300005F00104100000000000000000000014310     
100   95030800046895550000000000020800000000020800002000000010410408030826135473594963100803844561413215   1030000900030000   541119000168190110000000085SeinGayHar (Dagon Cent YANGONUNG     MMR11008030826135473590803000000000000000   10300003F00104100000000000000000000004160     
100   35710830121060910000000000001200000000001200002000000010410408030826415473784963390803848561441215   1030000900030000   541119000318190110000000200Amazing Mart (No.1 Ind YANGON        MMR11008030826415473780803000000000000000   10300003F00104100000000000000000000000240     
100   95031201600030660000000000013000000000013000002000000010410408031420295029473333330803000003952501   1030000900030000   333400010001202104000002022ACS                    Yangon        MMR11008031420295029470803000000000000000   10300009F05104100000000000000000000007800     
100   62346600195801540000000000200000000000200000002000000010410408031420425042953038520803000003952503   1030000900030000   333800010001202104000003301uab bank               Yangon        MMR11008031420425042950803000000000000000   10300005F05104100000000000000000000120000     
100   9503051872330804000000000000500000000000500000200000001041040803081313431357MOWYUJ0803000003951851   1030000900030000   333800010001202104000003301uab bank               Yangon        MMR11008030813134313570803000000000000000   10300002F05104100000000000000000000003000     
100   95031900008304400000000000001500000000001500002000000010410408030424345389517B40EF0803334541034215   1030000900030000   541119000147190110000000083SeinGayHarParami Cente YANGON        MMR11008030424345389510803000000000000000   10300014F00104100000000000000000000000300     
100   9503051892168960000000000001800000000001800000200000001041040803085457548397TM1HQ70803051241557215   1030000900030000   569119000350190110000000217Bench (Myanmar Plaza)  YANGON        MMR11008030854575483970803000000000000000   10300002F00104100000000000000000000005400     
100   35710500182970340000000000016450000000016450002000000010410408030857045484678492910803064271504215   1030000900030000   541119000283190110000000177Pro1 Global (Insein)   YANGON        MMR11008030857045484670803000000000000000   10300005F00104100000000000000000000003290     
100   95031900000453610000000000033495000000033495002000000010410408030724575452456X41EF0803476541357215   1030000900030000   581219000280190110000000175Min Lan Restaurant (Ka YANGONARTAUNG MMR11008030724575452450803000000000000000   10300014F00104100000000000000000000011388     
100   9503051886082268000000000004450000000004450000200000001041040803072712545323N5XGUA0803488571312215   1030000900030000   541119000141190110000000083SeinGayHarParami Cente YANGON        MMR11008030727125453230803000000000000000   10300002F00104100000000000000000000008900     
100   35710500114034150000000000006400000000006400002000000010410408030728175453625278850803491581317215   1030000900030000   541119000374190110000000178Pro (1) Global (East D YANGONMYOTHIT MMR11008030728175453620803000000000000000   10300005F00104100000000000000000000001280     
100   9503051887163612000000000200000000000200000000200000001041040803073610545637YLJ1HN0803532061410215   1030000900030000   806219000358190110000000225Victoria Hospital      YANGONONE     MMR11008030736105456370803000000000000000   10300002F00104100000000000000000000600000     
100   62441900101376870000000000026450000000026450002000000010410408030921585493928841270803262511558215   1030000900030000   541119000136190110000000083SeinGayHarParami Cente YANGON        MMR11008030921585493920803000000000000000   10300003F00104100000000000000000000009257     
100   9503051893890539000000000002650000000002650000200000001041040803092428549491Z2VNLU0803284541528215   1030000900030000   541119000286190110000000177Pro1 Global (Insein)   YANGON        MMR11008030924285494910803000000000000000   10300002F00104100000000000000000000005300     
100   9503051888678279000000000002026500000002026500200000001041040803140054559511RLT3D00803350302054215   1030000900030000   581219000473190110000000326Panjabi-Q              YANGONUT      MMR11008031400545595110803000000000000000   10300002F00104100000000000000000000006890     
100   62346600180300600000000000061550000000061550002000000010410408031402395595613521510803357322039215   1030000900030000   597719000530190110000000378Mon Cosmetic (1)       MANDALAYHARSA MMR11008031402395595610803000000000000000   10300005F00104100000000000000000000018465     
100   62346600131155850000000000012000000000012000002000000010410408031404585596378649160803364342058215   1030000900030000   591219000608190110000000448Shwe Ohh Pharmacy St-2 YANGON        MMR11008031404585596370803000000000000000   10300005F00104100000000000000000000003600     
100   9503051872708595000000000012385000000012385000200000001041040803140801559722UCCUAO0803374382001215   1030000900030000   581219000206190110000000108Beauty in the Pot      YANGON        MMR11008031408015597220803000000000000000   10300002F00104100000000000000000000042109     
100   95030801014718810000000000066500000000066500002000000010410408031409555597990445960803394392055215   1030000900030000   581319000363190110000000236Safe House Club        YANGON        MMR11008031409555597990803000000000000000   10300003F00104100000000000000000000022610     
100   35710500125289960000000000012600000000012600002000000010410408031410575598381479200803402402057215   1030000900030000   591219000795190110000000627Shwe Ohh Pharmacy ST-3 YANGONINDAING MMR11008031410575598380803000000000000000   10300005F00104100000000000000000000003780     
100   35710950289464680000000000130631000000130631002000000010410408031415415599946070130803430452041215   1030000900030000   701119000064190110000000024Lotte Hotel            YANGON        MMR11008031415415599940803000000000000000   10300003F00104100000000000000000000044414     
100   9503051021425885000000000016735000000016735000200000001041040803141734560061RQZV5T0803444472034215   1030000900030000   581219000206190110000000108Beauty in the Pot      YANGON        MMR11008031417345600610803000000000000000   10300002F00104100000000000000000000056899     
100   62346600177615820000000000000650000000000650002000000010410408031141395546879098320803479111839215   1030000900030000   541119000115190110000000078Sein Gay Har Kan Thar  YANGONOKKALAP MMR11008031141395546870803000000000000000   10300005F00104100000000000000000000000130     
100   62443001760696950000000000045000000000045000002000000010410408031145595548450830190803515151859215   1030000900030000   599919000412190110000000276Amazing One (Junction  YANGONN       MMR11008031145595548450803000000000000000   10300005F00104100000000000000000000018900     
100   95031900000388040000000003000200000003000200002000000010410408031325485548991M33EF0803000003952375   1030000900030000   333300010001202104000002717Near Me Android        Yangon        MMR11008031325485548990803000000000000000   10300014F05104100000000000000000000020000     
100   950319000481954800000000000076000000000076000020000000104104080311493655497916N2EF0803536191836215   1030000900030000   599919000190190110000000094119 Fashion (North Okk YANGONOKKALAP MMR11008031149365549790803000000000000000   10300014F00104100000000000000000000002280     
100   9503051893148128000000000001000000000001000000200000001041040803153017001771711N4S0803000003952645   1030000900030000   333400010001202104000002022ACS                    Yangon        MMR11008031530170017710803000000000000000   10300002F05104100000000000000000000006000     
100   9503051873354720000000000001300000000001300000200000001041040803103124012477MZN2XO0803000003952050   1030000900030000   333400010001202104000002022ACS                    Yangon        MMR11008031031240124770803000000000000000   10300002F05104100000000000000000000007800     
100   9503051888286032000000000003500000000003500000200000001041040803113127012756Q8IGO60803000003952146   1030000900030000   333400010001202104000002022ACS                    Yangon        MMR11008031131270127560803000000000000000   10300002F05104100000000000000000000021000     
100   95031010480560130000000000105200000000105200002000000010410408030931180118845889850803000003951954   1030000900030000   333300010001202104000002717Near Me Android        Yangon        MMR11008030931180118840803000000000000000   10300005F05104100000000000000000000020000     
100   35710500175370830000000000010500000000010500002000000010410408031108243824416499370803000003952116   1030000900030000   333400010001202104000002022ACS                    Yangon        MMR11008031108243824410803000000000000000   10300005F05104100000000000000000000006300     
100   9503051888763170000000000001000000000001000000200000001041040803032349534902ZEZDCO0803000003951383   1030000900030000   333400010001202104000002022ACS                    Yangon        MMR11008030323495349020803000000000000000   10300002F05104100000000000000000000006000     
100   95010121410463340000000000005810000000005810002000000010410408030526095411281697670803760561109215   1030000900030000   541119000331190110000000206Muditar Supermarket    YANGON        MMR11008030526095411280803000000000000000   10100001F00104100000000000000000000001162     
100   35710830952533490000000000067500000000067500002000000010410408030527105411593283700803764571110215   1030000900030000   541119000162190110000000084Pro (1) Global (Pazund YANGONARTAUNG MMR11008030527105411590803000000000000000   10300003F00104100000000000000000000013500     
100   35650913530000520000000000800000000000800000002000000010410408031419074907807924660803000003952498   1030000900030000   333800010001202104000003301uab bank               Yangon        MMR11008031419074907800803000000000000000   10300005F05104100000000000000000000480000     
100   35710830875566750000000000035000000000035000002000000010410408030338340834724915930803000003951411   1030000900030000   333400010001202104000002022ACS                    Yangon        MMR11008030338340834720803000000000000000   10300003F05104100000000000000000000021000     
100   950319000221303300000000000200000000000200000020000000104104080308434713477356M1EF0803000003951894   1030000900030000   333400010001202104000002022ACS                    Yangon        MMR11008030843471347730803000000000000000   10300014F05104100000000000000000000012000     
100   35710830783784100000000000124400000000124400002000000010410408031348561856156320300803000003952415   1030000900030000   333300010001202104000000109Myanmar National Airli Yangon        MMR11008031348561856150803000000000000000   10300003F05104100000000000000000000020000     
100   35710500106598270000000000031973000000031973002000000010410408030808095467617727060803749381409215   1030000900030000   701119000065190110000000024Lotte Hotel            YANGON        MMR11008030808095467610803000000000000000   10300005F00104100000000000000000000010871     
100   9503051892294758000000000000450000000000450000200000001041040803080859546785TX5AUW0803752381459215   1030000900030000   563119000646190110000000477Monster Fashion Access YANGONUT      MMR11008030808595467850803000000000000000   10300002F00104100000000000000000000001350     
100   9503051897465270000000000001710000000001710000200000001041040803081100546847H2TS9L0803760411400215   1030000900030000   541119000124190110000000080Sein Gay Har BAK       YANGONADA     MMR11008030811005468470803000000000000000   10300002F00104100000000000000000000003420     
100   950319000352216800000000024500000000024500000020000000104104080309524555056281Z1EF0803517221645215   1030000900030000   59441900052919011000000037729 Jewellery           YANGONUT      MMR11008030952455505620803000000000000000   10300014F00104100000000000000000000735000     
100   35710500174867450000000000069200000000069200002000000010410408030953435506067842400803531231643215   1030000900030000   599919000442190110000000297BKB Baby&Toys(SouthOkk YANGONOKKALAP MMR11008030953435506060803000000000000000   10300005F00104100000000000000000000020760     
100   35710500155422260000000000074650000000074650002000000010410408030832045475731608280803889021504215   1030000900030000   541119000282190110000000177Pro1 Global (Insein)   YANGON        MMR11008030832045475730803000000000000000   10300005F00104100000000000000000000014930     
100   35710830906848030000000000009100000000009100002000000010410408030832085475774963730803891021508215   1030000900030000   581219000033190110000000041GloriaJeansCoffee      YANGON        MMR11008030832085475770803000000000000000   10300003F00104100000000000000000000003094     
100   95051071710003120000000001406000000001406000002000000010410408030832465475965338730803897021546215   1030000900030000   594419000493190110000000340Pyae Sone Shin         YANGONUT      MMR11008030832465475960803000000000000000   10300005F00104100000000000000000000590520     
100   35710500380036770000000000113400000000113400002000000010410408031417465600696151420803445472046215   1030000900030000   581219000032190110000000040Hot Pot King Time City YANGONUT      MMR11008031417465600690803000000000000000   10300005F00104100000000000000000000038556     
100   35710500165551440000000000004400000000004400002000000010410408031425525603254861190803476552052215   1030000900030000   599919000188190110000000092119 Fashion (Sanchaung YANGONUNG     MMR11008031425525603250803000000000000000   10300005F00104100000000000000000000001320     
100   95030518893963350000000000074500000000074500002000000010410408031442295608254FRVOD0803546122129215   1030000900030000   581219000635190110000000466King BBQ Time City     YANGONUT      MMR11008031442295608250803000000000000000   10300002F00104100000000000000000000025330     
100   9503051884069556000000000018000000000018000000200000001041040803144410560877CQGXDE0803550142110215   1030000900030000   701119000085190110000000060Dragon Phoenix Hotel   MANDALAYHARSA MMR11008031444105608770803000000000000000   10300002F00104100000000000000000000061200     
100   35710500181293100000000000043150000000043150002000000010410408031452035611009533640803565222103215   1030000900030000   581219000206190110000000108Beauty in the Pot      YANGON        MMR11008031452035611000803000000000000000   10300005F00104100000000000000000000014671     
100   9503051894362173000000000003209000000003209000200000001041040803152136561919DVY5NZ0803602512136215   1030000900030000   581219000761190110000000593Yummy Hot Pot & BBQ(Ya YANGON        MMR11008031521365619190803000000000000000   10300002F00104100000000000000000000010911     
100   95030801014718810000000000036450000000036450002000000010410408031524475620106477730803607542147215   1030000900030000   581319000362190110000000236Safe House Club        YANGON        MMR11008031524475620100803000000000000000   10300003F00104100000000000000000000012393     
100   35710830537732210000000000019360000000019360002000000010410408031536135623256938210803621062213215   1030000900030000   581319000797190110000000629Cocky Bar              YANGONADA     MMR11008031536135623250803000000000000000   10300003F00104100000000000000000000006582     
100   35710830514135800000000000035000000000035000002000000010410408030246491649617830190803000003951330   1030000900030000   333400010001202104000002022ACS                    Yangon        MMR11008030246491649610803000000000000000   10300003F05104100000000000000000000021000     
100   35710500192287230000000000010000000000010000002000000010410408031258502850438163800803000003952316   1030000900030000   333400010001202104000002022ACS                    Yangon        MMR11008031258502850430803000000000000000   10300005F05104100000000000000000000006000     
100   35710830127097530000000000045644000000045644002000000010410408031243325568834924110803886131932215   1030000900030000   581219000697190110000000528Pizzamaru Myanmar (MPZ YANGON        MMR11008031243325568830803000000000000000   10300003F00104100000000000000000000015519     
100   95030801400203680000000000032090000000032090002000000010410408031249455570924676630803916191945215   1030000900030000   581219000761190110000000593Yummy Hot Pot & BBQ(Ya YANGON        MMR11008031249455570920803000000000000000   10300003F00104100000000000000000000010911     
100   35710830504603500000000000040150000000040150002000000010410408031252505571896235250803929221950215   1030000900030000   591219000796190110000000628Shwe Ohh Pharmacy ST-3 YANGONMYOTHIT MMR11008031252505571890803000000000000000   10300003F00104100000000000000000000012045     
100   95030518778214350000000000061200000000061200002000000010410408031254195572502YZMFC0803940241919215   1030000900030000   701119000042190110000000019Grand Amara Hotel      NAYPYITAWIYI  MMR11008031254195572500803000000000000000   10300002F00104100000000000000000000020808     
100   35710830658073890000000000005250000000005250002000000010410408031053355528394666200803042231735215   1030000900030000   581219000726190110000000558Shake Cake&Bakery(SiPi YANGONMYOTHIT MMR11008031053355528390803000000000000000   10300003F00104100000000000000000000001785     
100   9503051897569790000000000002820000000002820000200000001041040803070811544648DAFDIM0803362381311215   1030000900030000   599919000055190110000000050119 Fashion Complex (K YANGONUT      MMR11008030708115446480803000000000000000   10300002F00104100000000000000000000008460     
100   62346600128721110000000000005000000000005000002000000010410408031454152415995498460803000003952584   1030000900030000   333400010001202104000002022ACS                    Yangon        MMR11008031454152415990803000000000000000   10300005F05104100000000000000000000003000     
100   35710500120123480000000000053100000000053100002000000010410408030638115435729822570803174081311215   1030000900030000   569919000555190110000000402D & C Myanmar (MP)     YANGON        MMR11008030638115435720803000000000000000   10300005F00104100000000000000000000015930     
100   9503051897860280000000000003830000000003830000200000001041040803064431543802ADXHVW0803213141331215   1030000900030000   599919000638190110000000469MIEVIC Store           YANGONUT      MMR11008030644315438020803000000000000000   10300002F00104100000000000000000000011490     
100   95051010160000410000000000013800000000013800002000000010410408030645235438344050800803218151323215   1030000900030000   581219000423190110000000284BCC (SYS)              YANGON        MMR11008030645235438340803000000000000000   10300005F00104100000000000000000000008211     
100   35710500112656990000000000027000000000027000002000000010410408030845485480702201590803994151548215   1030000900030000   599919000198190110000000102119 Fashion Complex (T YANGON        MMR11008030845485480700803000000000000000   10300005F00104100000000000000000000008100     
100   95030800030245640000000000010000000000010000002000000010410408030636165435097953920803165061316215   1030000900030000   581219000031190110000000039Tom N Toms Coffee      YANGON        MMR11008030636165435090803000000000000000   10300003F00104100000000000000000000003400     
100   9503051882011246000000000002080000000002080000200000001041040803084631548099EJFYR80803003161531215   1030000900030000   541119000115190110000000078Sein Gay Har Kan Thar  YANGONOKKALAP MMR11008030846315480990803000000000000000   10300002F00104100000000000000000000004160     
100   62346600117661320000000000235300000000235300002000000010410408030715095448922952620803405451309215   1030000900030000   581219000368190110000000241Beauty In The Pot (PHS YANGON        MMR11008030715095448920803000000000000000   10300005F00104100000000000000000000080002     
100   35710500153959710000000000043659000000043659002000000010410408031014455513504229350803683441645215   1030000900030000   581219000398190110000000262Fuji Japanese Restaura MANDALAYHARSA MMR11008031014455513500803000000000000000   10300005F00104100000000000000000000014844     
100   9503051879471247000000000081120000000081120000200000001041040803101515551374CVDMUW0803689451615215   1030000900030000   541119000282190110000000177Pro1 Global (Insein)   YANGON        MMR11008031015155513740803000000000000000   10300002F00104100000000000000000000162240     
100   9503051884509833000000000009890000000009890000200000001041040803101525551383VNERNH0803692451625215   1030000900030000   541119000159190110000000084Pro (1) Global (Pazund YANGONIKANAUN MMR11008031015255513830803000000000000000   10300002F00104100000000000000000000019780     
100   62441900003630460000000000022000000000022000002000000010410408031016475514392011510803706461647215   1030000900030000   806219000358190110000000225Victoria Hospital      YANGONONE     MMR11008031016475514390803000000000000000   10300003F00104100000000000000000000009240     
100   9503051885340253000000000001630000000001630000200000001041040803043812539431JKIVH50803427081112215   1030000900030000   591219000602190110000000442Shwe Ohh Pharmacy St-5 YANGONARTAUNG MMR11008030438125394310803000000000000000   10300002F00104100000000000000000000004890     
100   35710830463346690000000000052900000000052900002000000010410408030441165395425798810803453111116215   1030000900030000   541119000117190110000000078Sein Gay Har Kan Thar  YANGONOKKALAP MMR11008030441165395420803000000000000000   10300003F00104100000000000000000000010580     
100   9503051020453052000000000000950000000000950000200000001041040803045020539854NQXCXX0803511201120215   1030000900030000   541119000115190110000000078Sein Gay Har Kan Thar  YANGONOKKALAP MMR11008030450205398540803000000000000000   10300002F00104100000000000000000000001900     
100   95030510207394840000000000026000000000026000002000000010410408030510165405474QPDC40803643401116215   1030000900030000   541119000151190110000000083SeinGayHarParami Cente YANGON        MMR11008030510165405470803000000000000000   10300002F00104100000000000000000000005200     
100   35710500156373560000000000171150000000171150002000000010410408030710015447139293480803373401301215   1030000900030000   541119000288190110000000178Pro (1) Global (East D YANGONMYOTHIT MMR11008030710015447130803000000000000000   10300005F00104100000000000000000000034230     
100   35710500391410130000000000013000000000013000002000000010410408031047175526073852030803990171717215   1030000900030000   541119000112190110000000077Sein Gay Har Chinatown YANGON        MMR11008031047175526070803000000000000000   10300005F00104100000000000000000000002600     
100   62441900002344520000000000022100000000022100002000000010410408031253075572034064240803931231907215   1030000900030000   541119000138190110000000083SeinGayHarParami Cente YANGON        MMR11008031253075572030803000000000000000   10300003F00104100000000000000000000007735     
100   35710830889165220000000000013000000000013000002000000010410408031333370337124155170803000003952389   1030000900030000   333400010001202104000002022ACS                    Yangon        MMR11008031333370337120803000000000000000   10300003F05104100000000000000000000007800     
100   62346600172918460000000000035000000000035000002000000010410408030841191119431520820803000003951891   1030000900030000   333400010001202104000002022ACS                    Yangon        MMR11008030841191119430803000000000000000   10300005F05104100000000000000000000021000     
100   35710500116296620000000000372200000000372200002000000010410408030224035349328127180803675540803215   1030000900030000   541119000285190110000000177Pro1 Global (Insein)   YANGON        MMR11008030224035349320803000000000000000   10300005F00104100000000000000000000074440     
100   9503051020535825000000000001455000000001455000200000001041040803082914547475ZXQRQT0803875591414215   1030000900030000   541119000139190110000000083SeinGayHarParami Cente YANGON        MMR11008030829145474750803000000000000000   10300002F00104100000000000000000000002910     
100   62346600160552420000000000006465000000006465002000000010410408031100255531011590090803107301725215   1030000900030000   541119000166190110000000085SeinGayHar (Dagon Cent YANGONUNG     MMR11008031100255531010803000000000000000   10300005F00104100000000000000000000001293     
100   35710500160030040000000000004100000000004100002000000010410408031214465558561776850803695441846215   1030000900030000   591219000759190110000000591Shwe Ohh Pharmacy ST-3 YANGONOKKALAP MMR11008031214465558560803000000000000000   10300005F00104100000000000000000000001230     
100   9503051892365475000000000000954500000000954500200000001041040803125446557264KILOES0803945241946215   1030000900030000   541119000114190110000000078Sein Gay Har Kan Thar  YANGONOKKALAP MMR11008031254465572640803000000000000000   10300002F00104100000000000000000000001909     
100   62441900102394340000000000006500000000006500002000000010410408030803225465999840530803718331422215   1030000900030000   541119000122190110000000080Sein Gay Har BAK       YANGONADA     MMR11008030803225465990803000000000000000   10300003F00104100000000000000000000002275     
100   35710830719431370000000000017000000000017000002000000010410408030613255427215811000803026431225215   1030000900030000   729819000533190110000000381Artists Nail Spa & Aca YANGON        MMR11008030613255427210803000000000000000   10300003F00104100000000000000000000005100     
100   95010121409404120000000000035000000000035000002000000010410408031415274527068349370803000003952470   1030000900030000   333400010001202104000002022ACS                    Yangon        MMR11008031415274527060803000000000000000   10100001F05104100000000000000000000021000     
100   95030510209244580000000000021150000000021150002000000010410408030237315353682GKNX80803738070931215   1030000900030000   591219000508190110000000355Shwe Ohh Pharmacy(SanP YANGONNGKUUN  MMR11008030237315353680803000000000000000   10300002F00104100000000000000000000006345     
100   35710830950719560000000000009000000000009000002000000010410408030928055496316668630803317581505215   1030000900030000   599919000638190110000000469MIEVIC Store           YANGONUT      MMR11008030928055496310803000000000000000   10300003F00104100000000000000000000002700     
100   95030800065381490000000000026000000000026000002000000010410408031309555578096207270803064391955215   1030000900030000   541119000113190110000000077Sein Gay Har Chinatown YANGON        MMR11008031309555578090803000000000000000   10300003F00104100000000000000000000005200     
100   62346600176054250000000000022500000000022500002000000010410408031310565578440963910803067401956215   1030000900030000   541119000144190110000000083SeinGayHarParami Cente YANGON        MMR11008031310565578440803000000000000000   10300005F00104100000000000000000000004500     
100   62346600104096350000000000011000000000011000002000000010410408031313415579276843620803079431941215   1030000900030000   599919000189190110000000093119 Fashion Complex (P YANGONN       MMR11008031313415579270803000000000000000   10300005F00104100000000000000000000003300     
100   9503051886108329000000000000445000000000445000200000001041040803131348557932WQ1HBM0803080431948215   1030000900030000   541119000138190110000000083SeinGayHarParami Cente YANGON        MMR11008031313485579320803000000000000000   10300002F00104100000000000000000000000890     
100   9503051897194821000000000002436000000002436000200000001041040803074611545980MXFIIF0803602161411215   1030000900030000   541119000141190110000000083SeinGayHarParami Cente YANGON        MMR11008030746115459800803000000000000000   10300002F00104100000000000000000000004872     
100   35710900476958400000000000009450000000009450002000000010410408030542265416854901950803865121226215   1030000900030000   541119000114190110000000078Sein Gay Har Kan Thar  YANGONOKKALAP MMR11008030542265416850803000000000000000   10300003F00104100000000000000000000001890     
100   35710500190853540000000000024700000000024700002000000010410408030542405416864553550803866121240215   1030000900030000   541119000162190110000000084Pro (1) Global (Pazund YANGONARTAUNG MMR11008030542405416860803000000000000000   10300005F00104100000000000000000000004940     
100   35710830921528090000000000022150000000022150002000000010410408030545115417753391820803881151211215   1030000900030000   541119000114190110000000078Sein Gay Har Kan Thar  YANGONOKKALAP MMR11008030545115417750803000000000000000   10300003F00104100000000000000000000004430     
100   35710830257448540000000000035000000000035000002000000010410408030717095449714954080803421471309215   1030000900030000   481419000108190110000000045Amara Communications   YANGON        MMR11008030717095449710803000000000000000   10300003F00104100000000000000000000010500     
100   62622000272095720000000000060400000000060400002000000010410408030718275450163122450803429481327215   1030000900030000   541119000159190110000000084Pro (1) Global (Pazund YANGONIKANAUN MMR11008030718275450160803000000000000000   10300006F00104100000000000000000000012080     
100   95031900015110310000000000010800000000010800002000000010410408030720445450931941EF0803447501344215   1030000900030000   599919000195190110000000099119 Fashion Complex (P YANGONN       MMR11008030720445450930803000000000000000   10300014F00104100000000000000000000003240     
100   9503051882912559000000000002800000000002800000200000001041040803091439549105SAYVSS0803206441539215   1030000900030000   541119000286190110000000177Pro1 Global (Insein)   YANGON        MMR11008030914395491050803000000000000000   10300002F00104100000000000000000000005600     
100   35710830276115490000000000037200000000037200002000000010410408030916535492027567490803224461553215   1030000900030000   591219000796190110000000628Shwe Ohh Pharmacy ST-3 YANGONMYOTHIT MMR11008030916535492020803000000000000000   10300003F00104100000000000000000000011160     
100   9503051885093415000000000005600000000005600000200000001041040803080150546540YPVDM90803707311450215   1030000900030000   541119000152190110000000083SeinGayHarParami Cente YANGON        MMR11008030801505465400803000000000000000   10300002F00104100000000000000000000011200     
100   35710500170965100000000000048135000000048135002000000010410408030802325465711418490803715321432215   1030000900030000   581219000761190110000000593Yummy Hot Pot & BBQ(Ya YANGON        MMR11008030802325465710803000000000000000   10300005F00104100000000000000000000016366     
100   35710830890629530000000000057400000000057400002000000010410408030950055504547576270803485201605215   1030000900030000   541119000285190110000000177Pro1 Global (Insein)   YANGON        MMR11008030950055504540803000000000000000   10300003F00104100000000000000000000011480     
100   62444500200346330000000000259000000000259000002000000010410408030510415405645329910803647401141215   1030000900030000   481219000043190110000000048Xiaomi Mobile Shop(Hle YANGONUT      MMR11008030510415405640803000000000000000   10300002F00104100000000000000000000108780     
100   950319000224913600000000000480000000000480000020000000104104080305354554146538H0EF0803826051245215   1030000900030000   569119000655190110000000486High Cultured Fashion  YANGONUT      MMR11008030535455414650803000000000000000   10300014F00104100000000000000000000014400     
100   62622000355297300000000000016300000000016300002000000010410408030535555414733122180803829051255215   1030000900030000   581219000741190110000000573Suzuki Thai Food       YANGONADA     MMR11008030535555414730803000000000000000   10300006F00104100000000000000000000005542     
100   62346600128799910000000000035150000000035150002000000010410408030336325373216554300803037061032215   1030000900030000   591219000609190110000000449Shwe Ohh Pharmacy St-3 YANGONAUNG    MMR11008030336325373210803000000000000000   10300005F00104100000000000000000000010545     
100   62346600143165960000000000005150000000005150002000000010410408030857125484735759100803066271512215   1030000900030000   541119000141190110000000083SeinGayHarParami Cente YANGON        MMR11008030857125484730803000000000000000   10300005F00104100000000000000000000001030     
100   35710500371151590000000000003650000000003650002000000010410408030859355485678911120803090291535215   1030000900030000   541119000282190110000000177Pro1 Global (Insein)   YANGON        MMR11008030859355485670803000000000000000   10300005F00104100000000000000000000000730     
100   35710830229153330000000000004250000000004250002000000010410408030900325486035612590803099301532215   1030000900030000   541119000133190110000000083SeinGayHarParami Cente YANGON        MMR11008030900325486030803000000000000000   10300003F00104100000000000000000000000850     
100   35710500185148180000000000036750000000036750002000000010410408031040225523449574270803925101722215   1030000900030000   581219000635190110000000466King BBQ Time City     YANGONUT      MMR11008031040225523440803000000000000000   10300005F00104100000000000000000000012495     
100   35710500183377720000000000649500000000649500002000000010410408031001295508577189210803569311629215   1030000900030000   541119000374190110000000178Pro (1) Global (East D YANGONMYOTHIT MMR11008031001295508570803000000000000000   10300005F00104100000000000000000000129900     
100   9503051894052360000000000003500000000003500000200000001041040803111433443379ZENMXX0803000003952124   1030000900030000   333400010001202104000002022ACS                    Yangon        MMR11008031114334433790803000000000000000   10300002F05104100000000000000000000021000     
100   62346600168834520000000000031000000000031000002000000010410408030938065500189942240803401081606215   1030000900030000   541119000115190110000000078Sein Gay Har Kan Thar  YANGONOKKALAP MMR11008030938065500180803000000000000000   10300005F00104100000000000000000000006200     
100   35710830509322670000000000023000000000023000002000000010410408030548115418815348680803890181211215   1030000900030000   581219000420190110000000281BCC (JC)               YANGONN       MMR11008030548115418810803000000000000000   10300003F00104100000000000000000000007820     
100   62443000160115270000000000037500000000037500002000000010410408030428015390633130120803352581001215   1030000900030000   541119000286190110000000177Pro1 Global (Insein)   YANGON        MMR11008030428015390630803000000000000000   10300005F00104100000000000000000000013125     
100   35710830309317360000000000004000000000004000002000000010410408030950465504787571670803491201646215   1030000900030000   541119000117190110000000078Sein Gay Har Kan Thar  YANGONOKKALAP MMR11008030950465504780803000000000000000   10300003F00104100000000000000000000000800     
100   35710830685018150000000000055100000000055100002000000010410408031022065516676672040803777521606215   1030000900030000   581219000369190110000000241Beauty In The Pot (PHS YANGON        MMR11008031022065516670803000000000000000   10300003F00104100000000000000000000018734     
100   9503051019745963000000000022609900000022609900200000001041040803120130555368ZVQ3V90803591311830215   1030000900030000   701119000076190110000000024Lotte Hotel            YANGON        MMR11008031201305553680803000000000000000   10300002F00104100000000000000000000076874     
100   35710500300094410000000000001150000000001150002000000010410408030959015507799231520803556291601215   1030000900030000   541119000115190110000000078Sein Gay Har Kan Thar  YANGONOKKALAP MMR11008030959015507790803000000000000000   10300005F00104100000000000000000000000230     
100   35710500185776090000000000020560000000020560002000000010410408030835335477194628020803929051533215   1030000900030000   541119000138190110000000083SeinGayHarParami Cente YANGON        MMR11008030835335477190803000000000000000   10300005F00104100000000000000000000004112     
100   35710500380036770000000000098900000000098900002000000010410408031245545569563192550803896151954215   1030000900030000   599919000638190110000000469MIEVIC Store           YANGONUT      MMR11008031245545569560803000000000000000   10300005F00104100000000000000000000029670     
100   9503051020367096000000000000720000000000720000200000001041040803074311545870KYRTBT0803578131411215   1030000900030000   569119000655190110000000486High Cultured Fashion  YANGONUT      MMR11008030743115458700803000000000000000   10300002F00104100000000000000000000002160     
100   95031900028661110000000000027600000000027600002000000010410408031329265584567F33EF0803172591926215   1030000900030000   541119000120190110000000080Sein Gay Har BAK       YANGONADA     MMR11008031329265584560803000000000000000   10300014F00104100000000000000000000005520     
100   35710500361199050000000000014500000000014500002000000010410408030549415419237825200803893191241215   1030000900030000   599919000638190110000000469MIEVIC Store           YANGONUT      MMR11008030549415419230803000000000000000   10300005F00104100000000000000000000004350     
100   9503051887133813000000000001339800000001339800200000001041040803052321541027VAX1UR0803739531121215   1030000900030000   701119000076190110000000024Lotte Hotel            YANGON        MMR11008030523215410270803000000000000000   10300002F00104100000000000000000000004555     
100   35710830874959810000000000013000000000013000002000000010410408031512324232216068770803000003952618   1030000900030000   333400010001202104000002022ACS                    Yangon        MMR11008031512324232210803000000000000000   10300003F05104100000000000000000000007800     
100   62441900002622220000000000345000000000345000002000000010410408030819305471302881390803801491430215   1030000900030000   594419000600190110000000440Shwe Nan Taw Jewellery YANGON        MMR11008030819305471300803000000000000000   10300003F00104100000000000000000000144900     
100   35710500155505750000000000020000000000020000002000000010410408031025175517943150680803809551617215   1030000900030000   591219000609190110000000449Shwe Ohh Pharmacy St-3 YANGONAUNG    MMR11008031025175517940803000000000000000   10300005F00104100000000000000000000006000     
100   9503051872800327000000000014150000000014150000200000001041040803102559551823GOXFEY0803817551659215   1030000900030000   594419000454190110000000307Shwe San Eain (Junctio YANGONN       MMR11008031025595518230803000000000000000   10300002F00104100000000000000000000042450     
100   35710830434690130000000000300200000000300200002000000010410408030320025002914886470803000003951381   1030000900030000   333300010001202104000002717Near Me Android        Yangon        MMR11008030320025002910803000000000000000   10300003F05104100000000000000000000020000     
100   62346600187802680000000000005200000000005200002000000010410408031314534453969808210803000003952342   1030000900030000   333300010001202104000002659MSP                    Yangon        MMR11008031314534453960803000000000000000   10300005F05104100000000000000000000020000     
100   95031900017179680000000000100200000000100200002000000010410408031236570657932TX2EF0803000003952274   1030000900030000   333300010001202104000002717Near Me Android        Yangon        MMR11008031236570657930803000000000000000   10300014F05104100000000000000000000020000     
100   950319000078989300000000009000000000009000000020000000104104080312465516553660Z2EF0803000003952296   1030000900030000   333800010001202104000003301uab bank               Yangon        MMR11008031246551655360803000000000000000   10300014F05104100000000000000000000540000     
100   35710500166343450000000000104268000000104268002000000010410408030623285430661338150803092531228215   1030000900030000   581219000761190110000000593Yummy Hot Pot & BBQ(Ya YANGON        MMR11008030623285430660803000000000000000   10300005F00104100000000000000000000035451     
100   95031900005439850000000000035175000000035175002000000010410408030950185504628NY1EF0803488201618215   1030000900030000   541119000175190110000000086SeinGayHar (Hlaing Tha YANGONTHARYA  MMR11008030950185504620803000000000000000   10300014F00104100000000000000000000007035     
100   35710830171202200000000000104000000000104000002000000010410408030757535464044042070803692271453215   1030000900030000   594419000454190110000000307Shwe San Eain (Junctio YANGONN       MMR11008030757535464040803000000000000000   10300003F00104100000000000000000000031200     
100   9503051875583219000000000003000000000003000000200000001041040803095020550464NNPH0P0803489201620215   1030000900030000   591219000508190110000000355Shwe Ohh Pharmacy(SanP YANGONNGKUUN  MMR11008030950205504640803000000000000000   10300002F00104100000000000000000000009000     
100   62622000249806880000000000016900000000016900002000000010410408030828065474333211580803866581406215   1030000900030000   541119000170190110000000085SeinGayHar (Dagon Cent YANGONUNG     MMR11008030828065474330803000000000000000   10300006F00104100000000000000000000003380     
100   9503051896722598000000000012652400000012652400200000001041040803083020547510USEUUY0803878001520215   1030000900030000   541119000172190110000000085SeinGayHar (Dagon Cent YANGONUNG     MMR11008030830205475100803000000000000000   10300002F00104100000000000000000000025305     
100   35710500160103970000000000066300000000066300002000000010410408031009125511411383580803631391612215   1030000900030000   541119000290190110000000178Pro (1) Global (East D YANGONMYOTHIT MMR11008031009125511410803000000000000000   10300005F00104100000000000000000000013260     
100   9503051761112057000000000005300000000005300000200000001041040803101126551223VWGHT40803649411626215   1030000900030000   569919000575190110000000415D & C Myanmar (TW)     YANGON        MMR11008031011265512230803000000000000000   10300002F00104100000000000000000000015900     
100   62443000860055320000000000018500000000018500002000000010410408031012325512764278790803667421632215   1030000900030000   541119000286190110000000177Pro1 Global (Insein)   YANGON        MMR11008031012325512760803000000000000000   10300005F00104100000000000000000000006475     
100   35710830089854410000000000048200000000048200002000000010410408031042325524196675350803947121732215   1030000900030000   541119000112190110000000077Sein Gay Har Chinatown YANGON        MMR11008031042325524190803000000000000000   10300003F00104100000000000000000000009640     
100   95031900020642950000000000019900000000019900002000000010410408031044025524866W62EF0803966141702215   1030000900030000   541119000156190110000000083SeinGayHarParami Cente YANGON        MMR11008031044025524860803000000000000000   10300014F00104100000000000000000000003980     
100   9503051020151417000000000003500000000003500000200000001041040803092506549515HZQFCF0803289551506215   1030000900030000   599919000055190110000000050119 Fashion Complex (K YANGONUT      MMR11008030925065495150803000000000000000   10300002F00104100000000000000000000010500     
100   35710830266717180000000000179300000000179300002000000010410408030925565495427661090803295551556215   1030000900030000   591219000500190110000000347Shwe Ohh Pharmacy -2   YANGONUNG     MMR11008030925565495420803000000000000000   10300003F00104100000000000000000000053790     
100   9503051888552458000000000006497500000006497500200000001041040803111125553486106BPG0803191411725215   1030000900030000   581319000651190110000000482Piano Bar              YANGONONE     MMR11008031111255534860803000000000000000   10300002F00104100000000000000000000022092     
100   62346600153064300000000000052321000000052321002000000010410408031112235535278322050803202421723215   1030000900030000   541119000115190110000000078Sein Gay Har Kan Thar  YANGONOKKALAP MMR11008031112235535270803000000000000000   10300005F00104100000000000000000000010464     
100   62346600101312390000000000010600000000010600002000000010410408031113335535697421640803208431733215   1030000900030000   541119000172190110000000085SeinGayHar (Dagon Cent YANGONUNG     MMR11008031113335535690803000000000000000   10300005F00104100000000000000000000002120     
100   35710830146338290000000000010450000000010450002000000010410408031113535535795378520803213431753215   1030000900030000   581219000004190110000000002Yoogane Korea Rest;(MP YANGON        MMR11008031113535535790803000000000000000   10300003F00104100000000000000000000003553     
100   9503051889396335000000000001300000000001300000200000001041040803093734549999EV2T3E0803397071634215   1030000900030000   581219000033190110000000041GloriaJeansCoffee      YANGON        MMR11008030937345499990803000000000000000   10300002F00104100000000000000000000004420     
100   35710830353355290000000000010000000000010000002000000010410408030802563256304961660803000003951839   1030000900030000   333400010001202104000002022ACS                    Yangon        MMR11008030802563256300803000000000000000   10300003F05104100000000000000000000006000     
100   35710830627658040000000000069100000000069100002000000010410408030652315440767954760803255221331215   1030000900030000   581219000761190110000000593Yummy Hot Pot & BBQ(Ya YANGON        MMR11008030652315440760803000000000000000   10300003F00104100000000000000000000023494     
100   35710830073483850000000000056000000000056000002000000010410408030920555493377568150803250501555215   1030000900030000   541119000283190110000000177Pro1 Global (Insein)   YANGON        MMR11008030920555493370803000000000000000   10300003F00104100000000000000000000011200     
100   9503051891120160000000000001800000000001800000200000001041040803064711543898IJZZRA0803227171311215   1030000900030000   594319000754190110000000586Sarpaylawka            YANGONUT      MMR11008030647115438980803000000000000000   10300002F00104100000000000000000000005400     
100   9503051019739065000000000006950000000006950000200000001041040803095502550650NN3CC00803539251602215   1030000900030000   581219000369190110000000241Beauty In The Pot (PHS YANGON        MMR11008030955025506500803000000000000000   10300002F00104100000000000000000000023630     
100   95030801780037810000000000016000000000016000002000000010410408030833075476174964180803904031507215   1030000900030000   581219000083190110000000058313C Bakery            YANGON        MMR11008030833075476170803000000000000000   10300003F00104100000000000000000000005440     
100   95031900009855330000000000005200000000005200002000000010410408031123165316923SF2EF0803000003952128   1030000900030000   333300010001202104000002659MSP                    Yangon        MMR11008031123165316920803000000000000000   10300014F05104100000000000000000000020000     
100   9503051882655513000000000001100000000001100000200000001041040803053435541426BB0HHR0803822041235215   1030000900030000   541119000286190110000000177Pro1 Global (Insein)   YANGON        MMR11008030534355414260803000000000000000   10300002F00104100000000000000000000002200     
100   35710500360740840000000000016500000000016500002000000010410408030627245431879133720803108571224215   1030000900030000   569119000350190110000000217Bench (Myanmar Plaza)  YANGON        MMR11008030627245431870803000000000000000   10300005F00104100000000000000000000004950     
100   9503051887281935000000000001150000000001150000200000001041040803063228543366AYRCKI0803137021328215   1030000900030000   581219000420190110000000281BCC (JC)               YANGONN       MMR11008030632285433660803000000000000000   10300002F00104100000000000000000000003910     
100   35710500140135180000000000043400000000043400002000000010410408030843385479987444280803979131538215   1030000900030000   591219000602190110000000442Shwe Ohh Pharmacy St-5 YANGONARTAUNG MMR11008030843385479980803000000000000000   10300005F00104100000000000000000000013020     
100   35710950799913140000000000643409000000643409002000000010410408030623215430596897790803090531221215   1030000900030000   701119000073190110000000024Lotte Hotel            YANGON        MMR11008030623215430590803000000000000000   10300003F00104100000000000000000000218759     
100   35710830288765540000000000050000000000050000002000000010410408030844135480176665690803981141513215   1030000900030000   541119000288190110000000178Pro (1) Global (East D YANGONMYOTHIT MMR11008030844135480170803000000000000000   10300003F00104100000000000000000000010000     
100   35710500144920270000000000004850000000004850002000000010410408030712025447788115920803383421302215   1030000900030000   541119000168190110000000085SeinGayHar (Dagon Cent YANGONUNG     MMR11008030712025447780803000000000000000   10300005F00104100000000000000000000000970     
100   35710500125946590000000000009000000000009000002000000010410408030712335447987860630803387421333215   1030000900030000   597719000109190110000000075Girls Generation       YANGONUT      MMR11008030712335447980803000000000000000   10300005F00104100000000000000000000002700     
100   35710830134799010000000000020055000000020055002000000010410408030908375489087183920803164381537215   1030000900030000   581219000280190110000000175Min Lan Restaurant (Ka YANGONARTAUNG MMR11008030908375489080803000000000000000   10300003F00104100000000000000000000006819     
100   9503051883259117000000000000810000000000810000200000001041040803101232551277QU0ZDB0803668421632215   1030000900030000   541119000115190110000000078Sein Gay Har Kan Thar  YANGONOKKALAP MMR11008031012325512770803000000000000000   10300002F00104100000000000000000000001620     
100   9503051891445567000000000006000000000006000000200000001041040803042723539050CDXEAV0803350571023215   1030000900030000   541119000286190110000000177Pro1 Global (Insein)   YANGON        MMR11008030427235390500803000000000000000   10300002F00104100000000000000000000012000     
100   9503051894821434000000000005860000000005860000200000001041040803042901539089XZRK380803355591001215   1030000900030000   541119000286190110000000177Pro1 Global (Insein)   YANGON        MMR11008030429015390890803000000000000000   10300002F00104100000000000000000000011720     
100   95031100002152360000000000640600000000640600002000000010410408030425075389713112220803340551007215   1030000900030000   541119000162190110000000084Pro (1) Global (Pazund YANGONARTAUNG MMR11008030425075389710803000000000000000   10300006F00104100000000000000000000128120     
100   35650880310000580000000000035000000000035000002000000010410408031422185218062953420803000003952509   1030000900030000   333400010001202104000002022ACS                    Yangon        MMR11008031422185218060803000000000000000   10300005F05104100000000000000000000021000     
100   62346600142921510000000000430000000000430000002000000010410408030505495403877432020803606351149215   1030000900030000   481219000634190110000000465Xiaomi Mobile Shop (Ti YANGONUT      MMR11008030505495403870803000000000000000   10300005F00104100000000000000000000129000     
100   9503051882983121000000000001550000000001550000200000001041040803050617540405VFFDBB0803609361117215   1030000900030000   599919000189190110000000093119 Fashion Complex (P YANGONN       MMR11008030506175404050803000000000000000   10300002F00104100000000000000000000004650     
100   9503051895066989000000000000400000000000400000200000001041040803052911541226UNAQQZ0803776591111215   1030000900030000   581219000371190110000000243Jo Jo Hot Pot (Junctio YANGONN       MMR11008030529115412260803000000000000000   10300002F00104100000000000000000000001360     
100   62346600170843160000000000007314000000007314002000000010410408030956575507092415740803546261657215   1030000900030000   541119000115190110000000078Sein Gay Har Kan Thar  YANGONOKKALAP MMR11008030956575507090803000000000000000   10300005F00104100000000000000000000001463     
100   35710830023637280000000000031600000000031600002000000010410408031135455544617201870803423051845215   1030000900030000   541119000156190110000000083SeinGayHarParami Cente YANGON        MMR11008031135455544610803000000000000000   10300003F00104100000000000000000000006320     
100   35710500331586170000000000019005000000019005002000000010410408031136095544764368580803428061809215   1030000900030000   581219000527190110000000375Mr.Chef (Golden Valley YANGON        MMR11008031136095544760803000000000000000   10300005F00104100000000000000000000006462     
100   9503051893163499000000000001606500000001606500200000001041040803113651554499TF3CKN0803434061851215   1030000900030000   581219000722190110000000553Noodle Bowl            YANGON        MMR11008031136515544990803000000000000000   10300002F00104100000000000000000000005462     
100   35710500321652170000000000014600000000014600002000000010410408031138085545577552800803447081808215   1030000900030000   599919000055190110000000050119 Fashion Complex (K YANGONUT      MMR11008031138085545570803000000000000000   10300005F00104100000000000000000000004380     
100   35710830603371270000000000055000000000055000002000000010410408031139345546095518120803461091834215   1030000900030000   569119000433190110000000291Zoey Fashion (Market P YANGON        MMR11008031139345546090803000000000000000   10300003F00104100000000000000000000016500     
100   62622000776797320000000000014000000000014000002000000010410408031206215555523914460803636361821215   1030000900030000   541119000114190110000000078Sein Gay Har Kan Thar  YANGONOKKALAP MMR11008031206215555520803000000000000000   10300006F00104100000000000000000000002800     
100   9503051020082653000000000007340000000007340000200000001041040803120906555651NJMXK60803651391806215   1030000900030000   569119000350190110000000217Bench (Myanmar Plaza)  YANGON        MMR11008031209065556510803000000000000000   10300002F00104100000000000000000000022020     
100   9503054000326876000000000008420000000008420000200000001041040803140345559598QWNRDE0803360332045215   1030000900030000   581219000294190110000000182Kou Fu Restaurant (May YANGON        MMR11008031403455595980803000000000000000   10300002F00104100000000000000000000028628     
100   62346600136159070000000001500200000001500200002000000010410408021758032803181445940803000003951168   1030000900030000   333300010001202104000000505Near Me iOS            Yangon        MMR11008021758032803180803000000000000000   10300005F05104100000000000000000000020000     
100   62622000672617230000000000030240000000030240002000000010410408030702445444373122420803322321344215   1030000900030000   581219000032190110000000040Hot Pot King Time City YANGONUT      MMR11008030702445444370803000000000000000   10300006F00104100000000000000000000010282     
100   35710500132371000000000000012800000000012800002000000010410408030634315434527234020803156041331215   1030000900030000   541119000148190110000000083SeinGayHarParami Cente YANGON        MMR11008030634315434520803000000000000000   10300005F00104100000000000000000000002560     
100   9503051872679218000000000001000000000001000000200000001041040803071008544723ACSBCE0803375401308215   1030000900030000   554119000344190110000000211New Day Energy - 1     YANGONUNG     MMR11008030710085447230803000000000000000   10300002F00104100000000000000000000001500     
100   35710500114649040000000000020000000000020000002000000010410408030752325461915752830803630221432215   1030000900030000   599919000701190110000000532Amazing Mart (Baho Roa YANGONUT      MMR11008030752325461910803000000000000000   10300005F00104100000000000000000000006000     
100   62346600141954200000000000011686000000011686002000000010410408030824535473103104360803837541453215   1030000900030000   581219000719190110000000550Chilli Pot Mala Xiang  YANGON        MMR11008030824535473100803000000000000000   10300005F00104100000000000000000000003973     
100   950305189165696500000000000209750000000209750020000000104104080304164053866458KUP60803266461040215   1030000900030000   597719000109190110000000075Girls Generation       YANGONUT      MMR11008030416405386640803000000000000000   10300002F00104100000000000000000000006292     
100   62346600150868670000000000197000000000197000002000000010410408030908415489126862100803167381541215   1030000900030000   594419000631190110000000462Shwe San Eain GemsTime YANGONUT      MMR11008030908415489120803000000000000000   10300005F00104100000000000000000000059100     
100   95030518886917280000000000013230000000013230002000000010410408030908465489163AKJAQ0803169381546215   1030000900030000   541119000172190110000000085SeinGayHar (Dagon Cent YANGONUNG     MMR11008030908465489160803000000000000000   10300002F00104100000000000000000000002646     
100   35710830058796960000000000002850000000002850002000000010410408030751065461455360620803623211406215   1030000900030000   581419000743190110000000575Chatime Bubble Tea (Ti YANGONUT      MMR11008030751065461450803000000000000000   10300003F00104100000000000000000000000427     
100   62443101061347170000000000065500000000065500002000000010410408030754365462627541260803648241436215   1030000900030000   581219000635190110000000466King BBQ Time City     YANGONUT      MMR11008030754365462620803000000000000000   10300001F00104100000000000000000000038972     
100   35710500391188960000000000008085000000008085002000000010410408030940335501017729730803414101633215   1030000900030000   581219000280190110000000175Min Lan Restaurant (Ka YANGONARTAUNG MMR11008030940335501010803000000000000000   10300005F00104100000000000000000000002749     
100   95031900044114520000000000023700000000023700002000000010410408030941435501455BX1EF0803419111643215   1030000900030000   599919000190190110000000094119 Fashion (North Okk YANGONOKKALAP MMR11008030941435501450803000000000000000   10300014F00104100000000000000000000007110     
100   35710500175696800000000000051800000000051800002000000010410408030749305460920508300803617191430215   1030000900030000   569119000737190110000000569Di Fashion(NorthDagon) YANGONMYOTHIT MMR11008030749305460920803000000000000000   10300005F00104100000000000000000000015540     
100   35710500123998280000000000004700000000004700002000000010410408030944015502253488700803434141601215   1030000900030000   541119000376190110000000178Pro (1) Global (East D YANGONMYOTHIT MMR11008030944015502250803000000000000000   10300005F00104100000000000000000000000940     
100   9503051895441034000000000009960000000009960000200000001041040803052928541237STA1BV0803778591128215   1030000900030000   581219000369190110000000241Beauty In The Pot (PHS YANGON        MMR11008030529285412370803000000000000000   10300002F00104100000000000000000000033864     
100   35710500340218890000000000020000000000020000002000000010410408030528025411882541770803768581102215   1030000900030000   554119000348190110000000215New Day Energy - 5     YANGONONE     MMR11008030528025411880803000000000000000   10300005F00104100000000000000000000003000     
100   950319000422008500000000000050000000000050000020000000104104080308180648063019E1EF0803000003951862   1030000900030000   333400010001202104000002022ACS                    Yangon        MMR11008030818064806300803000000000000000   10300014F05104100000000000000000000003000     
100   9503051886118039000000000001520000000001520000200000001041040803161126412693IRTNZX0803000003952698   1030000900030000   333300010001202104000002717Near Me Android        Yangon        MMR11008031611264126930803000000000000000   10300002F05104100000000000000000000020000     
100   9503051873871046000000000020450000000020450000200000001041040803032948537089CE0FZB0803997590948215   1030000900030000   541119000287190110000000177Pro1 Global (Insein)   YANGON        MMR11008030329485370890803000000000000000   10300002F00104100000000000000000000040900     
100   35650883620000730000000000108900000000108900002000000010410408030406475383389029350803211361047215   1030000900030000   591219000503190110000000350Shwe Ohh Pharmacy (WZD YANGONNGKUUN  MMR11008030406475383380803000000000000000   10300005F00104100000000000000000000045738     
100   62622000388252830000000000082700000000082700002000000010410408030408515383843893460803215381051215   1030000900030000   541119000170190110000000085SeinGayHar (Dagon Cent YANGONUNG     MMR11008030408515383840803000000000000000   10300006F00104100000000000000000000016540     
100   35710830381323940000000000057400000000057400002000000010410408030410045384367837170803226401004215   1030000900030000   591219000691190110000000522Shwe Ohh Pharmacy ST-1 YANGONUNG     MMR11008030410045384360803000000000000000   10300003F00104100000000000000000000017220     
100   62343301014119040000000000012760000000012760002000000010410408031210155556890000000803660401815215   1030000900030000   581219000004190110000000002Yoogane Korea Rest;(MP YANGON        MMR11008031210155556890803000000000000000   10300004F00104100000000000000000000004338     
100   35710830809134020000000000016400000000016400002000000010410408031210575557146681650803662401857215   1030000900030000   541119000166190110000000085SeinGayHar (Dagon Cent YANGONUNG     MMR11008031210575557140803000000000000000   10300003F00104100000000000000000000003280     
100   62343301016990030000000000023100000000023100002000000010410408031210595557170000000803664401859215   1030000900030000   581219000004190110000000002Yoogane Korea Rest;(MP YANGON        MMR11008031210595557170803000000000000000   10300004F00104100000000000000000000007854     
100   35710500127421260000000000005000000000005000002000000010410408031407493749303472070803000003952453   1030000900030000   333400010001202104000002022ACS                    Yangon        MMR11008031407493749300803000000000000000   10300005F05104100000000000000000000003000     
100   35710500114649040000000000087000000000087000002000000010410408030512555406345296530803660421155215   1030000900030000   594419000631190110000000462Shwe San Eain GemsTime YANGONUT      MMR11008030512555406340803000000000000000   10300005F00104100000000000000000000026100     
100   35710830997128940000000000210400000000210400002000000010410408030514265406873207400803668441126215   1030000900030000   569119000737190110000000569Di Fashion(NorthDagon) YANGONMYOTHIT MMR11008030514265406870803000000000000000   10300003F00104100000000000000000000063120     
100   950319000061757300000000002500000000002500000020000000104104080305163454076078C0EF0803681461134215   1030000900030000   541119000179190110000000086SeinGayHar (Hlaing Tha YANGONTHARYA  MMR11008030516345407600803000000000000000   10300014F00104100000000000000000000050000     
100   62346600165193380000000000010000000000010000002000000010410408031109003900431698320803000003952118   1030000900030000   333400010001202104000002022ACS                    Yangon        MMR11008031109003900430803000000000000000   10300005F05104100000000000000000000006000     
100   62346600196386630000000000035000000000035000002000000010410408030424495449237832280803000003951494   1030000900030000   333400010001202104000002022ACS                    Yangon        MMR11008030424495449230803000000000000000   10300005F05104100000000000000000000021000     
100   950319000526835600000000000054600000000054600020000000104104080309465855033627Y1EF0803463161658215   1030000900030000   581219000280190110000000175Min Lan Restaurant (Ka YANGONARTAUNG MMR11008030946585503360803000000000000000   10300014F00104100000000000000000000001856     
100   35710500321333970000000000072800000000072800002000000010410408030827115473995764210803857571411215   1030000900030000   581219000205190110000000107Canton Paradise        YANGON        MMR11008030827115473990803000000000000000   10300005F00104100000000000000000000024752     
100   35710950175437140000000000034800000000034800002000000010410408030427555390617495440803351571055215   1030000900030000   541119000166190110000000085SeinGayHar (Dagon Cent YANGONUNG     MMR11008030427555390610803000000000000000   10300003F00104100000000000000000000006960     
100   9503051891622892000000000003900000000003900000200000001041040802163836518971NZWEES0803295082336214   1030000900030000   701119000428190110000000288Hlaine Tet Hotel       YANGONONE     MMR11008021638365189710803000000000000000   10300002F00104100000000000000000000013260     
100   62346600118748450000000000031000000000031000002000000010410408021748521852733438810803000003951159   1030000900030000   333400010001202104000002022ACS                    Yangon        MMR11008021748521852730803000000000000000   10300005F05104100000000000000000000018600     
100   35710830135190110000000000003000000000003000002000000010410408031135470547685476430803000003952155   1030000900030000   333400010001202104000002022ACS                    Yangon        MMR11008031135470547680803000000000000000   10300003F05104100000000000000000000001800     
100   35710830753648840000000000455000000000455000002000000010410408030522165409875804580803732521116215   1030000900030000   541119000284190110000000177Pro1 Global (Insein)   YANGON        MMR11008030522165409870803000000000000000   10300003F00104100000000000000000000091000     
100   95030518922947580000000000010000000000010000002000000010410408030823535472771FHLWZ0803830531453215   1030000900030000   481219000644190110000000475Remax By Telegod Times YANGONUT      MMR11008030823535472770803000000000000000   10300002F00104100000000000000000000003000     
100   35710900588285200000000000044200000000044200002000000010410408030824585473155466180803838541458215   1030000900030000   597719000334190110000000229Mi Mi Dara Cosmetic    YANGONOKKALAP MMR11008030824585473150803000000000000000   10300003F00104100000000000000000000013260     
100   9503051891382653000000000003600000000003600000200000001041040803095957550810EFXUAI0803563291657215   1030000900030000   569119000655190110000000486High Cultured Fashion  YANGONUT      MMR11008030959575508100803000000000000000   10300002F00104100000000000000000000010800     
100   95031900020250150000000000005400000000005400002000000010410408031000525508384902EF0803565301652215   1030000900030000   599919000199190110000000103119 Fashion (BuyMoreGe YANGON        MMR11008031000525508380803000000000000000   10300014F00104100000000000000000000001620     
100   35710830739763410000000000073689000000073689002000000010410408030822385472334672160803822521438215   1030000900030000   701119000073190110000000024Lotte Hotel            YANGON        MMR11008030822385472330803000000000000000   10300003F00104100000000000000000000025054     
100   35710950574496810000000000063150000000063150002000000010410408031001545508773528460803572311654215   1030000900030000   581219000206190110000000108Beauty in the Pot      YANGON        MMR11008031001545508770803000000000000000   10300003F00104100000000000000000000021471     
100   95030800027630300000000000035000000000035000002000000010410408030414545386004894350803259441054215   1030000900030000   541119000133190110000000083SeinGayHarParami Cente YANGON        MMR11008030414545386000803000000000000000   10300003F00104100000000000000000000007000     
100   62346600126956520000000000033000000000033000002000000010410408030417175386926583410803269471017215   1030000900030000   599919000187190110000000091119 Fashion Complex (L YANGON        MMR11008030417175386920803000000000000000   10300005F00104100000000000000000000009900     
100   95030801400290880000000000035000000000035000002000000010410408030243521352177948610803000003951327   1030000900030000   333400010001202104000002022ACS                    Yangon        MMR11008030243521352170803000000000000000   10300003F05104100000000000000000000021000     
100   35710830878270430000000000037800000000037800002000000010410408030853375483544045850803044231537215   1030000900030000   591219000796190110000000628Shwe Ohh Pharmacy ST-3 YANGONMYOTHIT MMR11008030853375483540803000000000000000   10300003F00104100000000000000000000011340     
100   9503051886678073000000000012500000000012500000200000001041040803103223552049YBDTYD0803861021723215   1030000900030000   541119000153190110000000083SeinGayHarParami Cente YANGON        MMR11008031032235520490803000000000000000   10300002F00104100000000000000000000025000     
100   9503051893981635000000000001800000000001800000200000001041040803103352552109Z89MKT0803876031752215   1030000900030000   591219000502190110000000349Shwe Ohh Pharmacy -4   YANGON        MMR11008031033525521090803000000000000000   10300002F00104100000000000000000000005400     
100   35710500143968480000000000008640000000008640002000000010410408031036145521968681940803895061714215   1030000900030000   541119000115190110000000078Sein Gay Har Kan Thar  YANGONOKKALAP MMR11008031036145521960803000000000000000   10300005F00104100000000000000000000001728     
100   9503051873940783000000000027700000000027700000200000001041040803091703549208BZTM8L0803225471503215   1030000900030000   594419000454190110000000307Shwe San Eain (Junctio YANGONN       MMR11008030917035492080803000000000000000   10300002F00104100000000000000000000083100     
100   35710830872445380000000000245250000000245250002000000010410408030917085492117184550803227471508215   1030000900030000   541119000283190110000000177Pro1 Global (Insein)   YANGON        MMR11008030917085492110803000000000000000   10300003F00104100000000000000000000049050     
100   9503051887484117000000000004700000000004700000200000001041040803091921549293E8NF9Y0803242491521215   1030000900030000   504719000410190110000000274Ye Optical             YANGONN       MMR11008030919215492930803000000000000000   10300002F00104100000000000000000000014100     
100   35710830880543160000000000016350000000016350002000000010410408030239515354503788310803755090951215   1030000900030000   581219000205190110000000107Canton Paradise        YANGON        MMR11008030239515354500803000000000000000   10300003F00104100000000000000000000005559     
100   9503051020386781000000000003185000000003185000200000001041040803034052537470BLBE5Y0803069101052215   1030000900030000   581219000205190110000000107Canton Paradise        YANGON        MMR11008030340525374700803000000000000000   10300002F00104100000000000000000000010829     
100   35710830470174530000000000037050000000037050002000000010410408030346475376555335110803093161047215   1030000900030000   541119000159190110000000084Pro (1) Global (Pazund YANGONIKANAUN MMR11008030346475376550803000000000000000   10300003F00104100000000000000000000007410     
