000   10300009200718
100   62346600180324960000000000184500000000184500002000000010410407181130087643671579020718730001808199   1030000900030000   594419000708190110000000539Zwe Htet Gems & Jewell YANGON        MMR11007181130087643670718000000000000000   10300005F00104100000000000000000000055350     
100   9503051889155160000000000018020000000018020000200000001041040717164114111472NV9QKY0718000003911831   1030000900030000   333300010001202104000002659MSP                    Yangon        MMR11007171641141114720718000000000000000   10300002F05104100000000000000000000020000     
100   35650880360001030000000000020200000000020200002000000010410407180551542154399448700718000003912450   1030000900030000   333300010001202104000002717Near Me Android        Yangon        MMR11007180551542154390718000000000000000   10300005F05104100000000000000000000020000     
100   35710830101008310000000000035750000000035750002000000010410407180531357507885068910718816011235199   1030000900030000   541119000138190110000000083SeinGayHarParami Cente YANGON        MMR11007180531357507880718000000000000000   10300003F00104100000000000000000000007150     
100   35710500173386150000000000010000000000010000002000000010410407180150112011586710300718000003911988   1030000900030000   333400010001202104000002022ACS                    Yangon        MMR11007180150112011580718000000000000000   10300005F05104100000000000000000000006000     
100   62921400036333420000000000003000000000003000002000000010410407180331270127973333330718000003912146   1030000900030000   333400010001202104000002022ACS                    Yangon        MMR11007180331270127970718000000000000000   10300009F05104100000000000000000000001800     
100   35710830034322820000000000031450000000031450002000000010410407180851547582838675870718378211554199   1030000900030000   581219000031190110000000039Tom N Toms Coffee      YANGON        MMR11007180851547582830718000000000000000   10300003F00104100000000000000000000010693     
100   950319000384794600000000000544000000000544000020000000104104071808002475638283350F0718970301424199   1030000900030000   541119000349190110000000216Amazing Mart (South Da YANGONMYOTHIT MMR11007180800247563820718000000000000000   10300014F00104100000000000000000000010880     
100   95030540005866100000000000025129000000025129002000000010410407180622227527067E9KCX0718202521222199   1030000900030000   701119000076190110000000024Lotte Hotel            YANGON        MMR11007180622227527060718000000000000000   10300002F00104100000000000000000000008544     
100   35710500152947780000000000023240000000023240002000000010410407180811297567664406670718039411429199   1030000900030000   581219000721190110000000552Chilli Pot Mala Xiang  YANGONOKKALAP MMR11007180811297567660718000000000000000   10300005F00104100000000000000000000007902     
100   35710500184086150000000000059000000000059000002000000010410407180812027567948137110718045421402199   1030000900030000   541119000163190110000000084Pro (1) Global (Pazund YANGONARTAUNG MMR11007180812027567940718000000000000000   10300005F00104100000000000000000000011800     
100   35710830174533730000000000032855000000032855002000000010410407180813107568346038500718054431410199   1030000900030000   581219000698190110000000529Pizzamaru Myanmar (San YANGONUNG     MMR11007180813107568340718000000000000000   10300003F00104100000000000000000000011171     
100   35710500322366040000000000016761000000016761002000000010410407180814337568885378380718066441433199   1030000900030000   581219000719190110000000550Chilli Pot Mala Xiang  YANGON        MMR11007180814337568880718000000000000000   10300005F00104100000000000000000000005699     
100   95030518764637420000000000599500000000599500002000000010410407181034347621995LUEKS0718255041734199   1030000900030000   594419000706190110000000537Zwe Htet Gems & Jewell YANGONAW      MMR11007181034347621990718000000000000000   10300002F00104100000000000000000000179850     
100   62346600122549220000000000000700000000000700002000000010410407181036587623036442490718284061758199   1030000900030000   541119000375190110000000178Pro (1) Global (East D YANGONMYOTHIT MMR11007181036587623030718000000000000000   10300005F00104100000000000000000000000140     
100   9503051891456812000000000008745000000008745000200000001041040718111522763767NF9I500718595451722199   1030000900030000   591219000502190110000000349Shwe Ohh Pharmacy -4   YANGON        MMR11007181115227637670718000000000000000   10300002F00104100000000000000000000026235     
100   9503051896694029000000000001000000000001000000200000001041040718071704754738EEFDAV0718629471304199   1030000900030000   581219000031190110000000039Tom N Toms Coffee      YANGON        MMR11007180717047547380718000000000000000   10300002F00104100000000000000000000003400     
100   62346600147447300000000000184000000000184000002000000010410407180852357583203211960718385221535199   1030000900030000   541119000286190110000000177Pro1 Global (Insein)   YANGON        MMR11007180852357583200718000000000000000   10300005F00104100000000000000000000036800     
100   35710500101876620000000000046000000000046000002000000010410407180852357583216176540718386221535199   1030000900030000   569919000575190110000000415D & C Myanmar (TW)     YANGON        MMR11007180852357583210718000000000000000   10300005F00104100000000000000000000013800     
100   95030518820248920000000000023200000000023200002000000010410407180541327511514HB3BV0718890111232199   1030000900030000   541119000288190110000000178Pro (1) Global (East D YANGONMYOTHIT MMR11007180541327511510718000000000000000   10300002F00104100000000000000000000004640     
100   62443000103174820000000000005300000000005300002000000010410407180542027511717165950718894121202199   1030000900030000   541119000381190110000000248Victoria Hyper Mart    YANGON        MMR11007180542027511710718000000000000000   10300005F00104100000000000000000000001855     
100   35710500102177820000000000019700000000019700002000000010410407181325587686463292150718588551958199   1030000900030000   599919000197190110000000101119 Fashion Complex (I YANGON        MMR11007181325587686460718000000000000000   10300005F00104100000000000000000000005910     
100   35710500173231790000000000011500000000011500002000000010410407181326157686648504880718593561915199   1030000900030000   599919000055190110000000050119 Fashion Complex (K YANGONUT      MMR11007181326157686640718000000000000000   10300005F00104100000000000000000000003450     
100   9503051882273507000000000037217200000037217200200000001041040718133054768835BNNMOW0718629002054199   1030000900030000   581219000280190110000000175Min Lan Restaurant (Ka YANGONARTAUNG MMR11007181330547688350718000000000000000   10300002F00104100000000000000000000126538     
100   35710500136399250000000000129000000000129000002000000010410407180935287599039909350718710051628199   1030000900030000   481219000710190110000000541I Sure Technology Co., YANGONAUNG    MMR11007180935287599030718000000000000000   10300005F00104100000000000000000000038700     
100   35710830903854270000000000014950000000014950002000000010410407180939317600537736290718740091631199   1030000900030000   581219000590190110000000430The Tea Club           YANGON        MMR11007180939317600530718000000000000000   10300003F00104100000000000000000000005083     
100   35710830166925000000000000010000000000010000002000000010410407181148367650896473410718881181836199   1030000900030000   554119000348190110000000215New Day Energy - 5     YANGONONE     MMR11007181148367650890718000000000000000   10300003F00104100000000000000000000001500     
100   9503051878927488000000000084000000000084000000200000001041040718115043765164UOCZPY0718891201843199   1030000900030000   59441900052919011000000037729 Jewellery           YANGONUT      MMR11007181150437651640718000000000000000   10300002F00104100000000000000000000252000     
100   35710830137110710000000000071000000000071000002000000010410407181150577651705199600718894201857199   1030000900030000   594419000454190110000000307Shwe San Eain (Junctio YANGONN       MMR11007181150577651700718000000000000000   10300003F00104100000000000000000000021300     
100   9503051877230348000000000003100000000003100000200000001041040718115320765261AFDGLW0718913231820199   1030000900030000   541119000168190110000000085SeinGayHar (Dagon Cent YANGONUNG     MMR11007181153207652610718000000000000000   10300002F00104100000000000000000000006200     
100   35710830945120830000000000010000000000010000002000000010410407180335490549035516340718000003912153   1030000900030000   333800010001202104000003301uab bank               Yangon        MMR11007180335490549030718000000000000000   10300003F05104100000000000000000000006000     
100   35710830060260990000000000035000000000035000002000000010410407180354232423413666400718000003912197   1030000900030000   333400010001202104000002022ACS                    Yangon        MMR11007180354232423410718000000000000000   10300003F05104100000000000000000000021000     
100   62443000103005040000000000014400000000014400002000000010410407180639567533833848490718365091356199   1030000900030000   541119000115190110000000078Sein Gay Har Kan Thar  YANGONOKKALAP MMR11007180639567533830718000000000000000   10300005F00104100000000000000000000005040     
100   35710500100812120000000000066000000000066000002000000010410407180651397538409379750718479211339199   1030000900030000   554119000348190110000000215New Day Energy - 5     YANGONONE     MMR11007180651397538400718000000000000000   10300005F00104100000000000000000000009900     
100   9503051896930472000000000003500000000003500000200000001041040718120202320287ZWY9GB0718000003913095   1030000900030000   333400010001202104000002022ACS                    Yangon        MMR11007181202023202870718000000000000000   10300002F05104100000000000000000000021000     
100   9503051877475810000000000009930000000009930000200000001041040718080639756601ZC0GXX0718008361439199   1030000900030000   591219000502190110000000349Shwe Ohh Pharmacy -4   YANGON        MMR11007180806397566010718000000000000000   10300002F00104100000000000000000000029790     
100   62346600150455170000000000031500000000031500002000000010410407181114207637318045340718586441720199   1030000900030000   581219000653190110000000484Jazz Cafe (TC)         YANGONUT      MMR11007181114207637310718000000000000000   10300005F00104100000000000000000000010710     
100   62346600160819170000000000100200000000100200002000000010410407181209303930426330040718000003913107   1030000900030000   333300010001202104000002717Near Me Android        Yangon        MMR11007181209303930420718000000000000000   10300005F05104100000000000000000000020000     
100   35710830684080030000000002372050000002372050002000000010410407180936257599375795290718718061625199   1030000900030000   541119000287190110000000177Pro1 Global (Insein)   YANGON        MMR11007180936257599370718000000000000000   10300003F00104100000000000000000000474410     
100   9503051872618687000000000012025000000012025000200000001041040718081119756754JY6ANO0718031411419199   1030000900030000   581219000206190110000000108Beauty in the Pot      YANGON        MMR11007180811197567540718000000000000000   10300002F00104100000000000000000000040885     
100   9503051873195347000000000003920000000003920000200000001041040718111614763802J5PKZC0718598461714199   1030000900030000   599919000758190110000000590Susen Bag Collection(T YANGONUT      MMR11007181116147638020718000000000000000   10300002F00104100000000000000000000011760     
100   35710830463697560000000000020500000000020500002000000010410407181118297639046232710718627481729199   1030000900030000   541119000117190110000000078Sein Gay Har Kan Thar  YANGONOKKALAP MMR11007181118297639040718000000000000000   10300003F00104100000000000000000000004100     
100   95051010190888780000000000035000000000035000002000000010410407181248231823868183010718000003913175   1030000900030000   333400010001202104000002022ACS                    Yangon        MMR11007181248231823860718000000000000000   10300005F05104100000000000000000000021000     
100   62346600161944130000000000002500000000002500002000000010410407180205563556793246250718000003912003   1030000900030000   333400010001202104000002022ACS                    Yangon        MMR11007180205563556790718000000000000000   10300005F05104100000000000000000000001500     
100   95031900000388040000000003000200000003000200002000000010410407181209163916139X970F0718000003913105   1030000900030000   333300010001202104000002717Near Me Android        Yangon        MMR11007181209163916130718000000000000000   10300014F05104100000000000000000000020000     
100   9503051020045130000000000052300000000052300000200000001041040718084615758079UVRXVW0718335161515199   1030000900030000   594419000454190110000000307Shwe San Eain (Junctio YANGONN       MMR11007180846157580790718000000000000000   10300002F00104100000000000000000000156900     
100   62346600100541910000000000005300000000005300002000000010410407180847097581079253800718339171509199   1030000900030000   581419000666190110000000497MIKUCHA MYANMAR        YANGONUT      MMR11007180847097581070718000000000000000   10300005F00104100000000000000000000000795     
100   35710950755549590000000000053850000000053850002000000010410407180523587504924944830718746531158199   1030000900030000   541119000286190110000000177Pro1 Global (Insein)   YANGON        MMR11007180523587504920718000000000000000   10300003F00104100000000000000000000010770     
100   62441900003431470000000000010500000000010500002000000010410407181331217688589707660718631012021199   1030000900030000   541119000112190110000000077Sein Gay Har Chinatown YANGON        MMR11007181331217688580718000000000000000   10300003F00104100000000000000000000003675     
100   35710830562845640000000000018000000000018000002000000010410407181335147689785248350718646052014199   1030000900030000   592119000256190110000000151Htun Htun Oo Liquor (B YANGON        MMR11007181335147689780718000000000000000   10300003F00104100000000000000000000005400     
100   35710830691563790000000000225500000000225500002000000010410407181049007627544874360718380191700199   1030000900030000   581219000205190110000000107Canton Paradise        YANGON        MMR11007181049007627540718000000000000000   10300003F00104100000000000000000000076670     
100   62441900102987110000000000043600000000043600002000000010410407181049327627729017340718385191732199   1030000900030000   541119000286190110000000177Pro1 Global (Insein)   YANGON        MMR11007181049327627720718000000000000000   10300003F00104100000000000000000000015260     
100   95030518969508430000000000019059000000019059002000000010410407181135567646194KI7N40718792051856199   1030000900030000   581219000649190110000000480Malar City (Malar Xing YANGONUT      MMR11007181135567646190718000000000000000   10300002F00104100000000000000000000006480     
100   35650883622354710000000000006000000000006000002000000010410407181138447647229863290718817081844199   1030000900030000   599919000190190110000000094119 Fashion (North Okk YANGONOKKALAP MMR11007181138447647220718000000000000000   10300005F00104100000000000000000000002520     
100   35710830952633630000000000038500000000038500002000000010410407181235447668754557350718269051944199   1030000900030000   591219000506190110000000353Shwe Ohh Pharmacy -8   YANGON        MMR11007181235447668750718000000000000000   10300003F00104100000000000000000000011550     
100   35710500116677380000000000150000000000150000002000000010410407181236077668908487740718273061907199   1030000900030000   581319000363190110000000236Safe House Club        YANGON        MMR11007181236077668900718000000000000000   10300005F00104100000000000000000000051000     
100   62346600121457160000000000344200000000344200002000000010410407180319597460990223920718977490959199   1030000900030000   541119000162190110000000084Pro (1) Global (Pazund YANGONARTAUNG MMR11007180319597460990718000000000000000   10300005F00104100000000000000000000068840     
100   62443000804455280000000000030150000000030150002000000010410407180325057462670578100718009550905199   1030000900030000   541119000380190110000000248Victoria Hyper Mart    YANGON        MMR11007180325057462670718000000000000000   10300005F00104100000000000000000000010552     
100   95050327821859320000000000943000000000943000002000000010410407180327517463725468400718028570951199   1030000900030000   594419000584190110000000424Zwe Htet Gems & Jewell MANDALAYHARSA MMR11007180327517463720718000000000000000   10300001F00104100000000000000000000396060     
100   9503051880812496000000000003220000000003220000200000001041040718063554753226CQPNX30718332051354199   1030000900030000   541119000172190110000000085SeinGayHar (Dagon Cent YANGONUNG     MMR11007180635547532260718000000000000000   10300002F00104100000000000000000000006440     
100   35710500180390550000000000042400000000042400002000000010410407180726337550831539460718698561333199   1030000900030000   581219000369190110000000241Beauty In The Pot (PHS YANGON        MMR11007180726337550830718000000000000000   10300005F00104100000000000000000000014416     
100   62441901002225710000000000079000000000079000002000000010410407180901357586586815840718467311535199   1030000900030000   569919000575190110000000415D & C Myanmar (TW)     YANGON        MMR11007180901357586580718000000000000000   10300003F00104100000000000000000000033180     
100   35710830489028360000000000031850000000031850002000000010410407180902297587015511830718474321529199   1030000900030000   591219000501190110000000348Shwe Ohh Pharmacy (SmL YANGONUT      MMR11007180902297587010718000000000000000   10300003F00104100000000000000000000009555     
100   35710830019940690000000000066000000000066000002000000010410407180905117587960029610718493351511199   1030000900030000   569919000575190110000000415D & C Myanmar (TW)     YANGON        MMR11007180905117587960718000000000000000   10300003F00104100000000000000000000019800     
100   9503051897439069000000000006600000000006600000200000001041040718095238760568Y3BHQL0718858221638199   1030000900030000   569919000575190110000000415D & C Myanmar (TW)     YANGON        MMR11007180952387605680718000000000000000   10300002F00104100000000000000000000019800     
100   62444500200268780000000000059150000000059150002000000010410407180405027477282943630718272351002199   1030000900030000   541119000160190110000000084Pro (1) Global (Pazund YANGONARTAUNG MMR11007180405027477280718000000000000000   10300002F00104100000000000000000000020702     
100   9503051890633718000000000006900000000006900000200000001041040718124054767077C8FIS80718315101954199   1030000900030000   569919000575190110000000415D & C Myanmar (TW)     YANGON        MMR11007181240547670770718000000000000000   10300002F00104100000000000000000000020700     
100   9503051020367906000000000039735000000039735000200000001041040718090617758840USRLUS0718504361517199   1030000900030000   591219000505190110000000352Shwe Ohh Pharmacy (THU YANGON        MMR11007180906177588400718000000000000000   10300002F00104100000000000000000000119205     
100   62444500100222260000000000005200000000005200002000000010410407181302497678794372800718473321949199   1030000900030000   541119000112190110000000077Sein Gay Har Chinatown YANGON        MMR11007181302497678790718000000000000000   10300002F00104100000000000000000000001820     
100   35710830872187970000000000011700000000011700002000000010410407180956487607394719080718911261648199   1030000900030000   541119000172190110000000085SeinGayHar (Dagon Cent YANGONUNG     MMR11007180956487607390718000000000000000   10300003F00104100000000000000000000002340     
100   9503051892531084000000000003200000000003200000200000001041040718091913759330H3J6JS0718602491513199   1030000900030000   481219000767190110000000599Remax By Telegod(GMP)  YANGONUT      MMR11007180919137593300718000000000000000   10300002F00104100000000000000000000009600     
100   35710500133596720000000000061900000000061900002000000010410407171629317272740146130718101592231198   1030000900030000   581219000202190110000000105RedDot Brew House(Saya YANGON        MMR11007171629317272740718000000000000000   10300005F00104100000000000000000000021046     
100   95030201003088170000000000099000000000099000002000000010410407180525157505312010260718751551115199   1030000900030000   569919000575190110000000415D & C Myanmar (TW)     YANGON        MMR11007180525157505310718000000000000000   10200002F00104100000000000000000000029700     
100   35650970370000380000000000055100000000055100002000000010410407180732107553218875770718763021410199   1030000900030000   541119000160190110000000084Pro (1) Global (Pazund YANGONARTAUNG MMR11007180732107553210718000000000000000   10300005F00104100000000000000000000019285     
100   35650883690007790000000000159000000000159000002000000010410407180732227553360648970718765021422199   1030000900030000   481219000710190110000000541I Sure Technology Co., YANGONAUNG    MMR11007180732227553360718000000000000000   10300005F00104100000000000000000000066780     
100   9503051872795691000000000028650000000028650000200000001041040718073242755352A51KGS0718769021442199   1030000900030000   541119000286190110000000177Pro1 Global (Insein)   YANGON        MMR11007180732427553520718000000000000000   10300002F00104100000000000000000000057300     
100   35710500351633750000000000019144000000019144002000000010410407180732587553643344530718771021458199   1030000900030000   581219000721190110000000552Chilli Pot Mala Xiang  YANGONOKKALAP MMR11007180732587553640718000000000000000   10300005F00104100000000000000000000006509     
100   9503051887922587000000000002742800000002742800200000001041040718103708762311YHMZYA0718286071708199   1030000900030000   581219000422190110000000283BCC (YIH)              YANGON        MMR11007181037087623110718000000000000000   10300002F00104100000000000000000000009326     
100   35710830640197050000000000012000000000012000002000000010410407181037147623237743270718289071714199   1030000900030000   481219000767190110000000599Remax By Telegod(GMP)  YANGONUT      MMR11007181037147623230718000000000000000   10300003F00104100000000000000000000003600     
100   62346600141286940000000000180500000000180500002000000010410407181038117623684669250718306081711199   1030000900030000   729819000218190110000000118Cherish Beauty Collect YANGONUNG     MMR11007181038117623680718000000000000000   10300005F00104100000000000000000000054150     
100   950319000025034200000000027288500000027288500020000000104104071812365176692571H70F0718281061951199   1030000900030000   541119000160190110000000084Pro (1) Global (Pazund YANGONARTAUNG MMR11007181236517669250718000000000000000   10300014F00104100000000000000000000545770     
100   35710500126382580000000000009600000000009600002000000010410407181238237669823664830718298081923199   1030000900030000   541119000120190110000000080Sein Gay Har BAK       YANGONADA     MMR11007181238237669820718000000000000000   10300005F00104100000000000000000000001920     
100   35710500140557090000000000010000000000010000002000000010410407180242391239140879480718000003912059   1030000900030000   333400010001202104000002022ACS                    Yangon        MMR11007180242391239140718000000000000000   10300005F05104100000000000000000000006000     
100   62346600156930190000000000035000000000035000002000000010410407180842411241155608440718000003912767   1030000900030000   333400010001202104000002022ACS                    Yangon        MMR11007180842411241150718000000000000000   10300005F05104100000000000000000000021000     
100   35650973660002290000000000005000000000005000002000000010410407180542551255107499560718000003912434   1030000900030000   333800010001202104000003301uab bank               Yangon        MMR11007180542551255100718000000000000000   10300005F05104100000000000000000000003000     
100   95030518780283110000000002900200000002900200002000000010410407172201003100780OG0DE0718000003911900   1030000900030000   333300010001202104000002717Near Me Android        Yangon        MMR11007172201003100780718000000000000000   10300002F05104100000000000000000000020000     
100   35710830650870570000000000005000000000005000002000000010410407181110004000274306220718000003913040   1030000900030000   333400010001202104000002022ACS                    Yangon        MMR11007181110004000270718000000000000000   10300003F05104100000000000000000000003000     
100   95031900021516050000000000025200000000025200002000000010410407180627357528996Y940F0718243571235199   1030000900030000   591219000507190110000000354Shwe Ohh Pharmacy -9   YANGON        MMR11007180627357528990718000000000000000   10300014F00104100000000000000000000007560     
100   62443000165202870000000000228500000000228500002000000010410407180905347588084145660718497351534199   1030000900030000   594419000454190110000000307Shwe San Eain (Junctio YANGONN       MMR11007180905347588080718000000000000000   10300005F00104100000000000000000000095970     
100   950319000157330400000000001002000000001002000020000000104104071812290259023216F70F0718000003913142   1030000900030000   333300010001202104000002717Near Me Android        Yangon        MMR11007181229025902320718000000000000000   10300014F05104100000000000000000000020000     
100   9503051885735593000000000001335000000001335000200000001041040718060053751913LCXOSN0718049301253199   1030000900030000   591219000605190110000000445Shwe Ohh Pharmacy St-1 YANGONNGKUUN  MMR11007180600537519130718000000000000000   10300002F00104100000000000000000000004005     
100   95051010168546030000000000008250000000008250002000000010410407180602157519711993620718055321215199   1030000900030000   581219000004190110000000002Yoogane Korea Rest;(MP YANGON        MMR11007180602157519710718000000000000000   10300005F00104100000000000000000000004909     
100   35710500135985920000000000013500000000013500002000000010410407180608377522001625550718100381237199   1030000900030000   599919000638190110000000469MIEVIC Store           YANGONUT      MMR11007180608377522000718000000000000000   10300005F00104100000000000000000000004050     
100   35710500116013490000000000017950000000017950002000000010410407180612117523354470510718125421211199   1030000900030000   581219000715190110000000546Akkhaya Tea House(Dago YANGON        MMR11007180612117523350718000000000000000   10300005F00104100000000000000000000006103     
100   35710500172363480000000000023600000000023600002000000010410407181352177695838265750718759222017199   1030000900030000   581219000205190110000000107Canton Paradise        YANGON        MMR11007181352177695830718000000000000000   10300005F00104100000000000000000000008024     
100   62443000103944160000000000012000000000012000002000000010410407181353367696326102690718771232036199   1030000900030000   599919000055190110000000050119 Fashion Complex (K YANGONUT      MMR11007181353367696320718000000000000000   10300005F00104100000000000000000000005040     
100   95031010930192620000000000035000000000035000002000000010410407171633310331728865530718000003911826   1030000900030000   333400010001202104000002022ACS                    Yangon        MMR11007171633310331720718000000000000000   10300005F05104100000000000000000000021000     
100   9503051020173346000000000007955000000007955000200000001041040718081924757063SPXMEN0718101491424199   1030000900030000   591219000503190110000000350Shwe Ohh Pharmacy (WZD YANGONNGKUUN  MMR11007180819247570630718000000000000000   10300002F00104100000000000000000000023865     
100   95031900043227170000000000013530000000013530002000000010410407180535337509423UY30F0718854051233199   1030000900030000   581219000004190110000000002Yoogane Korea Rest;(MP YANGON        MMR11007180535337509420718000000000000000   10300014F00104100000000000000000000004600     
100   35710500134680360000000000357000000000357000002000000010410407180629307529729069300718259591230199   1030000900030000   594419000454190110000000307Shwe San Eain (Junctio YANGONN       MMR11007180629307529720718000000000000000   10300005F00104100000000000000000000107100     
100   95030518952795090000000000121600000000121600002000000010410407180749047559427WWFCG0718862191404199   1030000900030000   569919000555190110000000402D & C Myanmar (MP)     YANGON        MMR11007180749047559420718000000000000000   10300002F00104100000000000000000000036480     
100   35710830216626540000000000100200000000100200002000000010410407180423455345765575780718000003912259   1030000900030000   333300010001202104000002717Near Me Android        Yangon        MMR11007180423455345760718000000000000000   10300003F05104100000000000000000000020000     
100   35710500145099600000000000011150000000011150002000000010410407180722287549337361660718662521328199   1030000900030000   541119000381190110000000248Victoria Hyper Mart    YANGON        MMR11007180722287549330718000000000000000   10300005F00104100000000000000000000002230     
100   62921400038822200000000000013200000000013200002000000010410407180856162616323333330718000003912805   1030000900030000   333300010001202104000002659MSP                    Yangon        MMR11007180856162616320718000000000000000   10300009F05104100000000000000000000020000     
100   9503051872505967000000000001300000000001300000200000001041040718143122012250YP7JXJ0718000003913335   1030000900030000   333400010001202104000002022ACS                    Yangon        MMR11007181431220122500718000000000000000   10300002F05104100000000000000000000007800     
100   35710830148650820000000000020200000000020200002000000010410407180657402740988310840718000003912571   1030000900030000   333300010001202104000002659MSP                    Yangon        MMR11007180657402740980718000000000000000   10300003F05104100000000000000000000020000     
100   62921400058544410000000000001000000000001000002000000010410407181607233723893333330718000003913455   1030000900030000   333800010001202104000003301uab bank               Yangon        MMR11007181607233723890718000000000000000   10300009F05104100000000000000000000000600     
100   95030800049331280000000000035000000000035000002000000010410407180107283728675732570718000003911944   1030000900030000   333400010001202104000002022ACS                    Yangon        MMR11007180107283728670718000000000000000   10300003F05104100000000000000000000021000     
100   35710830905037480000000000036000000000036000002000000010410407180350537471945517630718172201053199   1030000900030000   541119000286190110000000177Pro1 Global (Insein)   YANGON        MMR11007180350537471940718000000000000000   10300003F00104100000000000000000000007200     
100   9503051020520157000000000002610000000002610000200000001041040718040215747605WG1PBN0718240321015199   1030000900030000   541119000375190110000000178Pro (1) Global (East D YANGONMYOTHIT MMR11007180402157476050718000000000000000   10300002F00104100000000000000000000005220     
100   35710830206780320000000000042400000000042400002000000010410407180402537476325567830718244321053199   1030000900030000   569919000580190110000000420D & C Myanmar (JC)     YANGONUT      MMR11007180402537476320718000000000000000   10300003F00104100000000000000000000012720     
100   95031900013583830000000000038050000000038050002000000010410407180408517478635S530F0718295381051199   1030000900030000   541119000613190110000000452Pro(1) Global-Hlaing T YANGONTHARYA  MMR11007180408517478630718000000000000000   10300014F00104100000000000000000000007610     
100   35710830965412210000000000078100000000078100002000000010410407180627427529053856040718245571242199   1030000900030000   581219000369190110000000241Beauty In The Pot (PHS YANGON        MMR11007180627427529050718000000000000000   10300003F00104100000000000000000000026554     
100   35710500132816290000000000010400000000010400002000000010410407180631117530395885090718287011311199   1030000900030000   541119000286190110000000177Pro1 Global (Insein)   YANGON        MMR11007180631117530390718000000000000000   10300005F00104100000000000000000000002080     
100   9503054000595207000000000015000000000015000000200000001041040718082119757139HXVM390718121511419199   1030000900030000   594419000631190110000000462Shwe San Eain GemsTime YANGONUT      MMR11007180821197571390718000000000000000   10300002F00104100000000000000000000045000     
100   9503051880948399000000000005305000000005305000200000001041040718082320757207LSMRXQ0718131531420199   1030000900030000   541119000159190110000000084Pro (1) Global (Pazund YANGONIKANAUN MMR11007180823207572070718000000000000000   10300002F00104100000000000000000000010610     
100   62443000803062660000000000005000000000005000002000000010410407180824257572517725420718144541425199   1030000900030000   599919000055190110000000050119 Fashion Complex (K YANGONUT      MMR11007180824257572510718000000000000000   10300005F00104100000000000000000000002100     
100   9503051883330199000000000024000000000024000000200000001041040718082634757323GOHU5K0718155561434199   1030000900030000   551119000291190110000000179Wun Yan Kha Car Auto S YANGON        MMR11007180826347573230718000000000000000   10300002F00104100000000000000000000072000     
100   62346600154341660000000000300000000000300000002000000010410407180854387583920848760718405241538199   1030000900030000   594419000598190110000000438Shwe NanTaw Jewellery  YANGONN       MMR11007180854387583920718000000000000000   10300005F00104100000000000000000000090000     
100   9503051886390844000000000003330000000003330000200000001041040718043514748767BV9SZJ0718445051114199   1030000900030000   594319000084190110000000059Innwa Books            YANGONUT      MMR11007180435147487670718000000000000000   10300002F00104100000000000000000000009990     
100   62444500100016420000000000076950000000076950002000000010410407181359327698134468120718793292032199   1030000900030000   591219000502190110000000349Shwe Ohh Pharmacy -4   YANGON        MMR11007181359327698130718000000000000000   10300002F00104100000000000000000000032319     
100   62441900101799370000000000115500000000115500002000000010410407181403237699375997860718804332023199   1030000900030000   581219000351190110000000218Min Lan Restaurant (Th YANGONA       MMR11007181403237699370718000000000000000   10300003F00104100000000000000000000068722     
100   62346600110598500000000000006400000000006400002000000010410407181405327699922803840718810352032199   1030000900030000   599919000192190110000000096119 Fashion Complex (H YANGON        MMR11007181405327699920718000000000000000   10300005F00104100000000000000000000001920     
100   35710500187773810000000000021850000000021850002000000010410407181100017631887093130718472301701199   1030000900030000   581219000420190110000000281BCC (JC)               YANGONN       MMR11007181100017631880718000000000000000   10300005F00104100000000000000000000007429     
100   62346600150844090000000000012390000000012390002000000010410407181101127632260859230718480311712199   1030000900030000   581219000722190110000000553Noodle Bowl            YANGON        MMR11007181101127632260718000000000000000   10300005F00104100000000000000000000004213     
100   62346600144029170000000000167000000000167000002000000010410407181101377632457227670718483311737199   1030000900030000   573219000379190110000000247Infinity Business-Phil YANGONUNG     MMR11007181101377632450718000000000000000   10300005F00104100000000000000000000050100     
100   35710500181655200000000000012500000000012500002000000010410407181153207652624765590718914231820199   1030000900030000   599919000188190110000000092119 Fashion (Sanchaung YANGONUNG     MMR11007181153207652620718000000000000000   10300005F00104100000000000000000000003750     
100   9503051872997651000000000004720000000004720000200000001041040718124832767362DUFDDJ0718381181932199   1030000900030000   569919000555190110000000402D & C Myanmar (MP)     YANGON        MMR11007181248327673620718000000000000000   10300002F00104100000000000000000000014160     
100   35710830124307230000000001500200000001500200002000000010410407181525055505388652610718000003913397   1030000900030000   333300010001202104000002717Near Me Android        Yangon        MMR11007181525055505380718000000000000000   10300003F05104100000000000000000000020000     
100   35710950849976860000000000101050000000101050002000000010410407180528407506605288590718777581140199   1030000900030000   581219000205190110000000107Canton Paradise        YANGON        MMR11007180528407506600718000000000000000   10300003F00104100000000000000000000034357     
100   62441901003480950000000000036600000000036600002000000010410407180622387527179888690718207521238199   1030000900030000   541119000159190110000000084Pro (1) Global (Pazund YANGONIKANAUN MMR11007180622387527170718000000000000000   10300003F00104100000000000000000000012810     
100   35710830305175760000000000320000000000320000002000000010410407180602557519974944070718064321255199   1030000900030000   594419000707190110000000538Zwe Htet Gems & Jewell YANGON        MMR11007180602557519970718000000000000000   10300003F00104100000000000000000000096000     
100   62346600143490190000000000072000000000072000002000000010410407181403427699494832370718808332042199   1030000900030000   581219000005190110000000003Yoogane Korea Rest;(JM YANGON        MMR11007181403427699490718000000000000000   10300005F00104100000000000000000000024480     
100   35710500125094750000000000012900000000012900002000000010410407181250407674431183250718395201940199   1030000900030000   591219000506190110000000353Shwe Ohh Pharmacy -8   YANGON        MMR11007181250407674430718000000000000000   10300005F00104100000000000000000000003870     
100   9503051886218037000000000000700000000000700000200000001041040718094751175178UX1NF30718000003912912   1030000900030000   333400010001202104000002022ACS                    Yangon        MMR11007180947511751780718000000000000000   10300002F05104100000000000000000000004200     
100   35710500181217880000000000041108000000041108002000000010410407180849367581986409970718359191536199   1030000900030000   701119000076190110000000024Lotte Hotel            YANGON        MMR11007180849367581980718000000000000000   10300005F00104100000000000000000000013977     
100   35710900505747000000000000113625000000113625002000000010410407180655287539685586530718495251328199   1030000900030000   701119000234190110000000133Hotel Azure            YANGONUNG     MMR11007180655287539680718000000000000000   10300003F00104100000000000000000000038632     
100   35710830212288370000000000057350000000057350002000000010410407180700157541348310620718518301315199   1030000900030000   581219000206190110000000108Beauty in the Pot      YANGON        MMR11007180700157541340718000000000000000   10300003F00104100000000000000000000019499     
100   9503051892797511000000000000727500000000727500200000001041040718073620755484MHVPKH0718794061420199   1030000900030000   581219000420190110000000281BCC (JC)               YANGONN       MMR11007180736207554840718000000000000000   10300002F00104100000000000000000000002474     
100   62346600179448400000000000030015000000030015002000000010410407180917297592721656000718586471529199   1030000900030000   581219000420190110000000281BCC (JC)               YANGONN       MMR11007180917297592720718000000000000000   10300005F00104100000000000000000000010205     
100   35710500141230770000000000215100000000215100002000000010410407180917407592771741100718588471540199   1030000900030000   541119000282190110000000177Pro1 Global (Insein)   YANGON        MMR11007180917407592770718000000000000000   10300005F00104100000000000000000000043020     
100   9503051881496802000000000005000000000005000000200000001041040718091752759285ZAXXCE0718589471552199   1030000900030000   594419000631190110000000462Shwe San Eain GemsTime YANGONUT      MMR11007180917527592850718000000000000000   10300002F00104100000000000000000000015000     
100   35710500330071940000000000015700000000015700002000000010410407180918097592952081480718591481509199   1030000900030000   541119000122190110000000080Sein Gay Har BAK       YANGONADA     MMR11007180918097592950718000000000000000   10300005F00104100000000000000000000003140     
100   62346600100563520000000000038300000000038300002000000010410407181220327662816272520718125501832199   1030000900030000   569119000728190110000000560Little Things She Need YANGONUT      MMR11007181220327662810718000000000000000   10300005F00104100000000000000000000011490     
100   35710500103878090000000000384500000000384500002000000010410407180437507488579407110718458071150199   1030000900030000   541119000159190110000000084Pro (1) Global (Pazund YANGONIKANAUN MMR11007180437507488570718000000000000000   10300005F00104100000000000000000000076900     
100   9503051891457398000000000001310000000001310000200000001041040718054433751278DDNQQP0718920141233199   1030000900030000   541119000172190110000000085SeinGayHar (Dagon Cent YANGONUNG     MMR11007180544337512780718000000000000000   10300002F00104100000000000000000000002620     
100   9503051894682547000000000002583000000002583000200000001041040718055013751486WIWTB00718956201213199   1030000900030000   581219000280190110000000175Min Lan Restaurant (Ka YANGONARTAUNG MMR11007180550137514860718000000000000000   10300002F00104100000000000000000000008782     
100   9503051885292082000000000006800000000006800000200000001041040718074636755847LEP4YA0718851161436199   1030000900030000   569119000661190110000000492CNC Mens Wear (Time Ma YANGONUT      MMR11007180746367558470718000000000000000   10300002F00104100000000000000000000020400     
100   9503054000757500000000000014400000000014400000200000001041040718074714755876NUEBLQ0718853171414199   1030000900030000   504719000410190110000000274Ye Optical             YANGONN       MMR11007180747147558760718000000000000000   10300002F00104100000000000000000000043200     
100   9503051890771393000000000014500000000014500000200000001041040718074904755943S8MXMA0718863191404199   1030000900030000   594419000598190110000000438Shwe NanTaw Jewellery  YANGONN       MMR11007180749047559430718000000000000000   10300002F00104100000000000000000000043500     
100   9503051883174159000000000005575000000005575000200000001041040718075528756193QGOVN60718926251428199   1030000900030000   541119000163190110000000084Pro (1) Global (Pazund YANGONARTAUNG MMR11007180755287561930718000000000000000   10300002F00104100000000000000000000011150     
100   9503051020044463000000000013310000000013310000200000001041040718100927761239TB1ZPK0718044391627199   1030000900030000   541119000286190110000000177Pro1 Global (Insein)   YANGON        MMR11007181009277612390718000000000000000   10300002F00104100000000000000000000026620     
100   95031900000163050000000000015400000000015400002000000010410407181249057673822ZM70F0718384191905199   1030000900030000   581219000004190110000000002Yoogane Korea Rest;(MP YANGON        MMR11007181249057673820718000000000000000   10300014F00104100000000000000000000005236     
100   9503051872803800000000000004590000000004590000200000001041040718125033767437ZHYURD0718394201933199   1030000900030000   541119000139190110000000083SeinGayHarParami Cente YANGON        MMR11007181250337674370718000000000000000   10300002F00104100000000000000000000009180     
100   9503051872997651000000000003920000000003920000200000001041040718125112767460KQQGIH0718398211912199   1030000900030000   569919000555190110000000402D & C Myanmar (MP)     YANGON        MMR11007181251127674600718000000000000000   10300002F00104100000000000000000000011760     
100   62346600114187750000000000023000000000023000002000000010410407181252337675218438300718413221933199   1030000900030000   541119000381190110000000248Victoria Hyper Mart    YANGON        MMR11007181252337675210718000000000000000   10300005F00104100000000000000000000004600     
100   62921400036333420000000000003000000000003000002000000010410407180346211621303333330718000003912177   1030000900030000   333400010001202104000002022ACS                    Yangon        MMR11007180346211621300718000000000000000   10300009F05104100000000000000000000001800     
100   35710830268648750000000000030200000000030200002000000010410407180255492549845514320718000003912081   1030000900030000   333300010001202104000002717Near Me Android        Yangon        MMR11007180255492549840718000000000000000   10300003F05104100000000000000000000020000     
100   95051074470000050000000000070300000000070300002000000010410407180947377603654894380718805171637199   1030000900030000   569119000717190110000000548M.Y Fashion (401)      YANGONUT      MMR11007180947377603650718000000000000000   10300005F00104100000000000000000000029526     
100   9503051886556055000000000048000000000048000000200000001041040718094907760415VLFLCR0718816191607199   1030000900030000   594419000705190110000000536Zwe Htet Gems & Jewell YANGON        MMR11007180949077604150718000000000000000   10300002F00104100000000000000000000144000     
100   35710500351399530000000000020951000000020951002000000010410407180712367545851270380718602421336199   1030000900030000   581219000719190110000000550Chilli Pot Mala Xiang  YANGON        MMR11007180712367545850718000000000000000   10300005F00104100000000000000000000007123     
100   62443000103083170000000000003450000000003450002000000010410407180312517458713102410718954420951199   1030000900030000   541119000122190110000000080Sein Gay Har BAK       YANGONADA     MMR11007180312517458710718000000000000000   10300005F00104100000000000000000000001207     
100   95031900003500840000000000100200000000100200002000000010410407180344141414365E030F0718000003912171   1030000900030000   333300010001202104000002659MSP                    Yangon        MMR11007180344141414360718000000000000000   10300014F05104100000000000000000000020000     
100   950319000152071900000000000141000000000141000020000000104104071803452674699270030F0718133151026199   1030000900030000   541119000375190110000000178Pro (1) Global (East D YANGONMYOTHIT MMR11007180345267469920718000000000000000   10300014F00104100000000000000000000002820     
100   35710950565502810000000000049000000000049000002000000010410407181320517684705796700718552501951199   1030000900030000   569919000575190110000000415D & C Myanmar (TW)     YANGON        MMR11007181320517684700718000000000000000   10300003F00104100000000000000000000014700     
100   62622000256039740000000000021000000000021000002000000010410407181532487725967166380718052022248199   1030000900030000   581319000363190110000000236Safe House Club        YANGON        MMR11007181532487725960718000000000000000   10300006F00104100000000000000000000007140     
100   9503051877763843000000000020020000000020020000200000001041040718060430343082YK8QHZ0718000003912477   1030000900030000   333300010001202104000002717Near Me Android        Yangon        MMR11007180604303430820718000000000000000   10300002F05104100000000000000000000020000     
100   62443000110020420000000000007800000000007800002000000010410407181132227644837656510718762021822199   1030000900030000   541119000112190110000000077Sein Gay Har Chinatown YANGON        MMR11007181132227644830718000000000000000   10300005F00104100000000000000000000002730     
100   62444500200139420000000000005000000000005000002000000010410407181222017663404281210718135521801199   1030000900030000   581219000726190110000000558Shake Cake&Bakery(SiPi YANGONMYOTHIT MMR11007181222017663400718000000000000000   10300002F00104100000000000000000000002975     
100   35710500142998360000000000055300000000055300002000000010410407181223587664159393510718153531858199   1030000900030000   541119000170190110000000085SeinGayHar (Dagon Cent YANGONUNG     MMR11007181223587664150718000000000000000   10300005F00104100000000000000000000011060     
100   35710500181611070000000000026850000000026850002000000010410407181225177664593719630718162551817199   1030000900030000   591219000503190110000000350Shwe Ohh Pharmacy (WZD YANGONNGKUUN  MMR11007181225177664590718000000000000000   10300005F00104100000000000000000000008055     
100   35710500391008780000000000177000000000177000002000000010410407181225527664840571070718167551852199   1030000900030000   594419000454190110000000307Shwe San Eain (Junctio YANGONN       MMR11007181225527664840718000000000000000   10300005F00104100000000000000000000053100     
100   62343302000745950000000000130295000000130295002000000010410407181418087704190000000718880482008199   1030000900030000   581219000473190110000000326Panjabi-Q              YANGONUT      MMR11007181418087704190718000000000000000   10300004F00104100000000000000000000044300     
100   95030518961572580000000000026800000000026800002000000010410407181422557705650RRVIW0718895522055199   1030000900030000   581219000635190110000000466King BBQ Time City     YANGONUT      MMR11007181422557705650718000000000000000   10300002F00104100000000000000000000009112     
100   95030400000325800000000000031000000000031000002000000010410407181426347706799413100718914562034199   1030000900030000   581219000205190110000000107Canton Paradise        YANGON        MMR11007181426347706790718000000000000000   10300007F00104100000000000000000000010540     
100   9503051889601528000000000000760000000000760000200000001041040718112054763992UTPOOV0718644501754199   1030000900030000   541119000170190110000000085SeinGayHar (Dagon Cent YANGONUNG     MMR11007181120547639920718000000000000000   10300002F00104100000000000000000000001520     
100   9503051873393041000000000012840000000012840000200000001041040718101216761345LGIUMV0718067421616199   1030000900030000   541119000286190110000000177Pro1 Global (Insein)   YANGON        MMR11007181012167613450718000000000000000   10300002F00104100000000000000000000025680     
100   35710500141658620000000000016500000000016500002000000010410407181050207628049525460718391201720199   1030000900030000   594419000631190110000000462Shwe San Eain GemsTime YANGONUT      MMR11007181050207628040718000000000000000   10300005F00104100000000000000000000004950     
100   95031900021599620000000000002400000000002400002000000010410407181051417628621XK60F0718409211741199   1030000900030000   541119000300190110000000184Super One Shopping Mal YANGONTHARYA  MMR11007181051417628620718000000000000000   10300014F00104100000000000000000000000480     
100   35710500182849090000000000174000000000174000002000000010410407181053307629473297280718432231730199   1030000900030000   541119000614190110000000452Pro(1) Global-Hlaing T YANGONTHARYA  MMR11007181053307629470718000000000000000   10300005F00104100000000000000000000034800     
100   9503051019869805000000000003920000000003920000200000001041040718091930759342BRUYWV0718604491530199   1030000900030000   569919000555190110000000402D & C Myanmar (MP)     YANGON        MMR11007180919307593420718000000000000000   10300002F00104100000000000000000000011760     
100   62343301001407850000000000010000000000010000002000000010410407180334110411530000000718000003912151   1030000900030000   333800010001202104000003301uab bank               Yangon        MMR11007180334110411530718000000000000000   10300004F05104100000000000000000000006000     
100   62921400037967430000000000001000000000001000002000000010410407180101223122753333330718000003911938   1030000900030000   333800010001202104000003301uab bank               Yangon        MMR11007180101223122750718000000000000000   10300009F05104100000000000000000000000600     
100   62443000803041880000000000020200000000020200002000000010410407180414334433517185930718000003912235   1030000900030000   333300010001202104000002659MSP                    Yangon        MMR11007180414334433510718000000000000000   10300005F05104100000000000000000000020000     
100   35710500175134980000000000200000000000200000002000000010410407180951517605276928620718844211651199   1030000900030000   481219000030190110000000029I Sure Apple Service C YANGONUT      MMR11007180951517605270718000000000000000   10300005F00104100000000000000000000060000     
100   62346600141329360000000000627500000000627500002000000010410407181154397653158276400718930241839199   1030000900030000   594419000454190110000000307Shwe San Eain (Junctio YANGONN       MMR11007181154397653150718000000000000000   10300005F00104100000000000000000000188250     
100   35650883622354710000000000009250000000009250002000000010410407181156107653825105980718946261810199   1030000900030000   599919000190190110000000094119 Fashion (North Okk YANGONOKKALAP MMR11007181156107653820718000000000000000   10300005F00104100000000000000000000003885     
100   35710830769244210000000000051345000000051345002000000010410407181157477654398201950718955271847199   1030000900030000   581219000280190110000000175Min Lan Restaurant (Ka YANGONARTAUNG MMR11007181157477654390718000000000000000   10300003F00104100000000000000000000017457     
100   9503051019521497000000000005250000000005250000200000001041040718115846765465GYOUIO0718961281846199   1030000900030000   481219000710190110000000541I Sure Technology Co., YANGONAUNG    MMR11007181158467654650718000000000000000   10300002F00104100000000000000000000015750     
100   35710830067316070000000000006325000000006325002000000010410407181203107656323889930718985331810199   1030000900030000   581219000469190110000000323Excel CrystalJade(I)Re YANGON        MMR11007181203107656320718000000000000000   10300003F00104100000000000000000000002150     
100   35710500320113040000000000009850000000009850002000000010410407181253077675362970270718419231907199   1030000900030000   541119000112190110000000077Sein Gay Har Chinatown YANGON        MMR11007181253077675360718000000000000000   10300005F00104100000000000000000000001970     
100   95050315953416900000000000027150000000027150002000000010410407181255037676025885810718433251903199   1030000900030000   541119000381190110000000248Victoria Hyper Mart    YANGON        MMR11007181255037676020718000000000000000   10300001F00104100000000000000000000009502     
100   9503051882912484000000000003517500000003517500200000001041040718073205755318RPGCH00718762021405199   1030000900030000   581219000351190110000000218Min Lan Restaurant (Th YANGONA       MMR11007180732057553180718000000000000000   10300002F00104100000000000000000000011960     
100   62443100313529540000000000003500000000003500002000000010410407180816514651910055530718000003912726   1030000900030000   333400010001202104000002022ACS                    Yangon        MMR11007180816514651910718000000000000000   10300001F05104100000000000000000000002100     
100   9503051891782720000000000001600000000001600000200000001041040718053918751081XXR7520718879091218199   1030000900030000   541119000117190110000000078Sein Gay Har Kan Thar  YANGONOKKALAP MMR11007180539187510810718000000000000000   10300002F00104100000000000000000000003200     
100   35710830027683970000000000028300000000028300002000000010410407181327437687177260790718604571943199   1030000900030000   599919000197190110000000101119 Fashion Complex (I YANGON        MMR11007181327437687170718000000000000000   10300003F00104100000000000000000000008490     
100   35710500183798080000000000076000000000076000002000000010410407181127457642597337990718695571745199   1030000900030000   594419000643190110000000474K Jade Jewellery       YANGONUT      MMR11007181127457642590718000000000000000   10300005F00104100000000000000000000022800     
100   35710500320749710000000000009100000000009100002000000010410407181235487668790480610718270051948199   1030000900030000   541119000120190110000000080Sein Gay Har BAK       YANGONADA     MMR11007181235487668790718000000000000000   10300005F00104100000000000000000000001820     
100   35710900236407940000000000036000000000036000002000000010410407180859197585564223390718436291519199   1030000900030000   569919000575190110000000415D & C Myanmar (TW)     YANGON        MMR11007180859197585560718000000000000000   10300003F00104100000000000000000000010800     
100   35710830577796610000000000005000000000005000002000000010410407181403243324425799370718000003913293   1030000900030000   333400010001202104000002022ACS                    Yangon        MMR11007181403243324420718000000000000000   10300003F05104100000000000000000000003000     
100   35710830031525260000000000025300000000025300002000000010410407181121077639981247830718646511707199   1030000900030000   581219000004190110000000002Yoogane Korea Rest;(MP YANGON        MMR11007181121077639980718000000000000000   10300003F00104100000000000000000000008602     
100   62346600199811390000000000010000000000010000002000000010410407181031280128218655000718000003912982   1030000900030000   333800010001202104000003301uab bank               Yangon        MMR11007181031280128210718000000000000000   10300005F05104100000000000000000000006000     
100   62343301008200480000000000020000000000020000002000000010410407180531310131560000000718000003912415   1030000900030000   333800010001202104000003301uab bank               Yangon        MMR11007180531310131560718000000000000000   10300004F05104100000000000000000000012000     
100   62346600141647560000000000005000000000005000002000000010410407180739090909485186350718000003912655   1030000900030000   333400010001202104000002022ACS                    Yangon        MMR11007180739090909480718000000000000000   10300005F05104100000000000000000000003000     
100   35710830655706800000000000005000000000005000002000000010410407181351402140737264220718000003913271   1030000900030000   333400010001202104000002022ACS                    Yangon        MMR11007181351402140730718000000000000000   10300003F05104100000000000000000000003000     
100   9503051882305465000000000003300000000003300000200000001041040717165812281266U9BLKC0718000003911844   1030000900030000   333400010001202104000002022ACS                    Yangon        MMR11007171658122812660718000000000000000   10300002F05104100000000000000000000019800     
100   62443001760355890000000000102950000000102950002000000010410407180702567542363455310718538321356199   1030000900030000   581219000206190110000000108Beauty in the Pot      YANGON        MMR11007180702567542360718000000000000000   10300005F00104100000000000000000000061256     
100   35710830794749450000000000024114000000024114002000000010410407180703157542507741350718543331315199   1030000900030000   701119000074190110000000024Lotte Hotel            YANGON        MMR11007180703157542500718000000000000000   10300003F00104100000000000000000000008199     
100   9503051893718508000000000000900000000000900000200000001041040718082716757355DJJ8NO0718163571416199   1030000900030000   569119000655190110000000486High Cultured Fashion  YANGONUT      MMR11007180827167573550718000000000000000   10300002F00104100000000000000000000002700     
100   62443000803068940000000000033400000000033400002000000010410407180827317573638497010718166571431199   1030000900030000   591219000795190110000000627Shwe Ohh Pharmacy ST-3 YANGONINDAING MMR11007180827317573630718000000000000000   10300005F00104100000000000000000000014028     
100   35710830870009060000000000122226000000122226002000000010410407181123465346214486200718000003913052   1030000900030000   333300010001202104000000109Myanmar National Airli Yangon        MMR11007181123465346210718000000000000000   10300003F05104100000000000000000000020000     
100   35710500162047010000000000020500000000020500002000000010410407180443217490441987570718491131121199   1030000900030000   541119000112190110000000077Sein Gay Har Chinatown YANGON        MMR11007180443217490440718000000000000000   10300005F00104100000000000000000000004100     
100   9503051888251671000000000002395000000002395000200000001041040718044702749179IEIAAH0718521171102199   1030000900030000   591219000608190110000000448Shwe Ohh Pharmacy St-2 YANGON        MMR11007180447027491790718000000000000000   10300002F00104100000000000000000000007185     
100   9503051019535075000000000000410000000000410000200000001041040718072104754872YDWNFO0718645511304199   1030000900030000   599919000188190110000000092119 Fashion (Sanchaung YANGONUNG     MMR11007180721047548720718000000000000000   10300002F00104100000000000000000000001230     
100   35710500167629220000000000072650000000072650002000000010410407180721507549079645480718655511350199   1030000900030000   581219000369190110000000241Beauty In The Pot (PHS YANGON        MMR11007180721507549070718000000000000000   10300005F00104100000000000000000000024701     
100   35710830205408360000000000019859000000019859002000000010410407180722187549275733210718660521318199   1030000900030000   581219000420190110000000281BCC (JC)               YANGONN       MMR11007180722187549270718000000000000000   10300003F00104100000000000000000000006752     
100   9503051874044593000000000000650000000000650000200000001041040718125700767680RJICJS0718446271900199   1030000900030000   541119000124190110000000080Sein Gay Har BAK       YANGONADA     MMR11007181257007676800718000000000000000   10300002F00104100000000000000000000001300     
100   62443000103259640000000000009800000000009800002000000010410407181303157678950524340718475331915199   1030000900030000   541119000117190110000000078Sein Gay Har Kan Thar  YANGONOKKALAP MMR11007181303157678950718000000000000000   10300005F00104100000000000000000000003430     
100   9503051885775417000000000006251200000006251200200000001041040718130458767948ZCEPNA0718481341958199   1030000900030000   581219000698190110000000529Pizzamaru Myanmar (San YANGONUNG     MMR11007181304587679480718000000000000000   10300002F00104100000000000000000000021254     
100   35710950721240530000000000014500000000014500002000000010410407180953487606210035880718877231648199   1030000900030000   541119000282190110000000177Pro1 Global (Insein)   YANGON        MMR11007180953487606210718000000000000000   10300003F00104100000000000000000000002900     
100   9503051885408092000000000011240000000011240000200000001041040718095350760625ALBHOW0718878231650199   1030000900030000   597719000109190110000000075Girls Generation       YANGONUT      MMR11007180953507606250718000000000000000   10300002F00104100000000000000000000033720     
100   9503051891777258000000000006600000000006600000200000001041040718095444760660ZQF5TY0718890241644199   1030000900030000   569919000575190110000000415D & C Myanmar (TW)     YANGON        MMR11007180954447606600718000000000000000   10300002F00104100000000000000000000019800     
100   9503051882291814000000000000441000000000441000200000001041040718095621760723RYHOJ60718904261621199   1030000900030000   581219000280190110000000175Min Lan Restaurant (Ka YANGONARTAUNG MMR11007180956217607230718000000000000000   10300002F00104100000000000000000000001500     
100   35710830816807940000000000020000000000020000002000000010410407180957067607527738900718916271606199   1030000900030000   554119000348190110000000215New Day Energy - 5     YANGONONE     MMR11007180957067607520718000000000000000   10300003F00104100000000000000000000003000     
100   9503051892213832000000000003900000000003900000200000001041040718083922757833C1LOWO0718287091522199   1030000900030000   481219000710190110000000541I Sure Technology Co., YANGONAUNG    MMR11007180839227578330718000000000000000   10300002F00104100000000000000000000011700     
100   62622000902262710000000000014068000000014068002000000010410407180503437497707164900718619331143199   1030000900030000   806219000537190110000000385Mandalar Hospital      MANDALAYHARSA MMR11007180503437497700718000000000000000   10300006F00104100000000000000000000004220     
100   35710500160817600000000000223000000000223000002000000010410407180929147596817167030718665591514199   1030000900030000   591219000505190110000000352Shwe Ohh Pharmacy (THU YANGON        MMR11007180929147596810718000000000000000   10300005F00104100000000000000000000066900     
100   35650973630006100000000000098200000000098200002000000010410407180636337532463217160718336061333199   1030000900030000   541119000077190110000000056Pro (1) Global-TheikPa MANDALAYHARSI MMR11007180636337532460718000000000000000   10300005F00104100000000000000000000034370     
100   9503051877668133000000000000235000000000235000200000001041040718064010753389TRRVFO0718368101310199   1030000900030000   541119000172190110000000085SeinGayHar (Dagon Cent YANGONUNG     MMR11007180640107533890718000000000000000   10300002F00104100000000000000000000000470     
100   9503051882972595000000000001030000000001030000200000001041040718064119753419IAMVMM0718373111319199   1030000900030000   599919000388190110000000251Pro (1) Global (MawlaM AYEYARWADDYGY MMR11007180641197534190718000000000000000   10300002F00104100000000000000000000003090     
100   9503051897928335000000000000240000000000240000200000001041040718083510757660QL0HKB0718241051510199   1030000900030000   599919000200190110000000104119 Fashion (Thingangy YANGONNGKUUN  MMR11007180835107576600718000000000000000   10300002F00104100000000000000000000000720     
100   9503051873142976000000000001900000000001900000200000001041040718083513757664GLZ4RY0718243051513199   1030000900030000   569919000555190110000000402D & C Myanmar (MP)     YANGON        MMR11007180835137576640718000000000000000   10300002F00104100000000000000000000005700     
100   35710950584762120000000000025875000000025875002000000010410407180706427543765500600718560361342199   1030000900030000   581219000590190110000000430The Tea Club           YANGON        MMR11007180706427543760718000000000000000   10300003F00104100000000000000000000008798     
100   35710830378605240000000000022650000000022650002000000010410407180849587582156259210718363191558199   1030000900030000   541119000168190110000000085SeinGayHar (Dagon Cent YANGONUNG     MMR11007180849587582150718000000000000000   10300003F00104100000000000000000000004530     
100   35710500181217880000000000011383000000011383002000000010410407180850187582274658600718365201518199   1030000900030000   701119000076190110000000024Lotte Hotel            YANGON        MMR11007180850187582270718000000000000000   10300005F00104100000000000000000000003870     
100   35710830138399220000000000200800000000200800002000000010410407180850397582360029280718369201539199   1030000900030000   541119000282190110000000177Pro1 Global (Insein)   YANGON        MMR11007180850397582360718000000000000000   10300003F00104100000000000000000000040160     
100   62921400059950870000000000010000000000010000002000000010410407181528045804633333330718000003913402   1030000900030000   333400010001202104000002022ACS                    Yangon        MMR11007181528045804630718000000000000000   10300009F05104100000000000000000000006000     
100   9503051897521262000000000001000000000001000000200000001041040718053002750715EYSMDT0718793001202199   1030000900030000   481219000710190110000000541I Sure Technology Co., YANGONAUNG    MMR11007180530027507150718000000000000000   10300002F00104100000000000000000000003000     
100   9503051020169112000000000010000000000010000000200000001041040718053123750781L5MMR60718814011223199   1030000900030000   594419000705190110000000536Zwe Htet Gems & Jewell YANGON        MMR11007180531237507810718000000000000000   10300002F00104100000000000000000000030000     
100   35710830707813890000000000008400000000008400002000000010410407181229117666095189080718202591811199   1030000900030000   541119000170190110000000085SeinGayHar (Dagon Cent YANGONUNG     MMR11007181229117666090718000000000000000   10300003F00104100000000000000000000001680     
100   35710500114748200000000000018000000000018000002000000010410407180759417563570088650718963291441199   1030000900030000   541119000061190110000000056Pro (1) Global-TheikPa MANDALAYHARSI MMR11007180759417563570718000000000000000   10300005F00104100000000000000000000003600     
100   95031900015793760000000000100200000000100200002000000010410407180121355135112VW10F0718000003911956   1030000900030000   333300010001202104000002717Near Me Android        Yangon        MMR11007180121355135110718000000000000000   10300014F05104100000000000000000000020000     
100   95030800033694800000000000060550000000060550002000000010410407181014007614143626890718088441600199   1030000900030000   591219000602190110000000442Shwe Ohh Pharmacy St-5 YANGONARTAUNG MMR11007181014007614140718000000000000000   10300003F00104100000000000000000000018165     
100   62346600181954590000000000054450000000054450002000000010410407181014247614297104750718092441624199   1030000900030000   581219000368190110000000241Beauty In The Pot (PHS YANGON        MMR11007181014247614290718000000000000000   10300005F00104100000000000000000000018513     
100   62443000140461600000000000170000000000170000002000000010410407181014457614401175590718095441645199   1030000900030000   594419000708190110000000539Zwe Htet Gems & Jewell YANGON        MMR11007181014457614400718000000000000000   10300005F00104100000000000000000000071400     
100   95030518958241890000000000740000000000740000002000000010410407181610317736223NS0VV0718090402231199   1030000900030000   581319000362190110000000236Safe House Club        YANGON        MMR11007181610317736220718000000000000000   10300002F00104100000000000000000000251600     
100   9503051891871218000000000001200000000001200000200000001041040718161241773687SBW1FP0718095422241199   1030000900030000   581319000362190110000000236Safe House Club        YANGON        MMR11007181612417736870718000000000000000   10300002F00104100000000000000000000004080     
100   35710830488688540000000000070650000000070650002000000010410407180925337595624226390718648551533199   1030000900030000   541119000163190110000000084Pro (1) Global (Pazund YANGONARTAUNG MMR11007180925337595620718000000000000000   10300003F00104100000000000000000000014130     
100   35710500104846890000000000007550000000007550002000000010410407181206297657397856060718999361829199   1030000900030000   541119000112190110000000077Sein Gay Har Chinatown YANGON        MMR11007181206297657390718000000000000000   10300005F00104100000000000000000000001510     
100   35710830218156740000000000007800000000007800002000000010410407181208577658328203800718020381857199   1030000900030000   591219000506190110000000353Shwe Ohh Pharmacy -8   YANGON        MMR11007181208577658320718000000000000000   10300003F00104100000000000000000000002340     
100   62346600191534990000000000023500000000023500002000000010410407181211137659378693230718052411813199   1030000900030000   599919000055190110000000050119 Fashion Complex (K YANGONUT      MMR11007181211137659370718000000000000000   10300005F00104100000000000000000000007050     
100   9503051887216352000000000002645000000002645000200000001041040718121641766141W7DW5R0718092461841199   1030000900030000   541119000123190110000000080Sein Gay Har BAK       YANGON        MMR11007181216417661410718000000000000000   10300002F00104100000000000000000000005290     
100   35710830655444200000000000006500000000006500002000000010410407181219227662378584390718111491822199   1030000900030000   599919000648190110000000479Ximi Voque Store       YANGONUT      MMR11007181219227662370718000000000000000   10300003F00104100000000000000000000001950     
100   35710500190258140000000000018650000000018650002000000010410407181219487662501059780718115491848199   1030000900030000   541119000168190110000000085SeinGayHar (Dagon Cent YANGONUNG     MMR11007181219487662500718000000000000000   10300005F00104100000000000000000000003730     
100   62444500100190160000000000019400000000019400002000000010410407181128207642794129860718704581720199   1030000900030000   591219000505190110000000352Shwe Ohh Pharmacy (THU YANGON        MMR11007181128207642790718000000000000000   10300002F00104100000000000000000000008148     
100   35710830397600940000000000310000000000310000002000000010410407180322067461655791050718991520906199   1030000900030000   541119000375190110000000178Pro (1) Global (East D YANGONMYOTHIT MMR11007180322067461650718000000000000000   10300003F00104100000000000000000000062000     
100   62443000869839100000000000050000000000050000002000000010410407180837357577702690620718271071535199   1030000900030000   594419000707190110000000538Zwe Htet Gems & Jewell YANGON        MMR11007180837357577700718000000000000000   10300005F00104100000000000000000000021000     
100   62343301000004190000000000100200000000100200002000000010410407180227055705680000000718000003912039   1030000900030000   333300010001202104000002717Near Me Android        Yangon        MMR11007180227055705680718000000000000000   10300004F05104100000000000000000000020000     
100   62441900001757050000000000003000000000003000002000000010410407180455167494595795840718560251116199   1030000900030000   594319000754190110000000586Sarpaylawka            YANGONUT      MMR11007180455167494590718000000000000000   10300003F00104100000000000000000000001260     
100   9503051886390844000000000003500000000003500000200000001041040718050107749668WUV9QG0718601311107199   1030000900030000   563119000646190110000000477Monster Fashion Access YANGONUT      MMR11007180501077496680718000000000000000   10300002F00104100000000000000000000010500     
100   35710500381555760000000000015014000000015014002000000010410407180615507524511496850718147451250199   1030000900030000   581219000721190110000000552Chilli Pot Mala Xiang  YANGONOKKALAP MMR11007180615507524510718000000000000000   10300005F00104100000000000000000000005105     
100   35710500159976360000000000100000000000100000002000000010410407180804087565087889930718990341408199   1030000900030000   509419000060190110000000055Shwe San Eain Gold Sho MANDALAYHARSA MMR11007180804087565080718000000000000000   10300005F00104100000000000000000000050000     
100   35710830967569850000000000029800000000029800002000000010410407180807147566243867020718012371414199   1030000900030000   581219000635190110000000466King BBQ Time City     YANGONUT      MMR11007180807147566240718000000000000000   10300003F00104100000000000000000000010132     
100   9503054000038380000000000016400000000016400000200000001041040718080740756640WA5Z770718014371440199   1030000900030000   594419000631190110000000462Shwe San Eain GemsTime YANGONUT      MMR11007180807407566400718000000000000000   10300002F00104100000000000000000000049200     
100   95031900051632270000000000006850000000006850002000000010410407181306277680049WT70F0718492361927199   1030000900030000   541119000112190110000000077Sein Gay Har Chinatown YANGON        MMR11007181306277680040718000000000000000   10300014F00104100000000000000000000001370     
100   9503051884767050000000000021240000000021240000200000001041040718131454768265IQA7X60718529441954199   1030000900030000   581219000206190110000000108Beauty in the Pot      YANGON        MMR11007181314547682650718000000000000000   10300002F00104100000000000000000000072216     
100   9503051019549183000000000001092000000001092000200000001041040718131936768430IOHKWJ0718546491936199   1030000900030000   581219000722190110000000553Noodle Bowl            YANGON        MMR11007181319367684300718000000000000000   10300002F00104100000000000000000000003713     
100   9503051874080373000000000000655000000000655000200000001041040718132009768447FPR1IS0718549501909199   1030000900030000   541119000124190110000000080Sein Gay Har BAK       YANGONADA     MMR11007181320097684470718000000000000000   10300002F00104100000000000000000000001310     
100   35710500190722380000000000006800000000006800002000000010410407181039497624207263520718316091749199   1030000900030000   591219000689190110000000520Shwe Ohh Pharmacy ST-1 YANGONUNG     MMR11007181039497624200718000000000000000   10300005F00104100000000000000000000002040     
100   62346600198436850000000000061050000000061050002000000010410407181041087624706873690718330111708199   1030000900030000   581219000125190110000000081DR.Cook Restaurant     YANGONUT      MMR11007181041087624700718000000000000000   10300005F00104100000000000000000000020757     
100   95030800009532940000000000108000000000108000002000000010410407181042107625185130890718343121710199   1030000900030000   594419000631190110000000462Shwe San Eain GemsTime YANGONUT      MMR11007181042107625180718000000000000000   10300003F00104100000000000000000000032400     
100   62443000160092400000000000015510000000015510002000000010410407181125237641712769560718678551723199   1030000900030000   581219000371190110000000243Jo Jo Hot Pot (Junctio YANGONN       MMR11007181125237641710718000000000000000   10300005F00104100000000000000000000009229     
100   62346600140408990000000000005000000000005000002000000010410407180926477596032755800718655561547199   1030000900030000   541119000763190110000000595Amazing Mart(Anawyahta YANGONTHARYA  MMR11007180926477596030718000000000000000   10300005F00104100000000000000000000001000     
100   62346600102356670000000000028700000000028700002000000010410407180931507597730263520718687011650199   1030000900030000   569119000737190110000000569Di Fashion(NorthDagon) YANGONMYOTHIT MMR11007180931507597730718000000000000000   10300005F00104100000000000000000000008610     
100   35710500140546030000000000034178000000034178002000000010410407181138497647296047750718819081849199   1030000900030000   581219000697190110000000528Pizzamaru Myanmar (MPZ YANGON        MMR11007181138497647290718000000000000000   10300005F00104100000000000000000000011620     
100   9503051878364849000000000002805000000002805000200000001041040718113856764731OJYOEB0718820081856199   1030000900030000   541119000170190110000000085SeinGayHar (Dagon Cent YANGONUNG     MMR11007181138567647310718000000000000000   10300002F00104100000000000000000000005610     
100   62622000000706780000000000005400000000005400002000000010410407181143067648847155890718852131806199   1030000900030000   541119000166190110000000085SeinGayHar (Dagon Cent YANGONUNG     MMR11007181143067648840718000000000000000   10300006F00104100000000000000000000001080     
100   950319000058282700000000005002000000005002000020000000104104071810035633568083560F0718000003912930   1030000900030000   333300010001202104000002717Near Me Android        Yangon        MMR11007181003563356800718000000000000000   10300014F05104100000000000000000000020000     
100   62441900103558670000000000015520000000015520002000000010410407180303247455361093250718890330924199   1030000900030000   541119000144190110000000083SeinGayHarParami Cente YANGON        MMR11007180303247455360718000000000000000   10300003F00104100000000000000000000005432     
100   95030518912916230000000000012250000000012250002000000010410407180307377456813LBM4U0718913370937199   1030000900030000   581219000205190110000000107Canton Paradise        YANGON        MMR11007180307377456810718000000000000000   10300002F00104100000000000000000000004165     
100   9503051019996707000000000002750000000002750000200000001041040718073623755490PRLISY0718798061423199   1030000900030000   569919000098190110000000071TT Style Lady Fashion  YANGON        MMR11007180736237554900718000000000000000   10300002F00104100000000000000000000008250     
100   62346600111444700000000000091000000000091000002000000010410407180835037576561568540718239051503199   1030000900030000   594419000631190110000000462Shwe San Eain GemsTime YANGONUT      MMR11007180835037576560718000000000000000   10300005F00104100000000000000000000027300     
100   35710830046150340000000000070000000000070000002000000010410407180632057530845432000718302021305199   1030000900030000   541119000287190110000000177Pro1 Global (Insein)   YANGON        MMR11007180632057530840718000000000000000   10300003F00104100000000000000000000014000     
100   62346600175062430000000000021000000000021000002000000010410407180908297589201117840718517381529199   1030000900030000   591219000604190110000000444Shwe Ohh Pharmacy St-1 YANGON        MMR11007180908297589200718000000000000000   10300005F00104100000000000000000000006300     
100   35710950755549590000000000032000000000032000002000000010410407181046437626700353640718366161743199   1030000900030000   541119000286190110000000177Pro1 Global (Insein)   YANGON        MMR11007181046437626700718000000000000000   10300003F00104100000000000000000000006400     
100   62443000804459650000000000045800000000045800002000000010410407180840277578711841980718298101527199   1030000900030000   541119000546190110000000394Super One ShoppingMall YANGON        MMR11007180840277578710718000000000000000   10300005F00104100000000000000000000016030     
100   35710830586167140000000000184800000000184800002000000010410407180518017502804944490718711481101199   1030000900030000   599519000611190110000000451Puppy Paradise         YANGON        MMR11007180518017502800718000000000000000   10300003F00104100000000000000000000055440     
100   35710500115389880000000000300000000000300000002000000010410407181140317647956777970718830101831199   1030000900030000   594419000454190110000000307Shwe San Eain (Junctio YANGONN       MMR11007181140317647950718000000000000000   10300005F00104100000000000000000000090000     
100   35710500100951470000000000026400000000026400002000000010410407180810287567219108820718023401428199   1030000900030000   541119000331190110000000206Muditar Supermarket    YANGON        MMR11007180810287567210718000000000000000   10300005F00104100000000000000000000005280     
100   62346600100541910000000000016280000000016280002000000010410407181024337618124478190718176541633199   1030000900030000   581219000006190110000000004Jo Jo Hot Pot Junction YANGONUT      MMR11007181024337618120718000000000000000   10300005F00104100000000000000000000005535     
100   35710830333522860000000000028700000000028700002000000010410407181026087618633628360718185561608199   1030000900030000   599919000188190110000000092119 Fashion (Sanchaung YANGONUNG     MMR11007181026087618630718000000000000000   10300003F00104100000000000000000000008610     
100   35710500150956700000000000012700000000012700002000000010410407181027287619163273060718197571628199   1030000900030000   599919000638190110000000469MIEVIC Store           YANGONUT      MMR11007181027287619160718000000000000000   10300005F00104100000000000000000000003810     
100   35710830463697560000000000020100000000020100002000000010410407181103537633324545520718498331753199   1030000900030000   541119000115190110000000078Sein Gay Har Kan Thar  YANGONOKKALAP MMR11007181103537633320718000000000000000   10300003F00104100000000000000000000004020     
100   9503051896879398000000000009490000000009490000200000001041040718110530763396QXTVS70718509351730199   1030000900030000   581219000206190110000000108Beauty in the Pot      YANGON        MMR11007181105307633960718000000000000000   10300002F00104100000000000000000000032266     
100   35710500175033250000000000204000000000204000002000000010410407181108347635161732060718541381734199   1030000900030000   551119000291190110000000179Wun Yan Kha Car Auto S YANGON        MMR11007181108347635160718000000000000000   10300005F00104100000000000000000000061200     
100   62346600169333070000000000007000000000007000002000000010410407180943087601842028690718765131608199   1030000900030000   481219000767190110000000599Remax By Telegod(GMP)  YANGONUT      MMR11007180943087601840718000000000000000   10300005F00104100000000000000000000002100     
100   35710830891078810000000000010925000000010925002000000010410407181229157666124883740718203591815199   1030000900030000   581219000420190110000000281BCC (JC)               YANGONN       MMR11007181229157666120718000000000000000   10300003F00104100000000000000000000003714     
100   62622000256039740000000000095000000000095000002000000010410407181231507667097187480718220011950199   1030000900030000   581319000363190110000000236Safe House Club        YANGON        MMR11007181231507667090718000000000000000   10300006F00104100000000000000000000032300     
100   62346600184602750000000000011550000000011550002000000010410407181231507667103536000718221011950199   1030000900030000   581219000280190110000000175Min Lan Restaurant (Ka YANGONARTAUNG MMR11007181231507667100718000000000000000   10300005F00104100000000000000000000003927     
100   62444501100066990000000000058000000000058000002000000010410407181232447667444305870718231021944199   1030000900030000   806219000356190110000000225Victoria Hospital      YANGONONE     MMR11007181232447667440718000000000000000   10300002F00104100000000000000000000024360     
100   35710500162531460000000000046600000000046600002000000010410407181232457667477897780718232021945199   1030000900030000   569119000661190110000000492CNC Mens Wear (Time Ma YANGONUT      MMR11007181232457667470718000000000000000   10300005F00104100000000000000000000013980     
100   62921400038822200000000000038325000000038325002000000010410407180840351035593333330718000003912765   1030000900030000   333300010001202104000002659MSP                    Yangon        MMR11007180840351035590718000000000000000   10300009F05104100000000000000000000020000     
100   35650883632035020000000000002500000000002500002000000010410407181149361936701375530718000003913080   1030000900030000   333400010001202104000002022ACS                    Yangon        MMR11007181149361936700718000000000000000   10300005F05104100000000000000000000001500     
100   35650880490018410000000000010000000000010000002000000010410407180359112911471188140718000003912211   1030000900030000   333400010001202104000002022ACS                    Yangon        MMR11007180359112911470718000000000000000   10300005F05104100000000000000000000006000     
100   35710830730634620000000000017600000000017600002000000010410407180311347458214673330718944410934199   1030000900030000   541119000168190110000000085SeinGayHar (Dagon Cent YANGONUNG     MMR11007180311347458210718000000000000000   10300003F00104100000000000000000000003520     
100   62444500100051480000000000178950000000178950002000000010410407180312227458492796720718950420922199   1030000900030000   541119000160190110000000084Pro (1) Global (Pazund YANGONARTAUNG MMR11007180312227458490718000000000000000   10300002F00104100000000000000000000062632     
100   9503051895315071000000000001000000000001000000200000001041040718031937746085BKCTF30718976490937199   1030000900030000   541119000282190110000000177Pro1 Global (Insein)   YANGON        MMR11007180319377460850718000000000000000   10300002F00104100000000000000000000002000     
100   62443000140535540000000000020860000000020860002000000010410407180631597530799360240718300011359199   1030000900030000   541119000138190110000000083SeinGayHarParami Cente YANGON        MMR11007180631597530790718000000000000000   10300005F00104100000000000000000000007301     
100   62444500200071420000000000058375000000058375002000000010410407180723137549643478310718668531313199   1030000900030000   541119000115190110000000078Sein Gay Har Kan Thar  YANGONOKKALAP MMR11007180723137549640718000000000000000   10300002F00104100000000000000000000020432     
100   35710500113130690000000000030475000000030475002000000010410407180854597584065636030718409241559199   1030000900030000   581219000590190110000000430The Tea Club           YANGON        MMR11007180854597584060718000000000000000   10300005F00104100000000000000000000010362     
100   62443000860120740000000000037600000000037600002000000010410407180858137585279317030718430281513199   1030000900030000   599919000055190110000000050119 Fashion Complex (K YANGONUT      MMR11007180858137585270718000000000000000   10300005F00104100000000000000000000015792     
100   62441900101014850000000000055300000000055300002000000010410407180858237585313033190718431281523199   1030000900030000   541119000375190110000000178Pro (1) Global (East D YANGONMYOTHIT MMR11007180858237585310718000000000000000   10300003F00104100000000000000000000019355     
100   9503051896176126000000000008990000000008990000200000001041040718093740759987HOF9HB0718727071640199   1030000900030000   594419000460190110000000313Yangoods (Ocean Mingal MANDALAYHARSI MMR11007180937407599870718000000000000000   10300002F00104100000000000000000000026970     
100   9503051896464761000000000006800000000006800000200000001041040718105650763063ZA1IRL0718454261750199   1030000900030000   541119000282190110000000177Pro1 Global (Insein)   YANGON        MMR11007181056507630630718000000000000000   10300002F00104100000000000000000000013600     
100   9503051884409703000000000005590000000005590000200000001041040718092246759473ZFG7JL0718634521546199   1030000900030000   599919000198190110000000102119 Fashion Complex (T YANGON        MMR11007180922467594730718000000000000000   10300002F00104100000000000000000000016770     
100   62622000285639100000000000010600000000010600002000000010410407181012547613687146100718075421654199   1030000900030000   591219000501190110000000348Shwe Ohh Pharmacy (SmL YANGONUT      MMR11007181012547613680718000000000000000   10300006F00104100000000000000000000003180     
100   9503051872314527000000000015950000000015950000200000001041040718072349754986FBEWBE0718674531349199   1030000900030000   594419000631190110000000462Shwe San Eain GemsTime YANGONUT      MMR11007180723497549860718000000000000000   10300002F00104100000000000000000000047850     
100   35710830674433320000000000044000000000044000002000000010410407181058327631336230640718461281732199   1030000900030000   591219000601190110000000441Shwe Ohh Pharmacy St-3 YANGON        MMR11007181058327631330718000000000000000   10300003F00104100000000000000000000013200     
100   95030800091859970000000000077200000000077200002000000010410407181018297615785773230718117481629199   1030000900030000   569919000580190110000000420D & C Myanmar (JC)     YANGONUT      MMR11007181018297615780718000000000000000   10300003F00104100000000000000000000023160     
100   35710830704845130000000000018000000000018000002000000010410407181046447626716229120718367161744199   1030000900030000   569119000350190110000000217Bench (Myanmar Plaza)  YANGON        MMR11007181046447626710718000000000000000   10300003F00104100000000000000000000005400     
100   9503051895384119000000000006115000000006115000200000001041040718094524760271YTRSM80718780151624199   1030000900030000   597719000109190110000000075Girls Generation       YANGONUT      MMR11007180945247602710718000000000000000   10300002F00104100000000000000000000018345     
100   9503051884866803000000000002660000000002660000200000001041040718143036003664LRSQBQ0718000003913334   1030000900030000   333300010001202104000000109Myanmar National Airli Yangon        MMR11007181430360036640718000000000000000   10300002F05104100000000000000000000020000     
100   62441900102552240000000000020200000000020200002000000010410407172358182818689834540718000003911912   1030000900030000   333300010001202104000002659MSP                    Yangon        MMR11007172358182818680718000000000000000   10300003F05104100000000000000000000020000     
100   95031900019730820000000000100200000000100200002000000010410407180804433443925B550F0718000003912699   1030000900030000   333300010001202104000002717Near Me Android        Yangon        MMR11007180804433443920718000000000000000   10300014F05104100000000000000000000020000     
100   9503051762453294000000000011900000000011900000200000001041040718083854757813OBLQNB0718283081554199   1030000900030000   594419000631190110000000462Shwe San Eain GemsTime YANGONUT      MMR11007180838547578130718000000000000000   10300002F00104100000000000000000000035700     
100   35710500190967160000000000035000000000035000002000000010410407180502237497226695450718609321123199   1030000900030000   541119000288190110000000178Pro (1) Global (East D YANGONMYOTHIT MMR11007180502237497220718000000000000000   10300005F00104100000000000000000000007000     
100   9503051889046823000000000008730000000008730000200000001041040718051442750158DGQPP00718692441142199   1030000900030000   599919000569190110000000251Pro (1) Global (MawlaM MONLAMYAING   MMR11007180514427501580718000000000000000   10300002F00104100000000000000000000026190     
100   950319000199948300000000000098000000000098000020000000104104071807272375512032W40F0718706571323199   1030000900030000   591219000503190110000000350Shwe Ohh Pharmacy (WZD YANGONNGKUUN  MMR11007180727237551200718000000000000000   10300014F00104100000000000000000000002940     
100   62343302002775030000000000005000000000005000002000000010410407181117364736380000000718000003913049   1030000900030000   333400010001202104000002022ACS                    Yangon        MMR11007181117364736380718000000000000000   10300004F05104100000000000000000000003000     
100   62921400037379370000000000002500000000002500002000000010410407180517524752173333330718000003912395   1030000900030000   333400010001202104000002022ACS                    Yangon        MMR11007180517524752170718000000000000000   10300009F05104100000000000000000000001500     
100   35710500156073910000000000061500000000061500002000000010410407180814497569001903220718070441449199   1030000900030000   541119000124190110000000080Sein Gay Har BAK       YANGONADA     MMR11007180814497569000718000000000000000   10300005F00104100000000000000000000012300     
100   95030518737100530000000000048250000000048250002000000010410407180817327570024JNCHJ0718090471432199   1030000900030000   591219000500190110000000347Shwe Ohh Pharmacy -2   YANGONUNG     MMR11007180817327570020718000000000000000   10300002F00104100000000000000000000014475     
100   35710830071481570000000000351000000000351000002000000010410407180819367570674957370718102491436199   1030000900030000   599919000183190110000000087KER Rendezvous (2)Floo YANGONONE     MMR11007180819367570670718000000000000000   10300003F00104100000000000000000000105300     
100   35710830178500160000000000153350000000153350002000000010410407180413457480283668320718320431045199   1030000900030000   541119000282190110000000177Pro1 Global (Insein)   YANGON        MMR11007180413457480280718000000000000000   10300003F00104100000000000000000000030670     
100   9503051020160509000000000025500000000025500000200000001041040718053444750915F2GCLK0718846041244199   1030000900030000   481219000030190110000000029I Sure Apple Service C YANGONUT      MMR11007180534447509150718000000000000000   10300002F00104100000000000000000000076500     
100   95030801106015690000000000010000000000010000002000000010410407180537577510324940150718868071257199   1030000900030000   541119000331190110000000206Muditar Supermarket    YANGON        MMR11007180537577510320718000000000000000   10300003F00104100000000000000000000002000     
100   95030800070095460000000000020000000000020000002000000010410407180859007585444223220718433291500199   1030000900030000   569119000717190110000000548M.Y Fashion (401)      YANGONUT      MMR11007180859007585440718000000000000000   10300003F00104100000000000000000000006000     
100   9503051890114578000000000000250000000000250000200000001041040718102852585282KDTQJK0718000003912978   1030000900030000   333400010001202104000002022ACS                    Yangon        MMR11007181028525852820718000000000000000   10300002F05104100000000000000000000001500     
100   62441900003246340000000000010000000000010000002000000010410407180552147515676967010718974221214199   1030000900030000   481419000108190110000000045Amara Communications   YANGON        MMR11007180552147515670718000000000000000   10300003F00104100000000000000000000004200     
100   35710830167711630000000000209000000000209000002000000010410407180555167516875211100718999251216199   1030000900030000   594419000631190110000000462Shwe San Eain GemsTime YANGONUT      MMR11007180555167516870718000000000000000   10300003F00104100000000000000000000062700     
100   62443000803034530000000000033638000000033638002000000010410407180555527517156555430718006251252199   1030000900030000   581219000029190110000000026BCC (TC)               YANGONUT      MMR11007180555527517150718000000000000000   10300005F00104100000000000000000000020014     
100   9503051891439792000000000001600000000001600000200000001041040718133721769051DKZ1G80718658072021199   1030000900030000   554119000344190110000000211New Day Energy - 1     YANGONUNG     MMR11007181337217690510718000000000000000   10300002F00104100000000000000000000002400     
100   62444501100076480000000000162400000000162400002000000010410407181344157692924447860718705142015199   1030000900030000   581219000206190110000000108Beauty in the Pot      YANGON        MMR11007181344157692920718000000000000000   10300002F00104100000000000000000000096628     
100   62346600121853320000000000001300000000001300002000000010410407181349127694716734010718735192012199   1030000900030000   541119000170190110000000085SeinGayHar (Dagon Cent YANGONUNG     MMR11007181349127694710718000000000000000   10300005F00104100000000000000000000000260     
100   95030518913661280000000000065511000000065511002000000010410407181352037695717SBHRY0718756222003199   1030000900030000   701119000064190110000000024Lotte Hotel            YANGON        MMR11007181352037695710718000000000000000   10300002F00104100000000000000000000022274     
100   62622000632864010000000000107580000000107580002000000010410407181433367709026954920718934032136199   1030000900030000   581319000430190110000000554The Glass Bar          YANGONONE     MMR11007181433367709020718000000000000000   10300006F00104100000000000000000000036577     
100   95031900032274380000000000026000000000026000002000000010410407181006107610981V460F0718005361610199   1030000900030000   569119000559190110000000406CNC Mens Wear (30 Stre YANGONN       MMR11007181006107610980718000000000000000   10300014F00104100000000000000000000007800     
100   9503051891466720000000000004135000000004135000200000001041040718071514754682BZG6VY0718620451314199   1030000900030000   581219000635190110000000466King BBQ Time City     YANGONUT      MMR11007180715147546820718000000000000000   10300002F00104100000000000000000000014059     
100   35710830518086560000000000018700000000018700002000000010410407181414397702948207310718857442039199   1030000900030000   581219000004190110000000002Yoogane Korea Rest;(MP YANGON        MMR11007181414397702940718000000000000000   10300003F00104100000000000000000000006358     
100   35710830018967020000000000041400000000041400002000000010410407180729087552115774300718737591308199   1030000900030000   581219000590190110000000430The Tea Club           YANGON        MMR11007180729087552110718000000000000000   10300003F00104100000000000000000000014076     
100   9503051882301886000000000001330000000001330000200000001041040718072934755230EM0X7X0718741591334199   1030000900030000   591219000504190110000000351Shwe Ohh Pharmacy -6   YANGONAW      MMR11007180729347552300718000000000000000   10300002F00104100000000000000000000003990     
100   35710830797133340000000000022400000000022400002000000010410407180730187552557521670718746001418199   1030000900030000   581219000721190110000000552Chilli Pot Mala Xiang  YANGONOKKALAP MMR11007180730187552550718000000000000000   10300003F00104100000000000000000000007616     
100   35710830542176320000000000061000000000061000002000000010410407181029537619915128850718205591653199   1030000900030000   594419000454190110000000307Shwe San Eain (Junctio YANGONN       MMR11007181029537619910718000000000000000   10300003F00104100000000000000000000018300     
100   95051812251705200000000001293000000001293000002000000010410407181033067621319814330718236031706199   1030000900030000   594419000707190110000000538Zwe Htet Gems & Jewell YANGON        MMR11007181033067621310718000000000000000   10300013F00104100000000000000000000543060     
100   35710500175232810000000000275200000000275200002000000010410407181033487621597477440718244031748199   1030000900030000   541119000282190110000000177Pro1 Global (Insein)   YANGON        MMR11007181033487621590718000000000000000   10300005F00104100000000000000000000055040     
