000   10300009200721
100   62346600191944930000000000035000000000035000002000000010410407210445071507990774590721000003917410   1030000900030000   333400010001202104000002022ACS                    Yangon        MMR11007210445071507990721000000000000000   10300005F05104100000000000000000000021000     
100   62346600196063970000000000001000000000001000002000000010410407211101243124281486920721000003919037   1030000900030000   333800010001202104000003301uab bank               Yangon        MMR11007211101243124280721000000000000000   10300005F05104100000000000000000000000600     
100   9503051873697045000000000006800000000006800000200000001041040721010947394784DIT0L60721000003916646   1030000900030000   333300010001202104000000109Myanmar National Airli Yangon        MMR11007210109473947840721000000000000000   10300002F05104100000000000000000000020000     
100   35710950915664580000000000005000000000005000002000000010410407211209303930944786840721000003919181   1030000900030000   333400010001202104000002022ACS                    Yangon        MMR11007211209303930940721000000000000000   10300003F05104100000000000000000000003000     
100   9503051892802352000000000012020000000012020000200000001041040721033053005393JCJMTA0721000003917016   1030000900030000   333300010001202104000002659MSP                    Yangon        MMR11007210330530053930721000000000000000   10300002F05104100000000000000000000020000     
100   62346600196063970000000000001000000000001000002000000010410407201741321132539748780721000003916493   1030000900030000   333800010001202104000003301uab bank               Yangon        MMR11007201741321132530721000000000000000   10300005F05104100000000000000000000000600     
100   95030301100033080000000000005000000000005000002000000010410407210953202320130861100721000003918796   1030000900030000   333800010001202104000003301uab bank               Yangon        MMR11007210953202320130721000000000000000   10300001F05104100000000000000000000003000     
100   95031201000732860000000000010000000000010000002000000010410407210242441244223333330721000003916840   1030000900030000   333800010001202104000003301uab bank               Yangon        MMR11007210242441244220721000000000000000   10300009F05104100000000000000000000006000     
100   9503051872594938000000000000500000000000500000200000001041040721104246124670SH8NRK0721000003918987   1030000900030000   333400010001202104000002022ACS                    Yangon        MMR11007211042461246700721000000000000000   10300002F05104100000000000000000000003000     
100   35710500171103110000000000035000000000035000002000000010410407211143161316000604650721000003919133   1030000900030000   333400010001202104000002022ACS                    Yangon        MMR11007211143161316000721000000000000000   10300005F05104100000000000000000000021000     
100   95010121409491240000000000005000000000005000002000000010410407210543181318151733880721000003917699   1030000900030000   333800010001202104000003301uab bank               Yangon        MMR11007210543181318150721000000000000000   10100001F05104100000000000000000000003000     
100   62346600148230130000000000005000000000005000002000000010410407210347151715566500550721000003917107   1030000900030000   333400010001202104000002022ACS                    Yangon        MMR11007210347151715560721000000000000000   10300005F05104100000000000000000000003000     
100   95031900011457310000000000007000000000007000002000000010410407211156382638683UU23F0721000003919157   1030000900030000   333400010001202104000002022ACS                    Yangon        MMR11007211156382638680721000000000000000   10300014F05104100000000000000000000004200     
100   9503051020300345000000000001000000000001000000200000001041040721010731373195DSDZQP0721000003916641   1030000900030000   333400010001202104000002022ACS                    Yangon        MMR11007210107313731950721000000000000000   10300002F05104100000000000000000000006000     
100   950319000157330400000000001002000000001002000020000000104104072023594429446633662F0721000003916575   1030000900030000   333300010001202104000002717Near Me Android        Yangon        MMR11007202359442944660721000000000000000   10300014F05104100000000000000000000020000     
100   95030800072982060000000000050200000000050200002000000010410407210335030503385553070721000003917044   1030000900030000   333300010001202104000002659MSP                    Yangon        MMR11007210335030503380721000000000000000   10300003F05104100000000000000000000020000     
100   95031201600506200000000000005000000000005000002000000010410407210446251625333333330721000003917415   1030000900030000   333400010001202104000002022ACS                    Yangon        MMR11007210446251625330721000000000000000   10300009F05104100000000000000000000003000     
100   35710830740643860000000000321200000000321200002000000010410407211446261626387840870721000003919533   1030000900030000   333300010001202104000002659MSP                    Yangon        MMR11007211446261626380721000000000000000   10300003F05104100000000000000000000020000     
100   35710830124307230000000002000200000002000200002000000010410407211506103610864459900721000003919581   1030000900030000   333300010001202104000002717Near Me Android        Yangon        MMR11007211506103610860721000000000000000   10300003F05104100000000000000000000020000     
100   95031200300274100000000000010000000000010000002000000010410407211413534353373333330721000003919469   1030000900030000   333800010001202104000003301uab bank               Yangon        MMR11007211413534353370721000000000000000   10300009F05104100000000000000000000006000     
100   62346600120557580000000000010000000000010000002000000010410407210631480148220050010721000003917895   1030000900030000   333800010001202104000003301uab bank               Yangon        MMR11007210631480148220721000000000000000   10300005F05104100000000000000000000006000     
100   95031202500367110000000000080000000000080000002000000010410407210340001000623333330721000003917070   1030000900030000   333800010001202104000003301uab bank               Yangon        MMR11007210340001000620721000000000000000   10300009F05104100000000000000000000048000     
100   95010121409066110000000000050200000000050200002000000010410407211146381638081070960721000003919141   1030000900030000   333300010001202104000002659MSP                    Yangon        MMR11007211146381638080721000000000000000   10100001F05104100000000000000000000020000     
100   35710500118311690000000000035000000000035000002000000010410407210555362536564799110721000003917749   1030000900030000   333400010001202104000002022ACS                    Yangon        MMR11007210555362536560721000000000000000   10300005F05104100000000000000000000021000     
100   950319000002169300000000001002000000001002000020000000104104072107581328138426C03F0721000003918296   1030000900030000   333300010001202104000002717Near Me Android        Yangon        MMR11007210758132813840721000000000000000   10300014F05104100000000000000000000020000     
100   35710830371528720000000000005000000000005000002000000010410407210300443044714220610721000003916889   1030000900030000   333400010001202104000002022ACS                    Yangon        MMR11007210300443044710721000000000000000   10300003F05104100000000000000000000003000     
100   95031900013438560000000000005000000000005000002000000010410407210800483048273XC03F0721000003918308   1030000900030000   333400010001202104000002022ACS                    Yangon        MMR11007210800483048270721000000000000000   10300014F05104100000000000000000000003000     
100   95031900030574390000000000090200000000090200002000000010410407211235450545676U433F0721000003919228   1030000900030000   333300010001202104000002717Near Me Android        Yangon        MMR11007211235450545670721000000000000000   10300014F05104100000000000000000000020000     
100   95031900041465530000000000050200000000050200002000000010410407210342351235148AN72F0721000003917083   1030000900030000   333300010001202104000002717Near Me Android        Yangon        MMR11007210342351235140721000000000000000   10300014F05104100000000000000000000020000     
100   62443000803034610000000000010000000000010000002000000010410407211342381238802671410721000003919407   1030000900030000   333400010001202104000002022ACS                    Yangon        MMR11007211342381238800721000000000000000   10300005F05104100000000000000000000006000     
100   9503051885674883000000000000700000000000700000200000001041040721061116411628LH9IOZ0721000003917812   1030000900030000   333400010001202104000002022ACS                    Yangon        MMR11007210611164116280721000000000000000   10300002F05104100000000000000000000004200     
100   35710500112860830000000000010000000000010000002000000010410407210739180918779208820721000003918222   1030000900030000   333400010001202104000002022ACS                    Yangon        MMR11007210739180918770721000000000000000   10300005F05104100000000000000000000006000     
100   95031900017914500000000000200200000000200200002000000010410407210557192719074A392F0721000003917755   1030000900030000   333300010001202104000002717Near Me Android        Yangon        MMR11007210557192719070721000000000000000   10300014F05104100000000000000000000020000     
100   35710500181562060000000000010000000000010000002000000010410407210253372337610175790721000003916870   1030000900030000   333400010001202104000002022ACS                    Yangon        MMR11007210253372337610721000000000000000   10300005F05104100000000000000000000006000     
100   62921400035757820000000000005000000000005000002000000010410407211458152815143333330721000003919570   1030000900030000   333400010001202104000002022ACS                    Yangon        MMR11007211458152815140721000000000000000   10300009F05104100000000000000000000003000     
100   35710500122538270000000000005000000000005000002000000010410407210758152815424438700721000003918294   1030000900030000   333400010001202104000002022ACS                    Yangon        MMR11007210758152815420721000000000000000   10300005F05104100000000000000000000003000     
100   9503051877359113000000000000500000000000500000200000001041040721001410441075CHW6OY0721000003916589   1030000900030000   333400010001202104000002022ACS                    Yangon        MMR11007210014104410750721000000000000000   10300002F05104100000000000000000000003000     
100   9503051888518608000000000000500000000000500000200000001041040721093930093002Q3TCU20721000003918731   1030000900030000   333400010001202104000002022ACS                    Yangon        MMR11007210939300930020721000000000000000   10300002F05104100000000000000000000003000     
100   62346600194782350000000000035000000000035000002000000010410407210449091909815009900721000003917436   1030000900030000   333400010001202104000002022ACS                    Yangon        MMR11007210449091909810721000000000000000   10300005F05104100000000000000000000021000     
100   95031900017544330000000000500200000000500200002000000010410407210809123912102BH03F0721000003918352   1030000900030000   333300010001202104000002659MSP                    Yangon        MMR11007210809123912100721000000000000000   10300014F05104100000000000000000000020000     
100   95031900041465530000000000150200000000150200002000000010410407211030080008065BX13F0721000003918942   1030000900030000   333300010001202104000002717Near Me Android        Yangon        MMR11007211030080008060721000000000000000   10300014F05104100000000000000000000020000     
100   9503051878028311000000000200020000000200020000200000001041040721033711071174SYVN4H0721000003917053   1030000900030000   333300010001202104000002717Near Me Android        Yangon        MMR11007210337110711740721000000000000000   10300002F05104100000000000000000000020000     
100   35650973622940400000000000010000000000010000002000000010410407211452042204076593250721000003919556   1030000900030000   333400010001202104000002022ACS                    Yangon        MMR11007211452042204070721000000000000000   10300005F05104100000000000000000000006000     
100   95031900007716690000000000100200000000100200002000000010410407210954462446153HH13F0721000003918802   1030000900030000   333300010001202104000002717Near Me Android        Yangon        MMR11007210954462446150721000000000000000   10300014F05104100000000000000000000020000     
100   95031010800771660000000000035000000000035000002000000010410407210350262026509883380721000003917127   1030000900030000   333400010001202104000002022ACS                    Yangon        MMR11007210350262026500721000000000000000   10300005F05104100000000000000000000021000     
100   95031202500367110000000000170000000000170000002000000010410407210353432343953333330721000003917150   1030000900030000   333800010001202104000003301uab bank               Yangon        MMR11007210353432343950721000000000000000   10300009F05104100000000000000000000102000     
100   35710500141867690000000000035000000000035000002000000010410407211606293629210466310721000003919697   1030000900030000   333400010001202104000002022ACS                    Yangon        MMR11007211606293629210721000000000000000   10300005F05104100000000000000000000021000     
100   62346600112657210000000000005000000000005000002000000010410407211213194319915072170721000003919190   1030000900030000   333400010001202104000002022ACS                    Yangon        MMR11007211213194319910721000000000000000   10300005F05104100000000000000000000003000     
100   35710830465389880000000000003000000000003000002000000010410407210154482448226603540721000003916723   1030000900030000   333400010001202104000002022ACS                    Yangon        MMR11007210154482448220721000000000000000   10300003F05104100000000000000000000001800     
100   35710500321224240000000000020200000000020200002000000010410407210700133013176426890721000003918032   1030000900030000   333300010001202104000002659MSP                    Yangon        MMR11007210700133013170721000000000000000   10300005F05104100000000000000000000020000     
100   62444500200295590000000000010000000000010000002000000010410407210530130013579460440721000003917639   1030000900030000   333400010001202104000002022ACS                    Yangon        MMR11007210530130013570721000000000000000   10300002F05104100000000000000000000006000     
100   95031900002922110000000000050200000000050200002000000010410407210136080608268WN62F0721000003916691   1030000900030000   333300010001202104000002717Near Me Android        Yangon        MMR11007210136080608260721000000000000000   10300014F05104100000000000000000000020000     
100   95031900011005040000000004900200000004900200002000000010410407210809223922549CH03F0721000003918354   1030000900030000   333300010001202104000002659MSP                    Yangon        MMR11007210809223922540721000000000000000   10300014F05104100000000000000000000020000     
100   35710500173132870000000000010000000000010000002000000010410407211236400640987272100721000003919232   1030000900030000   333400010001202104000002022ACS                    Yangon        MMR11007211236400640980721000000000000000   10300005F05104100000000000000000000006000     
100   35710830425963600000000000061400000000061400002000000010410407210540101010818743860721000003917682   1030000900030000   333300010001202104000000109Myanmar National Airli Yangon        MMR11007210540101010810721000000000000000   10300003F05104100000000000000000000020000     
100   95051010182342590000000000005000000000005000002000000010410407202137030703150536510721000003916550   1030000900030000   333400010001202104000002022ACS                    Yangon        MMR11007202137030703150721000000000000000   10300005F05104100000000000000000000003000     
100   62346600160819170000000000100200000000100200002000000010410407210548371837183656210721000003917721   1030000900030000   333300010001202104000002717Near Me Android        Yangon        MMR11007210548371837180721000000000000000   10300005F05104100000000000000000000020000     
100   9503051884866803000000000002660000000002660000200000001041040721101743474338VN8ZPT0721000003918900   1030000900030000   333300010001202104000000109Myanmar National Airli Yangon        MMR11007211017434743380721000000000000000   10300002F05104100000000000000000000020000     
100   95031011540151910000000000035000000000035000002000000010410407211402073207790171120721000003919440   1030000900030000   333400010001202104000002022ACS                    Yangon        MMR11007211402073207790721000000000000000   10300005F05104100000000000000000000021000     
100   35710950032646550000000000019200000000019200002000000010410407210433080308806097300721000003917363   1030000900030000   333300010001202104000002659MSP                    Yangon        MMR11007210433080308800721000000000000000   10300003F05104100000000000000000000020000     
100   62921400029018150000000000003000000000003000002000000010410407210449441944713333330721000003917423   1030000900030000   333800010001202104000003301uab bank               Yangon        MMR11007210449441944710721000000000000000   10300009F05104100000000000000000000001800     
100   62441900103402810000000000250000000000250000002000000010410407210337048828317966410721958071004202   1030000900030000   592119000256190110000000151Htun Htun Oo Liquor (B YANGON        MMR11007210337048828310721000000000000000   10300003F00104100000000000000000000105000     
100   950319000024586200000000000150000000000150000020000000104104072104453615361428982F0721000003917416   1030000900030000   333400010001202104000002022ACS                    Yangon        MMR11007210445361536140721000000000000000   10300014F05104100000000000000000000009000     
100   62346600115730820000000000005000000000005000002000000010410407211000183018092308710721000003918823   1030000900030000   333400010001202104000002022ACS                    Yangon        MMR11007211000183018090721000000000000000   10300005F05104100000000000000000000003000     
100   95030518842162800000000000535200000000535200002000000010410407210820535053042XC2XK0721000003918414   1030000900030000   333300010001202104000002659MSP                    Yangon        MMR11007210820535053040721000000000000000   10300002F05104100000000000000000000020000     
100   62921400037967430000000000002800000000002800002000000010410407211320565056193333330721000003919347   1030000900030000   333800010001202104000003301uab bank               Yangon        MMR11007211320565056190721000000000000000   10300009F05104100000000000000000000001680     
100   950305187623776500000000006700000000006700000020000000104104072108160189352379JHRI0721236461401202   1030000900030000   592119000255190110000000150HtunHtunOo Liquor (May YANGONONE     MMR11007210816018935230721000000000000000   10300002F00104100000000000000000000201000     
100   9503051893387361000000000001900000000001900000200000001041040721052821886940QYEZFQ0721739581121202   1030000900030000   541119000159190110000000084Pro (1) Global (Pazund YANGONIKANAUN MMR11007210528218869400721000000000000000   10300002F00104100000000000000000000003800     
100   35710500126317250000000000660000000000660000002000000010410407210730408916593908620721744001440202   1030000900030000   594419000598190110000000438Shwe NanTaw Jewellery  YANGONN       MMR11007210730408916590721000000000000000   10300005F00104100000000000000000000198000     
100   35710500156065670000000000004650000000004650002000000010410407210732178917382632180721761021417202   1030000900030000   541119000080190110000000057Pro (1) Global (Tampaw MANDALAYHARSI MMR11007210732178917380721000000000000000   10300005F00104100000000000000000000000930     
100   35710830953298590000000000040000000000040000002000000010410407210743588922065413740721860131458202   1030000900030000   594419000454190110000000307Shwe San Eain (Junctio YANGONN       MMR11007210743588922060721000000000000000   10300003F00104100000000000000000000012000     
100   35710950036184960000000000810000000000810000002000000010410407210747368923611805310721915171436202   1030000900030000   481219000710190110000000541I Sure Technology Co., YANGONAUNG    MMR11007210747368923610721000000000000000   10300003F00104100000000000000000000243000     
100   9503051889281578000000000017890000000017890000200000001041040721073005891643RU207T0721740001405202   1030000900030000   541119000286190110000000177Pro1 Global (Insein)   YANGON        MMR11007210730058916430721000000000000000   10300002F00104100000000000000000000035780     
100   95031900000995330000000000295000000000295000002000000010410407210753278926137M903F0721993231427202   1030000900030000   541119000117190110000000078Sein Gay Har Kan Thar  YANGONOKKALAP MMR11007210753278926130721000000000000000   10300014F00104100000000000000000000059000     
100   9503051888193196000000000001863000000001863000200000001041040721055351887931KNGSJI0721949231251202   1030000900030000   581219000423190110000000284BCC (SYS)              YANGON        MMR11007210553518879310721000000000000000   10300002F00104100000000000000000000006334     
100   9503051872870171000000000005885000000005885000200000001041040721030032881484ZOGXXJ0721691300932202   1030000900030000   591219000610190110000000450Shwe Ohh Pharmacy St-1 YANGONUNG     MMR11007210300328814840721000000000000000   10300002F00104100000000000000000000017655     
100   35710500182909480000000000005100000000005100002000000010410407210502088859094534980721500321108202   1030000900030000   594319000084190110000000059Innwa Books            YANGONUT      MMR11007210502088859090721000000000000000   10300005F00104100000000000000000000001530     
100   95030801450223020000000000134000000000134000002000000010410407210628228892675564290721233581222202   1030000900030000   594419000598190110000000438Shwe NanTaw Jewellery  YANGONN       MMR11007210628228892670721000000000000000   10300003F00104100000000000000000000040200     
100   35710500146285470000000000415100000000415100002000000010410407210830398941228870970721412001539202   1030000900030000   541119000614190110000000452Pro(1) Global-Hlaing T YANGONTHARYA  MMR11007210830398941220721000000000000000   10300005F00104100000000000000000000083020     
100   95051080108351990000000000005000000000005000002000000010410407210738230823620400170721000003918217   1030000900030000   333800010001202104000003301uab bank               Yangon        MMR11007210738230823620721000000000000000   10300005F05104100000000000000000000003000     
100   95031900011857450000000000152510000000152510002000000010410407210434290429596X582F0721000003917369   1030000900030000   333300010001202104000002717Near Me Android        Yangon        MMR11007210434290429590721000000000000000   10300014F05104100000000000000000000020000     
100   95031900004980730000000000035000000000035000002000000010410407211445111511761A143F0721000003919538   1030000900030000   333400010001202104000002022ACS                    Yangon        MMR11007211445111511760721000000000000000   10300014F05104100000000000000000000021000     
100   95031900015042420000000000100200000000100200002000000010410407211242531253099E633F0721000003919237   1030000900030000   333300010001202104000002717Near Me Android        Yangon        MMR11007211242531253090721000000000000000   10300014F05104100000000000000000000020000     
100   62443000803003270000000000091000000000091000002000000010410407202347341734409322890721000003916572   1030000900030000   333300010001202104000000109Myanmar National Airli Yangon        MMR11007202347341734400721000000000000000   10300005F05104100000000000000000000020000     
100   62346600151082730000000000007600000000007600002000000010410407210744358922224726290721867141435202   1030000900030000   541119000166190110000000085SeinGayHar (Dagon Cent YANGONUNG     MMR11007210744358922220721000000000000000   10300005F00104100000000000000000000001520     
100   35710830335804720000000000050000000000050000002000000010410407211125529019188069110721008551752202   1030000900030000   729819000623190110000000456Treasure Beauty Health YANGONOKKALAP MMR11007211125529019180721000000000000000   10300003F00104100000000000000000000015000     
100   95031900008278340000000000033500000000033500002000000010410407211312479060614MC33F0721932421947202   1030000900030000   569119000737190110000000569Di Fashion(NorthDagon) YANGONMYOTHIT MMR11007211312479060610721000000000000000   10300014F00104100000000000000000000010050     
100   35710500146178620000000000068300000000068300002000000010410407211452489092540323700721375222148202   1030000900030000   581219000206190110000000108Beauty in the Pot      YANGON        MMR11007211452489092540721000000000000000   10300005F00104100000000000000000000023222     
100   95031900035503590000000000009100000000009100002000000010410407210944278979141UB13F0721053141627202   1030000900030000   569119000273190110000000168Central Fashion Store  MANDALAYHARSA MMR11007210944278979140721000000000000000   10300014F00104100000000000000000000002730     
100   35710500162152850000000000103834000000103834002000000010410407211301099056461913170721870311909202   1030000900030000   701119000075190110000000024Lotte Hotel            YANGON        MMR11007211301099056460721000000000000000   10300005F00104100000000000000000000035304     
100   62346600134415510000000000019500000000019500002000000010410407211221359041986051960721576511835202   1030000900030000   597719000531190110000000379Mon Cosmetic (2)       MANDALAYHARSA MMR11007211221359041980721000000000000000   10300005F00104100000000000000000000005850     
100   62346600103146450000000000204500000000204500002000000010410407210856048951089542960721649261504202   1030000900030000   729819000218190110000000118Cherish Beauty Collect YANGONUNG     MMR11007210856048951080721000000000000000   10300005F00104100000000000000000000061350     
100   9503051889829582000000000005190000000005190000200000001041040721134948907274WEFHKK0721103192048202   1030000900030000   591219000759190110000000591Shwe Ohh Pharmacy ST-3 YANGONOKKALAP MMR11007211349489072740721000000000000000   10300002F00104100000000000000000000015570     
100   35710830857407760000000000012200000000012200002000000010410407211256069054633656310721833261906202   1030000900030000   541119000166190110000000085SeinGayHar (Dagon Cent YANGONUNG     MMR11007211256069054630721000000000000000   10300003F00104100000000000000000000002440     
100   62346600185086280000000000002500000000002500002000000010410407210839508944781898790721502091550202   1030000900030000   581219000723190110000000555Shake Cake&Bakery(Capi YANGON        MMR11007210839508944780721000000000000000   10300005F00104100000000000000000000000850     
100   95030800033063830000000003247000000003247000002000000010410407211132179022011935500721089021817202   1030000900030000   481219000711190110000000542I Sure Technology Co., MANDALAYHARSA MMR11007211132179022010721000000000000000   10300003F00104100000000000000000000974100     
100   95051071710005930000000000086200000000086200002000000010410407211342239070304798820721066122023202   1030000900030000   581219000205190110000000107Canton Paradise        YANGON        MMR11007211342239070300721000000000000000   10300005F00104100000000000000000000051289     
100   62921400092101290000000000035000000000035000002000000010410407210620425042083333330721000003917848   1030000900030000   333400010001202104000002022ACS                    Yangon        MMR11007210620425042080721000000000000000   10300009F05104100000000000000000000021000     
100   95031900011387440000000000008100000000008100002000000010410407211028178995095TV13F0721379581617202   1030000900030000   541119000168190110000000085SeinGayHar (Dagon Cent YANGONUNG     MMR11007211028178995090721000000000000000   10300014F00104100000000000000000000001620     
100   62346600120661100000000001284750000001284750002000000010410407210351098833539890620721052211009202   1030000900030000   541119000287190110000000177Pro1 Global (Insein)   YANGON        MMR11007210351098833530721000000000000000   10300005F00104100000000000000000000256950     
100   9503051877098398000000000000300000000000300000200000001041040721122958595813H1THOA0721000003919216   1030000900030000   333400010001202104000002022ACS                    Yangon        MMR11007211229585958130721000000000000000   10300002F05104100000000000000000000001800     
100   35710500360422140000000000009300000000009300002000000010410407210803418930140381660721091331441202   1030000900030000   599919000195190110000000099119 Fashion Complex (P YANGONN       MMR11007210803418930140721000000000000000   10300005F00104100000000000000000000002790     
100   9503051872569096000000000000700000000000700000200000001041040721132416541680HPXLTS0721000003919363   1030000900030000   333400010001202104000002022ACS                    Yangon        MMR11007211324165416800721000000000000000   10300002F05104100000000000000000000004200     
100   9503051891013571000000000009000000000009000000200000001041040721082756894009HFMXHS0721375571456202   1030000900030000   541119000290190110000000178Pro (1) Global (East D YANGONMYOTHIT MMR11007210827568940090721000000000000000   10300002F00104100000000000000000000018000     
100   35710830347306880000000000027700000000027700002000000010410407211135599023733175610721142051859202   1030000900030000   546219000745190110000000577Ei Dorado Bake House(T YANGONNGKUUN  MMR11007211135599023730721000000000000000   10300003F00104100000000000000000000008310     
100   35710950188062500000000000170450000000170450002000000010410407211319409062843841520721968491940202   1030000900030000   591219000606190110000000446Shwe Ohh Pharmacy St-2 YANGON        MMR11007211319409062840721000000000000000   10300003F00104100000000000000000000051135     
100   35710830704413070000000000002250000000002250002000000010410407211229439045093498010721642591843202   1030000900030000   591219000607190110000000447Shwe Ohh Pharmacy St-3 YANGONINDAING MMR11007211229439045090721000000000000000   10300003F00104100000000000000000000000675     
100   95030518809547510000000000002350000000002350002000000010410407211151589030391LHODY0721304211858202   1030000900030000   541119000114190110000000078Sein Gay Har Kan Thar  YANGONOKKALAP MMR11007211151589030390721000000000000000   10300002F00104100000000000000000000000470     
100   9503051888363625000000000004032000000004032000200000001041040721070109890521GUANGJ0721472311309202   1030000900030000   581219000032190110000000040Hot Pot King Time City YANGONUT      MMR11007210701098905210721000000000000000   10300002F00104100000000000000000000013709     
100   62346600177384320000000000088090000000088090002000000010410407211200179033772666470721394301817202   1030000900030000   806219000356190110000000225Victoria Hospital      YANGONONE     MMR11007211200179033770721000000000000000   10300005F00104100000000000000000000026427     
100   62346600127576500000000000040000000000040000002000000010410407211109449012287667420721817391744202   1030000900030000   541119000161190110000000084Pro (1) Global (Pazund YANGONARTAUNG MMR11007211109449012280721000000000000000   10300005F00104100000000000000000000008000     
100   35710500165302870000000000013000000000013000002000000010410407211314224422763191980721000003919326   1030000900030000   333400010001202104000002022ACS                    Yangon        MMR11007211314224422760721000000000000000   10300005F05104100000000000000000000007800     
100   35710830887763060000000000027000000000027000002000000010410407211406299078415018150721203362029202   1030000900030000   599919000187190110000000091119 Fashion Complex (L YANGON        MMR11007211406299078410721000000000000000   10300003F00104100000000000000000000008100     
100   9503051891204162000000000018405000000018405000200000001041040721080532893083WFHG5F0721116351432202   1030000900030000   581219000206190110000000108Beauty in the Pot      YANGON        MMR11007210805328930830721000000000000000   10300002F00104100000000000000000000062577     
100   35710500120369660000000000008570000000008570002000000010410407211338169069012940490721049082016202   1030000900030000   541119000112190110000000077Sein Gay Har Chinatown YANGON        MMR11007211338169069010721000000000000000   10300005F00104100000000000000000000001714     
100   9503051895069280000000000100000000000100000000200000001041040721122233904247QPHNTE0721584521833202   1030000900030000   481219000269190110000000164Power Mobile(ChanayeTh MANDALAYHARSA MMR11007211222339042470721000000000000000   10300002F00104100000000000000000000300000     
100   9503051762471163000000000001230000000001230000200000001041040721051239886303OCRKW40721582421139202   1030000900030000   599519000611190110000000451Puppy Paradise         YANGON        MMR11007210512398863030721000000000000000   10300002F00104100000000000000000000003690     
100   9503051882526201000000000005540000000005540000200000001041040721095438898257UZT0TO0721111241638202   1030000900030000   594319000084190110000000059Innwa Books            YANGONUT      MMR11007210954388982570721000000000000000   10300002F00104100000000000000000000016620     
100   95030518912170810000000000009250000000009250002000000010410407211158019032838JGDIA0721361281801202   1030000900030000   541119000349190110000000216Amazing Mart (South Da YANGONMYOTHIT MMR11007211158019032830721000000000000000   10300002F00104100000000000000000000001850     
100   9503051872505967000000000001727500000001727500200000001041040721113703902428S6XKFD0721163071803202   1030000900030000   581219000372190110000000244Jo Jo HotPot(CapitalHy YANGONA       MMR11007211137039024280721000000000000000   10300002F00104100000000000000000000005874     
100   9503051893307211000000000003520000000003520000200000001041040721044842885400PYJINW0721401181142202   1030000900030000   541119000170190110000000085SeinGayHar (Dagon Cent YANGONUNG     MMR11007210448428854000721000000000000000   10300002F00104100000000000000000000007040     
100   35710830740047470000000000000600000000000600002000000010410407211051599004545194770721586211759202   1030000900030000   541119000166190110000000085SeinGayHar (Dagon Cent YANGONUNG     MMR11007211051599004540721000000000000000   10300003F00104100000000000000000000000120     
100   9503051874152073000000000022350000000022350000200000001041040721060316888315RFRT6J0721037331216202   1030000900030000   541119000290190110000000178Pro (1) Global (East D YANGONMYOTHIT MMR11007210603168883150721000000000000000   10300002F00104100000000000000000000044700     
100   35710500180630060000000000072500000000072500002000000010410407211123009018022636530721980531700202   1030000900030000   594419000631190110000000462Shwe San Eain GemsTime YANGONUT      MMR11007211123009018020721000000000000000   10300005F00104100000000000000000000021750     
100   9503051895013007000000000002575000000002575000200000001041040721111345901412RUBKGN0721874431745202   1030000900030000   591219000503190110000000350Shwe Ohh Pharmacy (WZD YANGONNGKUUN  MMR11007211113459014120721000000000000000   10300002F00104100000000000000000000007725     
100   950305189176457900000000000101000000000101000020000000104104072114070390786179QEXL0721208372003202   1030000900030000   541119000155190110000000083SeinGayHarParami Cente YANGON        MMR11007211407039078610721000000000000000   10300002F00104100000000000000000000002020     
100   35710500120369660000000000003300000000003300002000000010410407211422259083526797400721281522025202   1030000900030000   541119000112190110000000077Sein Gay Har Chinatown YANGON        MMR11007211422259083520721000000000000000   10300005F00104100000000000000000000000660     
100   95051010191692800000000000010000000000010000002000000010410407211138020802005478000721000003919117   1030000900030000   333400010001202104000002022ACS                    Yangon        MMR11007211138020802000721000000000000000   10300005F05104100000000000000000000006000     
100   35710500140446790000000000020000000000020000002000000010410407210810504050312091660721000003918360   1030000900030000   333400010001202104000002022ACS                    Yangon        MMR11007210810504050310721000000000000000   10300005F05104100000000000000000000012000     
100   35710830119904380000000000003000000000003000002000000010410407211310514051732391120721000003919320   1030000900030000   333800010001202104000003301uab bank               Yangon        MMR11007211310514051730721000000000000000   10300003F05104100000000000000000000001800     
100   9503051020300345000000000001000000000001000000200000001041040721010930393049I7BLKG0721000003916647   1030000900030000   333400010001202104000002022ACS                    Yangon        MMR11007210109303930490721000000000000000   10300002F05104100000000000000000000006000     
100   62443000103140670000000000010200000000010200002000000010410407210834180418264942260721000003918466   1030000900030000   333300010001202104000002717Near Me Android        Yangon        MMR11007210834180418260721000000000000000   10300005F05104100000000000000000000020000     
100   95031900021801330000000000200200000000200200002000000010410407210634310431593HF92F0721000003917908   1030000900030000   333300010001202104000002717Near Me Android        Yangon        MMR11007210634310431590721000000000000000   10300014F05104100000000000000000000020000     
100   95031900039608060000000000200200000000200200002000000010410407210638450845314TH92F0721000003917936   1030000900030000   333300010001202104000002717Near Me Android        Yangon        MMR11007210638450845310721000000000000000   10300014F05104100000000000000000000020000     
100   62343303900008890000000000030200000000030200002000000010410407210241091109250000000721000003916835   1030000900030000   333300010001202104000002717Near Me Android        Yangon        MMR11007210241091109250721000000000000000   10300004F05104100000000000000000000020000     
100   9503051892077880000000000001400000000001400000200000001041040721055609888021KOKSTN0721975261209202   1030000900030000   599519000611190110000000451Puppy Paradise         YANGON        MMR11007210556098880210721000000000000000   10300002F00104100000000000000000000004200     
100   35710500164945750000000000020550000000020550002000000010410407210556178880315152290721978261217202   1030000900030000   541119000380190110000000248Victoria Hyper Mart    YANGON        MMR11007210556178880310721000000000000000   10300005F00104100000000000000000000004110     
100   62622000000706780000000000012000000000012000002000000010410407211043189001247151640721528131718202   1030000900030000   541119000168190110000000085SeinGayHar (Dagon Cent YANGONUNG     MMR11007211043189001240721000000000000000   10300006F00104100000000000000000000002400     
100   35710500115039580000000000012250000000012250002000000010410407211054449005581406940721615241744202   1030000900030000   541119000124190110000000080Sein Gay Har BAK       YANGONADA     MMR11007211054449005580721000000000000000   10300005F00104100000000000000000000002450     
100   35710500185583440000000000025148000000025148002000000010410407211145189027603278290721238151818202   1030000900030000   581219000697190110000000528Pizzamaru Myanmar (MPZ YANGON        MMR11007211145189027600721000000000000000   10300005F00104100000000000000000000008550     
100   9503051888310733000000000001660000000001660000200000001041040721114908902911WOXXN40721266191808202   1030000900030000   541119000172190110000000085SeinGayHar (Dagon Cent YANGONUNG     MMR11007211149089029110721000000000000000   10300002F00104100000000000000000000003320     
100   62346600171976470000000000020000000000020000002000000010410407211433109086854889630721330032110202   1030000900030000   554119000346190110000000213New Day Energy - 3     YANGONOKKALAP MMR11007211433109086850721000000000000000   10300005F00104100000000000000000000003000     
100   950319000421619000000000000027600000000027600020000000104104072115014390949944343F0721391312143202   1030000900030000   541119000112190110000000077Sein Gay Har Chinatown YANGON        MMR11007211501439094990721000000000000000   10300014F00104100000000000000000000000552     
100   62441900002129790000000000075000000000075000002000000010410407211014258990059096710721278441625202   1030000900030000   573219000403190110000000267NibbanElectronic(North YANGONOKKALAP MMR11007211014258990050721000000000000000   10300003F00104100000000000000000000031500     
100   950319000165619000000000002401000000002401000020000000104104072019080986848247A52F0721005380109202   1030000900030000   581319000586190110000000426K2 KTV                 YANGONMYOTHIT MMR11007201908098684820721000000000000000   10300014F00104100000000000000000000081634     
100   62346600194136380000000000049250000000049250002000000010410407210807318931797090480721143371431202   1030000900030000   541119000286190110000000177Pro1 Global (Insein)   YANGON        MMR11007210807318931790721000000000000000   10300005F00104100000000000000000000009850     
100   62622000393330140000000000294000000000294000002000000010410407210807348931827192490721144371434202   1030000900030000   594419000454190110000000307Shwe San Eain (Junctio YANGONN       MMR11007210807348931820721000000000000000   10300006F00104100000000000000000000088200     
100   35710500140951350000000000057000000000057000002000000010410407210809498932827886290721170391449202   1030000900030000   729819000390190110000000253The Glam Bar Beauty SP YANGONUNG     MMR11007210809498932820721000000000000000   10300005F00104100000000000000000000017100     
100   9503051019607361000000000013500000000013500000200000001041040721050955886204NKYZAK0721563391155202   1030000900030000   594419000454190110000000307Shwe San Eain (Junctio YANGONN       MMR11007210509558862040721000000000000000   10300002F00104100000000000000000000040500     
100   35710830592747450000000000041850000000041850002000000010410407210516468864734202080721628461146202   1030000900030000   591219000501190110000000348Shwe Ohh Pharmacy (SmL YANGONUT      MMR11007210516468864730721000000000000000   10300003F00104100000000000000000000012555     
100   35710500181914430000000000094760000000094760002000000010410407210516548864819058270721630461154202   1030000900030000   806219000356190110000000225Victoria Hospital      YANGONONE     MMR11007210516548864810721000000000000000   10300005F00104100000000000000000000028428     
100   62443000803062660000000000006200000000006200002000000010410407211503469095649862560721396332146202   1030000900030000   599919000701190110000000532Amazing Mart (Baho Roa YANGONUT      MMR11007211503469095640721000000000000000   10300005F00104100000000000000000000002604     
100   35710500176481380000000000026950000000026950002000000010410407211517479099602651230721422472147202   1030000900030000   581319000430190110000000554The Glass Bar          YANGONONE     MMR11007211517479099600721000000000000000   10300005F00104100000000000000000000009163     
100   62346600143505870000000000073278000000073278002000000010410407211544389106896225280721452142238202   1030000900030000   581319000651190110000000482Piano Bar              YANGONONE     MMR11007211544389106890721000000000000000   10300005F00104100000000000000000000024914     
100   35710830261089760000000000013000000000013000002000000010410407210934348965958420490721975041634202   1030000900030000   569119000350190110000000217Bench (Myanmar Plaza)  YANGON        MMR11007210934348965950721000000000000000   10300003F00104100000000000000000000003900     
100   9503051876679743000000000010805000000010805000200000001041040721093757897684PORRW10721007071657202   1030000900030000   541119000290190110000000178Pro (1) Global (East D YANGONMYOTHIT MMR11007210937578976840721000000000000000   10300002F00104100000000000000000000021610     
100   35710830395933960000000000011350000000011350002000000010410407210939228977252475920721017091622202   1030000900030000   541119000286190110000000177Pro1 Global (Insein)   YANGON        MMR11007210939228977250721000000000000000   10300003F00104100000000000000000000002270     
100   62443000864414970000000000013000000000013000002000000010410407211528365836519480810721000003919633   1030000900030000   333400010001202104000002022ACS                    Yangon        MMR11007211528365836510721000000000000000   10300005F05104100000000000000000000007800     
100   35710500175232810000000000105250000000105250002000000010410407211057529006996350600721657271752202   1030000900030000   541119000286190110000000177Pro1 Global (Insein)   YANGON        MMR11007211057529006990721000000000000000   10300005F00104100000000000000000000021050     
100   35710500177685140000000000270100000000270100002000000010410407210725248914403881050721682551324202   1030000900030000   541119000283190110000000177Pro1 Global (Insein)   YANGON        MMR11007210725248914400721000000000000000   10300005F00104100000000000000000000054020     
100   9503051872916305000000000002350000000002350000200000001041040721112543901911XW9D5U0721006551743202   1030000900030000   563119000646190110000000477Monster Fashion Access YANGONUT      MMR11007211125439019110721000000000000000   10300002F00104100000000000000000000007050     
100   62622000756258930000000000083700000000083700002000000010410407211407369078767201650721210372036202   1030000900030000   581219000206190110000000108Beauty in the Pot      YANGON        MMR11007211407369078760721000000000000000   10300006F00104100000000000000000000028458     
100   9503051885737540000000000010925000000010925000200000001041040721140751907885BMHAUH0721211372051202   1030000900030000   806219000537190110000000385Mandalar Hospital      MANDALAYHARSA MMR11007211407519078850721000000000000000   10300002F00104100000000000000000000032775     
100   62441900103868470000000000005800000000005800002000000010410407211409059079214789450721223392005202   1030000900030000   599919000701190110000000532Amazing Mart (Baho Roa YANGONUT      MMR11007211409059079210721000000000000000   10300003F00104100000000000000000000002436     
100   35710500126407910000000000036550000000036550002000000010410407211415259081365123050721257452025202   1030000900030000   591219000505190110000000352Shwe Ohh Pharmacy (THU YANGON        MMR11007211415259081360721000000000000000   10300005F00104100000000000000000000010965     
100   35710500155644850000000000018429000000018429002000000010410407211418489082395790040721271482048202   1030000900030000   701119000075190110000000024Lotte Hotel            YANGON        MMR11007211418489082390721000000000000000   10300005F00104100000000000000000000006266     
100   9503051892432135000000000001490000000001490000200000001041040721090427895449HVPNDT0721715341527202   1030000900030000   554119000346190110000000213New Day Energy - 3     YANGONOKKALAP MMR11007210904278954490721000000000000000   10300002F00104100000000000000000000002235     
100   62441901002307640000000000024850000000024850002000000010410407211341079069864929020721061112007202   1030000900030000   541119000112190110000000077Sein Gay Har Chinatown YANGON        MMR11007211341079069860721000000000000000   10300003F00104100000000000000000000008697     
100   62441901002307640000000000009150000000009150002000000010410407211341599070157876660721063112059202   1030000900030000   541119000112190110000000077Sein Gay Har Chinatown YANGON        MMR11007211341599070150721000000000000000   10300003F00104100000000000000000000003202     
100   62622000565851570000000000029600000000029600002000000010410407211343079070486960220721068132007202   1030000900030000   581319000716190110000000547Chiri Sushi Grill Bar  YANGONUT      MMR11007211343079070480721000000000000000   10300006F00104100000000000000000000010064     
100   35650973670006400000000000084612000000084612002000000010410407211348289072335259950721098182028202   1030000900030000   806219000356190110000000225Victoria Hospital      YANGONONE     MMR11007211348289072330721000000000000000   10300005F00104100000000000000000000035537     
100   9503051883121390000000000021150000000021150000200000001041040721134846907242MARUWH0721101182046202   1030000900030000   581219000369190110000000241Beauty In The Pot (PHS YANGON        MMR11007211348469072420721000000000000000   10300002F00104100000000000000000000071910     
100   62443001760030820000000000119000000000119000002000000010410407210949188980876895840721087191618202   1030000900030000   504719000361190110000000235Thahton Eye Clinic Who YANGONOKKALAP MMR11007210949188980870721000000000000000   10300005F00104100000000000000000000049980     
100   62443000103647320000000000035400000000035400002000000010410407210950088981185763810721091201608202   1030000900030000   591219000602190110000000442Shwe Ohh Pharmacy St-5 YANGONARTAUNG MMR11007210950088981180721000000000000000   10300005F00104100000000000000000000014868     
100   9503051897398182000000000001900000000001900000200000001041040721123223904627X0GU4G0721668021923202   1030000900030000   541119000115190110000000078Sein Gay Har Kan Thar  YANGONOKKALAP MMR11007211232239046270721000000000000000   10300002F00104100000000000000000000003800     
100   95030800094802730000000000012653000000012653002000000010410407210912408957856354250721811421540202   1030000900030000   581219000422190110000000283BCC (YIH)              YANGON        MMR11007210912408957850721000000000000000   10300003F00104100000000000000000000004302     
100   9503051888807167000000000006417000000006417000200000001041040721091343895825HQIHNO0721823431543202   1030000900030000   581219000423190110000000284BCC (SYS)              YANGON        MMR11007210913438958250721000000000000000   10300002F00104100000000000000000000021818     
100   35710500152890750000000000054000000000054000002000000010410407211022338993020561700721330521633202   1030000900030000   569119000309190110000000191Fashmob Fashion        YANGON        MMR11007211022338993020721000000000000000   10300005F00104100000000000000000000016200     
100   95030800003309720000000000012000000000012000002000000010410407211311409060083749700721922411940202   1030000900030000   592119000256190110000000151Htun Htun Oo Liquor (B YANGON        MMR11007211311409060080721000000000000000   10300003F00104100000000000000000000003600     
100   9503051884907664000000000002400000000002400000200000001041040721131210906038LNQJEV0721929421910202   1030000900030000   581219000373190110000000245Jo Jo Hot Pot (Kyee My YANGONINDAING MMR11007211312109060380721000000000000000   10300002F00104100000000000000000000008160     
100   35710830740047470000000000000550000000000550002000000010410407211313559060947030610721936431955202   1030000900030000   541119000170190110000000085SeinGayHar (Dagon Cent YANGONUNG     MMR11007211313559060940721000000000000000   10300003F00104100000000000000000000000110     
100   35710500173729940000000000060548000000060548002000000010410407211316269061706461290721946461926202   1030000900030000   581219000307190110000000189BCC (KTY)              YANGONARTAUNG MMR11007211316269061700721000000000000000   10300005F00104100000000000000000000020586     
100   62622000372946630000000000034398000000034398002000000010410407211316529061878582960721947461952202   1030000900030000   581219000007190110000000005Fuji Japanese FM-01    YANGON        MMR11007211316529061870721000000000000000   10300006F00104100000000000000000000011695     
100   9503051888901291000000000004032000000004032000200000001041040721123327904657MOFGU60721677031927202   1030000900030000   581219000280190110000000175Min Lan Restaurant (Ka YANGONARTAUNG MMR11007211233279046570721000000000000000   10300002F00104100000000000000000000013709     
100   95030518964926710000000000235000000000235000002000000010410407211235009047148B8YVR0721684051900202   1030000900030000   481219000710190110000000541I Sure Technology Co., YANGONAUNG    MMR11007211235009047140721000000000000000   10300002F00104100000000000000000000070500     
100   62346600101249860000000000019300000000019300002000000010410407211235529047472867740721691051952202   1030000900030000   599919000193190110000000097119FashionComplex(Kyau YANGONADA     MMR11007211235529047470721000000000000000   10300005F00104100000000000000000000005790     
100   9503051874016294000000000004533000000004533000200000001041040721124359905031CFH24T0721741131959202   1030000900030000   581219000402190110000000266The Prime              MANDALAYHARSA MMR11007211243599050310721000000000000000   10300002F00104100000000000000000000015412     
100   62622000278996380000000000100600000000100600002000000010410407210348018832307150810721020181001202   1030000900030000   541119000061190110000000056Pro (1) Global-TheikPa MANDALAYHARSI MMR11007210348018832300721000000000000000   10300006F00104100000000000000000000020120     
100   9503051872577255000000000003435000000003435000200000001041040721034927883288KBQKSR0721038191027202   1030000900030000   541119000159190110000000084Pro (1) Global (Pazund YANGONIKANAUN MMR11007210349278832880721000000000000000   10300002F00104100000000000000000000006870     
100   35710500102844360000000000024000000000024000002000000010410407210404048837971345040721119341004202   1030000900030000   554119000348190110000000215New Day Energy - 5     YANGONONE     MMR11007210404048837970721000000000000000   10300005F00104100000000000000000000003600     
100   35710500116934290000000000011600000000011600002000000010410407210421308844211374980721230511030202   1030000900030000   591219000692190110000000523Shwe Ohh Pharmacy ST-1 YANGON        MMR11007210421308844210721000000000000000   10300005F00104100000000000000000000003480     
100   9503051878064662000000000010150000000010150000200000001041040721092240896176YUF4BO0721903521540202   1030000900030000   594419000454190110000000307Shwe San Eain (Junctio YANGONN       MMR11007210922408961760721000000000000000   10300002F00104100000000000000000000030450     
100   9503051895632657000000000059000000000059000000200000001041040721054043887422DMDOMH0721848101243202   1030000900030000   594419000631190110000000462Shwe San Eain GemsTime YANGONUT      MMR11007210540438874220721000000000000000   10300002F00104100000000000000000000177000     
100   950319000136125400000000000890000000000890000020000000104104072108425789460018V03F0721537121557202   1030000900030000   594419000454190110000000307Shwe San Eain (Junctio YANGONN       MMR11007210842578946000721000000000000000   10300014F00104100000000000000000000026700     
100   35710830696806420000000000073600000000073600002000000010410407210845498947175915570721569151549202   1030000900030000   569919000580190110000000420D & C Myanmar (JC)     YANGONUT      MMR11007210845498947170721000000000000000   10300003F00104100000000000000000000022080     
100   95030301100033080000000000010000000000010000002000000010410407211228455845460861100721000003919212   1030000900030000   333800010001202104000003301uab bank               Yangon        MMR11007211228455845460721000000000000000   10300001F05104100000000000000000000006000     
100   35710500120613110000000000354100000000354100002000000010410407210606418884355573050721057361241202   1030000900030000   541119000283190110000000177Pro1 Global (Insein)   YANGON        MMR11007210606418884350721000000000000000   10300005F00104100000000000000000000070820     
100   95030518823753510000000000015000000000015000002000000010410407210611308886230OP0EW0721098411230202   1030000900030000   581219000093190110000000067BOBA House             YANGONUT      MMR11007210611308886230721000000000000000   10300002F00104100000000000000000000005100     
100   9503051019945068000000000009000000000009000000200000001041040721061611888809OFC25E0721138461211202   1030000900030000   594419000454190110000000307Shwe San Eain (Junctio YANGONN       MMR11007210616118888090721000000000000000   10300002F00104100000000000000000000027000     
100   9503051883559946000000000016281300000016281300200000001041040721061707888843LGUBB00721146471207202   1030000900030000   581219000280190110000000175Min Lan Restaurant (Ka YANGONARTAUNG MMR11007210617078888430721000000000000000   10300002F00104100000000000000000000055356     
100   62346600173291900000000000027500000000027500002000000010410407211149209029196363620721267191820202   1030000900030000   481219000644190110000000475Remax By Telegod Times YANGONUT      MMR11007211149209029190721000000000000000   10300005F00104100000000000000000000008250     
100   35710900568815540000000000010400000000010400002000000010410407211153519031166073030721323231851202   1030000900030000   591219000795190110000000627Shwe Ohh Pharmacy ST-3 YANGONINDAING MMR11007211153519031160721000000000000000   10300003F00104100000000000000000000003120     
100   35710500100595640000000001300000000001300000002000000010410407211154119031234958350721324241811202   1030000900030000   594419000600190110000000440Shwe Nan Taw Jewellery YANGON        MMR11007211154119031230721000000000000000   10300005F00104100000000000000000000390000     
100   35710500162538150000000000017900000000017900002000000010410407210849398948719332650721603191539202   1030000900030000   591219000688190110000000519Shwe Ohh Pharmacy ST-7 YANGONUNG     MMR11007210849398948710721000000000000000   10300005F00104100000000000000000000005370     
100   9503051894624499000000000005200000000005200000200000001041040721085004894895SAK7WV0721608201504202   1030000900030000   729819000768190110000000600Urban Beauty Studio    YANGON        MMR11007210850048948950721000000000000000   10300002F00104100000000000000000000015600     
100   9503051880810359000000000000350000000000350000200000001041040721085439895066AFWQEV0721640241539202   1030000900030000   594319000754190110000000586Sarpaylawka            YANGONUT      MMR11007210854398950660721000000000000000   10300002F00104100000000000000000000001050     
100   35710830698114600000000000591550000000591550002000000010410407210623128890711298910721188531212202   1030000900030000   541119000161190110000000084Pro (1) Global (Pazund YANGONARTAUNG MMR11007210623128890710721000000000000000   10300003F00104100000000000000000000118310     
100   35710500172995280000000000030240000000030240002000000010410407210623558891040780080721196531255202   1030000900030000   581219000232190110000000131MinLanRestaurant(South YANGONOKKALAP MMR11007210623558891040721000000000000000   10300005F00104100000000000000000000010282     
100   9503051878932249000000000005025000000005025000200000001041040721110502900999OLCJXH0721738351702202   1030000900030000   541119000331190110000000206Muditar Supermarket    YANGON        MMR11007211105029009990721000000000000000   10300002F00104100000000000000000000010050     
100   35710500152093470000000000052710000000052710002000000010410407211108199011645894190721796381719202   1030000900030000   581219000351190110000000218Min Lan Restaurant (Th YANGONA       MMR11007211108199011640721000000000000000   10300005F00104100000000000000000000017922     
100   95031900036500920000000001200000000001200000002000000010410407211109479012319R723F0721818391747202   1030000900030000   594419000600190110000000440Shwe Nan Taw Jewellery YANGON        MMR11007211109479012310721000000000000000   10300014F00104100000000000000000000360000     
100   9503051872919481000000000002300000000002300000200000001041040721115611903199IJMXTQ0721343261811202   1030000900030000   573219000379190110000000247Infinity Business-Phil YANGONUNG     MMR11007211156119031990721000000000000000   10300002F00104100000000000000000000006900     
100   62622000596237160000000000007850000000007850002000000010410407210951398981607160840721097211639202   1030000900030000   599919000187190110000000091119 Fashion Complex (L YANGON        MMR11007210951398981600721000000000000000   10300006F00104100000000000000000000002355     
100   9503051890946789000000000016435000000016435000200000001041040721095305898206ETQBL10721104231605202   1030000900030000   541119000283190110000000177Pro1 Global (Insein)   YANGON        MMR11007210953058982060721000000000000000   10300002F00104100000000000000000000032870     
100   9503051877098398000000000003200000000003200000200000001041040721122544554468D0FAEI0721000003919209   1030000900030000   333400010001202104000002022ACS                    Yangon        MMR11007211225445544680721000000000000000   10300002F05104100000000000000000000019200     
100   35710830072081670000000000090150000000090150002000000010410407211110429012711933190721833401742202   1030000900030000   541119000081190110000000057Pro (1) Global (Tampaw MANDALAYHARSI MMR11007211110429012710721000000000000000   10300003F00104100000000000000000000018030     
100   9503051896298755000000000004545000000004545000200000001041040721111236901354QHTESQ0721853421736202   1030000900030000   581219000205190110000000107Canton Paradise        YANGON        MMR11007211112369013540721000000000000000   10300002F00104100000000000000000000015453     
100   95030510205751020000000000022000000000022000002000000010410407211350289073028GCEDI0721105202028202   1030000900030000   581219000004190110000000002Yoogane Korea Rest;(MP YANGON        MMR11007211350289073020721000000000000000   10300002F00104100000000000000000000007480     
100   35650973670006400000000000065749000000065749002000000010410407211357509075330464620721133272050202   1030000900030000   806219000356190110000000225Victoria Hospital      YANGONONE     MMR11007211357509075330721000000000000000   10300005F00104100000000000000000000027614     
100   35710950732247610000000000159950000000159950002000000010410407211400029075975220990721141302002202   1030000900030000   581219000205190110000000107Canton Paradise        YANGON        MMR11007211400029075970721000000000000000   10300003F00104100000000000000000000054383     
100   35710830284632960000000000004500000000004500002000000010410407211401099076444046600721153312009202   1030000900030000   541119000318190110000000200Amazing Mart (No.1 Ind YANGON        MMR11007211401099076440721000000000000000   10300003F00104100000000000000000000000900     
100   9503051886742945000000000004795000000004795000200000001041040721140215907693DABLCF0721162322015202   1030000900030000   591219000604190110000000444Shwe Ohh Pharmacy St-1 YANGON        MMR11007211402159076930721000000000000000   10300002F00104100000000000000000000014385     
100   9503051886341144000000000003220000000003220000200000001041040721124425905039YEB3HO0721742141925202   1030000900030000   581219000205190110000000107Canton Paradise        YANGON        MMR11007211244259050390721000000000000000   10300002F00104100000000000000000000010948     
100   9503051894775614000000000010600000000010600000200000001041040721124457905055KVNNJV0721745141957202   1030000900030000   594419000631190110000000462Shwe San Eain GemsTime YANGONUT      MMR11007211244579050550721000000000000000   10300002F00104100000000000000000000031800     
100   9503051895029714000000000002225300000002225300200000001041040721124536905074OKXR6Q0721748151936202   1030000900030000   581219000420190110000000281BCC (JC)               YANGONN       MMR11007211245369050740721000000000000000   10300002F00104100000000000000000000007566     
100   9503051889367112000000000002420000000002420000200000001041040721091544895915JOSKT90721846451544202   1030000900030000   541119000170190110000000085SeinGayHar (Dagon Cent YANGONUNG     MMR11007210915448959150721000000000000000   10300002F00104100000000000000000000004840     
100   35710500160414670000000000064550000000064550002000000010410407210918018960051794180721862481501202   1030000900030000   581219000206190110000000108Beauty in the Pot      YANGON        MMR11007210918018960050721000000000000000   10300005F00104100000000000000000000021947     
100   35710830278425650000000000100000000000100000002000000010410407211216329040005210370721527461832202   1030000900030000   481419000108190110000000045Amara Communications   YANGON        MMR11007211216329040000721000000000000000   10300003F00104100000000000000000000030000     
100   62441900003740840000000000012050000000012050002000000010410407211217249040458931230721536471824202   1030000900030000   546219000745190110000000577Ei Dorado Bake House(T YANGONNGKUUN  MMR11007211217249040450721000000000000000   10300003F00104100000000000000000000005061     
100   35710500175479420000000000129600000000129600002000000010410407211218409040976518810721552481840202   1030000900030000   581219000369190110000000241Beauty In The Pot (PHS YANGON        MMR11007211218409040970721000000000000000   10300005F00104100000000000000000000044064     
100   35710830706941600000000000027800000000027800002000000010410407210155378792904213140721320250837202   1030000900030000   591219000688190110000000519Shwe Ohh Pharmacy ST-7 YANGONUNG     MMR11007210155378792900721000000000000000   10300003F00104100000000000000000000008340     
100   95031900047922080000000000000650000000000650002000000010410407210307578817753N872F0721749370957202   1030000900030000   541119000616190110000000452Pro(1) Global-Hlaing T YANGONTHARYA  MMR11007210307578817750721000000000000000   10300014F00104100000000000000000000000130     
100   62622000030799080000000000010695000000010695002000000010410407211128159020126959950721027581715202   1030000900030000   581219000469190110000000323Excel CrystalJade(I)Re YANGON        MMR11007211128159020120721000000000000000   10300006F00104100000000000000000000003636     
100   95031900022395820000000000405000000000405000002000000010410407211254429054131F833F0721819241942202   1030000900030000   594419000600190110000000440Shwe Nan Taw Jewellery YANGON        MMR11007211254429054130721000000000000000   10300014F00104100000000000000000000121500     
100   35710830952633630000000000011400000000011400002000000010410407211255259054375215730721826251925202   1030000900030000   591219000506190110000000353Shwe Ohh Pharmacy -8   YANGON        MMR11007211255259054370721000000000000000   10300003F00104100000000000000000000003420     
100   35710500120959700000000000005000000000005000002000000010410407210417204720691630270721000003917281   1030000900030000   333400010001202104000002022ACS                    Yangon        MMR11007210417204720690721000000000000000   10300005F05104100000000000000000000003000     
100   62346600151082730000000000016150000000016150002000000010410407210748468924346713450721938181446202   1030000900030000   541119000166190110000000085SeinGayHar (Dagon Cent YANGONUNG     MMR11007210748468924340721000000000000000   10300005F00104100000000000000000000003230     
100   9503051877883104000000000014700000000014700000200000001041040721075030892484PR0E4I0721955201430202   1030000900030000   729819000184190110000000088KER Rendezvous - 3Floo YANGONONE     MMR11007210750308924840721000000000000000   10300002F00104100000000000000000000044100     
100   95050319557465120000000000080000000000080000002000000010410407210750308924850436290721956201430202   1030000900030000   594419000584190110000000424Zwe Htet Gems & Jewell MANDALAYHARSA MMR11007210750308924850721000000000000000   10300001F00104100000000000000000000033600     
100   62346600124066700000000000029850000000029850002000000010410407210754248926520785280721003241424202   1030000900030000   599919000200190110000000104119 Fashion (Thingangy YANGONNGKUUN  MMR11007210754248926520721000000000000000   10300005F00104100000000000000000000008955     
100   62346600148755830000000000002850000000002850002000000010410407210430118847235042200721282001111202   1030000900030000   591219000499190110000000346Shwe Ohh Pharmacy -1   YANGON        MMR11007210430118847230721000000000000000   10300005F00104100000000000000000000000855     
100   62441900101303930000000000102000000000102000002000000010410407211129379020667942220721045591737202   1030000900030000   594419000454190110000000307Shwe San Eain (Junctio YANGONN       MMR11007211129379020660721000000000000000   10300003F00104100000000000000000000042840     
100   62346600141926580000000000037916000000037916002000000010410407211131209021332515780721061011820202   1030000900030000   581219000697190110000000528Pizzamaru Myanmar (MPZ YANGON        MMR11007211131209021330721000000000000000   10300005F00104100000000000000000000012892     
100   9503051877171740000000000034145000000034145000200000001041040721102457899395TGB10X0721352541657202   1030000900030000   541119000079190110000000057Pro (1) Global (Tampaw MANDALAYHARSI MMR11007211024578993950721000000000000000   10300002F00104100000000000000000000068290     
100   62346600180406890000000000005300000000005300002000000010410407211026398994486156190721362561639202   1030000900030000   541119000763190110000000595Amazing Mart(Anawyahta YANGONTHARYA  MMR11007211026398994480721000000000000000   10300005F00104100000000000000000000001060     
100   35710950815586550000000000042800000000042800002000000010410407211027118994666647660721366571611202   1030000900030000   591219000501190110000000348Shwe Ohh Pharmacy (SmL YANGONUT      MMR11007211027118994660721000000000000000   10300003F00104100000000000000000000012840     
100   62346600171026390000000000082400000000082400002000000010410407210320268822446063580721854500926202   1030000900030000   541119000290190110000000178Pro (1) Global (East D YANGONMYOTHIT MMR11007210320268822440721000000000000000   10300005F00104100000000000000000000016480     
100   9503051877858502000000000004620000000004620000200000001041040721081803893611JU9FQI0721254481403202   1030000900030000   541119000170190110000000085SeinGayHar (Dagon Cent YANGONUNG     MMR11007210818038936110721000000000000000   10300002F00104100000000000000000000009240     
100   35710830362997400000000000004800000000004800002000000010410407210820358937172003200721287501435202   1030000900030000   541119000170190110000000085SeinGayHar (Dagon Cent YANGONUNG     MMR11007210820358937170721000000000000000   10300003F00104100000000000000000000000960     
100   62346600110419570000000000412000000000412000002000000010410407210443188852203675940721377131118202   1030000900030000   481219000030190110000000029I Sure Apple Service C YANGONUT      MMR11007210443188852200721000000000000000   10300005F00104100000000000000000000123600     
100   62346600164544520000000000035000000000035000002000000010410407211421595159244343400721000003919479   1030000900030000   333400010001202104000002022ACS                    Yangon        MMR11007211421595159240721000000000000000   10300005F05104100000000000000000000021000     
100   35710500166307150000000000014960000000014960002000000010410407210624288891217573990721203541228202   1030000900030000   581219000006190110000000004Jo Jo Hot Pot Junction YANGONUT      MMR11007210624288891210721000000000000000   10300005F00104100000000000000000000005086     
100   35710830731180270000000000012300000000012300002000000010410407210624408891358751020721206541240202   1030000900030000   591219000601190110000000441Shwe Ohh Pharmacy St-3 YANGON        MMR11007210624408891350721000000000000000   10300003F00104100000000000000000000003690     
100   35710830692130060000000000023850000000023850002000000010410407210639158896945405400721315091315202   1030000900030000   541119000168190110000000085SeinGayHar (Dagon Cent YANGONUNG     MMR11007210639158896940721000000000000000   10300003F00104100000000000000000000004770     
100   35710830083107490000000000025250000000025250002000000010410407211158449033115689680721371281844202   1030000900030000   591219000688190110000000519Shwe Ohh Pharmacy ST-7 YANGONUNG     MMR11007211158449033110721000000000000000   10300003F00104100000000000000000000007575     
100   62443000160109090000000000034870000000034870002000000010410407211158549033135290660721373281854202   1030000900030000   581219000006190110000000004Jo Jo Hot Pot Junction YANGONUT      MMR11007211158549033130721000000000000000   10300005F00104100000000000000000000020748     
100   62444500200402910000000000150000000000150000002000000010410407211158599033180764640721375281859202   1030000900030000   594419000708190110000000539Zwe Htet Gems & Jewell YANGON        MMR11007211158599033180721000000000000000   10300002F00104100000000000000000000063000     
100   35710500149883880000000000100000000000100000002000000010410407210827108939715664890721359571410202   1030000900030000   506519000235190110000000134Myanmar Solar Rays Co. YANGON        MMR11007210827108939710721000000000000000   10300005F00104100000000000000000000030000     
100   9503051896611759000000000008500000000008500000200000001041040721082712893974BZUFD60721360571412202   1030000900030000   481219000710190110000000541I Sure Technology Co., YANGONAUNG    MMR11007210827128939740721000000000000000   10300002F00104100000000000000000000025500     
100   35710500133895130000000000161500000000161500002000000010410407210532448871166582780721782021244202   1030000900030000   541119000159190110000000084Pro (1) Global (Pazund YANGONIKANAUN MMR11007210532448871160721000000000000000   10300005F00104100000000000000000000032300     
100   9503051883612570000000000004010000000004010000200000001041040721053920887352GGUOXA0721827091220202   1030000900030000   806219000356190110000000225Victoria Hospital      YANGONONE     MMR11007210539208873520721000000000000000   10300002F00104100000000000000000000012030     
100   95030518923520100000000001302900000001302900002000000010410407210746468923122Q6JYM0721900161446202   1030000900030000   806219000537190110000000385Mandalar Hospital      MANDALAYHARSA MMR11007210746468923120721000000000000000   10300002F00104100000000000000000000390870     
100   35710500390370390000000000014410000000014410002000000010410407211132579022327443290721094021857202   1030000900030000   581219000371190110000000243Jo Jo Hot Pot (Junctio YANGONN       MMR11007211132579022320721000000000000000   10300005F00104100000000000000000000004900     
100   62622000406959630000000000093150000000093150002000000010410407211419369082606960290721273492036202   1030000900030000   581219000205190110000000107Canton Paradise        YANGON        MMR11007211419369082600721000000000000000   10300006F00104100000000000000000000031671     
100   35710500171342790000000000011250000000011250002000000010410407211420139082908548770721276502013202   1030000900030000   591219000501190110000000348Shwe Ohh Pharmacy (SmL YANGONUT      MMR11007211420139082900721000000000000000   10300005F00104100000000000000000000003375     
100   9503051876781978000000000002100000000002100000200000001041040721115929903342KMGH3K0721384291829202   1030000900030000   541119000120190110000000080Sein Gay Har BAK       YANGONADA     MMR11007211159299033420721000000000000000   10300002F00104100000000000000000000004200     
100   62444500100046460000000000094000000000094000002000000010410407211112549013710616370721860421754202   1030000900030000   594419000705190110000000536Zwe Htet Gems & Jewell YANGON        MMR11007211112549013710721000000000000000   10300002F00104100000000000000000000039480     
100   35710830409910350000000000024355000000024355002000000010410407211112549013726655780721861421754202   1030000900030000   581219000697190110000000528Pizzamaru Myanmar (MPZ YANGON        MMR11007211112549013720721000000000000000   10300003F00104100000000000000000000008281     
100   35710500180849290000000000017901000000017901002000000010410407211159459033552751560721387291845202   1030000900030000   581219000719190110000000550Chilli Pot Mala Xiang  YANGON        MMR11007211159459033550721000000000000000   10300005F00104100000000000000000000006086     
100   9503051873110692000000000000205000000000205000200000001041040721095845898410LHRTTC0721146281645202   1030000900030000   541119000331190110000000206Muditar Supermarket    YANGON        MMR11007210958458984100721000000000000000   10300002F00104100000000000000000000000410     
100   35710500185519350000000000032200000000032200002000000010410407211001518985315720640721171311651202   1030000900030000   541119000159190110000000084Pro (1) Global (Pazund YANGONIKANAUN MMR11007211001518985310721000000000000000   10300005F00104100000000000000000000006440     
100   9503051881472217000000000006020000000006020000200000001041040721100200898538Z623A60721172321600202   1030000900030000   591219000687190110000000518Shwe Ohh Pharmacy ST-6 YANGON        MMR11007211002008985380721000000000000000   10300002F00104100000000000000000000018060     
100   35710830522139140000000000004450000000004450002000000010410407211003338985943908610721184331633202   1030000900030000   541119000115190110000000078Sein Gay Har Kan Thar  YANGONOKKALAP MMR11007211003338985940721000000000000000   10300003F00104100000000000000000000000890     
100   35710500150963300000000000108200000000108200002000000010410407211422439083600187470721282522043202   1030000900030000   581219000368190110000000241Beauty In The Pot (PHS YANGON        MMR11007211422439083600721000000000000000   10300005F00104100000000000000000000036788     
100   35710500350381060000000000094594000000094594002000000010410407211425069084376251170721298552006202   1030000900030000   581219000398190110000000262Fuji Japanese Restaura MANDALAYHARSA MMR11007211425069084370721000000000000000   10300005F00104100000000000000000000032162     
100   35710950643909770000000000185150000000185150002000000010410407211426459084845225030721304562045202   1030000900030000   581219000206190110000000108Beauty in the Pot      YANGON        MMR11007211426459084840721000000000000000   10300003F00104100000000000000000000062951     
100   35710830716886660000000000015900000000015900002000000010410407210923308962057414550721911531530202   1030000900030000   541119000166190110000000085SeinGayHar (Dagon Cent YANGONUNG     MMR11007210923308962050721000000000000000   10300003F00104100000000000000000000003180     
100   35710830348950930000000000014116000000014116002000000010410407210924428962497414920721918541542202   1030000900030000   581219000719190110000000550Chilli Pot Mala Xiang  YANGON        MMR11007210924428962490721000000000000000   10300003F00104100000000000000000000004800     
100   9503051872329194000000000037890000000037890000200000001041040721092813896367OJTCHW0721932581513202   1030000900030000   541119000289190110000000178Pro (1) Global (East D YANGONMYOTHIT MMR11007210928138963670721000000000000000   10300002F00104100000000000000000000075780     
100   95031900011138200000000000025000000000025000002000000010410407211028468995345XV13F0721393581646202   1030000900030000   599919000199190110000000103119 Fashion (BuyMoreGe YANGON        MMR11007211028468995340721000000000000000   10300014F00104100000000000000000000007500     
100   95030510204944450000000000035900000000035900002000000010410407211028598995437KECZD0721394581659202   1030000900030000   599919000569190110000000251Pro (1) Global (MawlaM MONLAMYAING   MMR11007211028598995430721000000000000000   10300002F00104100000000000000000000010770     
100   9503051891707073000000000000540000000000540000200000001041040721075432892656VQOBEJ0721006241432202   1030000900030000   541119000380190110000000248Victoria Hyper Mart    YANGON        MMR11007210754328926560721000000000000000   10300002F00104100000000000000000000001080     
100   62346600120854660000000000095900000000095900002000000010410407210754388926638452020721010241438202   1030000900030000   541119000286190110000000177Pro1 Global (Insein)   YANGON        MMR11007210754388926630721000000000000000   10300005F00104100000000000000000000019180     
100   35710900046281310000000000099100000000099100002000000010410407211114059014255779700721880441705202   1030000900030000   599919000195190110000000099119 Fashion Complex (P YANGONN       MMR11007211114059014250721000000000000000   10300003F00104100000000000000000000029730     
100   35650883650008150000000000022700000000022700002000000010410407211114289014500234100721891441728202   1030000900030000   554119000348190110000000215New Day Energy - 5     YANGONONE     MMR11007211114289014500721000000000000000   10300005F00104100000000000000000000004767     
100   9503051894216254000000000000450000000000450000200000001041040721140232907702ZTETH70721167322032202   1030000900030000   599919000200190110000000104119 Fashion (Thingangy YANGONNGKUUN  MMR11007211402329077020721000000000000000   10300002F00104100000000000000000000001350     
100   35710830284632960000000000003000000000003000002000000010410407211404189077525017860721183342018202   1030000900030000   541119000318190110000000200Amazing Mart (No.1 Ind YANGON        MMR11007211404189077520721000000000000000   10300003F00104100000000000000000000000600     
100   9503051891822138000000000000375000000000375000200000001041040721140549907819DIGVHW0721196352049202   1030000900030000   591219000505190110000000352Shwe Ohh Pharmacy (THU YANGON        MMR11007211405499078190721000000000000000   10300002F00104100000000000000000000001125     
100   95030800005215960000000000199000000000199000002000000010410407210856518951447411610721660261551202   1030000900030000   481219000634190110000000465Xiaomi Mobile Shop (Ti YANGONUT      MMR11007210856518951440721000000000000000   10300003F00104100000000000000000000059700     
100   35710830227130430000000000045000000000045000002000000010410407211320539063336248640721983501953202   1030000900030000   729819000390190110000000253The Glam Bar Beauty SP YANGONUNG     MMR11007211320539063330721000000000000000   10300003F00104100000000000000000000013500     
100   9503051886167697000000000023370000000023370000200000001041040721132130906352MRGUUR0721988511930202   1030000900030000   581219000369190110000000241Beauty In The Pot (PHS YANGON        MMR11007211321309063520721000000000000000   10300002F00104100000000000000000000079458     
100   35710500390011670000000000030925000000030925002000000010410407211323259064170581570721993531925202   1030000900030000   581219000232190110000000131MinLanRestaurant(South YANGONOKKALAP MMR11007211323259064170721000000000000000   10300005F00104100000000000000000000010514     
100   62346600164057930000000000010000000000010000002000000010410407211325189064854767220721005551918202   1030000900030000   554119000346190110000000213New Day Energy - 3     YANGONOKKALAP MMR11007211325189064850721000000000000000   10300005F00104100000000000000000000001500     
100   95030800075875090000000000034350000000034350002000000010410407211327289065562392150721013571928202   1030000900030000   541119000170190110000000085SeinGayHar (Dagon Cent YANGONUNG     MMR11007211327289065560721000000000000000   10300003F00104100000000000000000000006870     
100   35710950036184960000000000800000000000800000002000000010410407210748398924241811600721936181439202   1030000900030000   481219000710190110000000541I Sure Technology Co., YANGONAUNG    MMR11007210748398924240721000000000000000   10300003F00104100000000000000000000240000     
100   35710830729803440000000000008800000000008800002000000010410407211332569067413877300721031022056202   1030000900030000   541119000380190110000000248Victoria Hyper Mart    YANGON        MMR11007211332569067410721000000000000000   10300003F00104100000000000000000000001760     
100   35710830961824220000000000087145000000087145002000000010410407211333119067466249460721032032011202   1030000900030000   581219000721190110000000552Chilli Pot Mala Xiang  YANGONOKKALAP MMR11007211333119067460721000000000000000   10300003F00104100000000000000000000029629     
100   35710500155422260000000000074500000000074500002000000010410407210857288951682735250721667271528202   1030000900030000   541119000282190110000000177Pro1 Global (Insein)   YANGON        MMR11007210857288951680721000000000000000   10300005F00104100000000000000000000014900     
100   62443000863325060000000000023850000000023850002000000010410407210857338951709894790721668271533202   1030000900030000   591219000507190110000000354Shwe Ohh Pharmacy -9   YANGON        MMR11007210857338951700721000000000000000   10300005F00104100000000000000000000010017     
100   62443000860057550000000000002200000000002200002000000010410407211005128986576159910721195351612202   1030000900030000   541119000331190110000000206Muditar Supermarket    YANGON        MMR11007211005128986570721000000000000000   10300005F00104100000000000000000000000770     
100   9503051888861545000000000002112000000002112000200000001041040721125646905482JY5DWY0721835261946202   1030000900030000   581219000371190110000000243Jo Jo Hot Pot (Junctio YANGONN       MMR11007211256469054820721000000000000000   10300002F00104100000000000000000000007181     
100   950319000113608600000000000061200000000061200020000000104104072112571790550636933F0721839271917202   1030000900030000   541119000112190110000000077Sein Gay Har Chinatown YANGON        MMR11007211257179055060721000000000000000   10300014F00104100000000000000000000001224     
100   35710830963407720000000000415400000000415400002000000010410407211258599055775622350721858281959202   1030000900030000   581219000206190110000000108Beauty in the Pot      YANGON        MMR11007211258599055770721000000000000000   10300003F00104100000000000000000000141236     
100   95051071710013280000000000093725000000093725002000000010410407211305099057875503360721887351909202   1030000900030000   581219000590190110000000430The Tea Club           YANGON        MMR11007211305099057870721000000000000000   10300005F00104100000000000000000000055766     
100   9503054000586610000000000001827000000001827000200000001041040721130807905893HSXY4T0721903381907202   1030000900030000   581219000280190110000000175Min Lan Restaurant (Ka YANGONARTAUNG MMR11007211308079058930721000000000000000   10300002F00104100000000000000000000006212     
100   35710500185439730000000000037778000000037778002000000010410407211336469068564234770721045062046202   1030000900030000   581219000420190110000000281BCC (JC)               YANGONN       MMR11007211336469068560721000000000000000   10300005F00104100000000000000000000012844     
100   62346600181805920000000000028200000000028200002000000010410407211340139069630231200721056102013202   1030000900030000   599919000192190110000000096119 Fashion Complex (H YANGON        MMR11007211340139069630721000000000000000   10300005F00104100000000000000000000008460     
100   35710950827089520000000000017950000000017950002000000010410407211340449069743924100721059102044202   1030000900030000   591219000503190110000000350Shwe Ohh Pharmacy (WZD YANGONNGKUUN  MMR11007211340449069740721000000000000000   10300003F00104100000000000000000000005385     
100   62441900102419680000000000559500000000559500002000000010410407210930438964579825480721952001643202   1030000900030000   541119000161190110000000084Pro (1) Global (Pazund YANGONARTAUNG MMR11007210930438964570721000000000000000   10300003F00104100000000000000000000195825     
100   35710830865469740000000000004900000000004900002000000010410407210931028964717415740721957011602202   1030000900030000   541119000114190110000000078Sein Gay Har Kan Thar  YANGONOKKALAP MMR11007210931028964710721000000000000000   10300003F00104100000000000000000000000980     
100   35710830573853290000000000015000000000015000002000000010410407211222519042585694970721586521851202   1030000900030000   554119000347190110000000214New Day Energy - 4     YANGONARTAUNG MMR11007211222519042580721000000000000000   10300003F00104100000000000000000000002250     
100   35710500300222380000000000002150000000002150002000000010410407211223419042811314140721591531841202   1030000900030000   541119000115190110000000078Sein Gay Har Kan Thar  YANGONOKKALAP MMR11007211223419042810721000000000000000   10300005F00104100000000000000000000000430     
100   950319000337209300000000002596500000002596500020000000104104072112253690434863133F0721609551836202   1030000900030000   581219000206190110000000108Beauty in the Pot      YANGON        MMR11007211225369043480721000000000000000   10300014F00104100000000000000000000088281     
100   35710500112994170000000000025700000000025700002000000010410407210759058928299607720721046291405202   1030000900030000   569119000350190110000000217Bench (Myanmar Plaza)  YANGON        MMR11007210759058928290721000000000000000   10300005F00104100000000000000000000007710     
100   9503051894566328000000000002016000000002016000200000001041040721080155892924THFK4V0721069311455202   1030000900030000   581219000231190110000000130MinLan Restaurant(SanC YANGONUNG     MMR11007210801558929240721000000000000000   10300002F00104100000000000000000000006854     
100   35710830851036450000000000015448000000015448002000000010410407210802058929335416150721074321405202   1030000900030000   581219000372190110000000244Jo Jo HotPot(CapitalHy YANGONA       MMR11007210802058929330721000000000000000   10300003F00104100000000000000000000005252     
100   35710500143797110000000000085200000000085200002000000010410407211424075407938485540721000003919484   1030000900030000   333300010001202104000002659MSP                    Yangon        MMR11007211424075407930721000000000000000   10300005F05104100000000000000000000020000     
100   95030800089266150000000000172500000000172500002000000010410407210500148858304186610721484301114202   1030000900030000   594419000631190110000000462Shwe San Eain GemsTime YANGONUT      MMR11007210500148858300721000000000000000   10300003F00104100000000000000000000051750     
100   62346600190924650000000000102950000000102950002000000010410407210508008861353806980721546381100202   1030000900030000   541119000618190110000000452Pro(1) Global-Hlaing T YANGONTHARYA  MMR11007210508008861350721000000000000000   10300005F00104100000000000000000000020590     
100   35710500133228290000000000008000000000008000002000000010410407210509108861770808560721560391110202   1030000900030000   591219000601190110000000441Shwe Ohh Pharmacy St-3 YANGON        MMR11007210509108861770721000000000000000   10300005F00104100000000000000000000002400     
100   35710830107873550000000000095500000000095500002000000010410407210641558897975901160721333111355202   1030000900030000   541119000286190110000000177Pro1 Global (Insein)   YANGON        MMR11007210641558897970721000000000000000   10300003F00104100000000000000000000019100     
100   35710500160627450000000000021000000000021000002000000010410407211226419043845555170721616561841202   1030000900030000   541119000331190110000000206Muditar Supermarket    YANGON        MMR11007211226419043840721000000000000000   10300005F00104100000000000000000000004200     
100   62346600147978110000000000033050000000033050002000000010410407211228519044731066920721632581851202   1030000900030000   541119000380190110000000248Victoria Hyper Mart    YANGON        MMR11007211228519044730721000000000000000   10300005F00104100000000000000000000006610     
100   62343301017280180000000000050200000000050200002000000010410407210715434543890000000721000003918118   1030000900030000   333300010001202104000002717Near Me Android        Yangon        MMR11007210715434543890721000000000000000   10300004F05104100000000000000000000020000     
100   62921400095635680000000000005000000000005000002000000010410407211316074607533333330721000003919331   1030000900030000   333800010001202104000003301uab bank               Yangon        MMR11007211316074607530721000000000000000   10300009F05104100000000000000000000003000     
100   35710500361348130000000000019200000000019200002000000010410407210328508825600090750721926580950202   1030000900030000   541119000283190110000000177Pro1 Global (Insein)   YANGON        MMR11007210328508825600721000000000000000   10300005F00104100000000000000000000003840     
100   62346600130343980000000000019600000000019600002000000010410407210341168829718671690721976111016202   1030000900030000   541119000283190110000000177Pro1 Global (Insein)   YANGON        MMR11007210341168829710721000000000000000   10300005F00104100000000000000000000003920     
100   9503051893808481000000000001185000000001185000200000001041040721034344883056BU1LJZ0721987131044202   1030000900030000   541119000380190110000000248Victoria Hyper Mart    YANGON        MMR11007210343448830560721000000000000000   10300002F00104100000000000000000000002370     
100   62441900103402810000000000058000000000058000002000000010410407210344208830824867670721992141020202   1030000900030000   592119000256190110000000151Htun Htun Oo Liquor (B YANGON        MMR11007210344208830820721000000000000000   10300003F00104100000000000000000000024360     
100   35710500176349480000000000025242000000025242002000000010410407210654418902631782240721414241341202   1030000900030000   581219000719190110000000550Chilli Pot Mala Xiang  YANGON        MMR11007210654418902630721000000000000000   10300005F00104100000000000000000000008582     
100   9503051020166373000000000002280000000002280000200000001041040721065919890447YMDIFT0721454291319202   1030000900030000   591219000506190110000000353Shwe Ohh Pharmacy -8   YANGON        MMR11007210659198904470721000000000000000   10300002F00104100000000000000000000006840     
100   62346600146579650000000000078000000000078000002000000010410407210717588911716070360721621471358202   1030000900030000   541119000283190110000000177Pro1 Global (Insein)   YANGON        MMR11007210717588911710721000000000000000   10300005F00104100000000000000000000015600     
100   9503051895693964000000000000075000000000075000200000001041040721072245891347YHKEGF0721659521345202   1030000900030000   591219000607190110000000447Shwe Ohh Pharmacy St-3 YANGONINDAING MMR11007210722458913470721000000000000000   10300002F00104100000000000000000000000225     
100   95050810002612560000000000248000000000248000002000000010410407210901068953109879120721695311506202   1030000900030000   594419000454190110000000307Shwe San Eain (Junctio YANGONN       MMR11007210901068953100721000000000000000   10300003F00104100000000000000000000104160     
100   62346600151429420000000000008280000000008280002000000010410407210901098953121058250721696311509202   1030000900030000   581219000423190110000000284BCC (SYS)              YANGON        MMR11007210901098953120721000000000000000   10300005F00104100000000000000000000002815     
100   35710830083107490000000000009300000000009300002000000010410407211200369033885690750721400301836202   1030000900030000   591219000688190110000000519Shwe Ohh Pharmacy ST-7 YANGONUNG     MMR11007211200369033880721000000000000000   10300003F00104100000000000000000000002790     
100   35710500142525380000000000050000000000050000002000000010410407211201399034302617020721409311839202   1030000900030000   581219000185190110000000089KER Rendezvous - 4Floo YANGONONE     MMR11007211201399034300721000000000000000   10300005F00104100000000000000000000017000     
100   9503051883672509000000000010000000000010000000200000001041040721055445887965Z2QDSM0721958241245202   1030000900030000   541119000289190110000000178Pro (1) Global (East D YANGONMYOTHIT MMR11007210554458879650721000000000000000   10300002F00104100000000000000000000020000     
100   62346600186888830000000000244000000000244000002000000010410407211136019023758656500721143061801202   1030000900030000   594419000454190110000000307Shwe San Eain (Junctio YANGONN       MMR11007211136019023750721000000000000000   10300005F00104100000000000000000000073200     
100   9503051872916305000000000001200000000001200000200000001041040721114255902666PHY4MS0721214121855202   1030000900030000   481219000644190110000000475Remax By Telegod Times YANGONUT      MMR11007211142559026660721000000000000000   10300002F00104100000000000000000000003600     
100   35710500152890750000000000035000000000035000002000000010410407211144239027177918220721228141823202   1030000900030000   481419000108190110000000045Amara Communications   YANGON        MMR11007211144239027170721000000000000000   10300005F00104100000000000000000000010500     
100   62346600161806770000000000013500000000013500002000000010410407210834378942827633050721451041537202   1030000900030000   541119000290190110000000178Pro (1) Global (East D YANGONMYOTHIT MMR11007210834378942820721000000000000000   10300005F00104100000000000000000000002700     
100   35710500321212360000000000377000000000377000002000000010410407210836188943513238010721472061518202   1030000900030000   594419000631190110000000462Shwe San Eain GemsTime YANGONUT      MMR11007210836188943510721000000000000000   10300005F00104100000000000000000000113100     
100   35710500146285470000000000147950000000147950002000000010410407210838518944427069690721492081551202   1030000900030000   541119000614190110000000452Pro(1) Global-Hlaing T YANGONTHARYA  MMR11007210838518944420721000000000000000   10300005F00104100000000000000000000029590     
100   35710830731180270000000000011750000000011750002000000010410407210555538880116331220721972251253202   1030000900030000   591219000502190110000000349Shwe Ohh Pharmacy -4   YANGON        MMR11007210555538880110721000000000000000   10300003F00104100000000000000000000003525     
100   35710830474684170000000000005400000000005400002000000010410407211202119034665207230721417321811202   1030000900030000   541119000144190110000000083SeinGayHarParami Cente YANGON        MMR11007211202119034660721000000000000000   10300003F00104100000000000000000000001080     
100   35710830670154860000000000026000000000026000002000000010410407211204499035637484000721444341849202   1030000900030000   569119000661190110000000492CNC Mens Wear (Time Ma YANGONUT      MMR11007211204499035630721000000000000000   10300003F00104100000000000000000000007800     
100   35710830220711030000000000129000000000129000002000000010410407211216149039915693490721525461814202   1030000900030000   504719000625190110000000458Ye Optical (8-Mile)    YANGONONE     MMR11007211216149039910721000000000000000   10300003F00104100000000000000000000038700     
100   35710500179693770000000000013000000000013000002000000010410407201620135013633473510721000003916426   1030000900030000   333400010001202104000002022ACS                    Yangon        MMR11007201620135013630721000000000000000   10300005F05104100000000000000000000007800     
100   9503051897398182000000000000435000000000435000200000001041040721111651901545A5XB9L0721914461751202   1030000900030000   541119000115190110000000078Sein Gay Har Kan Thar  YANGONOKKALAP MMR11007211116519015450721000000000000000   10300002F00104100000000000000000000000870     
100   35710500310034430000000000021300000000021300002000000010410407211119379016633920820721942491737202   1030000900030000   541119000122190110000000080Sein Gay Har BAK       YANGONADA     MMR11007211119379016630721000000000000000   10300005F00104100000000000000000000004260     
100   35710830615468820000000000021150000000021150002000000010410407211008078987574312980721218381607202   1030000900030000   591219000506190110000000353Shwe Ohh Pharmacy -8   YANGON        MMR11007211008078987570721000000000000000   10300003F00104100000000000000000000006345     
100   35710830716886660000000000037450000000037450002000000010410407211013198989647419250721271431619202   1030000900030000   541119000166190110000000085SeinGayHar (Dagon Cent YANGONUNG     MMR11007211013198989640721000000000000000   10300003F00104100000000000000000000007490     
001000000355                   106000520200722