000   10300009200629
100   62346600150822130000000000130200000000130200002000000010410406290252037749345033520629989220903180   1030000900030000   541119000286190110000000177Pro1 Global (Insein)   YANGON        MMR11006290252037749340629000000000000000   10300005F00104100000000000000000000026040     
100   62346600148914570000000000030000000000030000002000000010410406290252187749503466130629994220918180   1030000900030000   554119000348190110000000215New Day Energy - 5     YANGONONE     MMR11006290252187749500629000000000000000   10300005F00104100000000000000000000004500     
100   35710830392875280000000000056150000000056150002000000010410406290514457804706893660629255441145180   1030000900030000   541119000160190110000000084Pro (1) Global (Pazund YANGONARTAUNG MMR11006290514457804700629000000000000000   10300003F00104100000000000000000000011230     
100   35710500340364160000000000693550000000693550002000000010410406290524437808602834710629345541143180   1030000900030000   541119000282190110000000177Pro1 Global (Insein)   YANGON        MMR11006290524437808600629000000000000000   10300005F00104100000000000000000000138710     
100   62441900002078210000000000041500000000041500002000000010410406290530247810772907440629399001224180   1030000900030000   594419000705190110000000536Zwe Htet Gems & Jewell YANGON        MMR11006290530247810770629000000000000000   10300003F00104100000000000000000000017430     
100   62443000103397340000000000057000000000057000002000000010410406290536157813048120440629449061215180   1030000900030000   594419000705190110000000536Zwe Htet Gems & Jewell YANGON        MMR11006290536157813040629000000000000000   10300005F00104100000000000000000000023940     
100   9503051019723366000000000011770000000011770000200000001041040629070939785479IE6HCT0629603391339180   1030000900030000   541119000288190110000000178Pro (1) Global (East D YANGONMYOTHIT MMR11006290709397854790629000000000000000   10300002F00104100000000000000000000023540     
100   35710950387676070000000000052500000000052500002000000010410406290713317856304226970629642431331180   1030000900030000   541119000160190110000000084Pro (1) Global (Pazund YANGONARTAUNG MMR11006290713317856300629000000000000000   10300003F00104100000000000000000000010500     
100   35710500170950740000000000204000000000204000002000000010410406291418568073106549110629324482056180   1030000900030000   581219000369190110000000241Beauty In The Pot (PHS YANGON        MMR11006291418568073100629000000000000000   10300005F00104100000000000000000000069360     
100   9503051896669104000000000001675000000001675000200000001041040629061943783279TFOPUU0629019491243180   1030000900030000   581319000543190110000000391Casa Mia Italian Kitch YANGONADA     MMR11006290619437832790629000000000000000   10300002F00104100000000000000000000005695     
100   35710500150152070000000000037400000000037400002000000010410406290621397833526263560629037511239180   1030000900030000   581219000004190110000000002Yoogane Korea Rest;(MP YANGON        MMR11006290621397833520629000000000000000   10300005F00104100000000000000000000012716     
100   35710500310878260000000000110400000000110400002000000010410406290622047833749568520629043521204180   1030000900030000   541119000288190110000000178Pro (1) Global (East D YANGONMYOTHIT MMR11006290622047833740629000000000000000   10300005F00104100000000000000000000022080     
100   35710500156898780000000000048800000000048800002000000010410406291018177948183512670629501481617180   1030000900030000   541119000286190110000000177Pro1 Global (Insein)   YANGON        MMR11006291018177948180629000000000000000   10300005F00104100000000000000000000009760     
100   9503051891372399000000000001920000000001920000200000001041040629101923794866IVRJPD0629518491623180   1030000900030000   541119000153190110000000083SeinGayHarParami Cente YANGON        MMR11006291019237948660629000000000000000   10300002F00104100000000000000000000003840     
100   62346600199954690000000000023100000000023100002000000010410406291019557948986931900629528491655180   1030000900030000   541119000286190110000000177Pro1 Global (Insein)   YANGON        MMR11006291019557948980629000000000000000   10300005F00104100000000000000000000004620     
100   62343301001407850000000000001000000000001000002000000010410406281846091609650000000629000003853913   1030000900030000   333800010001202104000003301uab bank               Yangon        MMR11006281846091609650629000000000000000   10300004F05104100000000000000000000000600     
100   9503051873185207000000000005605000000005605000200000001041040629081209788370C8YTOE0629467421409180   1030000900030000   541119000376190110000000178Pro (1) Global (East D YANGONMYOTHIT MMR11006290812097883700629000000000000000   10300002F00104100000000000000000000011210     
100   35710500182897830000000000002300000000002300002000000010410406290813597884528237700629492431459180   1030000900030000   541119000113190110000000077Sein Gay Har Chinatown YANGON        MMR11006290813597884520629000000000000000   10300005F00104100000000000000000000000460     
100   62346600182025030000000000085800000000085800002000000010410406290819517887406172520629567491451180   1030000900030000   594419000549190110000000396Yangoods (City Mall)   YANGONAW      MMR11006290819517887400629000000000000000   10300005F00104100000000000000000000025740     
100   35710500360607290000000000028560000000028560002000000010410406291337248058236785150629053072024180   1030000900030000   581219000032190110000000040Hot Pot King Time City YANGONUT      MMR11006291337248058230629000000000000000   10300005F00104100000000000000000000009710     
100   9503051894482864000000000006485000000006485000200000001041040629134920806246MOUELC0629120192020180   1030000900030000   581219000369190110000000241Beauty In The Pot (PHS YANGON        MMR11006291349208062460629000000000000000   10300002F00104100000000000000000000022049     
100   35710830688220210000000000231116000000231116002000000010410406291349458062595529820629123192045180   1030000900030000   701119000494190110000000024Lotte Hotel            YANGON        MMR11006291349458062590629000000000000000   10300003F00104100000000000000000000078580     
100   35710500185362900000000002381500000002381500002000000010410406290543387816290392130629552131238180   1030000900030000   541119000288190110000000178Pro (1) Global (East D YANGONMYOTHIT MMR11006290543387816290629000000000000000   10300005F00104100000000000000000000476300     
100   95031900036573780000000000026400000000026400002000000010410406290546397817659F36BE0629584161239180   1030000900030000   581219000371190110000000243Jo Jo Hot Pot (Junctio YANGONN       MMR11006290546397817650629000000000000000   10300014F00104100000000000000000000008976     
100   62921400058544410000000000002000000000002000002000000010410406290944371437273333330629000003856283   1030000900030000   333800010001202104000003301uab bank               Yangon        MMR11006290944371437270629000000000000000   10300009F05104100000000000000000000001200     
100   35710830548436920000000000005000000000005000002000000010410406290418264826304068740629000003854572   1030000900030000   333400010001202104000002022ACS                    Yangon        MMR11006290418264826300629000000000000000   10300003F05104100000000000000000000003000     
100   95050316231020800000000000050000000000050000002000000010410406291312194219897520760629000003856950   1030000900030000   333800010001202104000003301uab bank               Yangon        MMR11006291312194219890629000000000000000   10300001F05104100000000000000000000030000     
100   9503054000495838000000000000235000000000235000200000001041040629040817777867Y39LAV0629665381017180   1030000900030000   541119000144190110000000083SeinGayHarParami Cente YANGON        MMR11006290408177778670629000000000000000   10300002F00104100000000000000000000000470     
100   35710500115719890000000000003450000000003450002000000010410406290408207778705713300629667381020180   1030000900030000   541119000381190110000000248Victoria Hyper Mart    YANGON        MMR11006290408207778700629000000000000000   10300005F00104100000000000000000000000690     
100   9503051873582049000000000008715000000008715000200000001041040629041210778013GQABV00629704421010180   1030000900030000   541119000375190110000000178Pro (1) Global (East D YANGONMYOTHIT MMR11006290412107780130629000000000000000   10300002F00104100000000000000000000017430     
100   95031900001136720000000000007250000000007250002000000010410406291313308049111EW0CE0629865431930180   1030000900030000   541119000124190110000000080Sein Gay Har BAK       YANGONADA     MMR11006291313308049110629000000000000000   10300014F00104100000000000000000000001450     
100   62346600171259370000000000019000000000019000002000000010410406290858537907970166330629237281553180   1030000900030000   481219000030190110000000029I Sure Apple Service C YANGONUT      MMR11006290858537907970629000000000000000   10300005F00104100000000000000000000005700     
100   35710500105462480000000000030000000000030000002000000010410406290849291929580770080629000003856015   1030000900030000   333400010001202104000002022ACS                    Yangon        MMR11006290849291929580629000000000000000   10300005F05104100000000000000000000018000     
100   950319000125927600000000001000000000001000000020000000104104062904502520250432R5BE0629000003854732   1030000900030000   333300010001202104000002717Near Me Android        Yangon        MMR11006290450252025040629000000000000000   10300014F05104100000000000000000000020000     
100   62346600114666420000000000005000000000005000002000000010410406291410534053775875260629000003857144   1030000900030000   333400010001202104000002022ACS                    Yangon        MMR11006291410534053770629000000000000000   10300005F05104100000000000000000000003000     
100   62343301015297210000000000035000000000035000002000000010410406290214554455880000000629000003854090   1030000900030000   333400010001202104000002022ACS                    Yangon        MMR11006290214554455880629000000000000000   10300004F05104100000000000000000000021000     
100   35710500183981050000000000010000000000010000002000000010410406290523285328819913850629000003854913   1030000900030000   333400010001202104000002022ACS                    Yangon        MMR11006290523285328810629000000000000000   10300005F05104100000000000000000000006000     
100   62622000038107400000000000030000000000030000002000000010410406290538387814118748200629486081238180   1030000900030000   541119000159190110000000084Pro (1) Global (Pazund YANGONIKANAUN MMR11006290538387814110629000000000000000   10300006F00104100000000000000000000006000     
100   950305189379708000000000019175000000019175000020000000104104062907160678575956TF5I0629687461306180   1030000900030000   594419000706190110000000537Zwe Htet Gems & Jewell YANGONAW      MMR11006290716067857590629000000000000000   10300002F00104100000000000000000000575250     
100   35710830782034100000000000010000000000010000002000000010410406290719207859115128720629732491320180   1030000900030000   594419000549190110000000396Yangoods (City Mall)   YANGONAW      MMR11006290719207859110629000000000000000   10300003F00104100000000000000000000003000     
100   35710500120755840000000000042100000000042100002000000010410406290901187909332436360629295311518180   1030000900030000   541119000283190110000000177Pro1 Global (Insein)   YANGON        MMR11006290901187909330629000000000000000   10300005F00104100000000000000000000008420     
100   950319000113922100000000000066000000000066000020000000104104062910203879493885U8BE0629540501638180   1030000900030000   541119000112190110000000077Sein Gay Har Chinatown YANGON        MMR11006291020387949380629000000000000000   10300014F00104100000000000000000000001320     
100   62346600137962360000000000039300000000039300002000000010410406291021597950059116830629560511659180   1030000900030000   541119000286190110000000177Pro1 Global (Insein)   YANGON        MMR11006291021597950050629000000000000000   10300005F00104100000000000000000000007860     
100   95030900007908930000000000032000000000032000002000000010410406291008523852540000000629000003856392   1030000900030000   333400010001202104000002022ACS                    Yangon        MMR11006291008523852540629000000000000000   10300004F05104100000000000000000000019200     
100   35710830262230800000000000010000000000010000002000000010410406290514204420235525500629000003854846   1030000900030000   333400010001202104000002022ACS                    Yangon        MMR11006290514204420230629000000000000000   10300003F05104100000000000000000000006000     
100   9503051872541582000000000003500000000003500000200000001041040629131738473853LYTEJ40629000003856965   1030000900030000   333400010001202104000002022ACS                    Yangon        MMR11006291317384738530629000000000000000   10300002F05104100000000000000000000021000     
100   62921400046626470000000000050000000000050000002000000010410406290420375037593333330629000003854578   1030000900030000   333800010001202104000003301uab bank               Yangon        MMR11006290420375037590629000000000000000   10300009F05104100000000000000000000030000     
100   9503051873354720000000000000400000000000400000200000001041040628162259525948VGGGG70629000003853830   1030000900030000   333400010001202104000002022ACS                    Yangon        MMR11006281622595259480629000000000000000   10300002F05104100000000000000000000002400     
100   62346600152666830000000000029800000000029800002000000010410406290724407861333500100629793541340180   1030000900030000   581219000635190110000000466King BBQ Time City     YANGONUT      MMR11006290724407861330629000000000000000   10300005F00104100000000000000000000010132     
100   35710500118025660000000000007750000000007750002000000010410406291057397970664904920629349271739180   1030000900030000   541119000159190110000000084Pro (1) Global (Pazund YANGONIKANAUN MMR11006291057397970660629000000000000000   10300005F00104100000000000000000000001550     
100   9503051890947316000000000003125000000003125000200000001041040629110055797256SGFVVL0629426301755180   1030000900030000   541119000120190110000000080Sein Gay Har BAK       YANGONADA     MMR11006291100557972560629000000000000000   10300002F00104100000000000000000000006250     
100   9503051889556250000000000001085000000001085000200000001041040629110108797276RYDHRW0629435311708180   1030000900030000   591219000502190110000000349Shwe Ohh Pharmacy -4   YANGON        MMR11006291101087972760629000000000000000   10300002F00104100000000000000000000003255     
100   62346600166685070000000000026000000000026000002000000010410406291102087973460935330629461321708180   1030000900030000   541119000159190110000000084Pro (1) Global (Pazund YANGONIKANAUN MMR11006291102087973460629000000000000000   10300005F00104100000000000000000000005200     
100   35710830199415160000000000024000000000024000002000000010410406291350298062887578010629131202029180   1030000900030000   581219000373190110000000245Jo Jo Hot Pot (Kyee My YANGONINDAING MMR11006291350298062880629000000000000000   10300003F00104100000000000000000000008160     
100   35710830169726050000000000100050000000100050002000000010410406291352318063623265050629147222031180   1030000900030000   581219000369190110000000241Beauty In The Pot (PHS YANGON        MMR11006291352318063620629000000000000000   10300003F00104100000000000000000000034017     
100   35710830251447580000000000216000000000216000002000000010410406290547207817951001920629596171220180   1030000900030000   541119000288190110000000178Pro (1) Global (East D YANGONMYOTHIT MMR11006290547207817950629000000000000000   10300003F00104100000000000000000000043200     
100   9503051878471800000000000007405000000007405000200000001041040629074623787139GM3YMD0629093161423180   1030000900030000   581219000635190110000000466King BBQ Time City     YANGONUT      MMR11006290746237871390629000000000000000   10300002F00104100000000000000000000025177     
100   9503051878471800000000000002980000000002980000200000001041040629074658787168G6WO610629104161458180   1030000900030000   581219000635190110000000466King BBQ Time City     YANGONUT      MMR11006290746587871680629000000000000000   10300002F00104100000000000000000000010132     
100   9503051890377613000000000020000000000020000000200000001041040629090717791230HDLHQI0629390371517180   1030000900030000   729819000354190110000000221Face Art Aesthetic &Sk YANGONAW      MMR11006290907177912300629000000000000000   10300002F00104100000000000000000000060000     
100   35710500112994170000000000013965000000013965002000000010410406290917047917195305910629513471504180   1030000900030000   581219000722190110000000553Noodle Bowl            YANGON        MMR11006290917047917190629000000000000000   10300005F00104100000000000000000000004748     
100   9503051887437446000000000005040000000005040000200000001041040629092238792009ACFGYN0629604521538180   1030000900030000   591219000502190110000000349Shwe Ohh Pharmacy -4   YANGON        MMR11006290922387920090629000000000000000   10300002F00104100000000000000000000015120     
100   62346600117867830000000000049450000000049450002000000010410406291427178075798855890629357572017180   1030000900030000   581219000635190110000000466King BBQ Time City     YANGONUT      MMR11006291427178075790629000000000000000   10300005F00104100000000000000000000016813     
100   35710950841182260000000000104650000000104650002000000010410406291444008081674222010629467142100180   1030000900030000   581219000206190110000000108Beauty in the Pot      YANGON        MMR11006291444008081670629000000000000000   10300003F00104100000000000000000000035581     
100   62346600145313500000000000134200000000134200002000000010410406291448378083050202790629478182137180   1030000900030000   581219000206190110000000108Beauty in the Pot      YANGON        MMR11006291448378083050629000000000000000   10300005F00104100000000000000000000045628     
100   9503051891195808000000000064700000000064700000200000001041040629055203782008TAKCII0629653221203180   1030000900030000   594419000708190110000000539Zwe Htet Gems & Jewell YANGON        MMR11006290552037820080629000000000000000   10300002F00104100000000000000000000194100     
100   62441900102788790000000000035555000000035555002000000010410406290554517821429922230629695241251180   1030000900030000   541119000159190110000000084Pro (1) Global (Pazund YANGONIKANAUN MMR11006290554517821420629000000000000000   10300003F00104100000000000000000000012445     
100   35710950735619230000000000086300000000086300002000000010410406290559187823305213120629742291218180   1030000900030000   541119000282190110000000177Pro1 Global (Insein)   YANGON        MMR11006290559187823300629000000000000000   10300003F00104100000000000000000000017260     
100   62921400004006790000000000004500000000004500002000000010410406290152172217413333330629000003854055   1030000900030000   333400010001202104000002022ACS                    Yangon        MMR11006290152172217410629000000000000000   10300009F05104100000000000000000000002700     
100   62444501100127960000000000093000000000093000002000000010410406291428515851682670370629000003857211   1030000900030000   333300010001202104000000109Myanmar National Airli Yangon        MMR11006291428515851680629000000000000000   10300002F05104100000000000000000000020000     
100   9503051881332445000000000000620000000000620000200000001041040629025534775061DZZROG0629019250934180   1030000900030000   541119000112190110000000077Sein Gay Har Chinatown YANGON        MMR11006290255347750610629000000000000000   10300002F00104100000000000000000000001240     
100   62346600161236280000000000007000000000007000002000000010410406290318187759473059160629229480918180   1030000900030000   591219000503190110000000350Shwe Ohh Pharmacy (WZD YANGONNGKUUN  MMR11006290318187759470629000000000000000   10300005F00104100000000000000000000002100     
100   35710500391461520000000000010815000000010815002000000010410406290331287764637879710629351011028180   1030000900030000   581219000714190110000000545Akkhaya Tea House(Yank YANGON        MMR11006290331287764630629000000000000000   10300005F00104100000000000000000000003677     
100   62444501100040740000000000327600000000327600002000000010410406291458178085932695570629504282117180   1030000900030000   581219000205190110000000107Canton Paradise        YANGON        MMR11006291458178085930629000000000000000   10300002F00104100000000000000000000194922     
100   95030800043996430000000000044330000000044330002000000010410406290633467838784722450629180031346180   1030000900030000   581219000004190110000000002Yoogane Korea Rest;(MP YANGON        MMR11006290633467838780629000000000000000   10300003F00104100000000000000000000015072     
100   62346600116634790000000000022000000000022000002000000010410406290634137838970023950629186041313180   1030000900030000   541119000282190110000000177Pro1 Global (Insein)   YANGON        MMR11006290634137838970629000000000000000   10300005F00104100000000000000000000004400     
100   9503051872505967000000000001300000000001300000200000001041040629134056105697ENKUAA0629000003857032   1030000900030000   333400010001202104000002022ACS                    Yangon        MMR11006291340561056970629000000000000000   10300002F05104100000000000000000000007800     
100   9503051889343030000000000000500000000000500000200000001041040629130208320894JJMJK40629000003856924   1030000900030000   333400010001202104000002022ACS                    Yangon        MMR11006291302083208940629000000000000000   10300002F05104100000000000000000000003000     
100   62346600111031460000000000035000000000035000002000000010410406281802153215414093590629000003853898   1030000900030000   333400010001202104000002022ACS                    Yangon        MMR11006281802153215410629000000000000000   10300005F05104100000000000000000000021000     
100   62921400037379370000000000010000000000010000002000000010410406291500333033423333330629000003857317   1030000900030000   333400010001202104000002022ACS                    Yangon        MMR11006291500333033420629000000000000000   10300009F05104100000000000000000000006000     
100   35710830262230800000000000005000000000005000002000000010410406290515514551465525720629000003854876   1030000900030000   333400010001202104000002022ACS                    Yangon        MMR11006290515514551460629000000000000000   10300003F05104100000000000000000000003000     
100   35710500130597100000000000030000000000030000002000000010410406290334227765846347980629377041022180   1030000900030000   541119000318190110000000200Amazing Mart (No.1 Ind YANGON        MMR11006290334227765840629000000000000000   10300005F00104100000000000000000000006000     
100   62443000103154520000000000031500000000031500002000000010410406291107237976708162810629594371723180   1030000900030000   541119000286190110000000177Pro1 Global (Insein)   YANGON        MMR11006291107237976700629000000000000000   10300005F00104100000000000000000000011025     
100   62444500100072680000000000053900000000053900002000000010410406291240358034102403810629463101935180   1030000900030000   581219000004190110000000002Yoogane Korea Rest;(MP YANGON        MMR11006291240358034100629000000000000000   10300002F00104100000000000000000000032070     
100   35710830732779890000000000024700000000024700002000000010410406290823447889295029440629626531444180   1030000900030000   597719000530190110000000378Mon Cosmetic (1)       MANDALAYHARSA MMR11006290823447889290629000000000000000   10300003F00104100000000000000000000007410     
100   95030800007790380000000000038300000000038300002000000010410406290949227933935637800629065191622180   1030000900030000   569119000350190110000000217Bench (Myanmar Plaza)  YANGON        MMR11006290949227933930629000000000000000   10300003F00104100000000000000000000011490     
100   35710500301400890000000000019800000000019800002000000010410406290951467935106136100629101211646180   1030000900030000   541119000117190110000000078Sein Gay Har Kan Thar  YANGONOKKALAP MMR11006290951467935100629000000000000000   10300005F00104100000000000000000000003960     
100   95050326484156550000000000010000000000010000002000000010410406291448391839206428300629000003857275   1030000900030000   333400010001202104000002022ACS                    Yangon        MMR11006291448391839200629000000000000000   10300001F05104100000000000000000000006000     
100   62441900102524110000000000010000000000010000002000000010410406290849371937139982240629000003856020   1030000900030000   333400010001202104000002022ACS                    Yangon        MMR11006290849371937130629000000000000000   10300003F05104100000000000000000000006000     
100   9503051872541582000000000000250000000000250000200000001041040629131552455242ZXLC630629000003856957   1030000900030000   333400010001202104000002022ACS                    Yangon        MMR11006291315524552420629000000000000000   10300002F05104100000000000000000000001500     
100   9503051872501404000000000001000000000001000000200000001041040629091930493079ZMXZOL0629000003856166   1030000900030000   333400010001202104000002022ACS                    Yangon        MMR11006290919304930790629000000000000000   10300002F05104100000000000000000000006000     
100   62343302002455670000000000028150000000028150002000000010410406290417157782000000000629741471015180   1030000900030000   581219000205190110000000107Canton Paradise        YANGON        MMR11006290417157782000629000000000000000   10300004F00104100000000000000000000009571     
100   35710830560871990000000000016590000000016590002000000010410406290424527784894211270629806541052180   1030000900030000   581219000698190110000000529Pizzamaru Myanmar (San YANGONUNG     MMR11006290424527784890629000000000000000   10300003F00104100000000000000000000005641     
100   35650973649263750000000000026900000000026900002000000010410406290752407874451566890629186221440180   1030000900030000   541119000282190110000000177Pro1 Global (Insein)   YANGON        MMR11006290752407874450629000000000000000   10300005F00104100000000000000000000009415     
100   9503051882491877000000000001500000000001500000200000001041040629075300787453QRYLEO0629190231400180   1030000900030000   481219000030190110000000029I Sure Apple Service C YANGONUT      MMR11006290753007874530629000000000000000   10300002F00104100000000000000000000004500     
100   35710500143259950000000000105700000000105700002000000010410406290803197879701015930629356331419180   1030000900030000   581219000206190110000000108Beauty in the Pot      YANGON        MMR11006290803197879700629000000000000000   10300005F00104100000000000000000000035938     
100   35710830904021720000000000010900000000010900002000000010410406291314458049684305200629881441945180   1030000900030000   599919000192190110000000096119 Fashion Complex (H YANGON        MMR11006291314458049680629000000000000000   10300003F00104100000000000000000000003270     
100   62921400099647250000000000050000000000050000002000000010410406290905313531193333330629000003856095   1030000900030000   333800010001202104000003301uab bank               Yangon        MMR11006290905313531190629000000000000000   10300009F05104100000000000000000000030000     
100   95031900000306520000000000005000000000005000002000000010410406291523355335552CB1CE0629000003857363   1030000900030000   333400010001202104000002022ACS                    Yangon        MMR11006291523355335550629000000000000000   10300014F05104100000000000000000000003000     
100   95010121409491240000000000003000000000003000002000000010410406291421565156601289470629000003857188   1030000900030000   333800010001202104000003301uab bank               Yangon        MMR11006291421565156600629000000000000000   10100001F05104100000000000000000000001800     
100   95030801014414700000000000050200000000050200002000000010410406290422435243200512810629000003854597   1030000900030000   333300010001202104000002659MSP                    Yangon        MMR11006290422435243200629000000000000000   10300003F05104100000000000000000000020000     
100   35710500156156340000000000021000000000021000002000000010410406290730217863755500820629851001421180   1030000900030000   591219000690190110000000521Shwe Ohh Pharmacy ST-1 YANGONAUNG    MMR11006290730217863750629000000000000000   10300005F00104100000000000000000000006300     
100   35710830434983270000000000016375000000016375002000000010410406290830057892884735720629758001505180   1030000900030000   541119000114190110000000078Sein Gay Har Kan Thar  YANGONOKKALAP MMR11006290830057892880629000000000000000   10300003F00104100000000000000000000003275     
100   9503051883577013000000000008715000000008715000200000001041040629083424789482ZR8PU90629806041524180   1030000900030000   541119000286190110000000177Pro1 Global (Insein)   YANGON        MMR11006290834247894820629000000000000000   10300002F00104100000000000000000000017430     
100   9503051887325088000000000002800000000002800000200000001041040629083647789626DNTKYQ0629858061547180   1030000900030000   541119000321190110000000203Ikon Mart              YANGONUNG     MMR11006290836477896260629000000000000000   10300002F00104100000000000000000000005600     
100   95030518922256200000000000018920000000018920002000000010410406291317268050660R1XQF0629900471926180   1030000900030000   581219000006190110000000004Jo Jo Hot Pot Junction YANGONUT      MMR11006291317268050660629000000000000000   10300002F00104100000000000000000000006433     
100   35710500330907030000000000033224000000033224002000000010410406291317458050809671590629901471945180   1030000900030000   581219000420190110000000281BCC (JC)               YANGONN       MMR11006291317458050800629000000000000000   10300005F00104100000000000000000000011296     
100   95031900013425360000000000046750000000046750002000000010410406291318138051054AX0CE0629910481913180   1030000900030000   581219000371190110000000243Jo Jo Hot Pot (Junctio YANGONN       MMR11006291318138051050629000000000000000   10300014F00104100000000000000000000015895     
100   62346600157654520000000000031510000000031510002000000010410406291546588100001610800629558162258180   1030000900030000   581319000651190110000000482Piano Bar              YANGONONE     MMR11006291546588100000629000000000000000   10300005F00104100000000000000000000010714     
100   35710830153428420000000000131100000000131100002000000010410406291557058102915724120629572272205180   1030000900030000   581319000386190110000000250The Radio Bar          YANGON        MMR11006291557058102910629000000000000000   10300003F00104100000000000000000000044574     
100   9503051893744728000000000002550000000002550000200000001041040629064243784255TECWX20629286121343180   1030000900030000   541119000286190110000000177Pro1 Global (Insein)   YANGON        MMR11006290642437842550629000000000000000   10300002F00104100000000000000000000005100     
100   35710950552789340000000000008050000000008050002000000010410406290650597846195958450629376201359180   1030000900030000   581219000278190110000000173MAI SOONG KHA          YANGONARTAUNG MMR11006290650597846190629000000000000000   10300003F00104100000000000000000000002737     
100   62444500200111100000000000014500000000014500002000000010410406291026517952521730200629648561651180   1030000900030000   541119000152190110000000083SeinGayHarParami Cente YANGON        MMR11006291026517952520629000000000000000   10300002F00104100000000000000000000005075     
100   35710830801615980000000000070400000000070400002000000010410406290838177897187605910629893081517180   1030000900030000   551119000291190110000000179Wun Yan Kha Car Auto S YANGON        MMR11006290838177897180629000000000000000   10300003F00104100000000000000000000021120     
100   95030518854852720000000000087350000000087350002000000010410406291357318065405VI8FY0629178272031180   1030000900030000   569119000272190110000000167Central Fashion Store  MANDALAYHARSA MMR11006291357318065400629000000000000000   10300002F00104100000000000000000000026205     
100   35710830795458920000000000015300000000015300002000000010410406290610557828607054210629888401255180   1030000900030000   599919000638190110000000469MIEVIC Store           YANGONUT      MMR11006290610557828600629000000000000000   10300003F00104100000000000000000000004590     
100   62443000803035450000000000067800000000067800002000000010410406290559427823515427530629746291242180   1030000900030000   541119000376190110000000178Pro (1) Global (East D YANGONMYOTHIT MMR11006290559427823510629000000000000000   10300005F00104100000000000000000000023730     
100   62346600186775300000000000033000000000033000002000000010410406290601447824387796430629764311244180   1030000900030000   591219000508190110000000355Shwe Ohh Pharmacy(SanP YANGONNGKUUN  MMR11006290601447824380629000000000000000   10300005F00104100000000000000000000009900     
100   35710830948517210000000000024500000000024500002000000010410406290414447781134209390629725441044180   1030000900030000   591219000501190110000000348Shwe Ohh Pharmacy (SmL YANGONUT      MMR11006290414447781130629000000000000000   10300003F00104100000000000000000000007350     
100   62346600101609230000000000010325000000010325002000000010410406290332267765053177560629362021026180   1030000900030000   581219000422190110000000283BCC (YIH)              YANGON        MMR11006290332267765050629000000000000000   10300005F00104100000000000000000000003510     
100   62346600147221570000000000035000000000035000002000000010410406291247481748981321710629000003856874   1030000900030000   333400010001202104000002022ACS                    Yangon        MMR11006291247481748980629000000000000000   10300005F05104100000000000000000000021000     
100   35710500330677920000000000035000000000035000002000000010410406290130030003158350770629000003854015   1030000900030000   333400010001202104000002022ACS                    Yangon        MMR11006290130030003150629000000000000000   10300005F05104100000000000000000000021000     
100   62444501100127960000000000184000000000184000002000000010410406291437180718352679060629000003857240   1030000900030000   333300010001202104000000109Myanmar National Airli Yangon        MMR11006291437180718350629000000000000000   10300002F05104100000000000000000000020000     
100   9503051892100328000000000001000000000001000000200000001041040629013448044859BARA9R0629000003854029   1030000900030000   333400010001202104000002022ACS                    Yangon        MMR11006290134480448590629000000000000000   10300002F05104100000000000000000000006000     
100   35650883656640400000000000002500000000002500002000000010410406290231190119329466610629000003854120   1030000900030000   333400010001202104000002022ACS                    Yangon        MMR11006290231190119320629000000000000000   10300005F05104100000000000000000000001500     
100   95031900026939030000000000100200000000100200002000000010410406290235200520682ER4BE0629000003854126   1030000900030000   333300010001202104000002717Near Me Android        Yangon        MMR11006290235200520680629000000000000000   10300014F05104100000000000000000000020000     
100   62921400062724520000000000001000000000001000002000000010410406290832440244113333330629000003855906   1030000900030000   333800010001202104000003301uab bank               Yangon        MMR11006290832440244110629000000000000000   10300009F05104100000000000000000000000600     
100   62343301003435200000000000000500000000000500002000000010410406291535340534920000000629000003857396   1030000900030000   333800010001202104000003301uab bank               Yangon        MMR11006291535340534920629000000000000000   10300004F05104100000000000000000000000300     
100   95031202500367110000000000010000000000010000002000000010410406290930290029413333330629000003856216   1030000900030000   333800010001202104000003301uab bank               Yangon        MMR11006290930290029410629000000000000000   10300009F05104100000000000000000000006000     
100   62622000911360730000000000018400000000018400002000000010410406291030007954408549070629723001700180   1030000900030000   541119000077190110000000056Pro (1) Global-TheikPa MANDALAYHARSI MMR11006291030007954400629000000000000000   10300006F00104100000000000000000000003680     
100   35710830444526200000000000037500000000037500002000000010410406291035157957294908950629824051715180   1030000900030000   541119000282190110000000177Pro1 Global (Insein)   YANGON        MMR11006291035157957290629000000000000000   10300003F00104100000000000000000000007500     
100   9503051878239439000000000001020000000001020000200000001041040629124445144539ZOQMG20629000003856855   1030000900030000   333300010001202104000002717Near Me Android        Yangon        MMR11006291244451445390629000000000000000   10300002F05104100000000000000000000020000     
100   95050319468370810000000000005000000000005000002000000010410406291245441544650995920629000003856865   1030000900030000   333400010001202104000002022ACS                    Yangon        MMR11006291245441544650629000000000000000   10300001F05104100000000000000000000003000     
100   62441900003850230000000000020000000000020000002000000010410406291057362736286792360629000003856569   1030000900030000   333400010001202104000002022ACS                    Yangon        MMR11006291057362736280629000000000000000   10300003F05104100000000000000000000012000     
100   95031900031560660000000000200200000000200200002000000010410406290315224522716NY4BE0629000003854253   1030000900030000   333300010001202104000002717Near Me Android        Yangon        MMR11006290315224522710629000000000000000   10300014F05104100000000000000000000020000     
100   9503051887332969000000000045255000000045255000200000001041040629042534778511LJWTDB0629813551034180   1030000900030000   541119000286190110000000177Pro1 Global (Insein)   YANGON        MMR11006290425347785110629000000000000000   10300002F00104100000000000000000000090510     
100   35710500175887970000000000047100000000047100002000000010410406290426537785699455400629828561053180   1030000900030000   541119000159190110000000084Pro (1) Global (Pazund YANGONIKANAUN MMR11006290426537785690629000000000000000   10300005F00104100000000000000000000009420     
100   35710830210795450000000000012420000000012420002000000010410406291359218066153647720629193292021180   1030000900030000   581219000422190110000000283BCC (YIH)              YANGON        MMR11006291359218066150629000000000000000   10300003F00104100000000000000000000004223     
100   62921400074864320000000000001000000000001000002000000010410406290659522952193333330629000003855397   1030000900030000   333800010001202104000003301uab bank               Yangon        MMR11006290659522952190629000000000000000   10300009F05104100000000000000000000000600     
100   9503051877181509000000000007235000000007235000200000001041040629124047803425KLJ2JF0629467101947180   1030000900030000   591219000601190110000000441Shwe Ohh Pharmacy St-3 YANGON        MMR11006291240478034250629000000000000000   10300002F00104100000000000000000000021705     
100   950319000459652600000000000020000000000020000020000000104104062909570179376068H8BE0629173271601180   1030000900030000   541119000349190110000000216Amazing Mart (South Da YANGONMYOTHIT MMR11006290957017937600629000000000000000   10300014F00104100000000000000000000000400     
100   35710830519137380000000000045050000000045050002000000010410406290802017879158694760629339321401180   1030000900030000   541119000144190110000000083SeinGayHarParami Cente YANGON        MMR11006290802017879150629000000000000000   10300003F00104100000000000000000000009010     
100   62622000911360730000000000010500000000010500002000000010410406291027587953258158940629677571658180   1030000900030000   541119000077190110000000056Pro (1) Global-TheikPa MANDALAYHARSI MMR11006291027587953250629000000000000000   10300006F00104100000000000000000000002100     
100   35710830853308750000000000047950000000047950002000000010410406290153227728115415300629545230822180   1030000900030000   591219000610190110000000450Shwe Ohh Pharmacy St-1 YANGONUNG     MMR11006290153227728110629000000000000000   10300003F00104100000000000000000000014385     
100   35710500105028110000000000005000000000005000002000000010410406290844141414844047470629000003855987   1030000900030000   333400010001202104000002022ACS                    Yangon        MMR11006290844141414840629000000000000000   10300005F05104100000000000000000000003000     
100   9503051890213859000000000000500000000000500000200000001041040629123844084445DCQNZS0629000003856823   1030000900030000   333400010001202104000002022ACS                    Yangon        MMR11006291238440844450629000000000000000   10300002F05104100000000000000000000003000     
100   62343301016804170000000000010000000000010000002000000010410406291534550455500000000629000003857394   1030000900030000   333800010001202104000003301uab bank               Yangon        MMR11006291534550455500629000000000000000   10300004F05104100000000000000000000006000     
100   9503051890213859000000000000250000000000250000200000001041040629124125112579KCPG430629000003856841   1030000900030000   333400010001202104000002022ACS                    Yangon        MMR11006291241251125790629000000000000000   10300002F05104100000000000000000000001500     
100   62441900103709400000000000006000000000006000002000000010410406290953412341953937580629000003856325   1030000900030000   333400010001202104000002022ACS                    Yangon        MMR11006290953412341950629000000000000000   10300003F05104100000000000000000000003600     
100   62346600184652410000000000005000000000005000002000000010410406290549431943071023460629000003855033   1030000900030000   333400010001202104000002022ACS                    Yangon        MMR11006290549431943070629000000000000000   10300005F05104100000000000000000000003000     
100   9503051882089994000000000005020000000005020000200000001041040629095033203359X838AT0629000003856302   1030000900030000   333300010001202104000002659MSP                    Yangon        MMR11006290950332033590629000000000000000   10300002F05104100000000000000000000020000     
100   95031900045441610000000000014000000000014000002000000010410406290950332033626AF8BE0629000003856309   1030000900030000   333800010001202104000003301uab bank               Yangon        MMR11006290950332033620629000000000000000   10300014F05104100000000000000000000008400     
100   35710830900843270000000000035000000000035000002000000010410406290158572857699650210629000003854065   1030000900030000   333400010001202104000002022ACS                    Yangon        MMR11006290158572857690629000000000000000   10300003F05104100000000000000000000021000     
100   35710830677287990000000000010000000000010000002000000010410406291420435043825976890629000003857180   1030000900030000   333400010001202104000002022ACS                    Yangon        MMR11006291420435043820629000000000000000   10300003F05104100000000000000000000006000     
100   35710500176566360000000000010000000000010000002000000010410406291318218051080522550629913481921180   1030000900030000   581219000006190110000000004Jo Jo Hot Pot Junction YANGONUT      MMR11006291318218051080629000000000000000   10300005F00104100000000000000000000003400     
100   35710500193250160000000000005000000000005000002000000010410406291322538052822026700629947521953180   1030000900030000   591219000504190110000000351Shwe Ohh Pharmacy -6   YANGONAW      MMR11006291322538052820629000000000000000   10300005F00104100000000000000000000001500     
100   95031900011308400000000000001050000000001050002000000010410406290923567920774S58BE0629631531556180   1030000900030000   541119000114190110000000078Sein Gay Har Kan Thar  YANGONOKKALAP MMR11006290923567920770629000000000000000   10300014F00104100000000000000000000000210     
100   62346600120663670000000000002500000000002500002000000010410406291041027960520991540629938111702180   1030000900030000   541119000286190110000000177Pro1 Global (Insein)   YANGON        MMR11006291041027960520629000000000000000   10300005F00104100000000000000000000000500     
100   95031010500188770000000000005200000000005200002000000010410406291440081008981155310629000003857250   1030000900030000   333300010001202104000002659MSP                    Yangon        MMR11006291440081008980629000000000000000   10300005F05104100000000000000000000020000     
100   95050316231020800000000000018000000000018000002000000010410406291315284528224130700629000003856956   1030000900030000   333800010001202104000003301uab bank               Yangon        MMR11006291315284528220629000000000000000   10300001F05104100000000000000000000010800     
100   35710830549075130000000000005000000000005000002000000010410406290717434743987628790629000003855485   1030000900030000   333400010001202104000002022ACS                    Yangon        MMR11006290717434743980629000000000000000   10300003F05104100000000000000000000003000     
100   35710500390488610000000000024000000000024000002000000010410406290508447802312946710629203381144180   1030000900030000   591219000603190110000000443Shwe Ohh Pharmacy St-8 YANGON        MMR11006290508447802310629000000000000000   10300005F00104100000000000000000000007200     
100   35710830516086190000000000022550000000022550002000000010410406291345288061024308450629106152028180   1030000900030000   581219000004190110000000002Yoogane Korea Rest;(MP YANGON        MMR11006291345288061020629000000000000000   10300003F00104100000000000000000000007667     
100   35650973635405320000000000026565000000026565002000000010410406290920087918751532010629560501508180   1030000900030000   581219000280190110000000175Min Lan Restaurant (Ka YANGONARTAUNG MMR11006290920087918750629000000000000000   10300005F00104100000000000000000000015806     
100   35710500160552280000000000188100000000188100002000000010410406290503477800179054140629140331147180   1030000900030000   541119000288190110000000178Pro (1) Global (East D YANGONMYOTHIT MMR11006290503477800170629000000000000000   10300005F00104100000000000000000000037620     
100   62346600144264780000000000005000000000005000002000000010410406290412314231119301130629000003854533   1030000900030000   333400010001202104000002022ACS                    Yangon        MMR11006290412314231110629000000000000000   10300005F05104100000000000000000000003000     
100   95031202500264310000000000050000000000050000002000000010410406291452292229203333330629000003857292   1030000900030000   333800010001202104000003301uab bank               Yangon        MMR11006291452292229200629000000000000000   10300009F05104100000000000000000000030000     
100   62346600154261390000000000227000000000227000002000000010410406290238307744083304010629865080930180   1030000900030000   541119000286190110000000177Pro1 Global (Insein)   YANGON        MMR11006290238307744080629000000000000000   10300005F00104100000000000000000000045400     
100   35710500130124200000000000311300000000311300002000000010410406291309578047689362130629829391957180   1030000900030000   581219000369190110000000241Beauty In The Pot (PHS YANGON        MMR11006291309578047680629000000000000000   10300005F00104100000000000000000000105842     
100   62346600144264780000000000005000000000005000002000000010410406290417174717225952660629000003854565   1030000900030000   333400010001202104000002022ACS                    Yangon        MMR11006290417174717220629000000000000000   10300005F05104100000000000000000000003000     
100   9503051880634452000000000008725000000008725000200000001041040629073321786518JYZ4GV0629891031421180   1030000900030000   541119000144190110000000083SeinGayHarParami Cente YANGON        MMR11006290733217865180629000000000000000   10300002F00104100000000000000000000017450     
100   9503051883184307000000000004145000000004145000200000001041040629073444786589OZPFJ60629915041444180   1030000900030000   591219000500190110000000347Shwe Ohh Pharmacy -2   YANGONUNG     MMR11006290734447865890629000000000000000   10300002F00104100000000000000000000012435     
100   95030518807122170000000000326950000000326950002000000010410406290735247866158VYGGG0629924051424180   1030000900030000   541119000080190110000000057Pro (1) Global (Tampaw MANDALAYHARSI MMR11006290735247866150629000000000000000   10300002F00104100000000000000000000065390     
100   9503051881403402000000000007140000000007140000200000001041040629124201803499U4GLCY0629486121901180   1030000900030000   581219000032190110000000040Hot Pot King Time City YANGONUT      MMR11006291242018034990629000000000000000   10300002F00104100000000000000000000024276     
100   95031900008392010000000000015393000000015393002000000010410406291254578041175NS0CE0629657241957180   1030000900030000   581219000372190110000000244Jo Jo HotPot(CapitalHy YANGONA       MMR11006291254578041170629000000000000000   10300014F00104100000000000000000000005234     
100   35710830600915830000000000016380000000016380002000000010410406291259488043374227810629726291948180   1030000900030000   581219000280190110000000175Min Lan Restaurant (Ka YANGONARTAUNG MMR11006291259488043370629000000000000000   10300003F00104100000000000000000000005569     
100   35710500110263800000000000145900000000145900002000000010410406290611257828839504080629895411225180   1030000900030000   591219000608190110000000448Shwe Ohh Pharmacy St-2 YANGON        MMR11006290611257828830629000000000000000   10300005F00104100000000000000000000043770     
100   9503051881617530000000000001584000000001584000200000001041040629080329787977Z5SMGE0629358331429180   1030000900030000   581219000371190110000000243Jo Jo Hot Pot (Junctio YANGONN       MMR11006290803297879770629000000000000000   10300002F00104100000000000000000000005386     
100   35710830434983270000000000007200000000007200002000000010410406290804207880247841940629371341420180   1030000900030000   541119000117190110000000078Sein Gay Har Kan Thar  YANGONOKKALAP MMR11006290804207880240629000000000000000   10300003F00104100000000000000000000001440     
100   9503051872321589000000000005990000000005990000200000001041040629092411792094XKQ5EB0629636541511180   1030000900030000   594419000549190110000000396Yangoods (City Mall)   YANGONAW      MMR11006290924117920940629000000000000000   10300002F00104100000000000000000000017970     
100   35710500320488500000000000003600000000003600002000000010410406290924227921032927660629641541522180   1030000900030000   541119000282190110000000177Pro1 Global (Insein)   YANGON        MMR11006290924227921030629000000000000000   10300005F00104100000000000000000000000720     
100   35710500310407180000000000078500000000078500002000000010410406290925357921697069790629666551535180   1030000900030000   541119000286190110000000177Pro1 Global (Insein)   YANGON        MMR11006290925357921690629000000000000000   10300005F00104100000000000000000000015700     
100   9503051895063879000000000005320000000005320000200000001041040629092637792229HUJSBO0629681561537180   1030000900030000   541119000286190110000000177Pro1 Global (Insein)   YANGON        MMR11006290926377922290629000000000000000   10300002F00104100000000000000000000010640     
100   62443000103765950000000000005000000000005000002000000010410406290544461446591682370629000003855013   1030000900030000   333400010001202104000002022ACS                    Yangon        MMR11006290544461446590629000000000000000   10300005F05104100000000000000000000003000     
100   950319000029221100000000002010000000002010000020000000104104062903013131310765W4BE0629000003854192   1030000900030000   333800010001202104000003301uab bank               Yangon        MMR11006290301313131070629000000000000000   10300014F05104100000000000000000000120600     
100   62921400016838930000000000020000000000020000002000000010410406290927525752073333330629000003856203   1030000900030000   333800010001202104000003301uab bank               Yangon        MMR11006290927525752070629000000000000000   10300009F05104100000000000000000000012000     
100   62921400046626470000000000050000000000050000002000000010410406290415054505193333330629000003854545   1030000900030000   333800010001202104000003301uab bank               Yangon        MMR11006290415054505190629000000000000000   10300009F05104100000000000000000000030000     
100   95031900006694830000000000088600000000088600002000000010410406291019047948521ST8BE0629514491604180   1030000900030000   541119000283190110000000177Pro1 Global (Insein)   YANGON        MMR11006291019047948520629000000000000000   10300014F00104100000000000000000000017720     
100   95030800024922590000000000746031000000746031002000000010410406291045427963195643980629045151742180   1030000900030000   541119000321190110000000203Ikon Mart              YANGONUNG     MMR11006291045427963190629000000000000000   10300003F00104100000000000000000000149206     
100   35710500390390270000000000035000000000035000002000000010410406290709233923383356280629000003855443   1030000900030000   333400010001202104000002022ACS                    Yangon        MMR11006290709233923380629000000000000000   10300005F05104100000000000000000000021000     
100   9503051897450348000000000006940000000006940000200000001041040629084509790066CKFD2D0629012151509180   1030000900030000   541119000376190110000000178Pro (1) Global (East D YANGONMYOTHIT MMR11006290845097900660629000000000000000   10300002F00104100000000000000000000013880     
100   35710500173976450000000000035000000000035000002000000010410406290921235123132672360629000003856178   1030000900030000   333400010001202104000002022ACS                    Yangon        MMR11006290921235123130629000000000000000   10300005F05104100000000000000000000021000     
100   95030801780114790000000000009000000000009000002000000010410406290615367830967054590629976451236180   1030000900030000   599919000638190110000000469MIEVIC Store           YANGONUT      MMR11006290615367830960629000000000000000   10300003F00104100000000000000000000002700     
100   62441900003850230000000000010000000000010000002000000010410406291058422842532936610629000003856575   1030000900030000   333400010001202104000002022ACS                    Yangon        MMR11006291058422842530629000000000000000   10300003F05104100000000000000000000006000     
100   35710950114256110000000000005000000000005000002000000010410406291431100110644987660629000003857219   1030000900030000   333400010001202104000002022ACS                    Yangon        MMR11006291431100110640629000000000000000   10300003F05104100000000000000000000003000     
100   35710830518247030000000000004000000000004000002000000010410406290547101710297050480629000003855022   1030000900030000   333400010001202104000002022ACS                    Yangon        MMR11006290547101710290629000000000000000   10300003F05104100000000000000000000002400     
100   62921400072415220000000000010000000000010000002000000010410406290302453245013333330629000003854199   1030000900030000   333400010001202104000002022ACS                    Yangon        MMR11006290302453245010629000000000000000   10300009F05104100000000000000000000006000     
100   35710830762580440000000000034500000000034500002000000010410406290612117829193760710629910421211180   1030000900030000   581219000278190110000000173MAI SOONG KHA          YANGONARTAUNG MMR11006290612117829190629000000000000000   10300003F00104100000000000000000000011730     
100   9503051020753527000000000003000000000003000000200000001041040629061322782978W4T8CB0629938431222180   1030000900030000   594419000631190110000000462Shwe San Eain GemsTime YANGONUT      MMR11006290613227829780629000000000000000   10300002F00104100000000000000000000009000     
100   9503051890154210000000000000625000000000625000200000001041040629061335782994WI6BJK0629940431235180   1030000900030000   591219000502190110000000349Shwe Ohh Pharmacy -4   YANGON        MMR11006290613357829940629000000000000000   10300002F00104100000000000000000000001875     
100   35710830714432450000000000021000000000021000002000000010410406290958427938552510110629201281642180   1030000900030000   569119000309190110000000191Fashmob Fashion        YANGON        MMR11006290958427938550629000000000000000   10300003F00104100000000000000000000006300     
100   35710500370120340000000000030600000000030600002000000010410406291005337941802703080629300351633180   1030000900030000   541119000286190110000000177Pro1 Global (Insein)   YANGON        MMR11006291005337941800629000000000000000   10300005F00104100000000000000000000006120     
100   35710830662797780000000000020450000000020450002000000010410406290609017827663760150629855391201180   1030000900030000   581219000205190110000000107Canton Paradise        YANGON        MMR11006290609017827660629000000000000000   10300003F00104100000000000000000000006953     
100   35710500163828040000000000031000000000031000002000000010410406290609327827956157730629868391232180   1030000900030000   551119000291190110000000179Wun Yan Kha Car Auto S YANGON        MMR11006290609327827950629000000000000000   10300005F00104100000000000000000000009300     
100   35710830438120550000000000031850000000031850002000000010410406290610037828211138210629873401203180   1030000900030000   591219000694190110000000525Shwe Ohh Pharmacy ST-2 YANGONAW      MMR11006290610037828210629000000000000000   10300003F00104100000000000000000000009555     
100   95031900011460930000000000017000000000017000002000000010410406290200277730426EC4BE0629587300827180   1030000900030000   554119000344190110000000211New Day Energy - 1     YANGONUNG     MMR11006290200277730420629000000000000000   10300014F00104100000000000000000000002550     
100   35710830615468820000000000063450000000063450002000000010410406290443047791943409560629956131104180   1030000900030000   591219000506190110000000353Shwe Ohh Pharmacy -8   YANGON        MMR11006290443047791940629000000000000000   10300003F00104100000000000000000000019035     
100   9503051896030323000000000014500000000014500000200000001041040629045426779627JOYCLT0629049241126180   1030000900030000   594419000631190110000000462Shwe San Eain GemsTime YANGONUT      MMR11006290454267796270629000000000000000   10300002F00104100000000000000000000043500     
100   35710500195705460000000000017800000000017800002000000010410406290653557847747990710629420231355180   1030000900030000   541119000168190110000000085SeinGayHar (Dagon Cent YANGONUNG     MMR11006290653557847740629000000000000000   10300005F00104100000000000000000000003560     
100   9503051019970405000000000002800000000002800000200000001041040629065538784856NLYI7F0629443251338180   1030000900030000   481219000030190110000000029I Sure Apple Service C YANGONUT      MMR11006290655387848560629000000000000000   10300002F00104100000000000000000000008400     
100   9503051886628912000000000014500000000014500000200000001041040629080602788102UAOE3A0629383361402180   1030000900030000   541119000282190110000000177Pro1 Global (Insein)   YANGON        MMR11006290806027881020629000000000000000   10300002F00104100000000000000000000029000     
100   35710500113937230000000000053220000000053220002000000010410406291324218053395592680629958541921180   1030000900030000   581219000719190110000000550Chilli Pot Mala Xiang  YANGON        MMR11006291324218053390629000000000000000   10300005F00104100000000000000000000018095     
100   95030518918528120000000000025450000000025450002000000010410406291325598053943FFG5F0629967551959180   1030000900030000   599919000188190110000000092119 Fashion (Sanchaung YANGONUNG     MMR11006291325598053940629000000000000000   10300002F00104100000000000000000000007635     
100   35650883620006020000000000034450000000034450002000000010410406290720117859487827400629742501311180   1030000900030000   541119000144190110000000083SeinGayHarParami Cente YANGON        MMR11006290720117859480629000000000000000   10300005F00104100000000000000000000012057     
100   95031900008244350000000000030200000000030200002000000010410406290833340334811KT7BE0629000003855932   1030000900030000   333300010001202104000002717Near Me Android        Yangon        MMR11006290833340334810629000000000000000   10300014F05104100000000000000000000020000     
100   95031020800002320000000000013000000000013000002000000010410406290635160516470805670629000003855277   1030000900030000   333400010001202104000002022ACS                    Yangon        MMR11006290635160516470629000000000000000   10300005F05104100000000000000000000007800     
100   62921400046626470000000000050000000000050000002000000010410406290404063406783333330629000003854491   1030000900030000   333800010001202104000003301uab bank               Yangon        MMR11006290404063406780629000000000000000   10300009F05104100000000000000000000030000     
100   9503051889264517000000000001600000000001600000200000001041040629080817788194CEIFOU0629420381417180   1030000900030000   541119000377190110000000356Fuji Shopping Center ( MANDALAYHARSI MMR11006290808177881940629000000000000000   10300002F00104100000000000000000000003200     
100   950319000439701600000000000030000000000030000020000000104104062906190149017855C6BE0629000003855174   1030000900030000   333400010001202104000002022ACS                    Yangon        MMR11006290619014901780629000000000000000   10300014F05104100000000000000000000001800     
100   62346600141468450000000000009000000000009000002000000010410406290936577928000089540629884061657180   1030000900030000   729819000533190110000000381Artists Nail Spa & Aca YANGON        MMR11006290936577928000629000000000000000   10300005F00104100000000000000000000002700     
100   35710830677287990000000000005000000000005000002000000010410406291417374737164986330629000003857150   1030000900030000   333400010001202104000002022ACS                    Yangon        MMR11006291417374737160629000000000000000   10300003F05104100000000000000000000003000     
100   95050319468370810000000000002500000000002500002000000010410406291244211421202648410629000003856858   1030000900030000   333400010001202104000002022ACS                    Yangon        MMR11006291244211421200629000000000000000   10300001F05104100000000000000000000001500     
100   35710900047714510000000000035000000000035000002000000010410406291356092609164309610629000003857085   1030000900030000   333400010001202104000002022ACS                    Yangon        MMR11006291356092609160629000000000000000   10300003F05104100000000000000000000021000     
100   9503051880460627000000000000250000000000250000200000001041040629015535253514MSWSYC0629000003854053   1030000900030000   333400010001202104000002022ACS                    Yangon        MMR11006290155352535140629000000000000000   10300002F05104100000000000000000000001500     
100   62921400052655490000000000005000000000005000002000000010410406291305343534363333330629000003856929   1030000900030000   333800010001202104000003301uab bank               Yangon        MMR11006291305343534360629000000000000000   10300009F05104100000000000000000000003000     
100   95030518807355720000000000002500000000002500002000000010410406290220115011428MZ0OK0629000003854103   1030000900030000   333400010001202104000002022ACS                    Yangon        MMR11006290220115011420629000000000000000   10300002F05104100000000000000000000001500     
100   95031900025399810000000000050200000000050200002000000010410406291529065906509XB1CE0629000003857382   1030000900030000   333300010001202104000002717Near Me Android        Yangon        MMR11006291529065906500629000000000000000   10300014F05104100000000000000000000020000     
100   95030518892645170000000000010000000000010000002000000010410406290355597773992DU1YH0629561251059180   1030000900030000   541119000377190110000000356Fuji Shopping Center ( MANDALAYHARSI MMR11006290355597773990629000000000000000   10300002F00104100000000000000000000002000     
100   95030518847760930000000000027900000000027900002000000010410406290400297775634LGVIC0629597301029180   1030000900030000   591219000688190110000000519Shwe Ohh Pharmacy ST-7 YANGONUNG     MMR11006290400297775630629000000000000000   10300002F00104100000000000000000000008370     
100   9503051020051369000000000008260000000008260000200000001041040629133009805546L9VQLU0629994002009180   1030000900030000   591219000503190110000000350Shwe Ohh Pharmacy (WZD YANGONNGKUUN  MMR11006291330098055460629000000000000000   10300002F00104100000000000000000000024780     
100   35710830171733850000000000450000000000450000002000000010410406291547181718356433890629000003857420   1030000900030000   333800010001202104000003301uab bank               Yangon        MMR11006291547181718350629000000000000000   10300003F05104100000000000000000000270000     
100   35710830261355240000000000010000000000010000002000000010410406290851432143756460560629000003856035   1030000900030000   333400010001202104000002022ACS                    Yangon        MMR11006290851432143750629000000000000000   10300003F05104100000000000000000000006000     
100   950319000157937600000000000152000000000152000020000000104104062903070237029187X4BE0629000003854214   1030000900030000   333300010001202104000002717Near Me Android        Yangon        MMR11006290307023702910629000000000000000   10300014F05104100000000000000000000020000     
100   95050317915469510000000000050000000000050000002000000010410406291306073607863875410629000003856932   1030000900030000   333800010001202104000003301uab bank               Yangon        MMR11006291306073607860629000000000000000   10300001F05104100000000000000000000030000     
100   9503051874142066000000000010035000000010035000200000001041040629050621780125VGVEIA0629178361121180   1030000900030000   541119000077190110000000056Pro (1) Global-TheikPa MANDALAYHARSI MMR11006290506217801250629000000000000000   10300002F00104100000000000000000000020070     
100   62346600113379910000000000026000000000026000002000000010410406290508017802005839990629193381101180   1030000900030000   541119000286190110000000177Pro1 Global (Insein)   YANGON        MMR11006290508017802000629000000000000000   10300005F00104100000000000000000000005200     
100   35710950240207550000000000096200000000096200002000000010410406290658517849923755070629470281351180   1030000900030000   599919000412190110000000276Amazing One (Junction  YANGONN       MMR11006290658517849920629000000000000000   10300003F00104100000000000000000000028860     
100   35710500156373560000000000761650000000761650002000000010410406290404177777253564020629637341017180   1030000900030000   541119000289190110000000178Pro (1) Global (East D YANGONMYOTHIT MMR11006290404177777250629000000000000000   10300005F00104100000000000000000000152330     
100   95051010157114730000000000010000000000010000002000000010410406290828085808752207880629000003855896   1030000900030000   333400010001202104000002022ACS                    Yangon        MMR11006290828085808750629000000000000000   10300005F05104100000000000000000000006000     
100   62346600141801090000000000007500000000007500002000000010410406291259508043409732460629728291950180   1030000900030000   541119000331190110000000206Muditar Supermarket    YANGON        MMR11006291259508043400629000000000000000   10300005F00104100000000000000000000001500     
100   9503051889506115000000000004505000000004505000200000001041040629130259804491SYPBGH0629767321959180   1030000900030000   569919000555190110000000402D & C Myanmar (MP)     YANGON        MMR11006291302598044910629000000000000000   10300002F00104100000000000000000000013515     
100   9503051888006265000000000000950000000000950000200000001041040629084006789825IFIGAQ0629937101506180   1030000900030000   569119000655190110000000486High Cultured Fashion  YANGONUT      MMR11006290840067898250629000000000000000   10300002F00104100000000000000000000002850     
100   9503051887408496000000000005220000000005220000200000001041040629084105789875GCRNBF0629954111505180   1030000900030000   597719000530190110000000378Mon Cosmetic (1)       MANDALAYHARSA MMR11006290841057898750629000000000000000   10300002F00104100000000000000000000015660     
100   95030518894157620000000000021100000000021100002000000010410406291006157942154OAULV0629311361615180   1030000900030000   581219000093190110000000067BOBA House             YANGONUT      MMR11006291006157942150629000000000000000   10300002F00104100000000000000000000007174     
100   35710830080456420000000000982000000000982000002000000010410406291007287942875640340629334371628180   1030000900030000   594419000454190110000000307Shwe San Eain (Junctio YANGONN       MMR11006291007287942870629000000000000000   10300003F00104100000000000000000000294600     
100   35710500156156340000000000018500000000018500002000000010410406290706237853210128300629553361323180   1030000900030000   591219000690190110000000521Shwe Ohh Pharmacy ST-1 YANGONAUNG    MMR11006290706237853210629000000000000000   10300005F00104100000000000000000000005550     
100   62346600137910880000000000128000000000128000002000000010410406290706577853495024880629566361357180   1030000900030000   599919000569190110000000251Pro (1) Global (MawlaM MONLAMYAING   MMR11006290706577853490629000000000000000   10300005F00104100000000000000000000038400     
100   35710830444526200000000000030700000000030700002000000010410406290708257854207840500629588381325180   1030000900030000   541119000286190110000000177Pro1 Global (Insein)   YANGON        MMR11006290708257854200629000000000000000   10300003F00104100000000000000000000006140     
100   35710500102090110000000000019550000000019550002000000010410406291047237964268046460629091171723180   1030000900030000   541119000286190110000000177Pro1 Global (Insein)   YANGON        MMR11006291047237964260629000000000000000   10300005F00104100000000000000000000003910     
100   9503051891200350000000000000690000000000690000200000001041040629104837796532AE4QPQ0629133181737180   1030000900030000   541119000124190110000000080Sein Gay Har BAK       YANGONADA     MMR11006291048377965320629000000000000000   10300002F00104100000000000000000000001380     
100   35710830938568460000000000023940000000023940002000000010410406291335308057555971230629039052030180   1030000900030000   581219000698190110000000529Pizzamaru Myanmar (San YANGONUNG     MMR11006291335308057550629000000000000000   10300003F00104100000000000000000000008140     
100   95030518910169050000000000176050000000176050002000000010410406291337088058121NJ7MA0629050072008180   1030000900030000   581219000205190110000000107Canton Paradise        YANGON        MMR11006291337088058120629000000000000000   10300002F00104100000000000000000000059857     
100   62346600148422600000000000003000000000003000002000000010410406290931457924865735830629771011645180   1030000900030000   541119000160190110000000084Pro (1) Global (Pazund YANGONARTAUNG MMR11006290931457924860629000000000000000   10300005F00104100000000000000000000000600     
100   9503051875992329000000000004650000000004650000200000001041040629101413794612XTKZMC0629440441613180   1030000900030000   541119000286190110000000177Pro1 Global (Insein)   YANGON        MMR11006291014137946120629000000000000000   10300002F00104100000000000000000000009300     
100   95050317915469510000000000035000000000035000002000000010410406291309593959005868280629000003856945   1030000900030000   333800010001202104000003301uab bank               Yangon        MMR11006291309593959000629000000000000000   10300001F05104100000000000000000000021000     
100   62346600106208680000000000035000000000035000002000000010410406291423475347636566850629000003857172   1030000900030000   333400010001202104000002022ACS                    Yangon        MMR11006291423475347630629000000000000000   10300005F05104100000000000000000000021000     
100   95030518806344520000000000017155000000017155002000000010410406290736037866495VTKL30629935061403180   1030000900030000   541119000144190110000000083SeinGayHarParami Cente YANGON        MMR11006290736037866490629000000000000000   10300002F00104100000000000000000000003431     
100   9503051885123907000000000052800000000052800000200000001041040629073834786754I7NBKP0629970081434180   1030000900030000   541119000061190110000000056Pro (1) Global-TheikPa MANDALAYHARSI MMR11006290738347867540629000000000000000   10300002F00104100000000000000000000105600     
100   95031900052900040000000000012900000000012900002000000010410406290841147898867FU7BE0629958111514180   1030000900030000   581219000031190110000000039Tom N Toms Coffee      YANGON        MMR11006290841147898860629000000000000000   10300014F00104100000000000000000000004386     
100   35710830902017230000000000020130000000020130002000000010410406290843327900046457020629994131532180   1030000900030000   581219000371190110000000243Jo Jo Hot Pot (Junctio YANGONN       MMR11006290843327900040629000000000000000   10300003F00104100000000000000000000006844     
100   35710950008719990000000000561263000000561263002000000010410406290848007902262085910629064181500180   1030000900030000   541119000159190110000000084Pro (1) Global (Pazund YANGONIKANAUN MMR11006290848007902260629000000000000000   10300003F00104100000000000000000000112253     
100   35710830740047470000000000001100000000001100002000000010410406290933087925678670320629799031608180   1030000900030000   541119000172190110000000085SeinGayHar (Dagon Cent YANGONUNG     MMR11006290933087925670629000000000000000   10300003F00104100000000000000000000000220     
100   9503051872821299000000000000700000000000700000200000001041040629043959095980XPESOD0629000003854680   1030000900030000   333400010001202104000002022ACS                    Yangon        MMR11006290439590959800629000000000000000   10300002F05104100000000000000000000004200     
100   95031900007698200000000000200200000000200200002000000010410406290541541154489036BE0629000003854997   1030000900030000   333300010001202104000002717Near Me Android        Yangon        MMR11006290541541154480629000000000000000   10300014F05104100000000000000000000020000     
100   62921400031417910000000000001000000000001000002000000010410406291501403140873333330629000003857315   1030000900030000   333800010001202104000003301uab bank               Yangon        MMR11006291501403140870629000000000000000   10300009F05104100000000000000000000000600     
100   95050319532433550000000000004000000000004000002000000010410406291416574657401130460629000003857164   1030000900030000   333800010001202104000003301uab bank               Yangon        MMR11006291416574657400629000000000000000   10300001F05104100000000000000000000002400     
100   62441900103117040000000000028100000000028100002000000010410406290246517747359831030629951160951180   1030000900030000   541119000374190110000000178Pro (1) Global (East D YANGONMYOTHIT MMR11006290246517747350629000000000000000   10300003F00104100000000000000000000009835     
100   35710950114256110000000000008000000000008000002000000010410406291425135513747580550629000003857202   1030000900030000   333400010001202104000002022ACS                    Yangon        MMR11006291425135513740629000000000000000   10300003F05104100000000000000000000004800     
100   35710830748627060000000000264000000000264000002000000010410406291055557969705646880629313251755180   1030000900030000   729819000333190110000000228Retro Fitness Club     YANGON        MMR11006291055557969700629000000000000000   10300003F00104100000000000000000000079200     
100   35710500122499240000000000040300000000040300002000000010410406291410298070238352200629277402029180   1030000900030000   541119000112190110000000077Sein Gay Har Chinatown YANGON        MMR11006291410298070230629000000000000000   10300005F00104100000000000000000000008060     
100   9503051881303842000000000005030000000005030000200000001041040629141203807079SAIMTM0629288422003180   1030000900030000   591219000601190110000000441Shwe Ohh Pharmacy St-3 YANGON        MMR11006291412038070790629000000000000000   10300002F00104100000000000000000000015090     
100   35710500360124230000000000020240000000020240002000000010410406291415158071738285570629296452015180   1030000900030000   581219000004190110000000002Yoogane Korea Rest;(MP YANGON        MMR11006291415158071730629000000000000000   10300005F00104100000000000000000000006882     
100   35710500361401410000000000265278000000265278002000000010410406291415218071771760740629298452021180   1030000900030000   701119000074190110000000024Lotte Hotel            YANGON        MMR11006291415218071770629000000000000000   10300005F00104100000000000000000000090194     
100   62343301000738530000000000005000000000005000002000000010410406291254502450050000000629000003856900   1030000900030000   333400010001202104000002022ACS                    Yangon        MMR11006291254502450050629000000000000000   10300004F05104100000000000000000000003000     
100   62921400097979920000000000005000000000005000002000000010410406290959092909293333330629000003856351   1030000900030000   333400010001202104000002022ACS                    Yangon        MMR11006290959092909290629000000000000000   10300009F05104100000000000000000000003000     
100   62343301006160990000000000005200000000005200002000000010410406290359182918590000000629000003854473   1030000900030000   333300010001202104000002659MSP                    Yangon        MMR11006290359182918590629000000000000000   10300004F05104100000000000000000000020000     
100   950319000051416800000000000350000000000350000020000000104104062913131843183981X0CE0629000003856953   1030000900030000   333400010001202104000002022ACS                    Yangon        MMR11006291313184318390629000000000000000   10300014F05104100000000000000000000021000     
100   35710500115225780000000000001950000000001950002000000010410406291056317970093798670629327261731180   1030000900030000   541119000300190110000000184Super One Shopping Mal YANGONTHARYA  MMR11006291056317970090629000000000000000   10300005F00104100000000000000000000000390     
100   35710830154592240000000000049750000000049750002000000010410406290810227882895795120629443401422180   1030000900030000   591219000502190110000000349Shwe Ohh Pharmacy -4   YANGON        MMR11006290810227882890629000000000000000   10300003F00104100000000000000000000014925     
100   9503051891239655000000000007650000000007650000200000001041040629093409792634RRSJW00629825041609180   1030000900030000   569919000555190110000000402D & C Myanmar (MP)     YANGON        MMR11006290934097926340629000000000000000   10300002F00104100000000000000000000022950     
100   62346600180840670000000000016200000000016200002000000010410406290936017927394124720629861061601180   1030000900030000   729819000533190110000000381Artists Nail Spa & Aca YANGON        MMR11006290936017927390629000000000000000   10300005F00104100000000000000000000004860     
100   35710830940937610000000000077800000000077800002000000010410406290941367930135304730629945111636180   1030000900030000   541119000283190110000000177Pro1 Global (Insein)   YANGON        MMR11006290941367930130629000000000000000   10300003F00104100000000000000000000015560     
100   62346600183322760000000000035000000000035000002000000010410406290702393239165093830629000003855421   1030000900030000   333400010001202104000002022ACS                    Yangon        MMR11006290702393239160629000000000000000   10300005F05104100000000000000000000021000     
100   35710830114609030000000000099500000000099500002000000010410406291419504950746229790629000003857174   1030000900030000   333400010001202104000002022ACS                    Yangon        MMR11006291419504950740629000000000000000   10300003F05104100000000000000000000059700     
100   62921400046626470000000000050000000000050000002000000010410406290411324132863333330629000003854524   1030000900030000   333800010001202104000003301uab bank               Yangon        MMR11006290411324132860629000000000000000   10300009F05104100000000000000000000030000     
100   35710830948517210000000000055250000000055250002000000010410406290413007780490435910629710431000180   1030000900030000   591219000501190110000000348Shwe Ohh Pharmacy (SmL YANGONUT      MMR11006290413007780490629000000000000000   10300003F00104100000000000000000000016575     
100   62346600190932990000000000074850000000074850002000000010410406290404537777447464670629639341053180   1030000900030000   599919000569190110000000251Pro (1) Global (MawlaM MONLAMYAING   MMR11006290404537777440629000000000000000   10300005F00104100000000000000000000022455     
100   35710500180679810000000000047722000000047722002000000010410406290740577868808997850629016101457180   1030000900030000   701119000561190110000000408Strand Hotel (MawLaMya MONLAMYAING   MMR11006290740577868800629000000000000000   10300005F00104100000000000000000000016226     
100   35650883620006020000000000012500000000012500002000000010410406290742357869651361040629042121435180   1030000900030000   541119000151190110000000083SeinGayHarParami Cente YANGON        MMR11006290742357869650629000000000000000   10300005F00104100000000000000000000004375     
100   9503051878471800000000000002240000000002240000200000001041040629074542787109PZS3GB0629086151442180   1030000900030000   581219000635190110000000466King BBQ Time City     YANGONUT      MMR11006290745427871090629000000000000000   10300002F00104100000000000000000000007616     
100   35710950312529120000000000067200000000067200002000000010410406291304238045433624300629777341923180   1030000900030000   592119000256190110000000151Htun Htun Oo Liquor (B YANGON        MMR11006291304238045430629000000000000000   10300003F00104100000000000000000000020160     
100   35710830127325080000000000018040000000018040002000000010410406291306588046393639710629792361958180   1030000900030000   581219000371190110000000243Jo Jo Hot Pot (Junctio YANGONN       MMR11006291306588046390629000000000000000   10300003F00104100000000000000000000006134     
100   62346600123411250000000000024300000000024300002000000010410406291416108072086231820629302462010180   1030000900030000   599919000055190110000000050119 Fashion Complex (K YANGONUT      MMR11006291416108072080629000000000000000   10300005F00104100000000000000000000007290     
001000000294                   106000420200630