000   10300009200701
100   62346600134578960000000000023000000000023000002000000010410407011238279259714381010701157081927182   1030000900030000   729819000390190110000000253The Glam Bar Beauty SP YANGONUNG     MMR11007011238279259710701000000000000000   10300005F00104100000000000000000000006900     
100   35710500180605800000000000002250000000002250002000000010410407011329009280776973420701719591900182   1030000900030000   591219000693190110000000524Shwe Ohh Pharmacy ST-2 YANGON        MMR11007011329009280770701000000000000000   10300005F00104100000000000000000000000675     
100   35710830296563100000000000010200000000010200002000000010410407011014084408106433430701000003864766   1030000900030000   333300010001202104000002717Near Me Android        Yangon        MMR11007011014084408100701000000000000000   10300003F05104100000000000000000000020000     
100   62622000715979890000000000010000000000010000002000000010410407011100209202369824170701929301720182   1030000900030000   581219000006190110000000004Jo Jo Hot Pot Junction YANGONUT      MMR11007011100209202360701000000000000000   10300006F00104100000000000000000000003400     
100   9503051884367612000000000004640000000004640000200000001041040701052919903337EKNVBO0701070591119182   1030000900030000   541119000283190110000000177Pro1 Global (Insein)   YANGON        MMR11007010529199033370701000000000000000   10300002F00104100000000000000000000009280     
100   35710500194209730000000000481000000000481000002000000010410407010537259037643955620701215071225182   1030000900030000   594419000706190110000000537Zwe Htet Gems & Jewell YANGONAW      MMR11007010537259037640701000000000000000   10300005F00104100000000000000000000144300     
100   35710500140596360000000000040500000000040500002000000010410407010538599038505267730701248081259182   1030000900030000   729819000218190110000000118Cherish Beauty Collect YANGONUNG     MMR11007010538599038500701000000000000000   10300005F00104100000000000000000000012150     
100   62346600111642880000000000052800000000052800002000000010410407010541189039587252520701284111218182   1030000900030000   541119000122190110000000080Sein Gay Har BAK       YANGONADA     MMR11007010541189039580701000000000000000   10300005F00104100000000000000000000010560     
100   35710500300094410000000000002850000000002850002000000010410407011118209214310855170701421481720182   1030000900030000   541119000114190110000000078Sein Gay Har Kan Thar  YANGONOKKALAP MMR11007011118209214310701000000000000000   10300005F00104100000000000000000000000570     
100   9503051886988027000000000001180000000001180000200000001041040701111925921497XSNHFO0701447491725182   1030000900030000   581219000031190110000000039Tom N Toms Coffee      YANGON        MMR11007011119259214970701000000000000000   10300002F00104100000000000000000000004012     
100   35710830319045750000000000010000000000010000002000000010410407011329335933546075640701000003865465   1030000900030000   333400010001202104000002022ACS                    Yangon        MMR11007011329335933540701000000000000000   10300003F05104100000000000000000000006000     
100   9503051019594015000000000001220000000001220000200000001041040701055648904742G3A82B0701552261248182   1030000900030000   541119000115190110000000078Sein Gay Har Kan Thar  YANGONOKKALAP MMR11007010556489047420701000000000000000   10300002F00104100000000000000000000002440     
100   9503051889852394000000000000495000000000495000200000001041040701055743904794RTQA5W0701571271243182   1030000900030000   541119000331190110000000206Muditar Supermarket    YANGON        MMR11007010557439047940701000000000000000   10300002F00104100000000000000000000000990     
100   9503051879522759000000000013825800000013825800200000001041040701055855904860ZACLSL0701597281255182   1030000900030000   541119000342190110000000209Ikon Mart (Mandalay)   MANDALAYTHARS MMR11007010558559048600701000000000000000   10300002F00104100000000000000000000027652     
100   9503051883888436000000000001310000000001310000200000001041040701102526918388YARUIU0701196551626182   1030000900030000   541119000286190110000000177Pro1 Global (Insein)   YANGON        MMR11007011025269183880701000000000000000   10300002F00104100000000000000000000002620     
100   62441900001323180000000000006400000000006400002000000010410407011029169184997928000701241591616182   1030000900030000   541119000114190110000000078Sein Gay Har Kan Thar  YANGONOKKALAP MMR11007011029169184990701000000000000000   10300003F00104100000000000000000000002240     
100   9503051897286114000000000001287000000001287000200000001041040701062751906102EJEN5D0701917571251182   1030000900030000   541119000144190110000000083SeinGayHarParami Cente YANGON        MMR11007010627519061020701000000000000000   10300002F00104100000000000000000000002574     
100   35710950479379690000000000012000000000012000002000000010410407010934009156145259710701203041600182   1030000900030000   592119000256190110000000151Htun Htun Oo Liquor (B YANGON        MMR11007010934009156140701000000000000000   10300003F00104100000000000000000000003600     
100   35710500371540260000000000300000000000300000002000000010410407010939359158730354480701292091635182   1030000900030000   481219000030190110000000029I Sure Apple Service C YANGONUT      MMR11007010939359158730701000000000000000   10300005F00104100000000000000000000090000     
100   95031900005439850000000000113545000000113545002000000010410407011044399192511S30FE0701528141739182   1030000900030000   541119000173190110000000086SeinGayHar (Hlaing Tha YANGONA       MMR11007011044399192510701000000000000000   10300014F00104100000000000000000000022709     
100   9503051877539870000000000000450000000000450000200000001041040701114259922963X7IKPP0701046121859182   1030000900030000   591219000688190110000000519Shwe Ohh Pharmacy ST-7 YANGONUNG     MMR11007011142599229630701000000000000000   10300002F00104100000000000000000000001350     
100   62441901001718770000000000127750000000127750002000000010410407011143559230157848190701065131855182   1030000900030000   591219000501190110000000348Shwe Ohh Pharmacy (SmL YANGONUT      MMR11007011143559230150701000000000000000   10300003F00104100000000000000000000053655     
100   95050311077567400000000000002300000000002300002000000010410407011146389231413979780701105161838182   1030000900030000   541119000141190110000000083SeinGayHarParami Cente YANGON        MMR11007011146389231410701000000000000000   10300001F00104100000000000000000000000805     
100   9503051898003435000000000005899000000005899000200000001041040701114647923151P40S940701109161847182   1030000900030000   541119000168190110000000085SeinGayHar (Dagon Cent YANGONUNG     MMR11007011146479231510701000000000000000   10300002F00104100000000000000000000011798     
100   35710500380567580000000000038295000000038295002000000010410407010901069139492262230701651311506182   1030000900030000   581219000423190110000000284BCC (SYS)              YANGON        MMR11007010901069139490701000000000000000   10300005F00104100000000000000000000013020     
100   35710830875690740000000000004510000000004510002000000010410407010648309071204647770701272181330182   1030000900030000   581219000371190110000000243Jo Jo Hot Pot (Junctio YANGONN       MMR11007010648309071200701000000000000000   10300003F00104100000000000000000000001534     
100   9503051020171704000000000002010000000002010000200000001041040701094802916391KATVSW0701486181602182   1030000900030000   541119000120190110000000080Sein Gay Har BAK       YANGONADA     MMR11007010948029163910701000000000000000   10300002F00104100000000000000000000004020     
100   35710500184647250000000000012300000000012300002000000010410407010948049163934550750701487181604182   1030000900030000   591219000502190110000000349Shwe Ohh Pharmacy -4   YANGON        MMR11007010948049163930701000000000000000   10300005F00104100000000000000000000003690     
100   35710500300937830000000000001500000000001500002000000010410407010949249164747380800701522191624182   1030000900030000   599919000638190110000000469MIEVIC Store           YANGONUT      MMR11007010949249164740701000000000000000   10300005F00104100000000000000000000000450     
100   35710500165889130000000000031200000000031200002000000010410407010950129165256542290701543201612182   1030000900030000   581219000294190110000000182Kou Fu Restaurant (May YANGON        MMR11007010950129165250701000000000000000   10300005F00104100000000000000000000010608     
100   62443001769571880000000001800000000001800000002000000010410407010950499165592301270701554201649182   1030000900030000   481219000711190110000000542I Sure Technology Co., MANDALAYHARSA MMR11007010950499165590701000000000000000   10300005F00104100000000000000000000756000     
100   35710500360360830000000000008690000000008690002000000010410407011238579259991620040701166081957182   1030000900030000   581219000371190110000000243Jo Jo Hot Pot (Junctio YANGONN       MMR11007011238579259990701000000000000000   10300005F00104100000000000000000000002955     
100   62622000725056760000000000013750000000013750002000000010410407011034479187039884550701316041747182   1030000900030000   591219000607190110000000447Shwe Ohh Pharmacy St-3 YANGONINDAING MMR11007011034479187030701000000000000000   10300006F00104100000000000000000000004125     
100   62346600133565850000000000010500000000010500002000000010410407011256099267973710680701413261909182   1030000900030000   591219000693190110000000524Shwe Ohh Pharmacy ST-2 YANGON        MMR11007011256099267970701000000000000000   10300005F00104100000000000000000000003150     
100   95051010155003480000000000059300000000059300002000000010410407011215139246589357960701626451813182   1030000900030000   591219000601190110000000441Shwe Ohh Pharmacy St-3 YANGON        MMR11007011215139246580701000000000000000   10300005F00104100000000000000000000024906     
100   35710500103940030000000000013090000000013090002000000010410407011219459248964549700701714491845182   1030000900030000   581219000006190110000000004Jo Jo Hot Pot Junction YANGONUT      MMR11007011219459248960701000000000000000   10300005F00104100000000000000000000004451     
100   35710500110942140000000000259000000000259000002000000010410407011219589249127953560701723491858182   1030000900030000   481219000210190110000000112Xiaomi Mobile Shop(Lat YANGON        MMR11007011219589249120701000000000000000   10300005F00104100000000000000000000077700     
100   95050328927954140000000000091450000000091450002000000010410407011220279249458100060701738501827182   1030000900030000   591219000499190110000000346Shwe Ohh Pharmacy -1   YANGON        MMR11007011220279249450701000000000000000   10300001F00104100000000000000000000038409     
100   62346600184729320000000000011550000000011550002000000010410407011221229250054590210701761511822182   1030000900030000   581219000006190110000000004Jo Jo Hot Pot Junction YANGONUT      MMR11007011221229250050701000000000000000   10300005F00104100000000000000000000003927     
100   9503051874234392000000000090000000000090000000200000001041040701045328901565ZSQB6Y0701498231128182   1030000900030000   594419000631190110000000462Shwe San Eain GemsTime YANGONUT      MMR11007010453289015650701000000000000000   10300002F00104100000000000000000000270000     
100   9503051887473516000000000001600000000001600000200000001041040701133514928329GDANRG0701776052014182   1030000900030000   541119000123190110000000080Sein Gay Har BAK       YANGON        MMR11007011335149283290701000000000000000   10300002F00104100000000000000000000003200     
100   95030800020036760000000000032000000000032000002000000010410407010752549104648664370701436221454182   1030000900030000   541119000124190110000000080Sein Gay Har BAK       YANGONADA     MMR11007010752549104640701000000000000000   10300003F00104100000000000000000000006400     
100   62346600129314120000000001420000000001420000002000000010410407010319098967700809470701858490909182   1030000900030000   541119000289190110000000178Pro (1) Global (East D YANGONMYOTHIT MMR11007010319098967700701000000000000000   10300005F00104100000000000000000000284000     
100   9503051888288749000000000007705000000007705000200000001041040701123928926029JLGUN00701176091928182   1030000900030000   581219000590190110000000430The Tea Club           YANGON        MMR11007011239289260290701000000000000000   10300002F00104100000000000000000000026197     
100   9503051873563023000000000003500000000003500000200000001041040701064529152920ZA7UID0701000003863629   1030000900030000   333400010001202104000002022ACS                    Yangon        MMR11007010645291529200701000000000000000   10300002F05104100000000000000000000021000     
100   62921400076367390000000000005000000000005000002000000010410407010449071907403333330701000003862913   1030000900030000   333400010001202104000002022ACS                    Yangon        MMR11007010449071907400701000000000000000   10300009F05104100000000000000000000003000     
100   35650883670001930000000000031550000000031550002000000010410407010546579042022811290701345161257182   1030000900030000   541119000374190110000000178Pro (1) Global (East D YANGONMYOTHIT MMR11007010546579042020701000000000000000   10300005F00104100000000000000000000011042     
100   35710500380655510000000000240000000000240000002000000010410407011012389176665390510701925421638182   1030000900030000   481219000030190110000000029I Sure Apple Service C YANGONUT      MMR11007011012389176660701000000000000000   10300005F00104100000000000000000000072000     
100   95031010200518910000000000035000000000035000002000000010410407010307023702272180150701000003862222   1030000900030000   333400010001202104000002022ACS                    Yangon        MMR11007010307023702270701000000000000000   10300005F05104100000000000000000000021000     
100   62921400017727380000000000005000000000005000002000000010410407010315564556913333330701000003862270   1030000900030000   333400010001202104000002022ACS                    Yangon        MMR11007010315564556910701000000000000000   10300009F05104100000000000000000000003000     
100   35710830440402190000000000021950000000021950002000000010410407010834049125353847060701146041504182   1030000900030000   591219000505190110000000352Shwe Ohh Pharmacy (THU YANGON        MMR11007010834049125350701000000000000000   10300003F00104100000000000000000000006585     
100   62622000651322310000000000015500000000015500002000000010410407010835289126049884280701171051528182   1030000900030000   599519000611190110000000451Puppy Paradise         YANGON        MMR11007010835289126040701000000000000000   10300006F00104100000000000000000000004650     
100   9503051883962827000000000002415000000002415000200000001041040701083800912744VHYDF50701214081500182   1030000900030000   541119000115190110000000078Sein Gay Har Kan Thar  YANGONOKKALAP MMR11007010838009127440701000000000000000   10300002F00104100000000000000000000004830     
100   35710500153109540000000000004950000000004950002000000010410407011126519219380423970701625561751182   1030000900030000   591219000694190110000000525Shwe Ohh Pharmacy ST-2 YANGONAW      MMR11007011126519219380701000000000000000   10300005F00104100000000000000000000001485     
100   62443001703006250000000000011000000000011000002000000010410407010940179159192920130701306101617182   1030000900030000   541119000286190110000000177Pro1 Global (Insein)   YANGON        MMR11007010940179159190701000000000000000   10300005F00104100000000000000000000003850     
100   9503051889811689000000000030750000000030750000200000001041040701040917899464N2GM8E0701855391017182   1030000900030000   541119000159190110000000084Pro (1) Global (Pazund YANGONIKANAUN MMR11007010409178994640701000000000000000   10300002F00104100000000000000000000061500     
100   35710500331421240000000000015000000000015000002000000010410407011150579233819816520701178201857182   1030000900030000   541119000318190110000000200Amazing Mart (No.1 Ind YANGON        MMR11007011150579233810701000000000000000   10300005F00104100000000000000000000003000     
100   9503051892670031000000000000325000000000325000200000001041040701115637923697ZOD42A0701307261837182   1030000900030000   541119000331190110000000206Muditar Supermarket    YANGON        MMR11007011156379236970701000000000000000   10300002F00104100000000000000000000000650     
100   35710830457324260000000000157300000000157300002000000010410407011157119237280501200701319271811182   1030000900030000   581219000294190110000000182Kou Fu Restaurant (May YANGON        MMR11007011157119237280701000000000000000   10300003F00104100000000000000000000053482     
100   62346600124700640000000000010000000000010000002000000010410407011219094909479171630701000003865229   1030000900030000   333400010001202104000002022ACS                    Yangon        MMR11007011219094909470701000000000000000   10300005F05104100000000000000000000006000     
100   9503051020150583000000000011850000000011850000200000001041040701050702902269DA2QSU0701728371102182   1030000900030000   594419000631190110000000462Shwe San Eain GemsTime YANGONUT      MMR11007010507029022690701000000000000000   10300002F00104100000000000000000000035550     
100   35710500141567390000000000004300000000004300002000000010410407011144459230526782990701075141845182   1030000900030000   599919000187190110000000091119 Fashion Complex (L YANGON        MMR11007011144459230520701000000000000000   10300005F00104100000000000000000000001290     
100   62921400059950870000000000005000000000005000002000000010410407010213274327503333330701000003862017   1030000900030000   333400010001202104000002022ACS                    Yangon        MMR11007010213274327500701000000000000000   10300009F05104100000000000000000000003000     
100   35650880360000200000000000007000000000007000002000000010410407010820145014826964160701000003864181   1030000900030000   333400010001202104000002022ACS                    Yangon        MMR11007010820145014820701000000000000000   10300005F05104100000000000000000000004200     
100   35710830977160530000000000182600000000182600002000000010410407010818259117844802730701904481425182   1030000900030000   541119000283190110000000177Pro1 Global (Insein)   YANGON        MMR11007010818259117840701000000000000000   10300003F00104100000000000000000000036520     
100   95031900002973270000000000018883000000018883002000000010410407010559069048681AZ6EE0701600291206182   1030000900030000   581219000719190110000000550Chilli Pot Mala Xiang  YANGON        MMR11007010559069048680701000000000000000   10300014F00104100000000000000000000006420     
100   95030800025784380000000000542500000000542500002000000010410407010601279049846928100701631311227182   1030000900030000   594419000454190110000000307Shwe San Eain (Junctio YANGONN       MMR11007010601279049840701000000000000000   10300003F00104100000000000000000000162750     
100   9503051893765749000000000002830000000002830000200000001041040701092326915048UG7LWW0701998531526182   1030000900030000   599919000055190110000000050119 Fashion Complex (K YANGONUT      MMR11007010923269150480701000000000000000   10300002F00104100000000000000000000008490     
100   62444500100130920000000000030000000000030000002000000010410407010925309151589788810701045551530182   1030000900030000   581219000653190110000000484Jazz Cafe (TC)         YANGONUT      MMR11007010925309151580701000000000000000   10300002F00104100000000000000000000017850     
100   95030518837094180000000000047500000000047500002000000010410407010925479151796KFNB30701053551547182   1030000900030000   599919000569190110000000251Pro (1) Global (MawlaM MONLAMYAING   MMR11007010925479151790701000000000000000   10300002F00104100000000000000000000014250     
100   9503051873101568000000000094000000000094000000200000001041040701093005915399XGOKWS0701138001605182   1030000900030000   481219000030190110000000029I Sure Apple Service C YANGONUT      MMR11007010930059153990701000000000000000   10300002F00104100000000000000000000282000     
100   35710500133555140000000000028870000000028870002000000010410407011036229187573955890701329061722182   1030000900030000   541119000159190110000000084Pro (1) Global (Pazund YANGONIKANAUN MMR11007011036229187570701000000000000000   10300005F00104100000000000000000000005774     
100   35710500140152080000000000015850000000015850002000000010410407011210039243877677900701531401803182   1030000900030000   541119000172190110000000085SeinGayHar (Dagon Cent YANGONUNG     MMR11007011210039243870701000000000000000   10300005F00104100000000000000000000003170     
100   950305187650001400000000000130000000000130000020000000104104070101352705270453JF7X0701000003861897   1030000900030000   333400010001202104000002022ACS                    Yangon        MMR11007010135270527040701000000000000000   10300002F05104100000000000000000000007800     
100   35710830252969390000000000014778000000014778002000000010410407010815569116604798380701860451456182   1030000900030000   581219000307190110000000189BCC (KTY)              YANGONARTAUNG MMR11007010815569116600701000000000000000   10300003F00104100000000000000000000005024     
100   35710500141527040000000000022550000000022550002000000010410407011250419265523987830701333201941182   1030000900030000   581219000004190110000000002Yoogane Korea Rest;(MP YANGON        MMR11007011250419265520701000000000000000   10300005F00104100000000000000000000007667     
100   95031010220306460000000000187000000000187000002000000010410407010606153615382287930701000003863409   1030000900030000   333300010001202104000002717Near Me Android        Yangon        MMR11007010606153615380701000000000000000   10300005F05104100000000000000000000020000     
100   62343301017227140000000000035000000000035000002000000010410407011306493649370000000701000003865371   1030000900030000   333400010001202104000002022ACS                    Yangon        MMR11007011306493649370701000000000000000   10300004F05104100000000000000000000021000     
100   62443000803009700000000000051250000000051250002000000010410407011218039248002108630701673481803182   1030000900030000   541119000172190110000000085SeinGayHar (Dagon Cent YANGONUNG     MMR11007011218039248000701000000000000000   10300005F00104100000000000000000000017937     
100   35710950251575980000000000030200000000030200002000000010410407011351022102755653190701000003865544   1030000900030000   333300010001202104000002717Near Me Android        Yangon        MMR11007011351022102750701000000000000000   10300003F05104100000000000000000000020000     
100   62443001760056080000000000084550000000084550002000000010410407010416118997426464060701913461011182   1030000900030000   591219000506190110000000353Shwe Ohh Pharmacy -8   YANGON        MMR11007010416118997420701000000000000000   10300005F00104100000000000000000000035511     
100   95031100014172860000000000056000000000056000002000000010410407010729099092029845170701983591309182   1030000900030000   541119000080190110000000057Pro (1) Global (Tampaw MANDALAYHARSI MMR11007010729099092020701000000000000000   10300006F00104100000000000000000000011200     
100   62346600112605240000000000510000000000510000002000000010410407010730079092459067120701994001407182   1030000900030000   481219000030190110000000029I Sure Apple Service C YANGONUT      MMR11007010730079092450701000000000000000   10300005F00104100000000000000000000153000     
100   35710500123028480000000000025000000000025000002000000010410407011316399275904634450701596461939182   1030000900030000   591219000502190110000000349Shwe Ohh Pharmacy -4   YANGON        MMR11007011316399275900701000000000000000   10300005F00104100000000000000000000007500     
100   9503051020884520000000000005108300000005108300200000001041040701131943927712ZNSV7H0701618491943182   1030000900030000   701119000075190110000000024Lotte Hotel            YANGON        MMR11007011319439277120701000000000000000   10300002F00104100000000000000000000017368     
100   35710500320670740000000000030000000000030000002000000010410407011403389293366429550701958332038182   1030000900030000   591219000503190110000000350Shwe Ohh Pharmacy (WZD YANGONNGKUUN  MMR11007011403389293360701000000000000000   10300005F00104100000000000000000000009000     
100   9503051887368948000000000009475000000009475000200000001041040701140429929375BNG8CM0701970342029182   1030000900030000   581219000368190110000000241Beauty In The Pot (PHS YANGON        MMR11007011404299293750701000000000000000   10300002F00104100000000000000000000032215     
100   35710830371055240000000000025550000000025550002000000010410407011409579295857922210701037392057182   1030000900030000   599919000055190110000000050119 Fashion Complex (K YANGONUT      MMR11007011409579295850701000000000000000   10300003F00104100000000000000000000007665     
100   95051010149866620000000000002500000000002500002000000010410407010222255225393641120701000003862046   1030000900030000   333400010001202104000002022ACS                    Yangon        MMR11007010222255225390701000000000000000   10300005F05104100000000000000000000001500     
100   9503051890033745000000000004900000000004900000200000001041040701042905900354AV41BR0701105591005182   1030000900030000   481219000030190110000000029I Sure Apple Service C YANGONUT      MMR11007010429059003540701000000000000000   10300002F00104100000000000000000000014700     
100   9503051872523986000000000003730000000003730000200000001041040701043128900491YGZ5QI0701156011128182   1030000900030000   541119000283190110000000177Pro1 Global (Insein)   YANGON        MMR11007010431289004910701000000000000000   10300002F00104100000000000000000000007460     
100   35710500141482640000000000082700000000082700002000000010410407010752199104296193830701423221419182   1030000900030000   504719000410190110000000274Ye Optical             YANGONN       MMR11007010752199104290701000000000000000   10300005F00104100000000000000000000024810     
100   35710500154225020000000000018500000000018500002000000010410407010908299143171153610701758381529182   1030000900030000   591219000499190110000000346Shwe Ohh Pharmacy -1   YANGON        MMR11007010908299143170701000000000000000   10300005F00104100000000000000000000005550     
100   35710500134497050000000000006000000000006000002000000010410407010912149145109244840701831421514182   1030000900030000   541119000380190110000000248Victoria Hyper Mart    YANGON        MMR11007010912149145100701000000000000000   10300005F00104100000000000000000000001200     
100   62346600191274850000000000049750000000049750002000000010410407010912309145236450460701835421530182   1030000900030000   591219000610190110000000450Shwe Ohh Pharmacy St-1 YANGONUNG     MMR11007010912309145230701000000000000000   10300005F00104100000000000000000000014925     
100   62346600131487010000000000003000000000003000002000000010410407011127125712345163800701000003865075   1030000900030000   333400010001202104000002022ACS                    Yangon        MMR11007011127125712340701000000000000000   10300005F05104100000000000000000000001800     
100   62346600194136380000000000023350000000023350002000000010410407010346578983041455770701456161057182   1030000900030000   541119000286190110000000177Pro1 Global (Insein)   YANGON        MMR11007010346578983040701000000000000000   10300005F00104100000000000000000000004670     
100   62346600160305910000000000010000000000010000002000000010410407011138259226822431140701929081825182   1030000900030000   541119000318190110000000200Amazing Mart (No.1 Ind YANGON        MMR11007011138259226820701000000000000000   10300005F00104100000000000000000000002000     
100   35710830967649140000000000020200000000020200002000000010410407011142259229201716270701030121825182   1030000900030000   591219000499190110000000346Shwe Ohh Pharmacy -1   YANGON        MMR11007011142259229200701000000000000000   10300003F00104100000000000000000000006060     
100   62622000603147190000000000114100000000114100002000000010410407011350379288849824810701889202037182   1030000900030000   581219000206190110000000108Beauty in the Pot      YANGON        MMR11007011350379288840701000000000000000   10300006F00104100000000000000000000038794     
100   9503051019521497000000000003980000000003980000200000001041040701135127928911ORL4MP0701891212027182   1030000900030000   591219000503190110000000350Shwe Ohh Pharmacy (WZD YANGONNGKUUN  MMR11007011351279289110701000000000000000   10300002F00104100000000000000000000011940     
100   35710830425491950000000000046575000000046575002000000010410407011352109289424230160701900222010182   1030000900030000   581219000423190110000000284BCC (SYS)              YANGON        MMR11007011352109289420701000000000000000   10300003F00104100000000000000000000015836     
100   9503054000709212000000000001230000000001230000200000001041040701132445927901BLRPT70701666541945182   1030000900030000   541119000170190110000000085SeinGayHar (Dagon Cent YANGONUNG     MMR11007011324459279010701000000000000000   10300002F00104100000000000000000000002460     
100   9503051880541269000000000002450000000002450000200000001041040701143447930415RCDHN90701172042147182   1030000900030000   597719000530190110000000378Mon Cosmetic (1)       MANDALAYHARSA MMR11007011434479304150701000000000000000   10300002F00104100000000000000000000007350     
100   62443000860069770000000000230000000000230000002000000010410407010610179053632660610701718401217182   1030000900030000   481219000030190110000000029I Sure Apple Service C YANGONUT      MMR11007010610179053630701000000000000000   10300005F00104100000000000000000000096600     
100   35710500301217250000000000046540000000046540002000000010410407011142409229423060610701038121840182   1030000900030000   541119000376190110000000178Pro (1) Global (East D YANGONMYOTHIT MMR11007011142409229420701000000000000000   10300005F00104100000000000000000000009308     
100   9503051886654330000000000001300000000001300000200000001041040701081443444304IAQJTF0701000003864146   1030000900030000   333400010001202104000002022ACS                    Yangon        MMR11007010814434443040701000000000000000   10300002F05104100000000000000000000007800     
100   35710500155910170000000000035000000000035000002000000010410407011015514551325324920701000003864790   1030000900030000   333400010001202104000002022ACS                    Yangon        MMR11007011015514551320701000000000000000   10300005F05104100000000000000000000021000     
100   9503051882572221000000000000200000000000200000200000001041040701061959495982GLTLKP0701000003863483   1030000900030000   333800010001202104000003301uab bank               Yangon        MMR11007010619594959820701000000000000000   10300002F05104100000000000000000000001200     
100   35710830514135800000000000035000000000035000002000000010410407010553232323327929550701000003863335   1030000900030000   333400010001202104000002022ACS                    Yangon        MMR11007010553232323320701000000000000000   10300003F05104100000000000000000000021000     
100   9503051762446256000000000014000000000014000000200000001041040701081845911800RGAXEX0701910481445182   1030000900030000   729819000218190110000000118Cherish Beauty Collect YANGONUNG     MMR11007010818459118000701000000000000000   10300002F00104100000000000000000000042000     
100   9503051872568734000000000000335000000000335000200000001041040701125841926902EHGBSD0701442281941182   1030000900030000   541119000141190110000000083SeinGayHarParami Cente YANGON        MMR11007011258419269020701000000000000000   10300002F00104100000000000000000000000670     
100   62346600171832740000000000001100000000001100002000000010410407011423119300364400130701116532011182   1030000900030000   541119000112190110000000077Sein Gay Har Chinatown YANGON        MMR11007011423119300360701000000000000000   10300005F00104100000000000000000000000220     
100   35710500114649040000000000021000000000021000002000000010410407011423539300691429830701122532053182   1030000900030000   599919000701190110000000532Amazing Mart (Baho Roa YANGONUT      MMR11007011423539300690701000000000000000   10300005F00104100000000000000000000006300     
100   35710500156430080000000000003250000000003250002000000010410407010518449028199981480701894481144182   1030000900030000   591219000601190110000000441Shwe Ohh Pharmacy St-3 YANGON        MMR11007010518449028190701000000000000000   10300005F00104100000000000000000000000975     
100   62346600192704260000000000002000000000002000002000000010410407010635319064679070190701036051331182   1030000900030000   541119000080190110000000057Pro (1) Global (Tampaw MANDALAYHARSI MMR11007010635319064670701000000000000000   10300005F00104100000000000000000000000400     
100   95050310599777990000000000016200000000016200002000000010410407011148579232750433320701143181857182   1030000900030000   541119000112190110000000077Sein Gay Har Chinatown YANGON        MMR11007011148579232750701000000000000000   10300001F00104100000000000000000000005670     
100   62443000160010490000000000470000000000470000002000000010410407010121375137354233660701000003861875   1030000900030000   333800010001202104000003301uab bank               Yangon        MMR11007010121375137350701000000000000000   10300005F05104100000000000000000000282000     
100   9503051879532758000000000003500000000003500000200000001041040701032552555291ITYN6B0701000003862320   1030000900030000   333400010001202104000002022ACS                    Yangon        MMR11007010325525552910701000000000000000   10300002F05104100000000000000000000021000     
100   35710500121051910000000000037300000000037300002000000010410407011127389219929248420701641571738182   1030000900030000   581219000719190110000000550Chilli Pot Mala Xiang  YANGON        MMR11007011127389219920701000000000000000   10300005F00104100000000000000000000012682     
100   62346600181285670000000000073300000000073300002000000010410407010951219165820066900701564211621182   1030000900030000   581219000206190110000000108Beauty in the Pot      YANGON        MMR11007010951219165820701000000000000000   10300005F00104100000000000000000000024922     
100   35710830875566750000000000035000000000035000002000000010410407011428055805294234220701000003865662   1030000900030000   333400010001202104000002022ACS                    Yangon        MMR11007011428055805290701000000000000000   10300003F05104100000000000000000000021000     
100   35710500330025180000000000016000000000016000002000000010410407010301298957345536850701536310929182   1030000900030000   541119000144190110000000083SeinGayHarParami Cente YANGON        MMR11007010301298957340701000000000000000   10300005F00104100000000000000000000003200     
100   62346600110150920000000000005000000000005000002000000010410407010127015701720320230701000003861886   1030000900030000   333400010001202104000002022ACS                    Yangon        MMR11007010127015701720701000000000000000   10300005F05104100000000000000000000003000     
100   9503051882097690000000000000550000000000550000200000001041040701132946928116UTLOTZ0701730591946182   1030000900030000   541119000136190110000000083SeinGayHarParami Cente YANGON        MMR11007011329469281160701000000000000000   10300002F00104100000000000000000000001100     
100   95031900009028270000000000100200000000100200002000000010410407011115244524537AM0FE0701000003865035   1030000900030000   333300010001202104000002717Near Me Android        Yangon        MMR11007011115244524530701000000000000000   10300014F05104100000000000000000000020000     
100   35710500310839320000000000027300000000027300002000000010410407011330489281472306920701738002048182   1030000900030000   591219000688190110000000519Shwe Ohh Pharmacy ST-7 YANGONUNG     MMR11007011330489281470701000000000000000   10300005F00104100000000000000000000008190     
100   95031900016502430000000000032603000000032603002000000010410407011331349281843NZ1FE0701747012034182   1030000900030000   581219000423190110000000284BCC (SYS)              YANGON        MMR11007011331349281840701000000000000000   10300014F00104100000000000000000000011085     
100   35710830369566120000000000236000000000236000002000000010410407010735499095378933010701097051449182   1030000900030000   594419000631190110000000462Shwe San Eain GemsTime YANGONUT      MMR11007010735499095370701000000000000000   10300003F00104100000000000000000000070800     
100   95030800094957270000000000031550000000031550002000000010410407010932099155213988330701181021609182   1030000900030000   541119000286190110000000177Pro1 Global (Insein)   YANGON        MMR11007010932099155210701000000000000000   10300003F00104100000000000000000000006310     
100   35710830865123640000000000035000000000035000002000000010410407011505183518841649010701000003865794   1030000900030000   333400010001202104000002022ACS                    Yangon        MMR11007011505183518840701000000000000000   10300003F05104100000000000000000000021000     
100   95031900040977230000000000300200000000300200002000000010410407010717554755389WX7EE0701000003863828   1030000900030000   333300010001202104000002717Near Me Android        Yangon        MMR11007010717554755380701000000000000000   10300014F05104100000000000000000000020000     
100   62346600179399230000000000035000000000035000002000000010410407011412054205965407500701000003865616   1030000900030000   333400010001202104000002022ACS                    Yangon        MMR11007011412054205960701000000000000000   10300005F05104100000000000000000000021000     
100   62346600152961100000000000002500000000002500002000000010410407011315144514400053040701000003865412   1030000900030000   333400010001202104000002022ACS                    Yangon        MMR11007011315144514400701000000000000000   10300005F05104100000000000000000000001500     
100   95050313763920110000000000050000000000050000002000000010410407010220325032682092580701000003862041   1030000900030000   333800010001202104000003301uab bank               Yangon        MMR11007010220325032680701000000000000000   10300001F05104100000000000000000000030000     
100   95030518842937190000000000031500000000031500002000000010410407010819389118478VVNOJ0701923491438182   1030000900030000   569119000350190110000000217Bench (Myanmar Plaza)  YANGON        MMR11007010819389118470701000000000000000   10300002F00104100000000000000000000009450     
100   62921400030808580000000000010000000000010000002000000010410407010135430543323333330701000003861899   1030000900030000   333400010001202104000002022ACS                    Yangon        MMR11007010135430543320701000000000000000   10300009F05104100000000000000000000006000     
100   35650883670001930000000000023400000000023400002000000010410407010549089043137763030701388191208182   1030000900030000   541119000374190110000000178Pro (1) Global (East D YANGONMYOTHIT MMR11007010549089043130701000000000000000   10300005F00104100000000000000000000008190     
100   62444500200045290000000000013000000000013000002000000010410407011133290329280458820701000003865091   1030000900030000   333400010001202104000002022ACS                    Yangon        MMR11007011133290329280701000000000000000   10300002F05104100000000000000000000007800     
100   35710950941565050000000000006250000000006250002000000010410407010728349091724317050701974581334182   1030000900030000   541119000115190110000000078Sein Gay Har Kan Thar  YANGONOKKALAP MMR11007010728349091720701000000000000000   10300003F00104100000000000000000000001250     
100   62346600194136380000000000011600000000011600002000000010410407010650249072364988920701315201324182   1030000900030000   541119000284190110000000177Pro1 Global (Insein)   YANGON        MMR11007010650249072360701000000000000000   10300005F00104100000000000000000000002320     
100   35710500121467400000000000006000000000006000002000000010410407011058349201140075740701874281734182   1030000900030000   541119000288190110000000178Pro (1) Global (East D YANGONMYOTHIT MMR11007011058349201140701000000000000000   10300005F00104100000000000000000000001200     
100   35710830416309210000000000150200000000150200002000000010410407010044381438130093380701000003861834   1030000900030000   333300010001202104000002717Near Me Android        Yangon        MMR11007010044381438130701000000000000000   10300003F05104100000000000000000000020000     
100   9503051891314169000000000003500000000003500000200000001041040701104952195231SYVINP0701000003864937   1030000900030000   333400010001202104000002022ACS                    Yangon        MMR11007011049521952310701000000000000000   10300002F05104100000000000000000000021000     
100   95050311922854800000000000002850000000002850002000000010410407011129089220822157110701677591708182   1030000900030000   541119000144190110000000083SeinGayHarParami Cente YANGON        MMR11007011129089220820701000000000000000   10300001F00104100000000000000000000000997     
100   9503051020076846000000000003600000000003600000200000001041040701112933922111ELEPGS0701690591733182   1030000900030000   569119000655190110000000486High Cultured Fashion  YANGONUT      MMR11007011129339221110701000000000000000   10300002F00104100000000000000000000010800     
100   9503051878791397000000000000724500000000724500200000001041040630163107875956CUIC590701721012307181   1030000900030000   581319000386190110000000250The Radio Bar          YANGON        MMR11006301631078759560701000000000000000   10300002F00104100000000000000000000002463     
100   9503051020386567000000000003197000000003197000200000001041040630165007876507ATAAR90701744202307181   1030000900030000   581319000386190110000000250The Radio Bar          YANGON        MMR11006301650078765070701000000000000000   10300002F00104100000000000000000000010870     
100   9503051886181862000000000000140000000000140000200000001041040701063050906245K2QYDT0701962001350182   1030000900030000   591219000499190110000000346Shwe Ohh Pharmacy -1   YANGON        MMR11007010630509062450701000000000000000   10300002F00104100000000000000000000000420     
100   9503051894077862000000000007000000000007000000200000001041040701063059906249IMXPED0701964001359182   1030000900030000   594419000706190110000000537Zwe Htet Gems & Jewell YANGONAW      MMR11007010630599062490701000000000000000   10300002F00104100000000000000000000021000     
100   35710500110761610000000000000100000000000100002000000010410407010634159064043808000701011041315182   1030000900030000   594419000705190110000000536Zwe Htet Gems & Jewell YANGON        MMR11007010634159064040701000000000000000   10300005F00104100000000000000000000000030     
100   35710500176353090000000001532200000001532200002000000010410407010731419093226412980701021011441182   1030000900030000   541119000288190110000000178Pro (1) Global (East D YANGONMYOTHIT MMR11007010731419093220701000000000000000   10300005F00104100000000000000000000306440     
100   62346600170188430000000000044850000000044850002000000010410407011532589321075979080701293022258182   1030000900030000   581319000386190110000000250The Radio Bar          YANGON        MMR11007011532589321070701000000000000000   10300005F00104100000000000000000000015249     
100   9503051896802408000000000000170000000000170000200000001041040701154420932433BKBSLD0701313142220182   1030000900030000   581219000712190110000000543Shwe Shan Restaurant   YANGONNGKUUN  MMR11007011544209324330701000000000000000   10300002F00104100000000000000000000000578     
100   35710500104645170000000000010000000000010000002000000010410407011019364936991089610701000003864801   1030000900030000   333400010001202104000002022ACS                    Yangon        MMR11007011019364936990701000000000000000   10300005F05104100000000000000000000006000     
100   9503051895965941000000000047600000000047600000200000001041040701075337910505ZAREWN0701457231437182   1030000900030000   594419000708190110000000539Zwe Htet Gems & Jewell YANGON        MMR11007010753379105050701000000000000000   10300002F00104100000000000000000000142800     
100   35710830627775510000000000114600000000114600002000000010410407010756069106475323060701511261406182   1030000900030000   591219000502190110000000349Shwe Ohh Pharmacy -4   YANGON        MMR11007010756069106470701000000000000000   10300003F00104100000000000000000000034380     
100   35710500146425300000000000019500000000019500002000000010410407010805269111417749920701687351426182   1030000900030000   599919000055190110000000050119 Fashion Complex (K YANGONUT      MMR11007010805269111410701000000000000000   10300005F00104100000000000000000000005850     
100   35710500184394040000000000062000000000062000002000000010410407011100239202411109240701931301723182   1030000900030000   594419000454190110000000307Shwe San Eain (Junctio YANGONN       MMR11007011100239202410701000000000000000   10300005F00104100000000000000000000018600     
100   35710830782240770000000000121500000000121500002000000010410407011101549203420169510701968311754182   1030000900030000   541119000377190110000000356Fuji Shopping Center ( MANDALAYHARSI MMR11007011101549203420701000000000000000   10300003F00104100000000000000000000024300     
100   9503051878376777000000000002343000000002343000200000001041040701081952911856PUD7GR0701928491452182   1030000900030000   581219000004190110000000002Yoogane Korea Rest;(MP YANGON        MMR11007010819529118560701000000000000000   10300002F00104100000000000000000000007966     
100   35710830408341690000000001174250000001174250002000000010410407010824429121085885390701020541442182   1030000900030000   806219000537190110000000385Mandalar Hospital      MANDALAYHARSA MMR11007010824429121080701000000000000000   10300003F00104100000000000000000000352275     
100   35710830503914150000000000029500000000029500002000000010410407010827559122539245600701061571455182   1030000900030000   594419000454190110000000307Shwe San Eain (Junctio YANGONN       MMR11007010827559122530701000000000000000   10300003F00104100000000000000000000008850     
100   62622000280742490000000000033250000000033250002000000010410407011123579217469972890701537531757182   1030000900030000   591219000502190110000000349Shwe Ohh Pharmacy -4   YANGON        MMR11007011123579217460701000000000000000   10300006F00104100000000000000000000009975     
100   95030800049141440000000000779500000000779500002000000010410407011124289217805686160701551541728182   1030000900030000   481219000030190110000000029I Sure Apple Service C YANGONUT      MMR11007011124289217800701000000000000000   10300003F00104100000000000000000000233850     
100   62443101007477200000000000038750000000038750002000000010410407010930309154246694800701149001630182   1030000900030000   591219000690190110000000521Shwe Ohh Pharmacy ST-1 YANGONAUNG    MMR11007010930309154240701000000000000000   10300001F00104100000000000000000000016275     
100   62346600150634520000000000029200000000029200002000000010410407010348598984030036720701486181059182   1030000900030000   541119000286190110000000177Pro1 Global (Insein)   YANGON        MMR11007010348598984030701000000000000000   10300005F00104100000000000000000000005840     
100   62346600154886750000000000061400000000061400002000000010410407010351268985338909990701521211026182   1030000900030000   541119000286190110000000177Pro1 Global (Insein)   YANGON        MMR11007010351268985330701000000000000000   10300005F00104100000000000000000000012280     
100   950319000010368100000000000350000000000350000020000000104104070115310401041521H2FE0701000003865862   1030000900030000   333400010001202104000002022ACS                    Yangon        MMR11007011531040104150701000000000000000   10300014F05104100000000000000000000021000     
100   9503051889861445000000000000300000000000300000200000001041040701153107010775ALVDD30701000003865869   1030000900030000   333400010001202104000002022ACS                    Yangon        MMR11007011531070107750701000000000000000   10300002F05104100000000000000000000001800     
100   62443000803032480000000000100000000000100000002000000010410407010233000300757115820701000003862086   1030000900030000   333800010001202104000003301uab bank               Yangon        MMR11007010233000300750701000000000000000   10300005F05104100000000000000000000060000     
100   35650710310001040000000000100200000000100200002000000010410407011236370637105556340701000003865278   1030000900030000   333300010001202104000002717Near Me Android        Yangon        MMR11007011236370637100701000000000000000   10300005F05104100000000000000000000020000     
100   95050319532433550000000000004000000000004000002000000010410407011339140914475596620701000003865501   1030000900030000   333800010001202104000003301uab bank               Yangon        MMR11007011339140914470701000000000000000   10300001F05104100000000000000000000002400     
100   62343301002398010000000000002500000000002500002000000010410407011144091409080000000701000003865125   1030000900030000   333400010001202104000002022ACS                    Yangon        MMR11007011144091409080701000000000000000   10300004 05104100000000000000000000001500     
100   62921400076367390000000000005000000000005000002000000010410407010444511451893333330701000003862885   1030000900030000   333400010001202104000002022ACS                    Yangon        MMR11007010444511451890701000000000000000   10300009F05104100000000000000000000003000     
100   9503051887755441000000000005020000000005020000200000001041040701045639263909CKLWRB0701000003862966   1030000900030000   333300010001202104000002659MSP                    Yangon        MMR11007010456392639090701000000000000000   10300002F05104100000000000000000000020000     
100   9503051872397290000000000002985000000002985000200000001041040701073424909458SK3J470701067041424182   1030000900030000   591219000501190110000000348Shwe Ohh Pharmacy (SmL YANGONUT      MMR11007010734249094580701000000000000000   10300002F00104100000000000000000000008955     
100   62346600118397490000000000027700000000027700002000000010410407011045149192814944740701537151714182   1030000900030000   599519000611190110000000451Puppy Paradise         YANGON        MMR11007011045149192810701000000000000000   10300005F00104100000000000000000000008310     
100   35710830073483850000000000025785000000025785002000000010410407011046539193890079400701580161753182   1030000900030000   806219000356190110000000225Victoria Hospital      YANGONONE     MMR11007011046539193890701000000000000000   10300003F00104100000000000000000000007735     
100   35710830449397660000000000063000000000063000002000000010410407011047019193976759520701582171701182   1030000900030000   541119000153190110000000083SeinGayHarParami Cente YANGON        MMR11007011047019193970701000000000000000   10300003F00104100000000000000000000012600     
100   9503051020301228000000000004700000000004700000200000001041040701104708919402PLLT2X0701584171708182   1030000900030000   599519000611190110000000451Puppy Paradise         YANGON        MMR11007011047089194020701000000000000000   10300002F00104100000000000000000000014100     
100   35710500103649560000000000006500000000006500002000000010410407011321279277688137190701634511927182   1030000900030000   591219000505190110000000352Shwe Ohh Pharmacy (THU YANGON        MMR11007011321279277680701000000000000000   10300005F00104100000000000000000000001950     
100   62343301009344430000000000011130000000011130002000000010410407011232399256320000000701014021939182   1030000900030000   581219000722190110000000553Noodle Bowl            YANGON        MMR11007011232399256320701000000000000000   10300004F00104100000000000000000000003784     
100   35710500140152080000000000005000000000005000002000000010410407011235249257911479660701088051924182   1030000900030000   591219000689190110000000520Shwe Ohh Pharmacy ST-1 YANGONUNG     MMR11007011235249257910701000000000000000   10300005F00104100000000000000000000001500     
100   35710500169189460000000000740120000000740120002000000010410407011105099205630821880701062351709182   1030000900030000   599919000570190110000000251Pro (1) Global (MawlaM MONLAMYAING   MMR11007011105099205630701000000000000000   10300005F00104100000000000000000000222036     
100   35710500116265020000000000035000000000035000002000000010410407010929265926779056180701000003864558   1030000900030000   333400010001202104000002022ACS                    Yangon        MMR11007010929265926770701000000000000000   10300005F05104100000000000000000000021000     
100   62622000037067400000000000074200000000074200002000000010410407010307318961079814320701643370931182   1030000900030000   541119000080190110000000057Pro (1) Global (Tampaw MANDALAYHARSI MMR11007010307318961070701000000000000000   10300006F00104100000000000000000000014840     
100   35710500197575800000000000081000000000081000002000000010410407010321268969151767390701921510926182   1030000900030000   541119000374190110000000178Pro (1) Global (East D YANGONMYOTHIT MMR11007010321268969150701000000000000000   10300005F00104100000000000000000000016200     
100   35710500104635010000000000018500000000018500002000000010410407010329038973075942830701066590903182   1030000900030000   541119000374190110000000178Pro (1) Global (East D YANGONMYOTHIT MMR11007010329038973070701000000000000000   10300005F00104100000000000000000000003700     
100   9503051895393169000000000010429700000010429700200000001041040701065039907251CFZP4B0701321201339182   1030000900030000   581219000635190110000000466King BBQ Time City     YANGONUT      MMR11007010650399072510701000000000000000   10300002F00104100000000000000000000035461     
100   95051811791922310000000000174000000000174000002000000010410407010650439072586378760701323201343182   1030000900030000   541119000290190110000000178Pro (1) Global (East D YANGONMYOTHIT MMR11007010650439072580701000000000000000   10300013F00104100000000000000000000060900     
100   35710500360961030000000000005000000000005000002000000010410407010652189073484357590701361221318182   1030000900030000   591219000501190110000000348Shwe Ohh Pharmacy (SmL YANGONUT      MMR11007010652189073480701000000000000000   10300005F00104100000000000000000000001500     
100   95030455874810500000000000018450000000018450002000000010410407010353078986244159160701559231007182   1030000900030000   541119000120190110000000080Sein Gay Har BAK       YANGONADA     MMR11007010353078986240701000000000000000   10300007F00104100000000000000000000003690     
100   9503051891320042000000000002309600000002309600200000001041040701071805908664ZCFESB0701820481305182   1030000900030000   581219000719190110000000550Chilli Pot Mala Xiang  YANGON        MMR11007010718059086640701000000000000000   10300002F00104100000000000000000000007853     
100   35710830727906510000000000018800000000018800002000000010410407011256509268338679300701422261950182   1030000900030000   599919000192190110000000096119 Fashion Complex (H YANGON        MMR11007011256509268330701000000000000000   10300003F00104100000000000000000000005640     
100   95031900052912260000000000018900000000018900002000000010410407011257469268716WR1FE0701434271946182   1030000900030000   599919000195190110000000099119 Fashion Complex (P YANGONN       MMR11007011257469268710701000000000000000   10300014F00104100000000000000000000005670     
100   35710500301031780000000000003100000000003100002000000010410407011258339268980709000701440281933182   1030000900030000   591219000601190110000000441Shwe Ohh Pharmacy St-3 YANGON        MMR11007011258339268980701000000000000000   10300005F00104100000000000000000000000930     
100   62346600111483640000000000014200000000014200002000000010410407011305319271603693120701494351931182   1030000900030000   591219000504190110000000351Shwe Ohh Pharmacy -6   YANGONAW      MMR11007011305319271600701000000000000000   10300005F00104100000000000000000000004260     
100   62343302002025350000000000029800000000029800002000000010410407011354169290210000000701908242016182   1030000900030000   581219000635190110000000466King BBQ Time City     YANGONUT      MMR11007011354169290210701000000000000000   10300004F00104100000000000000000000010132     
100   62343301011113890000000000113950000000113950002000000010410407011357089291040000000701920272008182   1030000900030000   581219000368190110000000241Beauty In The Pot (PHS YANGON        MMR11007011357089291040701000000000000000   10300004F00104100000000000000000000038743     
100   35710500160592790000000000008000000000008000002000000010410407010654222422159883140701000003863682   1030000900030000   333400010001202104000002022ACS                    Yangon        MMR11007010654222422150701000000000000000   10300005F05104100000000000000000000004800     
100   35710500331136200000000000005000000000005000002000000010410407011437200720017880910701000003865705   1030000900030000   333400010001202104000002022ACS                    Yangon        MMR11007011437200720010701000000000000000   10300005F05104100000000000000000000003000     
100   95031900039608060000000000200200000000200200002000000010410407010841531153936NW8EE0701000003864309   1030000900030000   333300010001202104000002717Near Me Android        Yangon        MMR11007010841531153930701000000000000000   10300014F05104100000000000000000000020000     
100   35710830124307230000000001500200000001500200002000000010410407011456402640801597210701000003865781   1030000900030000   333300010001202104000002717Near Me Android        Yangon        MMR11007011456402640800701000000000000000   10300003F05104100000000000000000000020000     
100   35710830086998360000000000075000000000075000002000000010410407011234250425741726020701000003865275   1030000900030000   333300010001202104000000109Myanmar National Airli Yangon        MMR11007011234250425740701000000000000000   10300003F05104100000000000000000000020000     
100   9503051873095695000000000001020000000001020000200000001041040701094308130817U5QJMZ0701000003864639   1030000900030000   333300010001202104000002717Near Me Android        Yangon        MMR11007010943081308170701000000000000000   10300002F05104100000000000000000000020000     
100   95050319532433550000000000005000000000005000002000000010410407011349111911332632030701000003865537   1030000900030000   333800010001202104000003301uab bank               Yangon        MMR11007011349111911330701000000000000000   10300001F05104100000000000000000000003000     
100   95031900021503750000000000035000000000035000002000000010410407011059062906437NA0FE0701000003864976   1030000900030000   333400010001202104000002022ACS                    Yangon        MMR11007011059062906430701000000000000000   10300014F05104100000000000000000000021000     
100   35710500360371070000000000465000000000465000002000000010410407010650009072120783540701308201300182   1030000900030000   594419000493190110000000340Pyae Sone Shin         YANGONUT      MMR11007010650009072120701000000000000000   10300005F00104100000000000000000000139500     
100   62443000160027080000000000005000000000005000002000000010410407010113544354854807470701000003861867   1030000900030000   333400010001202104000002022ACS                    Yangon        MMR11007010113544354850701000000000000000   10300005F05104100000000000000000000003000     
100   62443100338139870000000000005000000000005000002000000010410407011016474647215838120701000003864795   1030000900030000   333400010001202104000002022ACS                    Yangon        MMR11007011016474647210701000000000000000   10300001F05104100000000000000000000003000     
100   62443100338139870000000000035000000000035000002000000010410407011010154015243043720701000003864759   1030000900030000   333400010001202104000002022ACS                    Yangon        MMR11007011010154015240701000000000000000   10300001F05104100000000000000000000021000     
100   95031900008244350000000000030200000000030200002000000010410407010426425642259CZ5EE0701000003862718   1030000900030000   333300010001202104000002717Near Me Android        Yangon        MMR11007010426425642250701000000000000000   10300014F05104100000000000000000000020000     
100   35710830452438530000000000227300000000227300002000000010410407010520509029406913670701940501150182   1030000900030000   591219000500190110000000347Shwe Ohh Pharmacy -2   YANGONUNG     MMR11007010520509029400701000000000000000   10300003F00104100000000000000000000068190     
100   35710830408639370000000000013500000000013500002000000010410407010521049029487963290701943511104182   1030000900030000   591219000503190110000000350Shwe Ohh Pharmacy (WZD YANGONNGKUUN  MMR11007010521049029480701000000000000000   10300003F00104100000000000000000000004050     
100   35710500172435260000000000031800000000031800002000000010410407010521329029704010950701951511132182   1030000900030000   591219000693190110000000524Shwe Ohh Pharmacy ST-2 YANGON        MMR11007010521329029700701000000000000000   10300005F00104100000000000000000000009540     
100   9503051889492654000000000001700000000001700000200000001041040701123928926030QKC1J00701177091928182   1030000900030000   541119000122190110000000080Sein Gay Har BAK       YANGONADA     MMR11007011239289260300701000000000000000   10300002F00104100000000000000000000003400     
100   35710500117227150000000000060000000000060000002000000010410407011239579260463492160701184091957182   1030000900030000   591219000502190110000000349Shwe Ohh Pharmacy -4   YANGON        MMR11007011239579260460701000000000000000   10300005F00104100000000000000000000018000     
100   9503051892857273000000000000725000000000725000200000001041040701124451926288KXQKKW0701261141951182   1030000900030000   541119000141190110000000083SeinGayHarParami Cente YANGON        MMR11007011244519262880701000000000000000   10300002F00104100000000000000000000001450     
100   950305188747351600000000000067000000000067000020000000104104070112462992638155ZYBN0701292161929182   1030000900030000   541119000124190110000000080Sein Gay Har BAK       YANGONADA     MMR11007011246299263810701000000000000000   10300002F00104100000000000000000000001340     
100   9503051874135623000000000003600000000003600000200000001041040701133540928344IR1E8K0701779052040182   1030000900030000   591219000508190110000000355Shwe Ohh Pharmacy(SanP YANGONNGKUUN  MMR11007011335409283440701000000000000000   10300002F00104100000000000000000000010800     
100   35650710357808670000000000100000000000100000002000000010410407010508083808751182880701000003863041   1030000900030000   333800010001202104000003301uab bank               Yangon        MMR11007010508083808750701000000000000000   10300005F05104100000000000000000000060000     
100   95031201600887290000000000003000000000003000002000000010410407011117064706283333330701000003865041   1030000900030000   333400010001202104000002022ACS                    Yangon        MMR11007011117064706280701000000000000000   10300009F05104100000000000000000000001800     
100   95031900006082420000000000100200000000100200002000000010410407010124115411214184EE0701000003861877   1030000900030000   333300010001202104000002717Near Me Android        Yangon        MMR11007010124115411210701000000000000000   10300014F05104100000000000000000000020000     
100   9503054000709212000000000000590000000000590000200000001041040701135912929196C4ZKKC0701939292012182   1030000900030000   599919000188190110000000092119 Fashion (Sanchaung YANGONUNG     MMR11007011359129291960701000000000000000   10300002F00104100000000000000000000001770     
100   62346600143127020000000000035000000000035000002000000010410407010202553255396530150701000003861985   1030000900030000   333400010001202104000002022ACS                    Yangon        MMR11007010202553255390701000000000000000   10300005F05104100000000000000000000021000     
100   9503051888999881000000000001035000000001035000200000001041040701072416908979LUGHEG0701921541316182   1030000900030000   541119000284190110000000177Pro1 Global (Insein)   YANGON        MMR11007010724169089790701000000000000000   10300002F00104100000000000000000000002070     
100   950319000233700600000000000069300000000069300020000000104104070107183890870352X7EE0701835481338182   1030000900030000   581219000371190110000000243Jo Jo Hot Pot (Junctio YANGONN       MMR11007010718389087030701000000000000000   10300014F00104100000000000000000000002356     
100   9503051894695721000000000002980000000002980000200000001041040701080009910856GBO7C60701591301409182   1030000900030000   581219000635190110000000466King BBQ Time City     YANGONUT      MMR11007010800099108560701000000000000000   10300002F00104100000000000000000000010132     
100   9503051873836825000000000003900000000003900000200000001041040701153330932120GZB09G0701294032230182   1030000900030000   701119000428190110000000288Hlaine Tet Hotel       YANGONONE     MMR11007011533309321200701000000000000000   10300002F00104100000000000000000000013260     
100   9503051020176703000000000005108300000005108300200000001041040701131550927564RLY4YO0701592451950182   1030000900030000   701119000075190110000000024Lotte Hotel            YANGON        MMR11007011315509275640701000000000000000   10300002F00104100000000000000000000017368     
100   95031100015813700000000000100000000000100000002000000010410407011046529193879816030701579161752182   1030000900030000   569119000737190110000000569Di Fashion(NorthDagon) YANGONMYOTHIT MMR11007011046529193870701000000000000000   10300006F00104100000000000000000000030000     
100   35710500136065280000000000007000000000007000002000000010410407010334450445631608080701000003862358   1030000900030000   333400010001202104000002022ACS                    Yangon        MMR11007010334450445630701000000000000000   10300005F05104100000000000000000000004200     
100   35710830192044510000000000035000000000035000002000000010410407010836390639674802980701000003864286   1030000900030000   333400010001202104000002022ACS                    Yangon        MMR11007010836390639670701000000000000000   10300003F05104100000000000000000000021000     
100   35710830614826580000000000035000000000035000002000000010410407011442421242546678710701000003865730   1030000900030000   333400010001202104000002022ACS                    Yangon        MMR11007011442421242540701000000000000000   10300003F05104100000000000000000000021000     
100   95031900026329270000000000010000000000010000002000000010410407010708363836661NU7EE0701000003863766   1030000900030000   333400010001202104000002022ACS                    Yangon        MMR11007010708363836660701000000000000000   10300014F05104100000000000000000000006000     
100   95030518868827330000000000004500000000004500002000000010410407010133530353792YLEZG0701000003861892   1030000900030000   333400010001202104000002022ACS                    Yangon        MMR11007010133530353790701000000000000000   10300002F05104100000000000000000000002700     
100   9503051888992241000000000002000000000002000000200000001041040701073641064146TU4ZCB0701000003863945   1030000900030000   333400010001202104000002022ACS                    Yangon        MMR11007010736410641460701000000000000000   10300002F05104100000000000000000000012000     
100   950319000026742900000000001002000000001002000020000000104104070101491719175251E4EE0701000003861935   1030000900030000   333300010001202104000002659MSP                    Yangon        MMR11007010149171917520701000000000000000   10300014F05104100000000000000000000020000     
100   62346600116745260000000000020000000000020000002000000010410407011256172617358158440701000003865343   1030000900030000   333400010001202104000002022ACS                    Yangon        MMR11007011256172617350701000000000000000   10300005F05104100000000000000000000012000     
100   62622000302135120000000000043100000000043100002000000010410407010527029032279894650701036571102182   1030000900030000   573219000378190110000000246Infinity BusinessPanas YANGON        MMR11007010527029032270701000000000000000   10300006F00104100000000000000000000012930     
100   62346600175380060000000000111000000000111000002000000010410407010843489130658995050701340131548182   1030000900030000   599919000571190110000000251Pro (1) Global (MawlaM MONLAMYAING   MMR11007010843489130650701000000000000000   10300005F00104100000000000000000000033300     
100   35710500140797250000000000016170000000016170002000000010410407010636159065094417470701047061315182   1030000900030000   581219000477190110000000330Khao Kham Restaurant   YANGONUT      MMR11007010636159065090701000000000000000   10300005F00104100000000000000000000005498     
100   62444501100197590000000000023600000000023600002000000010410407010945239162059870360701408151623182   1030000900030000   541119000286190110000000177Pro1 Global (Insein)   YANGON        MMR11007010945239162050701000000000000000   10300002F00104100000000000000000000008260     
100   9503051020832487000000000014750000000014750000200000001041040701094532916219JHNBEK0701413151632182   1030000900030000   594419000454190110000000307Shwe San Eain (Junctio YANGONN       MMR11007010945329162190701000000000000000   10300002F00104100000000000000000000044250     
100   35710830380129680000000000350500000000350500002000000010410407010946329162885261060701439161632182   1030000900030000   594419000454190110000000307Shwe San Eain (Junctio YANGONN       MMR11007010946329162880701000000000000000   10300003F00104100000000000000000000105150     
100   35710950423062440000000000050400000000050400002000000010410407010946529163044150250701447161652182   1030000900030000   599919000394190110000000258Living Square (7 Mile) YANGONONE     MMR11007010946529163040701000000000000000   10300003F00104100000000000000000000015120     
100   35710500184647250000000000024400000000024400002000000010410407010947069163171635620701456171606182   1030000900030000   591219000502190110000000349Shwe Ohh Pharmacy -4   YANGON        MMR11007010947069163170701000000000000000   10300005F00104100000000000000000000007320     
100   95050313763920110000000000050000000000050000002000000010410407010224125412476078320701000003862056   1030000900030000   333800010001202104000003301uab bank               Yangon        MMR11007010224125412470701000000000000000   10300001F05104100000000000000000000030000     
100   35650710357808670000000000300000000000300000002000000010410407010624325432015955140701000003863498   1030000900030000   333800010001202104000003301uab bank               Yangon        MMR11007010624325432010701000000000000000   10300005F05104100000000000000000000180000     
100   9503051887915888000000000034800000000034800000200000001041040701110630920658NJEHO60701101361730182   1030000900030000   594419000454190110000000307Shwe San Eain (Junctio YANGONN       MMR11007011106309206580701000000000000000   10300002F00104100000000000000000000104400     
100   35710830033834510000000000014150000000014150002000000010410407011110469209246765260701212401746182   1030000900030000   541119000144190110000000083SeinGayHarParami Cente YANGON        MMR11007011110469209240701000000000000000   10300003F00104100000000000000000000002830     
100   35710830835487590000000000100200000000100200002000000010410407011111409209824722850701236411740182   1030000900030000   591219000605190110000000445Shwe Ohh Pharmacy St-1 YANGONNGKUUN  MMR11007011111409209820701000000000000000   10300003F00104100000000000000000000030060     
100   35710500192947820000000001770000000001770000002000000010410407010549359043382223700701398191235182   1030000900030000   481219000030190110000000029I Sure Apple Service C YANGONUT      MMR11007010549359043380701000000000000000   10300005F00104100000000000000000000531000     
100   35710500115657830000000000006300000000006300002000000010410407010551159044357691730701434211215182   1030000900030000   599919000412190110000000276Amazing One (Junction  YANGONN       MMR11007010551159044350701000000000000000   10300005F00104100000000000000000000001890     
100   35710830022865310000000000202000000000202000002000000010410407010551399044587966880701441211239182   1030000900030000   594419000631190110000000462Shwe San Eain GemsTime YANGONUT      MMR11007010551399044580701000000000000000   10300003F00104100000000000000000000060600     
100   35710830724880900000000000015000000000015000002000000010410407010358072807543503400701000003862512   1030000900030000   333800010001202104000003301uab bank               Yangon        MMR11007010358072807540701000000000000000   10300003F05104100000000000000000000009000     
100   95030800005876470000000000013450000000013450002000000010410407010423379001027588170701028531037182   1030000900030000   591219000687190110000000518Shwe Ohh Pharmacy ST-6 YANGON        MMR11007010423379001020701000000000000000   10300003F00104100000000000000000000004035     
100   62444500100196930000000000262950000000262950002000000010410407010636479065309044410701056061347182   1030000900030000   591219000694190110000000525Shwe Ohh Pharmacy ST-2 YANGONAW      MMR11007010636479065300701000000000000000   10300002F00104100000000000000000000110439     
100   62346600123373960000000000060200000000060200002000000010410407010257512751257019140701000003862192   1030000900030000   333300010001202104000002659MSP                    Yangon        MMR11007010257512751250701000000000000000   10300005F05104100000000000000000000020000     
100   9503051885882593000000000000500000000000500000200000001041040701033650065008K8XGC20701000003862377   1030000900030000   333400010001202104000002022ACS                    Yangon        MMR11007010336500650080701000000000000000   10300002F05104100000000000000000000003000     
100   35710830658296800000000000005000000000005000002000000010410407010143381338353730450701000003861923   1030000900030000   333400010001202104000002022ACS                    Yangon        MMR11007010143381338350701000000000000000   10300003F05104100000000000000000000003000     
100   62921400030808580000000000002500000000002500002000000010410407010144051405843333330701000003861919   1030000900030000   333400010001202104000002022ACS                    Yangon        MMR11007010144051405840701000000000000000   10300009F05104100000000000000000000001500     
100   35710830138963360000000000035000000000035000002000000010410407011345001500486076620701000003865520   1030000900030000   333400010001202104000002022ACS                    Yangon        MMR11007011345001500480701000000000000000   10300003F05104100000000000000000000021000     
100   9503051882572221000000000000300000000000300000200000001041040701104332133249ABWKIX0701000003864919   1030000900030000   333800010001202104000003301uab bank               Yangon        MMR11007011043321332490701000000000000000   10300002F05104100000000000000000000001800     
100   35710830379044130000000000005000000000005000002000000010410407010955492549039792010701000003864699   1030000900030000   333400010001202104000002022ACS                    Yangon        MMR11007010955492549030701000000000000000   10300003F05104100000000000000000000003000     
100   9503051885882593000000000000500000000000500000200000001041040701033920092093ATA2F10701000003862384   1030000900030000   333400010001202104000002022ACS                    Yangon        MMR11007010339200920930701000000000000000   10300002F05104100000000000000000000003000     
100   95030800055817850000000000229300000000229300002000000010410407011047149194070081510701586171714182   1030000900030000   591219000503190110000000350Shwe Ohh Pharmacy (WZD YANGONNGKUUN  MMR11007011047149194070701000000000000000   10300003F00104100000000000000000000068790     
100   9503051889838609000000000025150000000025150000200000001041040701114857923273LVPBJD0701142181857182   1030000900030000   573219000379190110000000247Infinity Business-Phil YANGONUNG     MMR11007011148579232730701000000000000000   10300002F00104100000000000000000000075450     
100   35710830306578930000000000025755000000025755002000000010410407011149189232965801460701148191818182   1030000900030000   541119000136190110000000083SeinGayHarParami Cente YANGON        MMR11007011149189232960701000000000000000   10300003F00104100000000000000000000005151     
100   9503051884220142000000000002540000000002540000200000001041040701115004923333QBQUL30701163201804182   1030000900030000   541119000141190110000000083SeinGayHarParami Cente YANGON        MMR11007011150049233330701000000000000000   10300002F00104100000000000000000000005080     
100   35710830026851790000000000020635000000020635002000000010410407011150109233426061940701167201810182   1030000900030000   541119000115190110000000078Sein Gay Har Kan Thar  YANGONOKKALAP MMR11007011150109233420701000000000000000   10300003F00104100000000000000000000004127     
100   95031900024229800000000000047000000000047000002000000010410407011150489233725M01FE0701176201848182   1030000900030000   599919000055190110000000050119 Fashion Complex (K YANGONUT      MMR11007011150489233720701000000000000000   10300014F00104100000000000000000000014100     
100   62346600150660420000000000042000000000042000002000000010410407010746109100887283940701298161410182   1030000900030000   541119000283190110000000177Pro1 Global (Insein)   YANGON        MMR11007010746109100880701000000000000000   10300005F00104100000000000000000000008400     
100   950319000064764600000000000221000000000221000020000000104104070106404790672693C7EE0701122101347182   1030000900030000   569119000350190110000000217Bench (Myanmar Plaza)  YANGON        MMR11007010640479067260701000000000000000   10300014F00104100000000000000000000006630     
100   95031900045034980000000000000750000000000750002000000010410407010556289047224CY6EE0701543261228182   1030000900030000   549919000028190110000000015Rainbow Convenience St YANGONUT      MMR11007010556289047220701000000000000000   10300014F00104100000000000000000000000255     
100   62444501100135540000000000051500000000051500002000000010410407010917219147449757240701898471521182   1030000900030000   541119000288190110000000178Pro (1) Global (East D YANGONMYOTHIT MMR11007010917219147440701000000000000000   10300002F00104100000000000000000000018025     
100   62444501100061600000000000068450000000068450002000000010410407010652269073549117670701363221326182   1030000900030000   581219000205190110000000107Canton Paradise        YANGON        MMR11007010652269073540701000000000000000   10300002F00104100000000000000000000040728     
100   9503051895948467000000000000655000000000655000200000001041040701065749907635IEDKP30701457271349182   1030000900030000   591219000687190110000000518Shwe Ohh Pharmacy ST-6 YANGON        MMR11007010657499076350701000000000000000   10300002F00104100000000000000000000001965     
100   9503051895054332000000000007610000000007610000200000001041040701100141917110CLT4US0701736311641182   1030000900030000   581219000206190110000000108Beauty in the Pot      YANGON        MMR11007011001419171100701000000000000000   10300002F00104100000000000000000000025874     
100   35650710456007580000000000019400000000019400002000000010410407011011349176115610150701905411634182   1030000900030000   569119000350190110000000217Bench (Myanmar Plaza)  YANGON        MMR11007011011349176110701000000000000000   10300005F00104100000000000000000000008148     
100   9503051893127569000000000001187000000001187000200000001041040701124759926445DCH4VY0701305171959182   1030000900030000   541119000115190110000000078Sein Gay Har Kan Thar  YANGONOKKALAP MMR11007011247599264450701000000000000000   10300002F00104100000000000000000000002374     
100   35710500112856060000000000041700000000041700002000000010410407011158359238028373850701346281835182   1030000900030000   541119000141190110000000083SeinGayHarParami Cente YANGON        MMR11007011158359238020701000000000000000   10300005F00104100000000000000000000008340     
100   62343301000004190000000000100200000000100200002000000010410407011242181218440000000701000003865291   1030000900030000   333300010001202104000002717Near Me Android        Yangon        MMR11007011242181218440701000000000000000   10300004F05104100000000000000000000020000     
100   62343301002398010000000000002500000000002500002000000010410407011152442244780000000701000003865156   1030000900030000   333400010001202104000002022ACS                    Yangon        MMR11007011152442244780701000000000000000   10300004F05104100000000000000000000001500     
100   95030201194519540000000000013000000000013000002000000010410407010151442144653726250701000003861944   1030000900030000   333400010001202104000002022ACS                    Yangon        MMR11007010151442144650701000000000000000   10200002F05104100000000000000000000007800     
100   9503051873563023000000000003500000000003500000200000001041040701064230123047HWQ1YE0701000003863602   1030000900030000   333400010001202104000002022ACS                    Yangon        MMR11007010642301230470701000000000000000   10300002F05104100000000000000000000021000     
100   35710500320016930000000000043200000000043200002000000010410406301758362836836308500701000003861679   1030000900030000   333300010001202104000002659MSP                    Yangon        MMR11006301758362836830701000000000000000   10300005F05104100000000000000000000020000     
100   9503051881961870000000000003500000000003500000200000001041040701043547054773SKDMPN0701000003862794   1030000900030000   333400010001202104000002022ACS                    Yangon        MMR11007010435470547730701000000000000000   10300002F05104100000000000000000000021000     
100   950319000148667100000000000402000000000402000020000000104104070112484018406358N1FE0701000003865310   1030000900030000   333300010001202104000002717Near Me Android        Yangon        MMR11007011248401840630701000000000000000   10300014F05104100000000000000000000020000     
100   95031010410334800000000001000200000001000200002000000010410407011455032503852704810701000003865776   1030000900030000   333300010001202104000002717Near Me Android        Yangon        MMR11007011455032503850701000000000000000   10300005F05104100000000000000000000020000     
100   35650880370002430000000000056700000000056700002000000010410407010730389092707925210701003001438182   1030000900030000   541119000287190110000000177Pro1 Global (Insein)   YANGON        MMR11007010730389092700701000000000000000   10300005F00104100000000000000000000019845     
100   95030101000264440000000000128900000000128900002000000010410407011409289295690229490701031392028182   1030000900030000   581219000368190110000000241Beauty In The Pot (PHS YANGON        MMR11007011409289295690701000000000000000   10200001F00104100000000000000000000043826     
100   62343301000088180000000000033500000000033500002000000010410407010203233323480000000701000003861987   1030000900030000   333400010001202104000002022ACS                    Yangon        MMR11007010203233323480701000000000000000   10300004F05104100000000000000000000020100     
100   62346600198669420000000000013000000000013000002000000010410407011313154315824889740701000003865399   1030000900030000   333400010001202104000002022ACS                    Yangon        MMR11007011313154315820701000000000000000   10300005F05104100000000000000000000007800     
100   9503051872741224000000000003500000000003500000200000001041040701031225422528ROL6UH0701000003862257   1030000900030000   333400010001202104000002022ACS                    Yangon        MMR11007010312254225280701000000000000000   10300002F05104100000000000000000000021000     
100   35710830640533650000000000025200000000025200002000000010410407010726035603975317780701000003863872   1030000900030000   333300010001202104000002717Near Me Android        Yangon        MMR11007010726035603970701000000000000000   10300003F05104100000000000000000000020000     
100   9503051893837852000000000030000000000030000000200000001041040701072012501239DVGH0A0701000003863848   1030000900030000   333800010001202104000003301uab bank               Yangon        MMR11007010720125012390701000000000000000   10300002F05104100000000000000000000180000     
100   9503051896443518000000000012500000000012500000200000001041040701041908899885XOL7ZG0701956491008182   1030000900030000   599519000611190110000000451Puppy Paradise         YANGON        MMR11007010419088998850701000000000000000   10300002F00104100000000000000000000037500     
100   62346600157436080000000000021950000000021950002000000010410407011202229240068837850701412321822182   1030000900030000   591219000502190110000000349Shwe Ohh Pharmacy -4   YANGON        MMR11007011202229240060701000000000000000   10300005F00104100000000000000000000006585     
100   62346600133261660000000000012000000000012000002000000010410407011212469245163988820701572421846182   1030000900030000   541119000172190110000000085SeinGayHar (Dagon Cent YANGONUNG     MMR11007011212469245160701000000000000000   10300005F00104100000000000000000000002400     
100   35710830094594460000000000074200000000074200002000000010410407011212549245188658670701574421854182   1030000900030000   581219000368190110000000241Beauty In The Pot (PHS YANGON        MMR11007011212549245180701000000000000000   10300003F00104100000000000000000000025228     
100   35710500185086950000000000038650000000038650002000000010410407011213039245269456850701575431803182   1030000900030000   591219000503190110000000350Shwe Ohh Pharmacy (WZD YANGONNGKUUN  MMR11007011213039245260701000000000000000   10300005F00104100000000000000000000011595     
100   35710500112994170000000000005460000000005460002000000010410407011056269199781385020701815261726182   1030000900030000   581219000722190110000000553Noodle Bowl            YANGON        MMR11007011056269199780701000000000000000   10300005F00104100000000000000000000001856     
100   35710830051818950000000000067500000000067500002000000010410407010534289036254067690701178041228182   1030000900030000   569119000655190110000000486High Cultured Fashion  YANGONUT      MMR11007010534289036250701000000000000000   10300003F00104100000000000000000000020250     
100   9503051877297453000000000005020000000005020000200000001041040701080303330318NY39X20701000003864087   1030000900030000   333300010001202104000002717Near Me Android        Yangon        MMR11007010803033303180701000000000000000   10300002F05104100000000000000000000020000     
100   62443000103145880000000000100000000000100000002000000010410407011112424242756982110701000003865037   1030000900030000   333800010001202104000003301uab bank               Yangon        MMR11007011112424242750701000000000000000   10300005F05104100000000000000000000060000     
100   35710500320016930000000000100200000000100200002000000010410406301757102710051351050701000003861678   1030000900030000   333300010001202104000002659MSP                    Yangon        MMR11006301757102710050701000000000000000   10300005F05104100000000000000000000020000     
100   95030518730956950000000000210200000000210200002000000010410407010938220822917IBOYA0701000003864605   1030000900030000   333300010001202104000002717Near Me Android        Yangon        MMR11007010938220822910701000000000000000   10300002F05104100000000000000000000020000     
100   95031900013756920000000000010000000000010000002000000010410407011133170317757VV0FE0701000003865089   1030000900030000   333400010001202104000002022ACS                    Yangon        MMR11007011133170317750701000000000000000   10300014F05104100000000000000000000006000     
100   62343301015136340000000000010000000000010000002000000010410407011446201620160000000701000003865750   1030000900030000   333400010001202104000002022ACS                    Yangon        MMR11007011446201620160701000000000000000   10300004F05104100000000000000000000006000     
100   62346600136159070000000001300200000001300200002000000010410407010758452845100030990701000003864075   1030000900030000   333300010001202104000000505Near Me iOS            Yangon        MMR11007010758452845100701000000000000000   10300005F05104100000000000000000000020000     
100   9503051890114578000000000001000000000001000000200000001041040701125336233634FAJH7A0701000003865330   1030000900030000   333400010001202104000002022ACS                    Yangon        MMR11007011253362336340701000000000000000   10300002F05104100000000000000000000006000     
100   35650973622940400000000000010000000000010000002000000010410407011433340334382632520701000003865683   1030000900030000   333400010001202104000002022ACS                    Yangon        MMR11007011433340334380701000000000000000   10300005F05104100000000000000000000006000     
100   62346600183827840000000000010000000000010000002000000010410407011543481348798027100701000003865901   1030000900030000   333400010001202104000002022ACS                    Yangon        MMR11007011543481348790701000000000000000   10300005F05104100000000000000000000006000     
100   95031900011887150000000000007450000000007450002000000010410407010426409002374MY5EE0701060561040182   1030000900030000   541119000172190110000000085SeinGayHar (Dagon Cent YANGONUNG     MMR11007010426409002370701000000000000000   10300014F00104100000000000000000000001490     
100   35650880370002430000000000104750000000104750002000000010410407010740369097956616950701199101436182   1030000900030000   541119000283190110000000177Pro1 Global (Insein)   YANGON        MMR11007010740369097950701000000000000000   10300005F00104100000000000000000000036662     
100   9503051882008010000000000037800000000037800000200000001041040701084941913333YWL4140701426191541182   1030000900030000   541119000376190110000000178Pro (1) Global (East D YANGONMYOTHIT MMR11007010849419133330701000000000000000   10300002F00104100000000000000000000075600     
100   9503051876306081000000000007200000000007200000200000001041040701085128913443XDC8PM0701470211528182   1030000900030000   541119000160190110000000084Pro (1) Global (Pazund YANGONARTAUNG MMR11007010851289134430701000000000000000   10300002F00104100000000000000000000014400     
100   62622000298708760000000000045000000000045000002000000010410407010859249138789823620701632291524182   1030000900030000   541119000331190110000000206Muditar Supermarket    YANGON        MMR11007010859249138780701000000000000000   10300006F00104100000000000000000000009000     
100   95010121406555410000000000019550000000019550002000000010410407011130279221502096450701709001827182   1030000900030000   591219000502190110000000349Shwe Ohh Pharmacy -4   YANGON        MMR11007011130279221500701000000000000000   10100001F00104100000000000000000000005865     
100   35710830945338570000000000550000000000550000002000000010410407011135219224716059430701835051821182   1030000900030000   481219000043190110000000048Xiaomi Mobile Shop(Hle YANGONUT      MMR11007011135219224710701000000000000000   10300003F00104100000000000000000000165000     
100   35710500144593980000000000750000000000750000002000000010410407010947249163385182080701464171624182   1030000900030000   481219000030190110000000029I Sure Apple Service C YANGONUT      MMR11007010947249163380701000000000000000   10300005F00104100000000000000000000225000     
100   95050313763920110000000000050000000000050000002000000010410407010821145114592247920701000003864188   1030000900030000   333800010001202104000003301uab bank               Yangon        MMR11007010821145114590701000000000000000   10300001F05104100000000000000000000030000     
100   9503051872523986000000000003145000000003145000200000001041040701043209900530JB8QWT0701170021109182   1030000900030000   541119000283190110000000177Pro1 Global (Insein)   YANGON        MMR11007010432099005300701000000000000000   10300002F00104100000000000000000000006290     
100   35650880350001790000000000200000000000200000002000000010410407010435349007024411820701229051134182   1030000900030000   541119000283190110000000177Pro1 Global (Insein)   YANGON        MMR11007010435349007020701000000000000000   10300005F00104100000000000000000000070000     
100   35710950830320480000000000052000000000052000002000000010410407010806209111865226420701703361420182   1030000900030000   573219000379190110000000247Infinity Business-Phil YANGONUNG     MMR11007010806209111860701000000000000000   10300003F00104100000000000000000000015600     
100   62346600145497820000000000200000000000200000002000000010410407010917309147567499190701900471530182   1030000900030000   591219000502190110000000349Shwe Ohh Pharmacy -4   YANGON        MMR11007010917309147560701000000000000000   10300005F00104100000000000000000000060000     
100   95031900011418130000000000027000000000027000002000000010410407010920459149042769EE0701947501545182   1030000900030000   594419000631190110000000462Shwe San Eain GemsTime YANGONUT      MMR11007010920459149040701000000000000000   10300014F00104100000000000000000000008100     
100   9503051020928145000000000000590000000000590000200000001041040701092107914924ARMPKN0701954511507182   1030000900030000   599919000055190110000000050119 Fashion Complex (K YANGONUT      MMR11007010921079149240701000000000000000   10300002F00104100000000000000000000001770     
100   35710500105386090000000000259000000000259000002000000010410407010858119138225495880701615281511182   1030000900030000   594419000454190110000000307Shwe San Eain (Junctio YANGONN       MMR11007010858119138220701000000000000000   10300005F00104100000000000000000000077700     
100   35710830514135800000000000035000000000035000002000000010410407011155082508285613360701000003865162   1030000900030000   333400010001202104000002022ACS                    Yangon        MMR11007011155082508280701000000000000000   10300003F05104100000000000000000000021000     
100   9503051895812838000000000000500000000000500000200000001041040701110232323275MDVH630701000003864997   1030000900030000   333400010001202104000002022ACS                    Yangon        MMR11007011102323232750701000000000000000   10300002F05104100000000000000000000003000     
100   62343301002397440000000000005000000000005000002000000010410407011136110611220000000701000003865098   1030000900030000   333400010001202104000002022ACS                    Yangon        MMR11007011136110611220701000000000000000   10300004 05104100000000000000000000003000     
100   35710830614826580000000000002500000000002500002000000010410407011441031103651503510701000003865722   1030000900030000   333400010001202104000002022ACS                    Yangon        MMR11007011441031103650701000000000000000   10300003F05104100000000000000000000001500     
100   62343301015136340000000000010000000000010000002000000010410407011444021402830000000701000003865734   1030000900030000   333400010001202104000002022ACS                    Yangon        MMR11007011444021402830701000000000000000   10300004F05104100000000000000000000006000     
100   35710830124307230000000000500200000000500200002000000010410407011551132113084761850701000003865918   1030000900030000   333300010001202104000002717Near Me Android        Yangon        MMR11007011551132113080701000000000000000   10300003F05104100000000000000000000020000     
100   95031900007716690000000000020200000000020200002000000010410407010359272927548HR5EE0701000003862519   1030000900030000   333300010001202104000002717Near Me Android        Yangon        MMR11007010359272927540701000000000000000   10300014F05104100000000000000000000020000     
100   62343301017728180000000000035000000000035000002000000010410407011340261026150000000701000003865499   1030000900030000   333400010001202104000002022ACS                    Yangon        MMR11007011340261026150701000000000000000   10300004F05104100000000000000000000021000     
100   35710830674565810000000000704850000000704850002000000010410406301653238765973638310701750232323181   1030000900030000   581219000473190110000000326Panjabi-Q              YANGONUT      MMR11006301653238765970701000000000000000   10300003F00104100000000000000000000239649     
100   35710830968649380000000000026500000000026500002000000010410407011321579277907888110701643511957182   1030000900030000   599919000055190110000000050119 Fashion Complex (K YANGONUT      MMR11007011321579277900701000000000000000   10300003F00104100000000000000000000007950     
100   35710830211956060000000000077050000000077050002000000010410407011326359279726074540701688561935182   1030000900030000   581219000206190110000000108Beauty in the Pot      YANGON        MMR11007011326359279720701000000000000000   10300003F00104100000000000000000000026197     
100   35710830505397320000000000077400000000077400002000000010410407011327109279951041110701692571910182   1030000900030000   581219000368190110000000241Beauty In The Pot (PHS YANGON        MMR11007011327109279950701000000000000000   10300003F00104100000000000000000000026316     
100   35710830538101550000000000078650000000078650002000000010410407011327269280104078890701698571926182   1030000900030000   591219000690190110000000521Shwe Ohh Pharmacy ST-1 YANGONAUNG    MMR11007011327269280100701000000000000000   10300003F00104100000000000000000000023595     
100   35710830370623860000000000027800000000027800002000000010410407011425279301168690020701136552027182   1030000900030000   581319000716190110000000547Chiri Sushi Grill Bar  YANGONUT      MMR11007011425279301160701000000000000000   10300003F00104100000000000000000000009452     
100   35710950184662380000000000132250000000132250002000000010410407011433029303578690720701165032102182   1030000900030000   581219000205190110000000107Canton Paradise        YANGON        MMR11007011433029303570701000000000000000   10300003F00104100000000000000000000044965     
100   35710950926253290000000000226100000000226100002000000010410407011456549310685359690701239262154182   1030000900030000   581219000206190110000000108Beauty in the Pot      YANGON        MMR11007011456549310680701000000000000000   10300003F00104100000000000000000000076874     
100   35710500130604860000000000012000000000012000002000000010410407011013089177032516740701941431608182   1030000900030000   591219000502190110000000349Shwe Ohh Pharmacy -4   YANGON        MMR11007011013089177030701000000000000000   10300005F00104100000000000000000000003600     
100   62443001760021000000000000010000000000010000002000000010410407010337158977696076800701245071015182   1030000900030000   554119000348190110000000215New Day Energy - 5     YANGONONE     MMR11007010337158977690701000000000000000   10300005F00104100000000000000000000002100     
100   35710500134824170000000000002450000000002450002000000010410407011336209283722504680701794062020182   1030000900030000   591219000603190110000000443Shwe Ohh Pharmacy St-8 YANGON        MMR11007011336209283720701000000000000000   10300005F00104100000000000000000000000735     
100   35710950071671770000000000116050000000116050002000000010410407011340219285005825470701808102021182   1030000900030000   581219000206190110000000108Beauty in the Pot      YANGON        MMR11007011340219285000701000000000000000   10300003F00104100000000000000000000039457     
100   35710500154459660000000000039060000000039060002000000010410407011341199285356879260701816112019182   1030000900030000   581219000722190110000000553Noodle Bowl            YANGON        MMR11007011341199285350701000000000000000   10300005F00104100000000000000000000013280     
100   950319000082443500000000000302000000000302000020000000104104070111030333033449C0FE0701000003864999   1030000900030000   333300010001202104000002717Near Me Android        Yangon        MMR11007011103033303340701000000000000000   10300014F05104100000000000000000000020000     
100   62346600172628960000000000200200000000200200002000000010410407010308143814631194580701000003862229   1030000900030000   333300010001202104000002717Near Me Android        Yangon        MMR11007010308143814630701000000000000000   10300005F05104100000000000000000000020000     
100   95030201001265160000000000002500000000002500002000000010410407010517464746161597150701000003863116   1030000900030000   333400010001202104000002022ACS                    Yangon        MMR11007010517464746160701000000000000000   10200002F05104100000000000000000000001500     
