000   10300009200717
100   35710830278551610000000000010000000000010000002000000010410407170346391639303190700717000003909287   1030000900030000   333400010001202104000002022ACS                    Yangon        MMR11007170346391639300717000000000000000   10300003F05104100000000000000000000006000     
100   95030301100033080000000000005000000000005000002000000010410407171252022202956177810717000003911369   1030000900030000   333800010001202104000003301uab bank               Yangon        MMR11007171252022202950717000000000000000   10300001F05104100000000000000000000003000     
100   95031900011307900000000000003465000000003465002000000010410407170557157024256E45ZE0717806271215198   1030000900030000   541119000170190110000000085SeinGayHar (Dagon Cent YANGONUNG     MMR11007170557157024250717000000000000000   10300014F00104100000000000000000000000693     
100   62346600141878980000000000500200000000500200002000000010410407170448181818723980540717000003909599   1030000900030000   333300010001202104000002659MSP                    Yangon        MMR11007170448181818720717000000000000000   10300005F05104100000000000000000000020000     
100   62921400038461260000000000013000000000013000002000000010410407171457392739383333330717000003911677   1030000900030000   333400010001202104000002022ACS                    Yangon        MMR11007171457392739380717000000000000000   10300009F05104100000000000000000000007800     
100   62921400038461260000000000013000000000013000002000000010410407171503103310093333330717000003911686   1030000900030000   333400010001202104000002022ACS                    Yangon        MMR11007171503103310090717000000000000000   10300009F05104100000000000000000000007800     
100   95031011160056520000000000010200000000010200002000000010410407171403103310198852810717000003911508   1030000900030000   333300010001202104000002717Near Me Android        Yangon        MMR11007171403103310190717000000000000000   10300005F05104100000000000000000000020000     
100   62346600114540690000000000350200000000350200002000000010410407170650192019561616570717000003910141   1030000900030000   333300010001202104000002659MSP                    Yangon        MMR11007170650192019560717000000000000000   10300005F05104100000000000000000000020000     
100   35710830308452900000000000030000000000030000002000000010410407170748237070968100080717933181423198   1030000900030000   481219000644190110000000475Remax By Telegod Times YANGONUT      MMR11007170748237070960717000000000000000   10300003F00104100000000000000000000009000     
100   95031900027650400000000000010450000000010450002000000010410407170526007011048XV4ZE0717486561100198   1030000900030000   581219000004190110000000002Yoogane Korea Rest;(MP YANGON        MMR11007170526007011040717000000000000000   10300014F00104100000000000000000000003553     
100   9503051897966004000000000014290000000014290000200000001041040717125320720167S3F83Y0717144231920198   1030000900030000   599919000190190110000000094119 Fashion (North Okk YANGONOKKALAP MMR11007171253207201670717000000000000000   10300002F00104100000000000000000000042870     
100   35710830309325770000000000105000000000105000002000000010410407171254167202009085010717154241916198   1030000900030000   581319000363190110000000236Safe House Club        YANGON        MMR11007171254167202000717000000000000000   10300003F00104100000000000000000000035700     
100   35650880433060220000000000068500000000068500002000000010410407171255567202763412320717171251956198   1030000900030000   591219000505190110000000352Shwe Ohh Pharmacy (THU YANGON        MMR11007171255567202760717000000000000000   10300005F00104100000000000000000000028770     
100   95030518966823880000000000008350000000008350002000000010410407171257287203252AOTJV0717178271928198   1030000900030000   541119000318190110000000200Amazing Mart (No.1 Ind YANGON        MMR11007171257287203250717000000000000000   10300002F00104100000000000000000000001670     
100   62346600169377790000000000005900000000005900002000000010410407171304437206050224550717232341943198   1030000900030000   591219000608190110000000448Shwe Ohh Pharmacy St-2 YANGON        MMR11007171304437206050717000000000000000   10300005F00104100000000000000000000001770     
100   62441900101117990000000000559000000000559000002000000010410407171055407149158044770717684251740198   1030000900030000   594419000493190110000000340Pyae Sone Shin         YANGONUT      MMR11007171055407149150717000000000000000   10300003F00104100000000000000000000234780     
100   62622000086282950000000000047880000000047880002000000010410407170705557052357173920717460351355198   1030000900030000   581219000032190110000000040Hot Pot King Time City YANGONUT      MMR11007170705557052350717000000000000000   10300006F00104100000000000000000000016279     
100   62443101052390870000000000180000000000180000002000000010410407170707147052912998850717476371314198   1030000900030000   541119000080190110000000057Pro (1) Global (Tampaw MANDALAYHARSI MMR11007170707147052910717000000000000000   10300001F00104100000000000000000000063000     
100   62346600111420600000000000044090000000044090002000000010410407171032357138887832610717417021735198   1030000900030000   591219000501190110000000348Shwe Ohh Pharmacy (SmL YANGONUT      MMR11007171032357138880717000000000000000   10300005F00104100000000000000000000013227     
100   35710500340507550000000000001000000000001000002000000010410407171036257140500832420717459061725198   1030000900030000   541119000056190110000000051Amazing Mart (Baho Roa YANGON        MMR11007171036257140500717000000000000000   10300005F00104100000000000000000000000200     
100   9503051019743547000000000001065000000001065000200000001041040717103838714125KJECPK0717474081738198   1030000900030000   541119000166190110000000085SeinGayHar (Dagon Cent YANGONUNG     MMR11007171038387141250717000000000000000   10300002F00104100000000000000000000002130     
100   62346600196640650000000000040000000000040000002000000010410407170405496979627575200717797351049198   1030000900030000   591219000795190110000000627Shwe Ohh Pharmacy ST-3 YANGONINDAING MMR11007170405496979620717000000000000000   10300005F00104100000000000000000000012000     
100   62443001760056080000000000045700000000045700002000000010410407170414176982850807750717866441017198   1030000900030000   591219000506190110000000353Shwe Ohh Pharmacy -8   YANGON        MMR11007170414176982850717000000000000000   10300005F00104100000000000000000000019194     
100   35710500196112330000000000140350000000140350002000000010410407170435206991403579020717075051120198   1030000900030000   591219000502190110000000349Shwe Ohh Pharmacy -4   YANGON        MMR11007170435206991400717000000000000000   10300005F00104100000000000000000000042105     
100   35710500140977270000000000002000000000002000002000000010410407171056212621598303760717000003911099   1030000900030000   333800010001202104000003301uab bank               Yangon        MMR11007171056212621590717000000000000000   10300005F05104100000000000000000000001200     
100   95031900011857450000000000131825000000131825002000000010410407170837490749134CS6ZE0717000003910640   1030000900030000   333300010001202104000002717Near Me Android        Yangon        MMR11007170837490749130717000000000000000   10300014F05104100000000000000000000020000     
100   62921400035027110000000000027200000000027200002000000010410407170308063806003333330717000003909099   1030000900030000   333300010001202104000002659MSP                    Yangon        MMR11007170308063806000717000000000000000   10300009F05104100000000000000000000020000     
100   9503051883949691000000000001020000000001020000200000001041040717113341034120VQBFSG0717000003911187   1030000900030000   333300010001202104000002717Near Me Android        Yangon        MMR11007171133410341200717000000000000000   10300002F05104100000000000000000000020000     
100   9503051884903440000000000003500000000003500000200000001041040716185539253902JOOFCB0717000003908711   1030000900030000   333400010001202104000002022ACS                    Yangon        MMR11007161855392539020717000000000000000   10300002F05104100000000000000000000021000     
100   62346600160188510000000000050200000000050200002000000010410407170302053205723086950717000003909077   1030000900030000   333300010001202104000002659MSP                    Yangon        MMR11007170302053205720717000000000000000   10300005F05104100000000000000000000020000     
100   62346600198669420000000000005000000000005000002000000010410407171230020002415141630717000003911334   1030000900030000   333400010001202104000002022ACS                    Yangon        MMR11007171230020002410717000000000000000   10300005F05104100000000000000000000003000     
100   35710830549075130000000000005000000000005000002000000010410407161955172517265054540717000003908726   1030000900030000   333400010001202104000002022ACS                    Yangon        MMR11007161955172517260717000000000000000   10300003F05104100000000000000000000003000     
100   9503051882621754000000000001610000000001610000200000001041040717105809715043BPZTEZ0717731281709198   1030000900030000   591219000499190110000000346Shwe Ohh Pharmacy -1   YANGON        MMR11007171058097150430717000000000000000   10300002F00104100000000000000000000004830     
100   9503051884779659000000000003700000000003700000200000001041040717054320701836OHVDGG0717672131220198   1030000900030000   591219000502190110000000349Shwe Ohh Pharmacy -4   YANGON        MMR11007170543207018360717000000000000000   10300002F00104100000000000000000000011100     
100   35710830589454850000000000098000000000098000002000000010410407170544247018797497010717684141224198   1030000900030000   541119000287190110000000177Pro1 Global (Insein)   YANGON        MMR11007170544247018790717000000000000000   10300003F00104100000000000000000000019600     
100   35710830005818670000000000084000000000084000002000000010410407170846487094765874350717449161548198   1030000900030000   594419000631190110000000462Shwe San Eain GemsTime YANGONUT      MMR11007170846487094760717000000000000000   10300003F00104100000000000000000000025200     
100   35710500360014260000000000160000000000160000002000000010410407170851227096726934790717484211522198   1030000900030000   594419000454190110000000307Shwe San Eain (Junctio YANGONN       MMR11007170851227096720717000000000000000   10300005F00104100000000000000000000048000     
100   35710830416532530000000000195700000000195700002000000010410407170857097099044716350717539271509198   1030000900030000   541119000286190110000000177Pro1 Global (Insein)   YANGON        MMR11007170857097099040717000000000000000   10300003F00104100000000000000000000039140     
100   62444500100034240000000000095000000000095000002000000010410407170857477099321429210717545271547198   1030000900030000   541119000162190110000000084Pro (1) Global (Pazund YANGONARTAUNG MMR11007170857477099320717000000000000000   10300002F00104100000000000000000000033250     
100   9503051019904909000000000012700000000012700000200000001041040717085956710021X4T1900717564291556198   1030000900030000   594419000600190110000000440Shwe Nan Taw Jewellery YANGON        MMR11007170859567100210717000000000000000   10300002F00104100000000000000000000038100     
100   950319000293715100000000000302570000000302570020000000104104071708225870851168H6ZE0717246521458198   1030000900030000   581219000719190110000000550Chilli Pot Mala Xiang  YANGON        MMR11007170822587085110717000000000000000   10300014F00104100000000000000000000010287     
100   9503051893132163000000000025000000000025000000200000001041040717115447717672PV2UBI0717508241847198   1030000900030000   581319000363190110000000236Safe House Club        YANGON        MMR11007171154477176720717000000000000000   10300002F00104100000000000000000000085000     
100   9503051891358752000000000032250000000032250000200000001041040717115559717733YITQTO0717527251859198   1030000900030000   541119000286190110000000177Pro1 Global (Insein)   YANGON        MMR11007171155597177330717000000000000000   10300002F00104100000000000000000000064500     
100   35710500180359470000000000017000000000017000002000000010410407171156027177368282120717529261802198   1030000900030000   541119000112190110000000077Sein Gay Har Chinatown YANGON        MMR11007171156027177360717000000000000000   10300005F00104100000000000000000000003400     
100   35710500371525090000000000080000000000080000002000000010410407171156077177424977150717531261807198   1030000900030000   729819000533190110000000381Artists Nail Spa & Aca YANGON        MMR11007171156077177420717000000000000000   10300005F00104100000000000000000000024000     
100   62346600191414290000000000128915000000128915002000000010410407171613067267891167290717061432206198   1030000900030000   581319000593190110000000433PM 3:3 Bar & Restauran YANGON        MMR11007171613067267890717000000000000000   10300005F00104100000000000000000000043831     
100   35710500109221910000000000020125000000020125002000000010410407171620347270169344620717076502234198   1030000900030000   581319000651190110000000482Piano Bar              YANGONONE     MMR11007171620347270160717000000000000000   10300005F00104100000000000000000000006842     
100   35710500153234450000000000301000000000301000002000000010410407171620517270196039640717078502251198   1030000900030000   581319000363190110000000236Safe House Club        YANGON        MMR11007171620517270190717000000000000000   10300005F00104100000000000000000000102340     
100   9503051888286032000000000000500000000000500000200000001041040716174145114582UTGIHB0717000003908688   1030000900030000   333400010001202104000002022ACS                    Yangon        MMR11007161741451145820717000000000000000   10300002F05104100000000000000000000003000     
100   9503051895055784000000000008000000000008000000200000001041040717095611712324XKQCYQ0717038261611198   1030000900030000   729819000533190110000000381Artists Nail Spa & Aca YANGON        MMR11007170956117123240717000000000000000   10300002F00104100000000000000000000024000     
100   9503051020504219000000000011800000000011800000200000001041040717064553704391NXXDHL0717264151353198   1030000900030000   592119000255190110000000150HtunHtunOo Liquor (May YANGONONE     MMR11007170645537043910717000000000000000   10300002F00104100000000000000000000035400     
100   95030201123801010000000000010200000000010200002000000010410407170249291929285173300717000003909034   1030000900030000   333300010001202104000002659MSP                    Yangon        MMR11007170249291929280717000000000000000   10200002F05104100000000000000000000020000     
100   95031202500367110000000000100000000000100000002000000010410407170258452845703333330717000003909063   1030000900030000   333800010001202104000003301uab bank               Yangon        MMR11007170258452845700717000000000000000   10300009F05104100000000000000000000060000     
100   9503051882572221000000000000500000000000500000200000001041040717095359235957OWSYEE0717000003910937   1030000900030000   333800010001202104000003301uab bank               Yangon        MMR11007170953592359570717000000000000000   10300002F05104100000000000000000000003000     
100   62921400095218890000000000012000000000012000002000000010410407170205243524353333330717000003908920   1030000900030000   333800010001202104000003301uab bank               Yangon        MMR11007170205243524350717000000000000000   10300009F05104100000000000000000000007200     
100   95031900039920310000000000002400000000002400002000000010410407170208016934957V43ZE0717861380801198   1030000900030000   591219000610190110000000450Shwe Ohh Pharmacy St-1 YANGONUNG     MMR11007170208016934950717000000000000000   10300014F00104100000000000000000000000720     
100   9503051893810651000000000001465000000001465000200000001041040717121518718594NUEEMW0717770451818198   1030000900030000   541119000170190110000000085SeinGayHar (Dagon Cent YANGONUNG     MMR11007171215187185940717000000000000000   10300002F00104100000000000000000000002930     
100   35710500105291520000000000090000000000090000002000000010410407171216237186449527630717780461823198   1030000900030000   729819000390190110000000253The Glam Bar Beauty SP YANGONUNG     MMR11007171216237186440717000000000000000   10300005F00104100000000000000000000027000     
100   950319000487502900000000000636410000000636410020000000104104071712183271873197U8ZE0717799481832198   1030000900030000   701119000076190110000000024Lotte Hotel            YANGON        MMR11007171218327187310717000000000000000   10300014F00104100000000000000000000021638     
100   35710500370256630000000000500000000000500000002000000010410407171135437168242305640717273051843198   1030000900030000   594419000454190110000000307Shwe San Eain (Junctio YANGONN       MMR11007171135437168240717000000000000000   10300005F00104100000000000000000000150000     
100   35710830884891240000000000042400000000042400002000000010410407171139167169808635010717322091816198   1030000900030000   569919000555190110000000402D & C Myanmar (MP)     YANGON        MMR11007171139167169800717000000000000000   10300003F00104100000000000000000000012720     
100   62441900102403250000000000028000000000028000002000000010410407171141217170806837650717349111821198   1030000900030000   541119000112190110000000077Sein Gay Har Chinatown YANGON        MMR11007171141217170800717000000000000000   10300003F00104100000000000000000000009800     
100   35650880492309860000000000014600000000014600002000000010410407171143147171626340830717364131814198   1030000900030000   541119000112190110000000077Sein Gay Har Chinatown YANGON        MMR11007171143147171620717000000000000000   10300005F00104100000000000000000000005110     
100   9503051896750821000000000008100000000008100000200000001041040717114502717243YEGRVG0717391151802198   1030000900030000   729819000768190110000000600Urban Beauty Studio    YANGON        MMR11007171145027172430717000000000000000   10300002F00104100000000000000000000024300     
100   95031900027434270000000000020200000000020200002000000010410407161717234723959U91ZE0717000003908665   1030000900030000   333300010001202104000002659MSP                    Yangon        MMR11007161717234723950717000000000000000   10300014F05104100000000000000000000020000     
100   35710830906310770000000000008500000000008500002000000010410407171039377141696136160717488091737198   1030000900030000   599919000190190110000000094119 Fashion (North Okk YANGONOKKALAP MMR11007171039377141690717000000000000000   10300003F00104100000000000000000000002550     
100   95010121408539200000000000025200000000025200002000000010410407171327125712001742160717000003911429   1030000900030000   333300010001202104000002717Near Me Android        Yangon        MMR11007171327125712000717000000000000000   10100001F05104100000000000000000000020000     
100   62444500100040830000000000022200000000022200002000000010410407170828157086971342470717276581415198   1030000900030000   591219000500190110000000347Shwe Ohh Pharmacy -2   YANGONUNG     MMR11007170828157086970717000000000000000   10300002F00104100000000000000000000009324     
100   35710830201961340000000000030900000000030900002000000010410407171115307158445906250717970451730198   1030000900030000   599919000190190110000000094119 Fashion (North Okk YANGONOKKALAP MMR11007171115307158440717000000000000000   10300003F00104100000000000000000000009270     
100   950305188876813800000000000318500000000318500020000000104104071711211371611638C1SW0717054511713198   1030000900030000   591219000605190110000000445Shwe Ohh Pharmacy St-1 YANGONNGKUUN  MMR11007171121137161160717000000000000000   10300002F00104100000000000000000000009555     
100   35710830516062660000000000022425000000022425002000000010410407171122307161865907520717075521730198   1030000900030000   581219000420190110000000281BCC (JC)               YANGONN       MMR11007171122307161860717000000000000000   10300003F00104100000000000000000000007624     
100   35710830431749100000000000037000000000037000002000000010410407171156107177455803620717532261810198   1030000900030000   541119000290190110000000178Pro (1) Global (East D YANGONMYOTHIT MMR11007171156107177450717000000000000000   10300003F00104100000000000000000000007400     
100   95030301100033080000000000010000000000010000002000000010410407170348321832446177810717000003909301   1030000900030000   333800010001202104000003301uab bank               Yangon        MMR11007170348321832440717000000000000000   10300001F05104100000000000000000000006000     
100   62346600176570120000000000005000000000005000002000000010410407170430440044678116720717000003909516   1030000900030000   333400010001202104000002022ACS                    Yangon        MMR11007170430440044670717000000000000000   10300005F05104100000000000000000000003000     
100   35650973660002290000000000010000000000010000002000000010410407170342161216276439010717000003909273   1030000900030000   333800010001202104000003301uab bank               Yangon        MMR11007170342161216270717000000000000000   10300005F05104100000000000000000000006000     
100   35710500123157090000000000005000000000005000002000000010410407170937240724818095320717000003910868   1030000900030000   333400010001202104000002022ACS                    Yangon        MMR11007170937240724810717000000000000000   10300005F05104100000000000000000000003000     
100   9503051872859919000000000005020000000005020000200000001041040717071910491039O6UUWL0717000003910277   1030000900030000   333300010001202104000002717Near Me Android        Yangon        MMR11007170719104910390717000000000000000   10300002F05104100000000000000000000020000     
100   62346600141878980000000001000200000001000200002000000010410407170444511451700044240717000003909574   1030000900030000   333300010001202104000002659MSP                    Yangon        MMR11007170444511451700717000000000000000   10300005F05104100000000000000000000020000     
100   35710950830320480000000000068000000000068000002000000010410407171053207148055090490717655231720198   1030000900030000   573219000379190110000000247Infinity Business-Phil YANGONUNG     MMR11007171053207148050717000000000000000   10300003F00104100000000000000000000020400     
100   9503051872517772000000000000300000000000300000200000001041040717055123212333D9VI5T0717000003909895   1030000900030000   333400010001202104000002022ACS                    Yangon        MMR11007170551232123330717000000000000000   10300002F05104100000000000000000000001800     
100   35710830165606160000000000028000000000028000002000000010410407171348077222635997510717593182007198   1030000900030000   592119000256190110000000151Htun Htun Oo Liquor (B YANGON        MMR11007171348077222630717000000000000000   10300003F00104100000000000000000000008400     
100   95031900033659150000000000062000000000062000002000000010410407171351387223796YE9ZE0717608212038198   1030000900030000   581319000362190110000000236Safe House Club        YANGON        MMR11007171351387223790717000000000000000   10300014F00104100000000000000000000021080     
100   35710500151037300000000000088200000000088200002000000010410407170422245224877207720717000003909480   1030000900030000   333300010001202104000002659MSP                    Yangon        MMR11007170422245224870717000000000000000   10300005F05104100000000000000000000020000     
100   35710500301462760000000000007763000000007763002000000010410407170632107037778663420717090021310198   1030000900030000   581219000422190110000000283BCC (YIH)              YANGON        MMR11007170632107037770717000000000000000   10300005F00104100000000000000000000002640     
100   9503051895909394000000000009000000000009000000200000001041040717063621703978D9XJLD0717154061321198   1030000900030000   573219000379190110000000247Infinity Business-Phil YANGONUNG     MMR11007170636217039780717000000000000000   10300002F00104100000000000000000000027000     
100   35710500390935520000000000015950000000015950002000000010410407170636307039859514480717156061330198   1030000900030000   581219000004190110000000002Yoogane Korea Rest;(MP YANGON        MMR11007170636307039850717000000000000000   10300005F00104100000000000000000000005423     
100   62443000103174820000000000007650000000007650002000000010410407170639507041405827760717211091350198   1030000900030000   591219000507190110000000354Shwe Ohh Pharmacy -9   YANGON        MMR11007170639507041400717000000000000000   10300005F00104100000000000000000000003213     
100   9503051889200032000000000006635000000006635000200000001041040717094931712085G8IOGO0717997191631198   1030000900030000   599919000200190110000000104119 Fashion (Thingangy YANGONNGKUUN  MMR11007170949317120850717000000000000000   10300002F00104100000000000000000000019905     
100   9503051893132163000000000008700000000008700000200000001041040717142550723637ZZT6WZ0717870552050198   1030000900030000   581319000362190110000000236Safe House Club        YANGON        MMR11007171425507236370717000000000000000   10300002F00104100000000000000000000029580     
100   9503051885922720000000000008015000000008015000200000001041040717142550723638V8URGO0717871552050198   1030000900030000   581219000369190110000000241Beauty In The Pot (PHS YANGON        MMR11007171425507236380717000000000000000   10300002F00104100000000000000000000027251     
100   9503051019870282000000000001300000000001300000200000001041040717143050723801IODVKV0717897002150198   1030000900030000   599919000055190110000000050119 Fashion Complex (K YANGONUT      MMR11007171430507238010717000000000000000   10300002F00104100000000000000000000003900     
100   9503051884192762000000000018985000000018985000200000001041040717143104723809MWRWCV0717898012104198   1030000900030000   581219000206190110000000108Beauty in the Pot      YANGON        MMR11007171431047238090717000000000000000   10300002F00104100000000000000000000064549     
100   35710830811825020000000000119275000000119275002000000010410407171432287238586441680717902022128198   1030000900030000   581219000473190110000000326Panjabi-Q              YANGONUT      MMR11007171432287238580717000000000000000   10300003F00104100000000000000000000040554     
100   9503051891410439000000000012995000000012995000200000001041040717132634721443PWFKBP0717411561934198   1030000900030000   581219000205190110000000107Canton Paradise        YANGON        MMR11007171326347214430717000000000000000   10300002F00104100000000000000000000044183     
100   35710500173412390000000000127535000000127535002000000010410407171327377214752537130717414571937198   1030000900030000   581319000651190110000000482Piano Bar              YANGONONE     MMR11007171327377214750717000000000000000   10300005F00104100000000000000000000043362     
100   9503051895717961000000000004700000000004700000200000001041040717132800721486JCLONI0717419581900198   1030000900030000   591219000759190110000000591Shwe Ohh Pharmacy ST-3 YANGONOKKALAP MMR11007171328007214860717000000000000000   10300002F00104100000000000000000000014100     
100   95031900020588420000000000005000000000005000002000000010410407170830500050215KN6ZE0717000003910595   1030000900030000   333400010001202104000002022ACS                    Yangon        MMR11007170830500050210717000000000000000   10300014F05104100000000000000000000003000     
100   9503051880697277000000000007300000000007300000200000001041040717053942094271822DI60717000003909857   1030000900030000   333300010001202104000000109Myanmar National Airli Yangon        MMR11007170539420942710717000000000000000   10300002F05104100000000000000000000020000     
100   35710830139710220000000000065900000000065900002000000010410407171342507220734050290717560122050198   1030000900030000   591219000504190110000000351Shwe Ohh Pharmacy -6   YANGONAW      MMR11007171342507220730717000000000000000   10300003F00104100000000000000000000019770     
100   950319000125041600000000014087500000014087500020000000104104071705265370113896W4ZE0717494561153198   1030000900030000   541119000078190110000000057Pro (1) Global (Tampaw MANDALAYHARSI MMR11007170526537011380717000000000000000   10300014F00104100000000000000000000281750     
100   62921400070859940000000000600000000000600000002000000010410407170257082708283333330717000003909058   1030000900030000   333800010001202104000003301uab bank               Yangon        MMR11007170257082708280717000000000000000   10300009F05104100000000000000000000360000     
100   62441900001044080000000000097600000000097600002000000010410407171054117148366701770717663241711198   1030000900030000   594419000582190110000000422Zwe Htet Gems & Jewell MANDALAYHARSA MMR11007171054117148360717000000000000000   10300003F00104100000000000000000000040992     
100   35710500125763750000000000001200000000001200002000000010410407170703303330368356430717000003910206   1030000900030000   333300010001202104000002659MSP                    Yangon        MMR11007170703303330360717000000000000000   10300005F05104100000000000000000000020000     
100   62343301015850950000000000002500000000002500002000000010410407171204273427850000000717000003911275   1030000900030000   333400010001202104000002022ACS                    Yangon        MMR11007171204273427850717000000000000000   10300004F05104100000000000000000000001500     
100   9503051884532959000000000002950000000002950000200000001041040717095111712148E4H8FP0717008211611198   1030000900030000   599919000183190110000000087KER Rendezvous (2)Floo YANGONONE     MMR11007170951117121480717000000000000000   10300002F00104100000000000000000000008850     
100   35710950542976950000000000005500000000005500002000000010410407170207546934904810950717859370854198   1030000900030000   591219000689190110000000520Shwe Ohh Pharmacy ST-1 YANGONUNG     MMR11007170207546934900717000000000000000   10300003F00104100000000000000000000001650     
100   62441900101943160000000000012600000000012600002000000010410407170222176940369025950717980520817198   1030000900030000   581219000590190110000000430The Tea Club           YANGON        MMR11007170222176940360717000000000000000   10300003F00104100000000000000000000007497     
100   95030800097864300000000000008400000000008400002000000010410407170318206960644008110717362480920198   1030000900030000   541119000282190110000000177Pro1 Global (Insein)   YANGON        MMR11007170318206960640717000000000000000   10300003F00104100000000000000000000001680     
100   95031900032036030000000000098950000000098950002000000010410407171511027250038KX9ZE0717980412102198   1030000900030000   581219000205190110000000107Canton Paradise        YANGON        MMR11007171511027250030717000000000000000   10300014F00104100000000000000000000033643     
100   9503051019650858000000000000630000000000630000200000001041040717135421722475OINQ2X0717626242021198   1030000900030000   591219000687190110000000518Shwe Ohh Pharmacy ST-6 YANGON        MMR11007171354217224750717000000000000000   10300002F00104100000000000000000000001890     
100   9503051897721524000000000001900000000001900000200000001041040717135813722618WNRBL20717657282013198   1030000900030000   554119000348190110000000215New Day Energy - 5     YANGONONE     MMR11007171358137226180717000000000000000   10300002F00104100000000000000000000002850     
100   9503051886298005000000000001562000000001562000200000001041040717135916722651GJOTXI0717661292016198   1030000900030000   581219000371190110000000243Jo Jo Hot Pot (Junctio YANGONN       MMR11007171359167226510717000000000000000   10300002F00104100000000000000000000005311     
100   62346600105325010000000000100200000000100200002000000010410407170220385038456101670717000003908963   1030000900030000   333300010001202104000002659MSP                    Yangon        MMR11007170220385038450717000000000000000   10300005F05104100000000000000000000020000     
100   62346600188398820000000000040200000000040200002000000010410407170323295329475549030717000003909162   1030000900030000   333300010001202104000002659MSP                    Yangon        MMR11007170323295329470717000000000000000   10300005F05104100000000000000000000020000     
100   950305187285991900000000000302000000000302000020000000104104071714183948396365AAHA0717000003911554   1030000900030000   333300010001202104000002717Near Me Android        Yangon        MMR11007171418394839630717000000000000000   10300002F05104100000000000000000000020000     
100   62346600190975890000000000019000000000019000002000000010410407170916037106655832620717684461503198   1030000900030000   481219000030190110000000029I Sure Apple Service C YANGONUT      MMR11007170916037106650717000000000000000   10300005F00104100000000000000000000005700     
100   95031900051519090000000000022800000000022800002000000010410407170919077107817A17ZE0717707491507198   1030000900030000   541119000162190110000000084Pro (1) Global (Pazund YANGONARTAUNG MMR11007170919077107810717000000000000000   10300014F00104100000000000000000000004560     
100   95031900001070470000000000061000000000061000002000000010410407170921477109113Z17ZE0717734511547198   1030000900030000   581219000368190110000000241Beauty In The Pot (PHS YANGON        MMR11007170921477109110717000000000000000   10300014F00104100000000000000000000020740     
100   35650880420542760000000000005300000000005300002000000010410407170930197112452060070717804001619198   1030000900030000   541119000144190110000000083SeinGayHarParami Cente YANGON        MMR11007170930197112450717000000000000000   10300005F00104100000000000000000000001855     
100   62346600131537500000000000069000000000069000002000000010410407170932047113153336520717817021604198   1030000900030000   569119000350190110000000217Bench (Myanmar Plaza)  YANGON        MMR11007170932047113150717000000000000000   10300005F00104100000000000000000000020700     
100   9503051873353185000000000005280000000005280000200000001041040717081016708020HC2IFI0717149401416198   1030000900030000   581219000206190110000000108Beauty in the Pot      YANGON        MMR11007170810167080200717000000000000000   10300002F00104100000000000000000000017952     
100   62921400010590030000000000025000000000025000002000000010410407171040351035273333330717000003911056   1030000900030000   333800010001202104000003301uab bank               Yangon        MMR11007171040351035270717000000000000000   10300009F05104100000000000000000000015000     
100   95031900017072660000000000500200000000500200002000000010410407171049331933905WY7ZE0717000003911082   1030000900030000   333300010001202104000002717Near Me Android        Yangon        MMR11007171049331933900717000000000000000   10300014F05104100000000000000000000020000     
100   35710830323293270000000000010000000000010000002000000010410407170542291229183288870717000003909862   1030000900030000   333800010001202104000003301uab bank               Yangon        MMR11007170542291229180717000000000000000   10300003F05104100000000000000000000006000     
100   35710500380283440000000000014250000000014250002000000010410407171113117157273472770717937431711198   1030000900030000   541119000381190110000000248Victoria Hyper Mart    YANGON        MMR11007171113117157270717000000000000000   10300005F00104100000000000000000000002850     
100   95031201000732860000000000010000000000010000002000000010410407170348471847113333330717000003909305   1030000900030000   333800010001202104000003301uab bank               Yangon        MMR11007170348471847110717000000000000000   10300009F05104100000000000000000000006000     
100   9503051020755456000000000005711000000005711000200000001041040717141055723100KCDLMR0717771402055198   1030000900030000   581219000697190110000000528Pizzamaru Myanmar (MPZ YANGON        MMR11007171410557231000717000000000000000   10300002F00104100000000000000000000019418     
100   62622000222303420000000000321800000000321800002000000010410407170639007040977173840717196091300198   1030000900030000   581219000206190110000000108Beauty in the Pot      YANGON        MMR11007170639007040970717000000000000000   10300006F00104100000000000000000000109412     
100   35710950309491790000000000049450000000049450002000000010410407171403097228045090360717697332009198   1030000900030000   581219000280190110000000175Min Lan Restaurant (Ka YANGONARTAUNG MMR11007171403097228040717000000000000000   10300003F00104100000000000000000000016813     
100   9503051884860228000000000008000000000008000000200000001041040717095221712182M4UIGG0717014221621198   1030000900030000   729819000533190110000000381Artists Nail Spa & Aca YANGON        MMR11007170952217121820717000000000000000   10300002F00104100000000000000000000024000     
100   35710500370427180000000000083950000000083950002000000010410407171000077124965885820717084301607198   1030000900030000   541119000285190110000000177Pro1 Global (Insein)   YANGON        MMR11007171000077124960717000000000000000   10300005F00104100000000000000000000016790     
100   9503051020450587000000000006600000000006600000200000001041040717100105712528T6FZVG0717089311605198   1030000900030000   594319000084190110000000059Innwa Books            YANGONUT      MMR11007171001057125280717000000000000000   10300002F00104100000000000000000000019800     
100   95030800089069140000000000015500000000015500002000000010410407170750227071878587320717953201422198   1030000900030000   729819000050190110000000025Hair Salon By Crystal  YANGONINDAING MMR11007170750227071870717000000000000000   10300003F00104100000000000000000000004650     
100   35710830947891780000000000007350000000007350002000000010410407170751557072495579200717974211455198   1030000900030000   581219000231190110000000130MinLan Restaurant(SanC YANGONUNG     MMR11007170751557072490717000000000000000   10300003F00104100000000000000000000002499     
100   9503051895270920000000000010000000000010000000200000001041040717075523707401IV8WMT0717011251423198   1030000900030000   541119000286190110000000177Pro1 Global (Insein)   YANGON        MMR11007170755237074010717000000000000000   10300002F00104100000000000000000000020000     
100   9503051878031729000000000002310000000002310000200000001041040717075908707561WJIDFW0717052291408198   1030000900030000   541119000282190110000000177Pro1 Global (Insein)   YANGON        MMR11007170759087075610717000000000000000   10300002F00104100000000000000000000004620     
100   35710830308452900000000001733000000001733000002000000010410407170713377055914005480717571431337198   1030000900030000   481219000030190110000000029I Sure Apple Service C YANGONUT      MMR11007170713377055910717000000000000000   10300003F00104100000000000000000000519900     
100   62346600150576780000000000005000000000005000002000000010410407170714157056339314360717584441315198   1030000900030000   591219000693190110000000524Shwe Ohh Pharmacy ST-2 YANGON        MMR11007170714157056330717000000000000000   10300005F00104100000000000000000000001500     
100   35710830738885040000000000500000000000500000002000000010410407170715257056765955620717596451325198   1030000900030000   594419000708190110000000539Zwe Htet Gems & Jewell YANGON        MMR11007170715257056760717000000000000000   10300003F00104100000000000000000000150000     
100   35710500310734530000000001514500000001514500002000000010410407171123507162536477730717105531750198   1030000900030000   541119000282190110000000177Pro1 Global (Insein)   YANGON        MMR11007171123507162530717000000000000000   10300005F00104100000000000000000000302900     
100   35710950050028140000000000006800000000006800002000000010410407170439546992954443630717106091154198   1030000900030000   599919000197190110000000101119 Fashion Complex (I YANGON        MMR11007170439546992950717000000000000000   10300003F00104100000000000000000000002040     
100   35710500371917880000000000060650000000060650002000000010410407171241177196556560880717024111917198   1030000900030000   599919000196190110000000100119 Fashion Complex (P YANGONOKKALAP MMR11007171241177196550717000000000000000   10300005F00104100000000000000000000018195     
100   35710500121025370000000000042100000000042100002000000010410407171242417197178433010717045121941198   1030000900030000   581219000205190110000000107Canton Paradise        YANGON        MMR11007171242417197170717000000000000000   10300005F00104100000000000000000000014314     
100   9503051881140004000000000001800000000001800000200000001041040717071807705788CA6UHP0717619481307198   1030000900030000   541119000286190110000000177Pro1 Global (Insein)   YANGON        MMR11007170718077057880717000000000000000   10300002F00104100000000000000000000003600     
100   62441900001044080000000000150000000000150000002000000010410407171108327155239937100717877381732198   1030000900030000   594419000582190110000000422Zwe Htet Gems & Jewell MANDALAYHARSA MMR11007171108327155230717000000000000000   10300003F00104100000000000000000000063000     
100   95031900004981980000000000382250000000382250002000000010410407170910087104341YY6ZE0717640401508198   1030000900030000   541119000282190110000000177Pro1 Global (Insein)   YANGON        MMR11007170910087104340717000000000000000   10300014F00104100000000000000000000076450     
100   9503051896902356000000000002700000000002700000200000001041040717032756696442G6CZN70717441570956198   1030000900030000   597719000530190110000000378Mon Cosmetic (1)       MANDALAYHARSA MMR11007170327566964420717000000000000000   10300002F00104100000000000000000000008100     
100   9503054000380980000000000015200000000015200000200000001041040717062650703570CTJYER0717039561250198   1030000900030000   594419000454190110000000307Shwe San Eain (Junctio YANGONN       MMR11007170626507035700717000000000000000   10300002F00104100000000000000000000045600     
100   35710830099595690000000000032500000000032500002000000010410407170250256950557973630717178200925198   1030000900030000   541119000112190110000000077Sein Gay Har Chinatown YANGON        MMR11007170250256950550717000000000000000   10300003F00104100000000000000000000006500     
100   9503051878495528000000000002900000000002900000200000001041040717160227726491TZMCJ70717048322227198   1030000900030000   581319000362190110000000236Safe House Club        YANGON        MMR11007171602277264910717000000000000000   10300002F00104100000000000000000000009860     
100   35710830671692910000000000002310000000002310002000000010410407171043527143525088130717531131752198   1030000900030000   581219000230190110000000129MinLan Restaurant(Maya YANGONONE     MMR11007171043527143520717000000000000000   10300003F00104100000000000000000000000786     
100   9503051882685288000000000034030000000034030000200000001041040717072300705985D2DWDA0717665531300198   1030000900030000   541119000285190110000000177Pro1 Global (Insein)   YANGON        MMR11007170723007059850717000000000000000   10300002F00104100000000000000000000068060     
100   9503051761109129000000000011690000000011690000200000001041040717075913707569WRATI70717055291413198   1030000900030000   581219000206190110000000108Beauty in the Pot      YANGON        MMR11007170759137075690717000000000000000   10300002F00104100000000000000000000039746     
100   62346600172734630000000001677500000001677500002000000010410407171059287151025800310717757291728198   1030000900030000   481219000030190110000000029I Sure Apple Service C YANGONUT      MMR11007171059287151020717000000000000000   10300005F00104100000000000000000000503250     
100   9503051884032448000000000001950000000001950000200000001041040717110115715180TYG9XP0717773311715198   1030000900030000   591219000508190110000000355Shwe Ohh Pharmacy(SanP YANGONNGKUUN  MMR11007171101157151800717000000000000000   10300002F00104100000000000000000000005850     
100   95051070119238140000000002171000000002171000002000000010410407170546037019507870300717694161203198   1030000900030000   59441900052919011000000037729 Jewellery           YANGONUT      MMR11007170546037019500717000000000000000   10300005F00104100000000000000000000911820     
100   9503051020948937000000000004975000000004975000200000001041040717055403702291UB4GTP0717781241203198   1030000900030000   591219000501190110000000348Shwe Ohh Pharmacy (SmL YANGONUT      MMR11007170554037022910717000000000000000   10300002F00104100000000000000000000014925     
100   9503051891482255000000000001230800000001230800200000001041040717055606702379XEYAV60717798261206198   1030000900030000   581219000371190110000000243Jo Jo Hot Pot (Junctio YANGONN       MMR11007170556067023790717000000000000000   10300002F00104100000000000000000000004185     
100   9503051895304604000000000050000000000050000000200000001041040717131434720982GTJ8XM0717319441934198   1030000900030000   59441900052919011000000037729 Jewellery           YANGONUT      MMR11007171314347209820717000000000000000   10300002F00104100000000000000000000150000     
100   62622000612278600000000000049350000000049350002000000010410407171315217210137175290717323451921198   1030000900030000   541119000380190110000000248Victoria Hyper Mart    YANGON        MMR11007171315217210130717000000000000000   10300006F00104100000000000000000000009870     
100   35710500101428240000000000018100000000018100002000000010410407170718117057916909790717620481311198   1030000900030000   591219000504190110000000351Shwe Ohh Pharmacy -6   YANGONAW      MMR11007170718117057910717000000000000000   10300005F00104100000000000000000000005430     
100   9503051897746869000000000064000000000064000000200000001041040717103957714186YM2ODF0717493091757198   1030000900030000   592119000255190110000000150HtunHtunOo Liquor (May YANGONONE     MMR11007171039577141860717000000000000000   10300002F00104100000000000000000000192000     
100   35710500331239180000000000008350000000008350002000000010410407171039587141870393150717494091758198   1030000900030000   541119000172190110000000085SeinGayHar (Dagon Cent YANGONUNG     MMR11007171039587141870717000000000000000   10300005F00104100000000000000000000001670     
100   35710500170062870000000000001250000000001250002000000010410407171046147144812331630717574161714198   1030000900030000   591219000508190110000000355Shwe Ohh Pharmacy(SanP YANGONNGKUUN  MMR11007171046147144810717000000000000000   10300005F00104100000000000000000000000375     
100   35710500184647250000000000013200000000013200002000000010410407171046527145161977480717587161752198   1030000900030000   591219000692190110000000523Shwe Ohh Pharmacy ST-1 YANGON        MMR11007171046527145160717000000000000000   10300005F00104100000000000000000000003960     
100   95031900024745930000000000080000000000080000002000000010410407170451416997499MH4ZE0717195211141198   1030000900030000   594419000705190110000000536Zwe Htet Gems & Jewell YANGON        MMR11007170451416997490717000000000000000   10300014F00104100000000000000000000024000     
100   95030518938366560000000000031600000000031600002000000010410407170507467003388R8IAK0717300371146198   1030000900030000   541119000286190110000000177Pro1 Global (Insein)   YANGON        MMR11007170507467003380717000000000000000   10300002F00104100000000000000000000006320     
100   35710830304847440000000000009000000000009000002000000010410407170828317087064050790717279581431198   1030000900030000   581219000730190110000000562Teadot                 YANGONUT      MMR11007170828317087060717000000000000000   10300003F00104100000000000000000000003060     
100   62622000902262710000000000008600000000008600002000000010410407170735007065357183890717801051400198   1030000900030000   806219000537190110000000385Mandalar Hospital      MANDALAYHARSA MMR11007170735007065350717000000000000000   10300006F00104100000000000000000000002580     
100   35710830502779030000000000160000000000160000002000000010410407171403107228053471760717698332010198   1030000900030000   591219000507190110000000354Shwe Ohh Pharmacy -9   YANGON        MMR11007171403107228050717000000000000000   10300003F00104100000000000000000000048000     
100   35710830073631520000000001360000000001360000002000000010410407170923137109737478780717758531513198   1030000900030000   594419000631190110000000462Shwe San Eain GemsTime YANGONUT      MMR11007170923137109730717000000000000000   10300003F00104100000000000000000000408000     
100   62346600153880400000000000021650000000021650002000000010410407171038147141172095080717473081714198   1030000900030000   541119000168190110000000085SeinGayHar (Dagon Cent YANGONUNG     MMR11007171038147141170717000000000000000   10300005F00104100000000000000000000004330     
100   35710500193839990000000000036850000000036850002000000010410407170401416977964341540717758311041198   1030000900030000   541119000282190110000000177Pro1 Global (Insein)   YANGON        MMR11007170401416977960717000000000000000   10300005F00104100000000000000000000007370     
100   62346600194518770000000000024200000000024200002000000010410407171252557201505951420717142221955198   1030000900030000   591219000503190110000000350Shwe Ohh Pharmacy (WZD YANGONNGKUUN  MMR11007171252557201500717000000000000000   10300005F00104100000000000000000000007260     
100   95030518885178240000000000057530000000057530002000000010410407171453427245006NRWMG0717957232142198   1030000900030000   581319000430190110000000554The Glass Bar          YANGONONE     MMR11007171453427245000717000000000000000   10300002F00104100000000000000000000019560     
100   35710830114674940000000000035530000000035530002000000010410407171313517209575994200717310431951198   1030000900030000   581219000006190110000000004Jo Jo Hot Pot Junction YANGONUT      MMR11007171313517209570717000000000000000   10300003F00104100000000000000000000012080     
100   35710500167166620000000000036300000000036300002000000010410407171315357210170621280717324451935198   1030000900030000   581219000372190110000000244Jo Jo HotPot(CapitalHy YANGONA       MMR11007171315357210170717000000000000000   10300005F00104100000000000000000000012342     
100   62346600128477900000000000200000000000200000002000000010410407171316187210455068150717329461918198   1030000900030000   59441900052919011000000037729 Jewellery           YANGONUT      MMR11007171316187210450717000000000000000   10300005F00104100000000000000000000060000     
100   35710500173802030000000000003050000000003050002000000010410407171320507212176018000717356501950198   1030000900030000   541119000381190110000000248Victoria Hyper Mart    YANGON        MMR11007171320507212170717000000000000000   10300005F00104100000000000000000000000610     
100   35710500191918550000000000007000000000007000002000000010410407171218084808369143510717000003911309   1030000900030000   333400010001202104000002022ACS                    Yangon        MMR11007171218084808360717000000000000000   10300005F05104100000000000000000000004200     
100   9503051872467796000000000010020000000010020000200000001041040717072911591114AVMYQX0717000003910304   1030000900030000   333300010001202104000002659MSP                    Yangon        MMR11007170729115911140717000000000000000   10300002F05104100000000000000000000020000     
100   95031900043128330000000000119000000000119000002000000010410407171101197151845818ZE0717775311719198   1030000900030000   541119000285190110000000177Pro1 Global (Insein)   YANGON        MMR11007171101197151840717000000000000000   10300014F00104100000000000000000000023800     
100   35710500321983900000000000024342000000024342002000000010410407171105287153877614910717827351728198   1030000900030000   581219000721190110000000552Chilli Pot Mala Xiang  YANGONOKKALAP MMR11007171105287153870717000000000000000   10300005F00104100000000000000000000008276     
100   35710500125808310000000000033700000000033700002000000010410407171107137154688863780717853371713198   1030000900030000   541119000168190110000000085SeinGayHar (Dagon Cent YANGONUNG     MMR11007171107137154680717000000000000000   10300005F00104100000000000000000000006740     
100   62444501100067070000000003700000000003700000002000000010410407170830337087801350180717293001533198   1030000900030000   594419000600190110000000440Shwe Nan Taw Jewellery YANGON        MMR11007170830337087800717000000000000000   10300002F00104100000000000000000001554000     
100   35710500320814550000000000021218000000021218002000000010410407171157097177990941970717546271809198   1030000900030000   581219000423190110000000284BCC (SYS)              YANGON        MMR11007171157097177990717000000000000000   10300005F00104100000000000000000000007214     
100   9503051887813638000000000006385000000006385000200000001041040717115855717866CUY3H20717570281855198   1030000900030000   599919000199190110000000103119 Fashion (BuyMoreGe YANGON        MMR11007171158557178660717000000000000000   10300002F00104100000000000000000000019155     
100   35710830890655270000000000072000000000072000002000000010410407171159537179148758710717588291853198   1030000900030000   581219000373190110000000245Jo Jo Hot Pot (Kyee My YANGONINDAING MMR11007171159537179140717000000000000000   10300003F00104100000000000000000000024480     
100   35710500195505970000000000011000000000011000002000000010410407171202517180632792220717630321851198   1030000900030000   569119000737190110000000569Di Fashion(NorthDagon) YANGONMYOTHIT MMR11007171202517180630717000000000000000   10300005F00104100000000000000000000003300     
100   62441900101154510000000000066150000000066150002000000010410407171335207217984820910717502052020198   1030000900030000   581219000351190110000000218Min Lan Restaurant (Th YANGONA       MMR11007171335207217980717000000000000000   10300003F00104100000000000000000000039360     
100   95031900027434270000000000020200000000020200002000000010410407161718544854425Y91ZE0717000003908667   1030000900030000   333300010001202104000002659MSP                    Yangon        MMR11007161718544854420717000000000000000   10300014F05104100000000000000000000020000     
100   62346600151215570000000000100200000000100200002000000010410407170618544854576011650717000003909992   1030000900030000   333300010001202104000002717Near Me Android        Yangon        MMR11007170618544854570717000000000000000   10300005F05104100000000000000000000020000     
100   9503051895054126000000000005000000000005000000200000001041040717120048717957H5QB4M0717602301848198   1030000900030000   592119000256190110000000151Htun Htun Oo Liquor (B YANGON        MMR11007171200487179570717000000000000000   10300002F00104100000000000000000000015000     
100   62346600135366810000000000012510000000012510002000000010410407171241507196799355270717031111950198   1030000900030000   541119000170190110000000085SeinGayHar (Dagon Cent YANGONUNG     MMR11007171241507196790717000000000000000   10300005F00104100000000000000000000002502     
100   35710830005818670000000000104000000000104000002000000010410407170846027094425041350717441161502198   1030000900030000   594419000631190110000000462Shwe San Eain GemsTime YANGONUT      MMR11007170846027094420717000000000000000   10300003F00104100000000000000000000031200     
100   95030201002297730000000000005000000000005000002000000010410407170313094309742173070717000003909118   1030000900030000   333400010001202104000002022ACS                    Yangon        MMR11007170313094309740717000000000000000   10200002F05104100000000000000000000003000     
100   62443000103164840000000000009500000000009500002000000010410407171223277189645618910717862531827198   1030000900030000   541119000112190110000000077Sein Gay Har Chinatown YANGON        MMR11007171223277189640717000000000000000   10300005F00104100000000000000000000003325     
100   35710830014865530000000000011760000000011760002000000010410407171425507236409634400717873552050198   1030000900030000   581219000231190110000000130MinLan Restaurant(SanC YANGONUNG     MMR11007171425507236400717000000000000000   10300003F00104100000000000000000000003998     
100   35710500180359470000000000043000000000043000002000000010410407170615477031358388630717943451247198   1030000900030000   541119000112190110000000077Sein Gay Har Chinatown YANGON        MMR11007170615477031350717000000000000000   10300005F00104100000000000000000000008600     
100   62346600119393740000000000011000000000011000002000000010410407171139597170218262390717333091859198   1030000900030000   541119000172190110000000085SeinGayHar (Dagon Cent YANGONUNG     MMR11007171139597170210717000000000000000   10300005F00104100000000000000000000002200     
100   9503051878768072000000000001495000000001495000200000001041040717090009710027XFKPGF0717567301509198   1030000900030000   541119000144190110000000083SeinGayHarParami Cente YANGON        MMR11007170900097100270717000000000000000   10300002F00104100000000000000000000002990     
100   35710830090175580000000000150000000000150000002000000010410407170900457100546606110717574301545198   1030000900030000   506519000235190110000000134Myanmar Solar Rays Co. YANGON        MMR11007170900457100540717000000000000000   10300003F00104100000000000000000000045000     
100   35710830783444870000000000216000000000216000002000000010410407170905317102526606450717607351531198   1030000900030000   573219000379190110000000247Infinity Business-Phil YANGONUNG     MMR11007170905317102520717000000000000000   10300003F00104100000000000000000000064800     
100   9503054000385781000000000007600000000007600000200000001041040717091209710519IQVB4E0717656421509198   1030000900030000   594419000708190110000000539Zwe Htet Gems & Jewell YANGON        MMR11007170912097105190717000000000000000   10300002F00104100000000000000000000022800     
100   62346600190975890000000000740000000000740000002000000010410407170912287105299924380717657421528198   1030000900030000   481219000030190110000000029I Sure Apple Service C YANGONUT      MMR11007170912287105290717000000000000000   10300005F00104100000000000000000000222000     
100   35710500381177900000000000001485000000001485002000000010410407171228357191466717090717899581835198   1030000900030000   541119000112190110000000077Sein Gay Har Chinatown YANGON        MMR11007171228357191460717000000000000000   10300005F00104100000000000000000000000297     
100   9503051896891765000000000004150000000004150000200000001041040717122909719161TURJY10717902591809198   1030000900030000   569119000350190110000000217Bench (Myanmar Plaza)  YANGON        MMR11007171229097191610717000000000000000   10300002F00104100000000000000000000012450     
100   9503051886524400000000000001483500000001483500200000001041040717123243719299URBLPP0717922021943198   1030000900030000   581319000651190110000000482Piano Bar              YANGONONE     MMR11007171232437192990717000000000000000   10300002F00104100000000000000000000005044     
100   9503051872418195000000000010780000000010780000200000001041040717060248702647XPWGGK0717858321248198   1030000900030000   591219000502190110000000349Shwe Ohh Pharmacy -4   YANGON        MMR11007170602487026470717000000000000000   10300002F00104100000000000000000000032340     
100   35710830696667160000000000120000000000120000002000000010410407170611077029415975440717896411207198   1030000900030000   541119000282190110000000177Pro1 Global (Insein)   YANGON        MMR11007170611077029410717000000000000000   10300003F00104100000000000000000000024000     
100   95050314635839930000000000348000000000348000002000000010410407170614587030898637080717932441258198   1030000900030000   594419000705190110000000536Zwe Htet Gems & Jewell YANGON        MMR11007170614587030890717000000000000000   10300001F00104100000000000000000000146160     
100   9503051895380851000000000015800000000015800000200000001041040717061547703136LVYTLR0717944451247198   1030000900030000   729819000218190110000000118Cherish Beauty Collect YANGONUNG     MMR11007170615477031360717000000000000000   10300002F00104100000000000000000000047400     
100   9503051895272074000000000009215000000009215000200000001041040717093207711317M8IDVZ0717818021607198   1030000900030000   541119000288190110000000178Pro (1) Global (East D YANGONMYOTHIT MMR11007170932077113170717000000000000000   10300002F00104100000000000000000000018430     
100   62346600110719470000000000054800000000054800002000000010410407170831367088292032490717303011536198   1030000900030000   541119000282190110000000177Pro1 Global (Insein)   YANGON        MMR11007170831367088290717000000000000000   10300005F00104100000000000000000000010960     
100   62346600131882360000000000006500000000006500002000000010410407170836547090619542830717350061554198   1030000900030000   581219000083190110000000058313C Bakery            YANGON        MMR11007170836547090610717000000000000000   10300005F00104100000000000000000000002210     
100   62346600140927830000000000020200000000020200002000000010410407171124157162779952890717110541715198   1030000900030000   554119000347190110000000214New Day Energy - 4     YANGONARTAUNG MMR11007171124157162770717000000000000000   10300005F00104100000000000000000000003030     
100   35710500152100710000000000097300000000097300002000000010410407170753177073103638120717993231417198   1030000900030000   541119000289190110000000178Pro (1) Global (East D YANGONMYOTHIT MMR11007170753177073100717000000000000000   10300005F00104100000000000000000000019460     
100   62346600190870930000000002119000000002119000002000000010410407170845297094189004680717436151529198   1030000900030000   481219000710190110000000541I Sure Technology Co., YANGONAUNG    MMR11007170845297094180717000000000000000   10300005F00104100000000000000000000635700     
100   62346600114187750000000000023000000000023000002000000010410407170648077044851163510717286181307198   1030000900030000   591219000507190110000000354Shwe Ohh Pharmacy -9   YANGON        MMR11007170648077044850717000000000000000   10300005F00104100000000000000000000006900     
100   62622000309304950000000000630000000000630000002000000010410407171208007182977134530717697381800198   1030000900030000   594419000598190110000000438Shwe NanTaw Jewellery  YANGONN       MMR11007171208007182970717000000000000000   10300006F00104100000000000000000000189000     
100   9503051896092935000000000000800000000000800000200000001041040717131612721040PBAZGW0717328461912198   1030000900030000   599919000200190110000000104119 Fashion (Thingangy YANGONNGKUUN  MMR11007171316127210400717000000000000000   10300002F00104100000000000000000000002400     
100   62441900102305570000000000035000000000035000002000000010410407170211264126674009150717000003908939   1030000900030000   333400010001202104000002022ACS                    Yangon        MMR11007170211264126670717000000000000000   10300003F05104100000000000000000000021000     
100   35710500311676100000000000015000000000015000002000000010410407171124167162795506010717111541716198   1030000900030000   554119000345190110000000212New Day Energy - 2     YANGONAUNG    MMR11007171124167162790717000000000000000   10300005F00104100000000000000000000002250     
100   9503051881410670000000000026500000000026500000200000001041040717051122700486OJFVA40717338411122198   1030000900030000   541119000282190110000000177Pro1 Global (Insein)   YANGON        MMR11007170511227004860717000000000000000   10300002F00104100000000000000000000053000     
100   950319000110413400000000000396000000000396000020000000104104071712340171934153Y8ZE0717934041901198   1030000900030000   591219000503190110000000350Shwe Ohh Pharmacy (WZD YANGONNGKUUN  MMR11007171234017193410717000000000000000   10300014F00104100000000000000000000011880     
100   62622000053087500000000000007900000000007900002000000010410407171146077173007184880717410161807198   1030000900030000   541119000172190110000000085SeinGayHar (Dagon Cent YANGONUNG     MMR11007171146077173000717000000000000000   10300006F00104100000000000000000000001580     
100   95030518912915080000000000010000000000010000002000000010410407171146217173121EDUBR0717411161821198   1030000900030000   581219000185190110000000089KER Rendezvous - 4Floo YANGONONE     MMR11007171146217173120717000000000000000   10300002F00104100000000000000000000003400     
100   95030518825318390000000000047000000000047000002000000010410407171150077174740XDBO00717455201807198   1030000900030000   541119000377190110000000356Fuji Shopping Center ( MANDALAYHARSI MMR11007171150077174740717000000000000000   10300002F00104100000000000000000000009400     
100   9503051886764113000000000018993500000018993500200000001041040717115336717622RIWQ4Y0717491231836198   1030000900030000   701119000628190110000000461Hotel Parami (Yangon)  YANGONONE     MMR11007171153367176220717000000000000000   10300002F00104100000000000000000000064578     
100   95030201137358320000000000084000000000084000002000000010410407171403337228189466430717700332033198   1030000900030000   729819000594190110000000434Glamour Beauty & Spa(T YANGONUT      MMR11007171403337228180717000000000000000   10200002F00104100000000000000000000025200     
100   62921400097979920000000000005000000000005000002000000010410407171421135113303333330717000003911564   1030000900030000   333400010001202104000002022ACS                    Yangon        MMR11007171421135113300717000000000000000   10300009F05104100000000000000000000003000     
100   35710830664190100000000000143600000000143600002000000010410407171024205420018207610717000003911032   1030000900030000   333300010001202104000000109Myanmar National Airli Yangon        MMR11007171024205420010717000000000000000   10300003F05104100000000000000000000020000     
100   95050319391394380000000000008500000000008500002000000010410407171129337165252092130717192591733198   1030000900030000   541119000122190110000000080Sein Gay Har BAK       YANGONADA     MMR11007171129337165250717000000000000000   10300001F00104100000000000000000000002975     
100   35650880492309860000000000017000000000017000002000000010410407171135057167831114300717258051805198   1030000900030000   541119000112190110000000077Sein Gay Har Chinatown YANGON        MMR11007171135057167830717000000000000000   10300005F00104100000000000000000000005950     
100   9503051896744543000000000008334900000008334900200000001041040717113533716812MUE5ZF0717267051833198   1030000900030000   581219000398190110000000262Fuji Japanese Restaura MANDALAYHARSA MMR11007171135337168120717000000000000000   10300002F00104100000000000000000000028339     
100   35710830594151730000000001857000000001857000002000000010410407171135377168155085080717269051837198   1030000900030000   59441900052919011000000037729 Jewellery           YANGONUT      MMR11007171135377168150717000000000000000   10300003F00104100000000000000000000557100     
100   9503051893302105000000000003750000000003750000200000001041040717143340723890DJ2GDB0717905032140198   1030000900030000   599919000055190110000000050119 Fashion Complex (K YANGONUT      MMR11007171433407238900717000000000000000   10300002F00104100000000000000000000011250     
100   95030518883760230000000000039000000000039000002000000010410407171443127241755YSCN70717926132112198   1030000900030000   701119000428190110000000288Hlaine Tet Hotel       YANGONONE     MMR11007171443127241750717000000000000000   10300002F00104100000000000000000000013260     
100   35710830822187010000000000092505000000092505002000000010410407171444587242345405510717931142158198   1030000900030000   581219000351190110000000218Min Lan Restaurant (Th YANGONA       MMR11007171444587242340717000000000000000   10300003F00104100000000000000000000031452     
100   35710830617954710000000000010000000000010000002000000010410407171451047244237307610717950212104198   1030000900030000   554119000348190110000000215New Day Energy - 5     YANGONONE     MMR11007171451047244230717000000000000000   10300003F00104100000000000000000000001500     
100   95031011220164790000000000020000000000020000002000000010410407162124525452938472060717000003908735   1030000900030000   333400010001202104000002022ACS                    Yangon        MMR11007162124525452930717000000000000000   10300005F05104100000000000000000000012000     
100   62921400095218890000000000000500000000000500002000000010410407170220025002423333330717000003908960   1030000900030000   333800010001202104000003301uab bank               Yangon        MMR11007170220025002420717000000000000000   10300009F05104100000000000000000000000300     
100   35710830654546790000000000005700000000005700002000000010410407171418597233877304410717830482059198   1030000900030000   541119000349190110000000216Amazing Mart (South Da YANGONMYOTHIT MMR11007171418597233870717000000000000000   10300003F00104100000000000000000000001140     
100   9503051894832225000000000021870000000021870000200000001041040717080742707924ZJPTUR0717131371442198   1030000900030000   541119000284190110000000177Pro1 Global (Insein)   YANGON        MMR11007170807427079240717000000000000000   10300002F00104100000000000000000000043740     
100   35710830037797080000000000009345000000009345002000000010410407170941027117064966900717912111602198   1030000900030000   581219000029190110000000026BCC (TC)               YANGONUT      MMR11007170941027117060717000000000000000   10300003F00104100000000000000000000003177     
100   62921400070265760000000000010000000000010000002000000010410407170412234223603333330717000003909435   1030000900030000   333400010001202104000002022ACS                    Yangon        MMR11007170412234223600717000000000000000   10300009F05104100000000000000000000006000     
100   9503051884032448000000000006900000000006900000200000001041040717104842714595SDWMZC0717608181742198   1030000900030000   591219000695190110000000526Shwe Ohh Pharmacy ST-2 YANGONNGKUUN  MMR11007171048427145950717000000000000000   10300002F00104100000000000000000000020700     
100   35710500360676170000000000195500000000195500002000000010410407171051497147343489590717633211749198   1030000900030000   599919000388190110000000251Pro (1) Global (MawlaM AYEYARWADDYGY MMR11007171051497147340717000000000000000   10300005F00104100000000000000000000058650     
100   35710500183981050000000000011000000000011000002000000010410407171422395239605338630717000003911566   1030000900030000   333400010001202104000002022ACS                    Yangon        MMR11007171422395239600717000000000000000   10300005F05104100000000000000000000006600     
100   9503051884177268000000000008770000000008770000200000001041040717064748704468LG8GHO0717279171348198   1030000900030000   541119000289190110000000178Pro (1) Global (East D YANGONMYOTHIT MMR11007170647487044680717000000000000000   10300002F00104100000000000000000000017540     
100   35710500310736770000000000059500000000059500002000000010410407170647507044709766320717280171350198   1030000900030000   541119000112190110000000077Sein Gay Har Chinatown YANGON        MMR11007170647507044700717000000000000000   10300005F00104100000000000000000000011900     
100   35710950970165570000000000024600000000024600002000000010410407170649117045295374760717294191311198   1030000900030000   569119000350190110000000217Bench (Myanmar Plaza)  YANGON        MMR11007170649117045290717000000000000000   10300003F00104100000000000000000000007380     
100   9503051893291092000000000007000000000007000000200000001041040717100930712905NIIDO80717188391630198   1030000900030000   597719000109190110000000075Girls Generation       YANGONUT      MMR11007171009307129050717000000000000000   10300002F00104100000000000000000000021000     
100   9503051880716168000000000001000000000001000000200000001041040717101746713268BVO7E70717273471646198   1030000900030000   594319000084190110000000059Innwa Books            YANGONUT      MMR11007171017467132680717000000000000000   10300002F00104100000000000000000000003000     
100   62441900102954280000000000065000000000065000002000000010410407171017537132726017990717274471653198   1030000900030000   594419000454190110000000307Shwe San Eain (Junctio YANGONN       MMR11007171017537132720717000000000000000   10300003F00104100000000000000000000027300     
100   35710500185091640000000000040150000000040150002000000010410407171018497133133051060717289481649198   1030000900030000   541119000286190110000000177Pro1 Global (Insein)   YANGON        MMR11007171018497133130717000000000000000   10300005F00104100000000000000000000008030     
100   62346600177352710000000000155600000000155600002000000010410407171338107218990686870717522082010198   1030000900030000   569119000737190110000000569Di Fashion(NorthDagon) YANGONMYOTHIT MMR11007171338107218990717000000000000000   10300005F00104100000000000000000000046680     
100   95030801450218900000000000020500000000020500002000000010410407171339267219399356010717530092026198   1030000900030000   599919000192190110000000096119 Fashion Complex (H YANGON        MMR11007171339267219390717000000000000000   10300003F00104100000000000000000000006150     
100   95030201003447620000000000017586000000017586002000000010410407171339357219462274610717532092035198   1030000900030000   581219000721190110000000552Chilli Pot Mala Xiang  YANGONOKKALAP MMR11007171339357219460717000000000000000   10200002F00104100000000000000000000005979     
100   9503051890053362000000000004885000000004885000200000001041040717134140722035OJI4CP0717550112040198   1030000900030000   581219000635190110000000466King BBQ Time City     YANGONUT      MMR11007171341407220350717000000000000000   10300002F00104100000000000000000000016609     
100   62346600175542430000000000000050000000000050002000000010410407171342477220721381430717559122047198   1030000900030000   591219000605190110000000445Shwe Ohh Pharmacy St-1 YANGONNGKUUN  MMR11007171342477220720717000000000000000   10300005F00104100000000000000000000000015     
100   35710830005251790000000000058000000000058000002000000010410407170935277114803855140717863051627198   1030000900030000   573219000240190110000000139Nibban Electronic(Shwe YANGONITHAR   MMR11007170935277114800717000000000000000   10300003F00104100000000000000000000017400     
100   95030800028564870000000000022050000000022050002000000010410407170935397114883855210717866051639198   1030000900030000   581219000734190110000000566The Bash Yangon        YANGON        MMR11007170935397114880717000000000000000   10300003F00104100000000000000000000007497     
100   35710830374249660000000000025500000000025500002000000010410407170936217115207897500717874061621198   1030000900030000   569119000557190110000000404Busan Korea Fashion (T YANGON        MMR11007170936217115200717000000000000000   10300003F00104100000000000000000000007650     
100   35710830315626700000000000074500000000074500002000000010410407171052597147883871080717650221759198   1030000900030000   594419000631190110000000462Shwe San Eain GemsTime YANGONUT      MMR11007171052597147880717000000000000000   10300003F00104100000000000000000000022350     
100   9503051895313316000000000002130000000002130000200000001041040717052026700889HKYQ3U0717440501126198   1030000900030000   541119000112190110000000077Sein Gay Har Chinatown YANGON        MMR11007170520267008890717000000000000000   10300002F00104100000000000000000000004260     
100   62346600151082730000000000001700000000001700002000000010410407170521167009196019500717447511116198   1030000900030000   541119000170190110000000085SeinGayHar (Dagon Cent YANGONUNG     MMR11007170521167009190717000000000000000   10300005F00104100000000000000000000000340     
100   62346600103286450000000001340000000001340000002000000010410407170841157092550388090717402111515198   1030000900030000   481219000030190110000000029I Sure Apple Service C YANGONUT      MMR11007170841157092550717000000000000000   10300005F00104100000000000000000000402000     
100   35710830846260910000000000177150000000177150002000000010410407170843527093508014460717421131552198   1030000900030000   541119000286190110000000177Pro1 Global (Insein)   YANGON        MMR11007170843527093500717000000000000000   10300003F00104100000000000000000000035430     
100   62443100361646100000000000160000000000160000002000000010410407170844077093580339010717423141507198   1030000900030000   541119000162190110000000084Pro (1) Global (Pazund YANGONARTAUNG MMR11007170844077093580717000000000000000   10300001F00104100000000000000000000056000     
100   35710500168967530000000000040300000000040300002000000010410407171203597181050957790717645331859198   1030000900030000   541119000122190110000000080Sein Gay Har BAK       YANGONADA     MMR11007171203597181050717000000000000000   10300005F00104100000000000000000000008060     
100   35710830898199150000000000012495000000012495002000000010410407171205217181755914070717664351821198   1030000900030000   581219000698190110000000529Pizzamaru Myanmar (San YANGONUNG     MMR11007171205217181750717000000000000000   10300003F00104100000000000000000000004248     
100   62346600132802310000000000013900000000013900002000000010410407170334576967518442000717522041057198   1030000900030000   591219000501190110000000348Shwe Ohh Pharmacy (SmL YANGONUT      MMR11007170334576967510717000000000000000   10300005F00104100000000000000000000004170     
100   62346600184570400000000001970000000001970000002000000010410407170340016969531898960717568101001198   1030000900030000   481219000710190110000000541I Sure Technology Co., YANGONAUNG    MMR11007170340016969530717000000000000000   10300005F00104100000000000000000000591000     
100   9503051897067613000000000002990000000002990000200000001041040717034059696991REACVJ0717575101059198   1030000900030000   599919000200190110000000104119 Fashion (Thingangy YANGONNGKUUN  MMR11007170340596969910717000000000000000   10300002F00104100000000000000000000008970     
100   95030518915377020000000000005550000000005550002000000010410407170355116975665AJCHG0717718251011198   1030000900030000   599919000194190110000000098119Fashion(Mingalartau YANGONARTAUNG MMR11007170355116975660717000000000000000   10300002F00104100000000000000000000001665     
100   62622000649920560000000000262400000000262400002000000010410407170358276976637173470717732281027198   1030000900030000   541119000159190110000000084Pro (1) Global (Pazund YANGONIKANAUN MMR11007170358276976630717000000000000000   10300006F00104100000000000000000000052480     
100   62921400070859940000000001000000000001000000002000000010410407170425545554703333330717000003909495   1030000900030000   333800010001202104000003301uab bank               Yangon        MMR11007170425545554700717000000000000000   10300009F05104100000000000000000000600000     
100   35710500109221910000000000060835000000060835002000000010410407171539507258530911260717033092250198   1030000900030000   581319000651190110000000482Piano Bar              YANGONONE     MMR11007171539507258530717000000000000000   10300005F00104100000000000000000000020684     
100   35710500109221910000000000025300000000025300002000000010410407171601237264534408280717047312223198   1030000900030000   581319000651190110000000482Piano Bar              YANGONONE     MMR11007171601237264530717000000000000000   10300005F00104100000000000000000000008602     
100   9503051878028311000000000300020000000300020000200000001041040717062953595360IEGQQ10717000003910044   1030000900030000   333300010001202104000002717Near Me Android        Yangon        MMR11007170629535953600717000000000000000   10300002F05104100000000000000000000020000     
100   35710500173340850000000000056430000000056430002000000010410407170722087059542797590717658521308198   1030000900030000   581219000004190110000000002Yoogane Korea Rest;(MP YANGON        MMR11007170722087059540717000000000000000   10300005F00104100000000000000000000019186     
100   35710830123142990000000000031300000000031300002000000010410407170724437060655378090717690541343198   1030000900030000   581219000205190110000000107Canton Paradise        YANGON        MMR11007170724437060650717000000000000000   10300003F00104100000000000000000000010642     
100   9503051888206469000000000002350000000002350000200000001041040717051243700550Z5QLDO0717355421143198   1030000900030000   594419000706190110000000537Zwe Htet Gems & Jewell YANGONAW      MMR11007170512437005500717000000000000000   10300002F00104100000000000000000000007050     
100   62443001760002450000000000717100000000717100002000000010410407170518107007853749480717410481110198   1030000900030000   573219000408190110000000272AMT Computer and Acces MANDALAYHARSA MMR11007170518107007850717000000000000000   10300005F00104100000000000000000000301182     
100   62346600125513840000000000013500000000013500002000000010410407171243147197485929550717054131914198   1030000900030000   599919000197190110000000101119 Fashion Complex (I YANGON        MMR11007171243147197480717000000000000000   10300005F00104100000000000000000000004050     
100   9503051893810602000000000000300000000000300000200000001041040717124330719755UULWEV0717056131930198   1030000900030000   541119000381190110000000248Victoria Hyper Mart    YANGON        MMR11007171243307197550717000000000000000   10300002F00104100000000000000000000000600     
100   95030518866360220000000000019900000000019900002000000010410407171247157199165OA9PJ0717084171915198   1030000900030000   541119000168190110000000085SeinGayHar (Dagon Cent YANGONUNG     MMR11007171247157199160717000000000000000   10300002F00104100000000000000000000003980     
100   35710830874959810000000000010000000000010000002000000010410407171335090509093467690717000003911447   1030000900030000   333400010001202104000002022ACS                    Yangon        MMR11007171335090509090717000000000000000   10300003F05104100000000000000000000006000     
100   95031010640293650000000000002500000000002500002000000010410407161842511251198471730717000003908703   1030000900030000   333400010001202104000002022ACS                    Yangon        MMR11007161842511251190717000000000000000   10300005F05104100000000000000000000001500     
100   62346600169562410000000000010000000000010000002000000010410407171110254025262912750717000003911123   1030000900030000   333400010001202104000002022ACS                    Yangon        MMR11007171110254025260717000000000000000   10300005F05104100000000000000000000006000     
100   35710830124307230000000002500200000002500200002000000010410407171555442544110196300717000003911782   1030000900030000   333300010001202104000002717Near Me Android        Yangon        MMR11007171555442544110717000000000000000   10300003F05104100000000000000000000020000     
100   62346600190550330000000000003000000000003000002000000010410407170202103210773735120717000003908913   1030000900030000   333400010001202104000002022ACS                    Yangon        MMR11007170202103210770717000000000000000   10300005F05104100000000000000000000001800     
100   35710830803330560000000000157373860000157373862000000010410407170740281028258628520717000003910373   1030000900030000   333300010001202104000000109Myanmar National Airli Yangon        MMR11007170740281028250717000000000000000   10300003F05104100000000000000000000020000     
100   35710830803330560000000000004178070000004178072000000010410407170742541254865959780717000003910385   1030000900030000   333300010001202104000000109Myanmar National Airli Yangon        MMR11007170742541254860717000000000000000   10300003F05104100000000000000000000020000     
100   95031010400355690000000000100200000000100200002000000010410407171548591859158864050717000003911768   1030000900030000   333300010001202104000002659MSP                    Yangon        MMR11007171548591859150717000000000000000   10300005F05104100000000000000000000020000     
100   9503051891921245000000000000968000000000968000200000001041040717120618718228M49XL30717683361818198   1030000900030000   581219000371190110000000243Jo Jo Hot Pot (Junctio YANGONN       MMR11007171206187182280717000000000000000   10300002F00104100000000000000000000003291     
100   95030518934917180000000000053100000000053100002000000010410407171210547184207YDUFK0717735401854198   1030000900030000   541119000286190110000000177Pro1 Global (Insein)   YANGON        MMR11007171210547184200717000000000000000   10300002F00104100000000000000000000010620     
100   62346600150668850000000000013000000000013000002000000010410407171343327220987650990717565132032198   1030000900030000   509419000038190110000000047Naing Win Gold & Jewel YANGONUT      MMR11007171343327220980717000000000000000   10300005F00104100000000000000000000006500     
100   35650883660009050000000000248000000000248000002000000010410407170717514751141485490717000003910276   1030000900030000   333300010001202104000000109Myanmar National Airli Yangon        MMR11007170717514751140717000000000000000   10300005F05104100000000000000000000020000     
100   35710500180359470000000000043750000000043750002000000010410407170618577032557046590717975481257198   1030000900030000   541119000112190110000000077Sein Gay Har Chinatown YANGON        MMR11007170618577032550717000000000000000   10300005F00104100000000000000000000008750     
100   35710500120369660000000000011500000000011500002000000010410407170624297034687614690717019541229198   1030000900030000   541119000112190110000000077Sein Gay Har Chinatown YANGON        MMR11007170624297034680717000000000000000   10300005F00104100000000000000000000002300     
100   62441900001578280000000000025000000000025000002000000010410407170624407034763810180717022541240198   1030000900030000   546219000745190110000000577Ei Dorado Bake House(T YANGONNGKUUN  MMR11007170624407034760717000000000000000   10300003F00104100000000000000000000010500     
100   62622000902262710000000000040900000000040900002000000010410407170627517036106951740717057571251198   1030000900030000   806219000537190110000000385Mandalar Hospital      MANDALAYHARSA MMR11007170627517036100717000000000000000   10300006F00104100000000000000000000012270     
100   95031100010526120000000000328200000000328200002000000010410407171405177228897175450717714352017198   1030000900030000   581219000369190110000000241Beauty In The Pot (PHS YANGON        MMR11007171405177228890717000000000000000   10300006F00104100000000000000000000111588     
100   95031900008188900000000000004950000000004950002000000010410407171407237229747MK9ZE0717742372023198   1030000900030000   541119000138190110000000083SeinGayHarParami Cente YANGON        MMR11007171407237229740717000000000000000   10300014F00104100000000000000000000000990     
100   62443000112787820000000000005000000000005000002000000010410407162313464346471783400717000003908754   1030000900030000   333400010001202104000002022ACS                    Yangon        MMR11007162313464346470717000000000000000   10300005F05104100000000000000000000003000     
100   95031010430467530000000000035000000000035000002000000010410407171512564256628861740717000003911713   1030000900030000   333400010001202104000002022ACS                    Yangon        MMR11007171512564256620717000000000000000   10300005F05104100000000000000000000021000     
100   35710500120861020000000000005000000000005000002000000010410407170926465646344769370717000003910837   1030000900030000   333400010001202104000002022ACS                    Yangon        MMR11007170926465646340717000000000000000   10300005F05104100000000000000000000003000     
100   35710830296296970000000000022800000000022800002000000010410407170814177081928102970717193441417198   1030000900030000   591219000692190110000000523Shwe Ohh Pharmacy ST-1 YANGON        MMR11007170814177081920717000000000000000   10300003F00104100000000000000000000006840     
100   35710830190127060000000000029500000000029500002000000010410407171111057156475093480717916411705198   1030000900030000   594419000631190110000000462Shwe San Eain GemsTime YANGONUT      MMR11007171111057156470717000000000000000   10300003F00104100000000000000000000008850     
100   95050315743141220000000000010450000000010450002000000010410407171112507157135652390717932421750198   1030000900030000   541119000124190110000000080Sein Gay Har BAK       YANGONADA     MMR11007171112507157130717000000000000000   10300001F00104100000000000000000000003657     
100   35710500371917880000000000012200000000012200002000000010410407171250087200455969730717121201908198   1030000900030000   599919000196190110000000100119 Fashion Complex (P YANGONOKKALAP MMR11007171250087200450717000000000000000   10300005F00104100000000000000000000003660     
100   9503051897977332000000000003285000000003285000200000001041040717125235720138QDKWK70717139221935198   1030000900030000   591219000759190110000000591Shwe Ohh Pharmacy ST-3 YANGONOKKALAP MMR11007171252357201380717000000000000000   10300002F00104100000000000000000000009855     
100   9503051880866013000000000001990000000001990000200000001041040717120325718088FYOZYE0717640331825198   1030000900030000   591219000609190110000000449Shwe Ohh Pharmacy St-3 YANGONAUNG    MMR11007171203257180880717000000000000000   10300002F00104100000000000000000000005970     
100   35710500192729030000000000006000000000006000002000000010410407171153487176346168500717496231848198   1030000900030000   569119000273190110000000168Central Fashion Store  MANDALAYHARSA MMR11007171153487176340717000000000000000   10300005F00104100000000000000000000001800     
100   35710500145096630000000000000100000000000100002000000010410407171025057135660484380717338551605198   1030000900030000   569119000573190110000000413CNC Mens Wear(SanYeikN YANGONUT      MMR11007171025057135660717000000000000000   10300005F00104100000000000000000000000030     
100   35650973620003550000000000500200000000500200002000000010410407170358062806948788410717000003909352   1030000900030000   333300010001202104000002659MSP                    Yangon        MMR11007170358062806940717000000000000000   10300005F05104100000000000000000000020000     
100   9503051886321864000000000006020000000006020000200000001041040717135807280714G2YYSE0717000003911493   1030000900030000   333300010001202104000002659MSP                    Yangon        MMR11007171358072807140717000000000000000   10300002F05104100000000000000000000020000     
100   9503051889811234000000000087400000000087400000200000001041040717071436705645YKBNQN0717586441336198   1030000900030000   594419000708190110000000539Zwe Htet Gems & Jewell YANGON        MMR11007170714367056450717000000000000000   10300002F00104100000000000000000000262200     
100   9503051884440013000000000003125000000003125000200000001041040717093406711402BSIQTS0717839041606198   1030000900030000   541119000162190110000000084Pro (1) Global (Pazund YANGONARTAUNG MMR11007170934067114020717000000000000000   10300002F00104100000000000000000000006250     
100   62343301015850950000000000010000000000010000002000000010410407171202373237410000000717000003911272   1030000900030000   333400010001202104000002022ACS                    Yangon        MMR11007171202373237410717000000000000000   10300004F05104100000000000000000000006000     
100   9503051873525626000000000001000000000001000000200000001041040717140123312300E8V8DH0717000003911502   1030000900030000   333400010001202104000002022ACS                    Yangon        MMR11007171401233123000717000000000000000   10300002F05104100000000000000000000006000     
100   95031202600584990000000000001000000000001000002000000010410407170509013901163333330717000003909697   1030000900030000   333800010001202104000003301uab bank               Yangon        MMR11007170509013901160717000000000000000   10300009F05104100000000000000000000000600     
100   62346600151423220000000000010000000000010000002000000010410407170435540554705108660717000003909543   1030000900030000   333400010001202104000002022ACS                    Yangon        MMR11007170435540554700717000000000000000   10300005F05104100000000000000000000006000     
100   35710500124447720000000000017000000000017000002000000010410407170938017115772605430717889081601198   1030000900030000   729819000768190110000000600Urban Beauty Studio    YANGON        MMR11007170938017115770717000000000000000   10300005F00104100000000000000000000005100     
100   62346600181498450000000004730000000004730000002000000010410407170938287115907477790717895081628198   1030000900030000   59441900052919011000000037729 Jewellery           YANGONUT      MMR11007170938287115900717000000000000000   10300005F00104100000000000000000001419000     
100   9503051896040520000000000010600000000010600000200000001041040716175629680055GOKDCH0717335260029198   1030000900030000   581319000586190110000000426K2 KTV                 YANGONMYOTHIT MMR11007161756296800550717000000000000000   10300002F00104100000000000000000000036040     
100   35710500350357970000000000010000000000010000002000000010410407170137416924812587280717685070841198   1030000900030000   701119000428190110000000288Hlaine Tet Hotel       YANGONONE     MMR11007170137416924810717000000000000000   10300005F00104100000000000000000000003400     
100   9503051886398433000000000004950000000004950000200000001041040717084542709427BFQETU0717438151542198   1030000900030000   599919000648190110000000479Ximi Voque Store       YANGONUT      MMR11007170845427094270717000000000000000   10300002F00104100000000000000000000014850     
100   95030800003309720000000000014000000000014000002000000010410407171213577185368843120717758431857198   1030000900030000   592119000256190110000000151Htun Htun Oo Liquor (B YANGON        MMR11007171213577185360717000000000000000   10300003F00104100000000000000000000004200     
100   35710500162435680000000000095000000000095000002000000010410407171452257244685209810717952222125198   1030000900030000   581319000363190110000000236Safe House Club        YANGON        MMR11007171452257244680717000000000000000   10300005F00104100000000000000000000032300     
100   35710830236890100000000000045800000000045800002000000010410407171452587244817307700717954222158198   1030000900030000   581219000206190110000000108Beauty in the Pot      YANGON        MMR11007171452587244810717000000000000000   10300003F00104100000000000000000000015572     
100   62443000803069280000000000033600000000033600002000000010410407171112557157163132390717934421755198   1030000900030000   591219000500190110000000347Shwe Ohh Pharmacy -2   YANGONUNG     MMR11007171112557157160717000000000000000   10300005F00104100000000000000000000014112     
100   35710830650864300000000000062580000000062580002000000010410407171411117231117303630717773412011198   1030000900030000   581219000280190110000000175Min Lan Restaurant (Ka YANGONARTAUNG MMR11007171411117231110717000000000000000   10300003F00104100000000000000000000021277     
100   35710500120369660000000000007805000000007805002000000010410407171414237232111531160717786442023198   1030000900030000   541119000112190110000000077Sein Gay Har Chinatown YANGON        MMR11007171414237232110717000000000000000   10300005F00104100000000000000000000001561     
100   9503051885735593000000000002730000000002730000200000001041040717141558723272YWGFWL0717798452058198   1030000900030000   591219000605190110000000445Shwe Ohh Pharmacy St-1 YANGONNGKUUN  MMR11007171415587232720717000000000000000   10300002F00104100000000000000000000008190     
100   9503051890879121000000000008589000000008589000200000001041040717141947723426AC8OME0717837492047198   1030000900030000   581219000230190110000000129MinLan Restaurant(Maya YANGONONE     MMR11007171419477234260717000000000000000   10300002F00104100000000000000000000029203     
100   9503051019561154000000000000370000000000370000200000001041040717142431723580HIGTAK0717859542031198   1030000900030000   591219000691190110000000522Shwe Ohh Pharmacy ST-1 YANGONUNG     MMR11007171424317235800717000000000000000   10300002F00104100000000000000000000001110     
100   950305189650629800000000000155000000000155000020000000104104071713210972122949A9XH0717360511909198   1030000900030000   541119000144190110000000083SeinGayHarParami Cente YANGON        MMR11007171321097212290717000000000000000   10300002F00104100000000000000000000003100     
100   35710500160974770000000000003000000000003000002000000010410407171321547212669067680717367511954198   1030000900030000   599919000701190110000000532Amazing Mart (Baho Roa YANGONUT      MMR11007171321547212660717000000000000000   10300005F00104100000000000000000000000900     
100   95031900015733040000000000100200000000100200002000000010410407170349021902632W04ZE0717000003909304   1030000900030000   333300010001202104000002717Near Me Android        Yangon        MMR11007170349021902630717000000000000000   10300014F05104100000000000000000000020000     
100   35710830416309210000000000100200000000100200002000000010410407170058132813998008930717000003908792   1030000900030000   333300010001202104000002717Near Me Android        Yangon        MMR11007170058132813990717000000000000000   10300003F05104100000000000000000000020000     
100   950319000157937600000000000502000000000502000020000000104104071712303100318055Y8ZE0717000003911333   1030000900030000   333300010001202104000002717Near Me Android        Yangon        MMR11007171230310031800717000000000000000   10300014F05104100000000000000000000020000     
100   35710830466574990000000000002500000000002500002000000010410407171052382238626892320717000003911084   1030000900030000   333400010001202104000002022ACS                    Yangon        MMR11007171052382238620717000000000000000   10300003F05104100000000000000000000001500     
100   95050325991850000000000000016958000000016958002000000010410407170725447061197885000717704551344198   1030000900030000   581219000464190110000000318Mr.Chef (Sule)         YANGONADA     MMR11007170725447061190717000000000000000   10300001F00104100000000000000000000010090     
100   62343301002461780000000000012000000000012000002000000010410407170250422042150000000717000003909039   1030000900030000   333800010001202104000003301uab bank               Yangon        MMR11007170250422042150717000000000000000   10300004F05104100000000000000000000007200     
100   9503051884453461000000000000150000000000150000200000001041040717051814700790A5XHSU0717413481114198   1030000900030000   569119000655190110000000486High Cultured Fashion  YANGONUT      MMR11007170518147007900717000000000000000   10300002F00104100000000000000000000000450     
100   35710830325030870000000000052000000000052000002000000010410407171019347133524119350717298491634198   1030000900030000   729819000390190110000000253The Glam Bar Beauty SP YANGONUNG     MMR11007171019347133520717000000000000000   10300003F00104100000000000000000000015600     
100   62443101053753450000000000136050000000136050002000000010410407171501327247324290840717969312132198   1030000900030000   581219000369190110000000241Beauty In The Pot (PHS YANGON        MMR11007171501327247320717000000000000000   10300001F00104100000000000000000000080950     
100   35710830963407720000000000231850000000231850002000000010410407171502367247687142950717970322136198   1030000900030000   581219000206190110000000108Beauty in the Pot      YANGON        MMR11007171502367247680717000000000000000   10300003F00104100000000000000000000078829     
100   35710500153562210000000000078800000000078800002000000010410407171505257248484004670717971352125198   1030000900030000   581219000206190110000000108Beauty in the Pot      YANGON        MMR11007171505257248480717000000000000000   10300005F00104100000000000000000000026792     
100   35710950289464680000000000043000000000043000002000000010410407171344387221385817770717572142038198   1030000900030000   592119000256190110000000151Htun Htun Oo Liquor (B YANGON        MMR11007171344387221380717000000000000000   10300003F00104100000000000000000000012900     
100   62622000296372340000000000007950000000007950002000000010410407171345387221757185280717581152038198   1030000900030000   541119000144190110000000083SeinGayHarParami Cente YANGON        MMR11007171345387221750717000000000000000   10300006F00104100000000000000000000001590     
100   35710830782439940000000000015450000000015450002000000010410407171346147222033468470717586162014198   1030000900030000   599919000190190110000000094119 Fashion (North Okk YANGONOKKALAP MMR11007171346147222030717000000000000000   10300003F00104100000000000000000000004635     
