000   10300009200802
100   9503051020492258000000000012800000000012800000200000001041040802115346509787RYKPQO0802023231846214   1030000900030000   573219000379190110000000247Infinity Business-Phil YANGONUNG     MMR11008021153465097870802000000000000000   10300002F00104100000000000000000000038400     
100   95031900003607290000000000014400000000014400002000000010410408020351414909621SM3CF0802536211041214   1030000900030000   541119000182190110000000086SeinGayHar (Hlaing Tha YANGONTHARYA  MMR11008020351414909620802000000000000000   10300014F00104100000000000000000000002880     
100   95030518732147000000000000012500000000012500002000000010410408020351514909718IUUAY0802537211051214   1030000900030000   541119000152190110000000083SeinGayHarParami Cente YANGON        MMR11008020351514909710802000000000000000   10300002F00104100000000000000000000002500     
100   9503051884377793000000000009970000000009970000200000001041040802055906495832N4BEHU0802627291206214   1030000900030000   541119000162190110000000084Pro (1) Global (Pazund YANGONARTAUNG MMR11008020559064958320802000000000000000   10300002F00104100000000000000000000019940     
100   62443000110048990000000000110000000000110000002000000010410408020559164958436195500802631291216214   1030000900030000   594419000454190110000000307Shwe San Eain (Junctio YANGONN       MMR11008020559164958430802000000000000000   10300005F00104100000000000000000000046200     
100   35710500162848440000000000090000000000090000002000000010410408020559264958475940220802633291226214   1030000900030000   701119000472190110000000325Excel River View Hotel YANGONIN      MMR11008020559264958470802000000000000000   10300005F00104100000000000000000000030600     
100   35710830829369060000000000009240000000009240002000000010410408020559524958631364490802641291252214   1030000900030000   581219000371190110000000243Jo Jo Hot Pot (Junctio YANGONN       MMR11008020559524958630802000000000000000   10300003F00104100000000000000000000003142     
100   95030518826673440000000000157000000000157000002000000010410408020600214958875DOED20802648301221214   1030000900030000   599919000441190110000000296BKB Baby &Toys (North  YANGONMYOTHIT MMR11008020600214958870802000000000000000   10300002F00104100000000000000000000047100     
100   62443101096632410000000000026000000000026000002000000010410408021446105158400420750802155162110214   1030000900030000   554119000348190110000000215New Day Energy - 5     YANGONONE     MMR11008021446105158400802000000000000000   10300001F00104100000000000000000000005460     
100   35710500191058630000000000021800000000021800002000000010410408020912495033481129850802394421549214   1030000900030000   541119000152190110000000083SeinGayHarParami Cente YANGON        MMR11008020912495033480802000000000000000   10300005F00104100000000000000000000004360     
100   35710830495619460000000000215100000000215100002000000010410408020914085034104200290802412441508214   1030000900030000   541119000290190110000000178Pro (1) Global (East D YANGONMYOTHIT MMR11008020914085034100802000000000000000   10300003F00104100000000000000000000043020     
100   62622000693789390000000000200000000000200000002000000010410408020915205034623822890802424451520214   1030000900030000   594419000706190110000000537Zwe Htet Gems & Jewell YANGONAW      MMR11008020915205034620802000000000000000   10300006F00104100000000000000000000060000     
100   9503051890150077000000000001590000000001590000200000001041040802112537508621S7P3NB0802720551737214   1030000900030000   541119000141190110000000083SeinGayHarParami Cente YANGON        MMR11008021125375086210802000000000000000   10300002F00104100000000000000000000003180     
100   35710500340588650000000000029900000000029900002000000010410408021125545086318776200802724551754214   1030000900030000   581219000590190110000000430The Tea Club           YANGON        MMR11008021125545086310802000000000000000   10300005F00104100000000000000000000010166     
100   9503051892602125000000000014550000000014550000200000001041040802112622508650X4RVUT0802730561722214   1030000900030000   541119000162190110000000084Pro (1) Global (Pazund YANGONARTAUNG MMR11008021126225086500802000000000000000   10300002F00104100000000000000000000029100     
100   35710500135420950000000000097050000000097050002000000010410408021133395089564124920802807031839214   1030000900030000   541119000170190110000000085SeinGayHar (Dagon Cent YANGONUNG     MMR11008021133395089560802000000000000000   10300005F00104100000000000000000000019410     
100   35650710300214650000000000034700000000034700002000000010410408020426464923203298360802829561046214   1030000900030000   541119000614190110000000452Pro(1) Global-Hlaing T YANGONTHARYA  MMR11008020426464923200802000000000000000   10300005F00104100000000000000000000012145     
100   62441900002066740000000000200000000000200000002000000010410408020219234923718798240802000003949859   1030000900030000   333800010001202104000003301uab bank               Yangon        MMR11008020219234923710802000000000000000   10300003F05104100000000000000000000120000     
100   62443000110071320000000000050900000000050900002000000010410408020654554979941867360802141241355214   1030000900030000   599919000190190110000000094119 Fashion (North Okk YANGONOKKALAP MMR11008020654554979940802000000000000000   10300005F00104100000000000000000000021378     
100   9503051877077871000000000001000000000001000000200000001041040802121020402057WTTYEB0802000003950692   1030000900030000   333400010001202104000002022ACS                    Yangon        MMR11008021210204020570802000000000000000   10300002F05104100000000000000000000006000     
100   62346600120032460000000000350850000000350850002000000010410408011648444717506387060802399182344213   1030000900030000   581319000586190110000000426K2 KTV                 YANGONMYOTHIT MMR11008011648444717500802000000000000000   10300005F00104100000000000000000000119289     
100   9503051892933116000000000003500000000003500000200000001041040802092458545891ZWZVYW0802000003950473   1030000900030000   333400010001202104000002022ACS                    Yangon        MMR11008020924585458910802000000000000000   10300002F05104100000000000000000000021000     
100   35710830549635240000000000013000000000013000002000000010410408021251512151125065210802000003950756   1030000900030000   333400010001202104000002022ACS                    Yangon        MMR11008021251512151120802000000000000000   10300003F05104100000000000000000000007800     
100   9503051881366963000000000001000000000001000000200000001041040802141041514683MZBX0L0802979402041214   1030000900030000   554119000348190110000000215New Day Energy - 5     YANGONONE     MMR11008021410415146830802000000000000000   10300002F00104100000000000000000000001500     
100   9503051893927406000000000002520000000002520000200000001041040802095336233660SUVD1M0802000003950509   1030000900030000   333300010001202104000002659MSP                    Yangon        MMR11008020953362336600802000000000000000   10300002F05104100000000000000000000020000     
100   9503051893814281000000000027800000000027800000200000001041040802085741502745HJEQAZ0802255271541214   1030000900030000   481219000043190110000000048Xiaomi Mobile Shop(Hle YANGONUT      MMR11008020857415027450802000000000000000   10300002F00104100000000000000000000083400     
100   35710500141658620000000000043000000000043000002000000010410408021022015060690797310802055521601214   1030000900030000   729819000390190110000000253The Glam Bar Beauty SP YANGONUNG     MMR11008021022015060690802000000000000000   10300005F00104100000000000000000000012900     
100   35710830885309010000000000044000000000044000002000000010410408021025585062286436500802103551658214   1030000900030000   481219000710190110000000541I Sure Technology Co., YANGONAUNG    MMR11008021025585062280802000000000000000   10300003F00104100000000000000000000013200     
100   9503051894462577000000000016000000000016000000200000001041040802102617506240L43YZL0802109561617214   1030000900030000   594419000631190110000000462Shwe San Eain GemsTime YANGONUT      MMR11008021026175062400802000000000000000   10300002F00104100000000000000000000048000     
100   35710830152940010000000000042500000000042500002000000010410408021256315121565065440802522261931214   1030000900030000   581219000205190110000000107Canton Paradise        YANGON        MMR11008021256315121560802000000000000000   10300003F00104100000000000000000000014450     
100   62444501100036050000000000073689000000073689002000000010410408021256455121634564960802524261945214   1030000900030000   701119000075190110000000024Lotte Hotel            YANGON        MMR11008021256455121630802000000000000000   10300002F00104100000000000000000000043845     
100   62444500100184970000000000017650000000017650002000000010410408021258375122174568830802530281937214   1030000900030000   541119000131190110000000083SeinGayHarParami Cente YANGON        MMR11008021258375122170802000000000000000   10300002F00104100000000000000000000006177     
100   35710950981785050000000000103850000000103850002000000010410408020353164910214398730802550231016214   1030000900030000   541119000162190110000000084Pro (1) Global (Pazund YANGONARTAUNG MMR11008020353164910210802000000000000000   10300003F00104100000000000000000000020770     
100   35710500341637070000000000017950000000017950002000000010410408020901525028955460690802280311552214   1030000900030000   591219000602190110000000442Shwe Ohh Pharmacy St-5 YANGONARTAUNG MMR11008020901525028950802000000000000000   10300005F00104100000000000000000000005385     
100   62921400043350380000000000005000000000005000002000000010410408020136440644333333330802000003949815   1030000900030000   333400010001202104000002022ACS                    Yangon        MMR11008020136440644330802000000000000000   10300009F05104100000000000000000000003000     
100   9503051872802422000000000001915000000001915000200000001041040802103505506597AU5D7H0802199051705214   1030000900030000   541119000136190110000000083SeinGayHarParami Cente YANGON        MMR11008021035055065970802000000000000000   10300002F00104100000000000000000000003830     
100   95030800058158600000000000061000000000061000002000000010410408021002395053276296600802886321639214   1030000900030000   541119000136190110000000083SeinGayHarParami Cente YANGON        MMR11008021002395053270802000000000000000   10300003F00104100000000000000000000012200     
100   35710830299042490000000000021000000000021000002000000010410408020715394987865300460802326451339214   1030000900030000   481219000767190110000000599Remax By Telegod(GMP)  YANGONUT      MMR11008020715394987860802000000000000000   10300003F00104100000000000000000000006300     
100   95031900017126130000000000021600000000021600002000000010410408020531224947089HE4CF0802327011222214   1030000900030000   591219000508190110000000355Shwe Ohh Pharmacy(SanP YANGONNGKUUN  MMR11008020531224947080802000000000000000   10300014F00104100000000000000000000006480     
100   9503051895559470000000000040000000000040000000200000001041040802064023497432Q3RN2G0802013101323214   1030000900030000   481219000710190110000000541I Sure Technology Co., YANGONAUNG    MMR11008020640234974320802000000000000000   10300002F00104100000000000000000000120000     
100   9503051889838609000000000004575000000004575000200000001041040802052939494619ZFAJRU0802303591139214   1030000900030000   541119000377190110000000356Fuji Shopping Center ( MANDALAYHARSI MMR11008020529394946190802000000000000000   10300002F00104100000000000000000000009150     
100   62346600181969450000000000005000000000005000002000000010410408021255392539609368740802000003950780   1030000900030000   333400010001202104000002022ACS                    Yangon        MMR11008021255392539600802000000000000000   10300005F05104100000000000000000000003000     
100   62346600161418020000000000035000000000035000002000000010410408020755482548868106750802000003950356   1030000900030000   333400010001202104000002022ACS                    Yangon        MMR11008020755482548860802000000000000000   10300005F05104100000000000000000000021000     
100   62346600196063970000000000010000000000010000002000000010410408020556022602653826600802000003950199   1030000900030000   333800010001202104000003301uab bank               Yangon        MMR11008020556022602650802000000000000000   10300005F05104100000000000000000000006000     
100   9503051896431380000000000000570000000000570000200000001041040802122120510864JN59EH0802264511820214   1030000900030000   581219000083190110000000058313C Bakery            YANGON        MMR11008021221205108640802000000000000000   10300002F00104100000000000000000000001938     
100   35710830042101090000000000018000000000018000002000000010410408021222585109205773360802280521858214   1030000900030000   594319000754190110000000586Sarpaylawka            YANGONUT      MMR11008021222585109200802000000000000000   10300003F00104100000000000000000000005400     
100   35710830042101090000000000006000000000006000002000000010410408021225315110297153710802303551831214   1030000900030000   594319000754190110000000586Sarpaylawka            YANGONUT      MMR11008021225315110290802000000000000000   10300003F00104100000000000000000000001800     
100   35710500143957410000000000059500000000059500002000000010410408021226445110610248550802310561844214   1030000900030000   569119000655190110000000486High Cultured Fashion  YANGONUT      MMR11008021226445110610802000000000000000   10300005F00104100000000000000000000017850     
100   35710830846738950000000000059000000000059000002000000010410408021311475126755600860802620411947214   1030000900030000   481219000030190110000000029I Sure Technology CoLt YANGONUT      MMR11008021311475126750802000000000000000   10300003F00104100000000000000000000017700     
100   35710500179106110000000000037100000000037100002000000010410408021312385127137764710802626421938214   1030000900030000   594319000084190110000000059Innwa Books            YANGONUT      MMR11008021312385127130802000000000000000   10300005F00104100000000000000000000011130     
100   95051010188224180000000000024800000000024800002000000010410408021313585127608397470802641431958214   1030000900030000   599919000055190110000000050119 Fashion Complex (K YANGONUT      MMR11008021313585127600802000000000000000   10300005F00104100000000000000000000010416     
100   95031900001892500000000000031625000000031625002000000010410408020536264949261VF4CF0802388061226214   1030000900030000   581219000422190110000000283BCC (YIH)              YANGON        MMR11008020536264949260802000000000000000   10300014F00104100000000000000000000010752     
100   35710500140022630000000000254000000000254000002000000010410408020537494949933077120802407071249214   1030000900030000   541119000282190110000000177Pro1 Global (Insein)   YANGON        MMR11008020537494949930802000000000000000   10300005F00104100000000000000000000050800     
100   35710950179781830000000000042900000000042900002000000010410408020720334989895767180802379501333214   1030000900030000   541119000162190110000000084Pro (1) Global (Pazund YANGONARTAUNG MMR11008020720334989890802000000000000000   10300003F00104100000000000000000000008580     
100   35710500196372790000000000027510000000027510002000000010410408020721014990050768070802384511301214   1030000900030000   581219000351190110000000218Min Lan Restaurant (Th YANGONA       MMR11008020721014990050802000000000000000   10300005F00104100000000000000000000009354     
100   950305188061449600000000000465000000000465000020000000104104080207240049911921GXLV0802402541300214   1030000900030000   599919000189190110000000093119 Fashion Complex (P YANGONN       MMR11008020724004991190802000000000000000   10300002F00104100000000000000000000013950     
100   95030518813669630000000000010000000000010000002000000010410408021412465147530GCR3M0802988422046214   1030000900030000   554119000348190110000000215New Day Energy - 5     YANGONONE     MMR11008021412465147530802000000000000000   10300002F00104100000000000000000000001500     
100   95030518957007850000000000618200000000618200002000000010410408020846575023444FY7BQ0802169161557214   1030000900030000   541119000163190110000000084Pro (1) Global (Pazund YANGONARTAUNG MMR11008020846575023440802000000000000000   10300002F00104100000000000000000000123640     
100   9503051889588261000000000000090000000000090000200000001041040802084839502411YTCIEJ0802184181539214   1030000900030000   581219000540190110000000388Shwepalin (YP)         YANGONMYOTHIT MMR11008020848395024110802000000000000000   10300002F00104100000000000000000000000306     
100   62622000510539040000000000004900000000004900002000000010410408020849375024463110250802190191537214   1030000900030000   599919000192190110000000096119 Fashion Complex (H YANGON        MMR11008020849375024460802000000000000000   10300006F00104100000000000000000000001470     
100   35710500103043250000000000062200000000062200002000000010410408020850015024633069920802196201501214   1030000900030000   541119000282190110000000177Pro1 Global (Insein)   YANGON        MMR11008020850015024630802000000000000000   10300005F00104100000000000000000000012440     
100   95031900001892500000000000036800000000036800002000000010410408021054485074057BY6CF0802422241748214   1030000900030000   581219000422190110000000283BCC (YIH)              YANGON        MMR11008021054485074050802000000000000000   10300014F00104100000000000000000000012512     
100   35710500392505820000000000005000000000005000002000000010410408021055395074482071400802430251739214   1030000900030000   541119000154190110000000083SeinGayHarParami Cente YANGON        MMR11008021055395074480802000000000000000   10300005F00104100000000000000000000001000     
100   95030800080949430000000000004000000000004000002000000010410408021059265075794919010802464291726214   1030000900030000   594319000754190110000000586Sarpaylawka            YANGONUT      MMR11008021059265075790802000000000000000   10300003F00104100000000000000000000001200     
100   62443000140019340000000000022080000000022080002000000010410408020825215015343982230802001551421214   1030000900030000   541119000138190110000000083SeinGayHarParami Cente YANGON        MMR11008020825215015340802000000000000000   10300005F00104100000000000000000000007728     
100   62441900001309160000000000103950000000103950002000000010410408020958515051735833470802846281651214   1030000900030000   581219000369190110000000241Beauty In The Pot (PHS YANGON        MMR11008020958515051730802000000000000000   10300003F00104100000000000000000000061851     
100   62346600102217250000000000048750000000048750002000000010410408021001515052939212780802876311651214   1030000900030000   599919000442190110000000297BKB Baby&Toys(SouthOkk YANGONOKKALAP MMR11008021001515052930802000000000000000   10300005F00104100000000000000000000014625     
100   95031800466122820000000000014550000000014550002000000010410408021149565096263652350802968191856214   1030000900030000   541119000146190110000000083SeinGayHarParami Cente YANGON        MMR11008021149565096260802000000000000000   10300013F00104100000000000000000000002910     
100   35710830160642960000000000071500000000071500002000000010410408020337034904205359560802428071003214   1030000900030000   541119000286190110000000177Pro1 Global (Insein)   YANGON        MMR11008020337034904200802000000000000000   10300003F00104100000000000000000000014300     
100   35710830022224780000000000021400000000021400002000000010410408020552364955835972410802561221236214   1030000900030000   541119000172190110000000085SeinGayHar (Dagon Cent YANGONUNG     MMR11008020552364955830802000000000000000   10300003F00104100000000000000000000004280     
100   35710830212813310000000000062000000000062000002000000010410408020555144956721363000802585251214214   1030000900030000   594419000454190110000000307Shwe San Eain (Junctio YANGONN       MMR11008020555144956720802000000000000000   10300003F00104100000000000000000000018600     
100   35710900180073300000000000028750000000028750002000000010410408020556254957154252580802597261225214   1030000900030000   581219000307190110000000189BCC (KTY)              YANGONARTAUNG MMR11008020556254957150802000000000000000   10300003F00104100000000000000000000009775     
100   62346600148132950000000000088100000000088100002000000010410408020528014945615252230802285581101214   1030000900030000   541119000282190110000000177Pro1 Global (Insein)   YANGON        MMR11008020528014945610802000000000000000   10300005F00104100000000000000000000017620     
100   35710500115067120000000000056500000000056500002000000010410408020642454975208517330802027121345214   1030000900030000   541119000288190110000000178Pro (1) Global (East D YANGONMYOTHIT MMR11008020642454975200802000000000000000   10300005F00104100000000000000000000011300     
100   35710830457787000000000000120400000000120400002000000010410408021348095139255560910802835182009214   1030000900030000   581219000368190110000000241Beauty In The Pot (PHS YANGON        MMR11008021348095139250802000000000000000   10300003F00104100000000000000000000040936     
100   9503051889367112000000000001850000000001850000200000001041040802034305490631TU371Z0802463131005214   1030000900030000   541119000152190110000000083SeinGayHarParami Cente YANGON        MMR11008020343054906310802000000000000000   10300002F00104100000000000000000000003700     
100   9503051878256110000000000002880000000002880000200000001041040802103630506651CNOWCD0802217061730214   1030000900030000   541119000330190110000000206Muditar Supermarket    YANGON        MMR11008021036305066510802000000000000000   10300002F00104100000000000000000000005760     
100   35650973690000100000000004391500000004391500002000000010410408020605224960907925010802697351222214   1030000900030000   594419000583190110000000423Zwe Htet Gems & Jewell MANDALAYHARSA MMR11008020605224960900802000000000000000   10300005F00104100000000000000000001844430     
100   95031900011137470000000000026800000000026800002000000010410408020840515020935FX5CF0802106101551214   1030000900030000   581219000635190110000000466King BBQ Time City     YANGONUT      MMR11008020840515020930802000000000000000   10300014F00104100000000000000000000009112     
100   95030800088241820000000000022500000000022500002000000010410408021236335114196093650802380061933214   1030000900030000   541119000136190110000000083SeinGayHarParami Cente YANGON        MMR11008021236335114190802000000000000000   10300003F00104100000000000000000000004500     
100   35710830997520310000000000235000000000235000002000000010410408021229035111598020710802329591803214   1030000900030000   481219000711190110000000542I Sure Technology Co., MANDALAYHARSA MMR11008021229035111590802000000000000000   10300003F00104100000000000000000000070500     
100   35710830990736690000000000198513000000198513002000000010410408021432495154346882340802107022149214   1030000900030000   581319000651190110000000482Piano Bar              YANGONONE     MMR11008021432495154340802000000000000000   10300003F00104100000000000000000000067494     
100   62441900103676310000000000075860000000075860002000000010410408021433265154529826080802109032126214   1030000900030000   581219000761190110000000593Yummy Hot Pot & BBQ(Ya YANGON        MMR11008021433265154520802000000000000000   10300003F00104100000000000000000000045137     
100   35710500174080950000000000249000000000249000002000000010410408020928445039940223720802565581544214   1030000900030000   591219000796190110000000628Shwe Ohh Pharmacy ST-3 YANGONMYOTHIT MMR11008020928445039940802000000000000000   10300005F00104100000000000000000000074700     
100   62346600192984760000000000045000000000045000002000000010410408020929315040233989830802571591531214   1030000900030000   481219000644190110000000475Remax By Telegod Times YANGONUT      MMR11008020929315040230802000000000000000   10300005F00104100000000000000000000013500     
100   35710500126408660000000000062500000000062500002000000010410408020933575042090882630802608031657214   1030000900030000   541119000374190110000000178Pro (1) Global (East D YANGONMYOTHIT MMR11008020933575042090802000000000000000   10300005F00104100000000000000000000012500     
100   35710500111350090000000000010538000000010538002000000010410408021121065084210763350802656511706214   1030000900030000   541119000138190110000000083SeinGayHarParami Cente YANGON        MMR11008021121065084210802000000000000000   10300005F00104100000000000000000000002108     
100   95030101002474530000000000044000000000044000002000000010410408021154355098230396820802028241835214   1030000900030000   569119000350190110000000217Bench (Myanmar Plaza)  YANGON        MMR11008021154355098230802000000000000000   10200001F00104100000000000000000000013200     
100   35710500150055880000000000004400000000004400002000000010410408020726064991981981290802425561306214   1030000900030000   541119000144190110000000083SeinGayHarParami Cente YANGON        MMR11008020726064991980802000000000000000   10300005F00104100000000000000000000000880     
100   35710830047116500000000000006000000000006000002000000010410408020409524916566186690802686391052214   1030000900030000   581219000083190110000000058313C Bakery            YANGON        MMR11008020409524916560802000000000000000   10300003F00104100000000000000000000002040     
100   95030800086488540000000000079000000000079000002000000010410408020410194916774182520802697401019214   1030000900030000   573219000379190110000000247Infinity Business-Phil YANGONUNG     MMR11008020410194916770802000000000000000   10300003F00104100000000000000000000023700     
100   9503051886505623000000000045760000000045760000200000001041040802041310491795DATJWL0802727431010214   1030000900030000   541119000287190110000000177Pro1 Global (Insein)   YANGON        MMR11008020413104917950802000000000000000   10300002F00104100000000000000000000091520     
100   35710500381170480000000000016000000000016000002000000010410408020648094977255128610802065181309214   1030000900030000   599919000199190110000000103119 Fashion (BuyMoreGe YANGON        MMR11008020648094977250802000000000000000   10300005F00104100000000000000000000004800     
100   35710500136181430000000000200000000000200000002000000010410408020650184977997887340802087201318214   1030000900030000   541119000614190110000000452Pro(1) Global-Hlaing T YANGONTHARYA  MMR11008020650184977990802000000000000000   10300005F00104100000000000000000000040000     
100   9503051897600124000000000002508000000002508000200000001041040802065056497820MM13GC0802093201356214   1030000900030000   581219000371190110000000243Jo Jo Hot Pot (Junctio YANGONN       MMR11008020650564978200802000000000000000   10300002F00104100000000000000000000008527     
100   35710500112604190000000000035000000000035000002000000010410408020229185918340155290802000003949872   1030000900030000   333400010001202104000002022ACS                    Yangon        MMR11008020229185918340802000000000000000   10300005F05104100000000000000000000021000     
100   62346600110804920000000000020500000000020500002000000010410408021059565076001333110802467291756214   1030000900030000   541119000122190110000000080Sein Gay Har BAK       YANGONADA     MMR11008021059565076000802000000000000000   10300005F00104100000000000000000000004100     
100   9503051894901137000000000001800000000001800000200000001041040802110534507811WGN5IH0802510351734214   1030000900030000   599919000445190110000000300BKB Baby &Toys (Kyimyi YANGONINDAING MMR11008021105345078110802000000000000000   10300002F00104100000000000000000000005400     
100   95031900024309340000000000021000000000021000002000000010410408021250555119579SW7CF0802482201955214   1030000900030000   599919000055190110000000050119 Fashion Complex (K YANGONUT      MMR11008021250555119570802000000000000000   10300014F00104100000000000000000000006300     
100   9503051893012746000000000002620000000002620000200000001041040802132839513267AKGCAD0802731581939214   1030000900030000   541119000115190110000000078Sein Gay Har Kan Thar  YANGONOKKALAP MMR11008021328395132670802000000000000000   10300002F00104100000000000000000000005240     
100   35710500340507550000000000004000000000004000002000000010410408021328415132712961300802732581941214   1030000900030000   541119000056190110000000051Amazing Mart (Baho Roa YANGON        MMR11008021328415132710802000000000000000   10300005F00104100000000000000000000000800     
100   95031900029818290000000000424500000000424500002000000010410408020819235012672WS5CF0802911491423214   1030000900030000   563119000646190110000000477Monster Fashion Access YANGONUT      MMR11008020819235012670802000000000000000   10300014F00104100000000000000000000127350     
100   950319000255307300000000000294500000000294500020000000104104080208203250131954T5CF0802934501432214   1030000900030000   541119000162190110000000084Pro (1) Global (Pazund YANGONARTAUNG MMR11008020820325013190802000000000000000   10300014F00104100000000000000000000005890     
100   95030518852343160000000000071950000000071950002000000010410408020820525013310JLEDZ0802940501452214   1030000900030000   541119000377190110000000356Fuji Shopping Center ( MANDALAYHARSI MMR11008020820525013310802000000000000000   10300002F00104100000000000000000000014390     
100   62444500100163500000000000082050000000082050002000000010410408020803005006133684290802753331400214   1030000900030000   597719000530190110000000378Mon Cosmetic (1)       MANDALAYHARSA MMR11008020803005006130802000000000000000   10300002F00104100000000000000000000034461     
100   950305176229563800000000002284500000002284500020000000104104080208031550063089WJKI0802756331415214   1030000900030000   581219000206190110000000108Beauty in the Pot      YANGON        MMR11008020803155006300802000000000000000   10300002F00104100000000000000000000077673     
100   95050329357104950000000000032775000000032775002000000010410408020806265007519064920802787361426214   1030000900030000   581219000590190110000000430The Tea Club           YANGON        MMR11008020806265007510802000000000000000   10300001F00104100000000000000000000019501     
100   9503051893763199000000000003600000000003600000200000001041040802070750498492ARQFQ20802250371350214   1030000900030000   541119000283190110000000177Pro1 Global (Insein)   YANGON        MMR11008020707504984920802000000000000000   10300002F00104100000000000000000000007200     
100   9503051888193196000000000004460000000004460000200000001041040802070813498508XHVPN20802253381313214   1030000900030000   569119000639190110000000470Queen Collection Fashi YANGONUT      MMR11008020708134985080802000000000000000   10300002F00104100000000000000000000013380     
100   62346600198176060000000000022425000000022425002000000010410408020709564985688337050802271391356214   1030000900030000   581219000590190110000000430The Tea Club           YANGON        MMR11008020709564985680802000000000000000   10300005F00104100000000000000000000007624     
100   35710830010382300000000000049000000000049000002000000010410408020711074986055765490802281411307214   1030000900030000   541119000290190110000000178Pro (1) Global (East D YANGONMYOTHIT MMR11008020711074986050802000000000000000   10300003F00104100000000000000000000009800     
100   9503051880634452000000000004175000000004175000200000001041040802071244498683JQXAMQ0802300421344214   1030000900030000   541119000139190110000000083SeinGayHarParami Cente YANGON        MMR11008020712444986830802000000000000000   10300002F00104100000000000000000000008350     
100   35710500175477280000000000123050000000123050002000000010410408020936095042953451450802631061609214   1030000900030000   581219000423190110000000284BCC (SYS)              YANGON        MMR11008020936095042950802000000000000000   10300005F00104100000000000000000000041837     
100   9503051886011879000000000001620000000001620000200000001041040802075139500179XORINT0802653211439214   1030000900030000   591219000499190110000000346Shwe Ohh Pharmacy -1   YANGON        MMR11008020751395001790802000000000000000   10300002F00104100000000000000000000004860     
100   35710500140424340000000000208500000000208500002000000010410408020646584976653887810802056161358214   1030000900030000   806219000358190110000000225Victoria Hospital      YANGONONE     MMR11008020646584976650802000000000000000   10300005F00104100000000000000000000062550     
100   9503051877799813000000000002352000000002352000200000001041040802113117508860Y7RYGK0802781011817214   1030000900030000   581219000232190110000000131MinLanRestaurant(South YANGONOKKALAP MMR11008021131175088600802000000000000000   10300002F00104100000000000000000000007997     
100   9503051886424791000000000003373600000003373600200000001041040802061748496597W7TUWP0802812471248214   1030000900030000   581219000398190110000000262Fuji Japanese Restaura MANDALAYHARSA MMR11008020617484965970802000000000000000   10300002F00104100000000000000000000011470     
100   95030101002199160000000000030870000000030870002000000010410408020946325046600619990802699161632214   1030000900030000   581219000697190110000000528Pizzamaru Myanmar (MPZ YANGON        MMR11008020946325046600802000000000000000   10200001F00104100000000000000000000010496     
100   35710500122499320000000000011400000000011400002000000010410408020321154898154262970802290510915214   1030000900030000   581219000083190110000000058313C Bakery            YANGON        MMR11008020321154898150802000000000000000   10300005F00104100000000000000000000003876     
100   950305188200801000000000000509500000000509500020000000104104080207584550043991DPJ40802709281445214   1030000900030000   541119000290190110000000178Pro (1) Global (East D YANGONMYOTHIT MMR11008020758455004390802000000000000000   10300002F00104100000000000000000000010190     
100   62441900003965090000000000055000000000055000002000000010410408021154355098253026060802029241835214   1030000900030000   594419000708190110000000539Zwe Htet Gems & Jewell YANGON        MMR11008021154355098250802000000000000000   10300003F00104100000000000000000000023100     
100   62346600172668300000000000004930000000004930002000000010410408021154595098408694900802035241859214   1030000900030000   541119000115190110000000078Sein Gay Har Kan Thar  YANGONOKKALAP MMR11008021154595098400802000000000000000   10300005F00104100000000000000000000000986     
100   62346600100799740000000000051100000000051100002000000010410408021155515098673155570802040251851214   1030000900030000   569119000273190110000000168Central Fashion Store  MANDALAYHARSA MMR11008021155515098670802000000000000000   10300005F00104100000000000000000000015330     
100   62443000160058590000000000007500000000007500002000000010410408020532394947740148860802343021239214   1030000900030000   594319000754190110000000586Sarpaylawka            YANGONUT      MMR11008020532394947740802000000000000000   10300005F00104100000000000000000000003150     
100   62443000160026410000000000016500000000016500002000000010410408020604004960334614320802677341200214   1030000900030000   541119000080190110000000057Pro (1) Global (Tampaw MANDALAYHARSI MMR11008020604004960330802000000000000000   10300005F00104100000000000000000000005775     
100   9503051877883104000000000050000000000050000000200000001041040802074421499895Z0UQWV0802587141421214   1030000900030000   729819000184190110000000088KER Rendezvous - 3Floo YANGONONE     MMR11008020744214998950802000000000000000   10300002F00104100000000000000000000150000     
100   95030518832602890000000000064180000000064180002000000010410408020745244999392ZIQIZ0802596151424214   1030000900030000   581219000761190110000000593Yummy Hot Pot & BBQ(Ya YANGON        MMR11008020745244999390802000000000000000   10300002F00104100000000000000000000021821     
100   9503051877883104000000000016700000000016700000200000001041040802074549499951TVCKUS0802600151449214   1030000900030000   729819000184190110000000088KER Rendezvous - 3Floo YANGONONE     MMR11008020745494999510802000000000000000   10300002F00104100000000000000000000050100     
100   35650713680002970000000000050200000000050200002000000010410408021124195419155833480802000003950626   1030000900030000   333300010001202104000002717Near Me Android        Yangon        MMR11008021124195419150802000000000000000   10300005F05104100000000000000000000020000     
100   9503051896724875000000000004300000000004300000200000001041040801164948471794E7XFCO0802400192348213   1030000900030000   701119000472190110000000325Excel River View Hotel YANGONIN      MMR11008011649484717940802000000000000000   10300002F00104100000000000000000000014620     
100   95051070110000190000000000005000000000005000002000000010410408020341061106934232060802000003949980   1030000900030000   333400010001202104000002022ACS                    Yangon        MMR11008020341061106930802000000000000000   10300005F05104100000000000000000000003000     
100   62346600126541540000000000040200000000040200002000000010410408021159372937473758100802000003950666   1030000900030000   333300010001202104000002717Near Me Android        Yangon        MMR11008021159372937470802000000000000000   10300005F05104100000000000000000000020000     
100   35710830427352810000000000035000000000035000002000000010410408020759382938085401860802000003950360   1030000900030000   333400010001202104000002022ACS                    Yangon        MMR11008020759382938080802000000000000000   10300003F05104100000000000000000000021000     
100   62443100306698200000000000054550000000054550002000000010410408021403185144467115780802938332018214   1030000900030000   591219000694190110000000525Shwe Ohh Pharmacy ST-2 YANGONAW      MMR11008021403185144460802000000000000000   10300001F00104100000000000000000000022911     
100   95030518930368280000000000036000000000036000002000000010410408021404575144997TV3UO0802943342057214   1030000900030000   581219000721190110000000552Chilli Pot Mala Xiang  YANGONOKKALAP MMR11008021404575144990802000000000000000   10300002F00104100000000000000000000012240     
100   35710500171483520000000000013650000000013650002000000010410408020841225021104763770802109111522214   1030000900030000   541119000286190110000000177Pro1 Global (Insein)   YANGON        MMR11008020841225021100802000000000000000   10300005F00104100000000000000000000002730     
100   35710830060260990000000000013000000000013000002000000010410408021112374237283658550802000003950618   1030000900030000   333400010001202104000002022ACS                    Yangon        MMR11008021112374237280802000000000000000   10300003F05104100000000000000000000007800     
100   95030518833622000000000000010000000000010000002000000010410408020321574898455GVC0O0802302510957214   1030000900030000   581219000185190110000000089KER Rendezvous - 4Floo YANGONONE     MMR11008020321574898450802000000000000000   10300002F00104100000000000000000000003400     
100   9503051872476029000000000015220000000015220000200000001041040802062735496994HWUNK10802926571235214   1030000900030000   541119000288190110000000178Pro (1) Global (East D YANGONMYOTHIT MMR11008020627354969940802000000000000000   10300002F00104100000000000000000000030440     
100   9503051890402619000000000006840000000006840000200000001041040802062807497020SECOEE0802934581207214   1030000900030000   541119000284190110000000177Pro1 Global (Insein)   YANGON        MMR11008020628074970200802000000000000000   10300002F00104100000000000000000000013680     
100   35710500106818960000000000009600000000009600002000000010410408020628194970254717930802937581219214   1030000900030000   541119000168190110000000085SeinGayHar (Dagon Cent YANGONUNG     MMR11008020628194970250802000000000000000   10300005F00104100000000000000000000001920     
100   62443000110027110000000000004150000000004150002000000010410408020629384970603666840802944591238214   1030000900030000   541119000115190110000000078Sein Gay Har Kan Thar  YANGONOKKALAP MMR11008020629384970600802000000000000000   10300005F00104100000000000000000000001452     
100   35710500152935560000000000030600000000030600002000000010410408020629554970699475260802947591255214   1030000900030000   541119000155190110000000083SeinGayHarParami Cente YANGON        MMR11008020629554970690802000000000000000   10300005F00104100000000000000000000006120     
100   62921400090288690000000000001000000000001000002000000010410408021517374737353333330802000003951023   1030000900030000   333800010001202104000003301uab bank               Yangon        MMR11008021517374737350802000000000000000   10300009F05104100000000000000000000000600     
100   35710830908964070000000000005000000000005000002000000010410408020734470447603832510802000003950328   1030000900030000   333400010001202104000002022ACS                    Yangon        MMR11008020734470447600802000000000000000   10300003F05104100000000000000000000003000     
100   95030800072982060000000000005000000000005000002000000010410408020945441544524908850802000003950499   1030000900030000   333400010001202104000002022ACS                    Yangon        MMR11008020945441544520802000000000000000   10300003F05104100000000000000000000003000     
100   95031900015183250000000000010000000000010000002000000010410408021405203520947K78CF0802000003950893   1030000900030000   333400010001202104000002022ACS                    Yangon        MMR11008021405203520940802000000000000000   10300014F05104100000000000000000000006000     
100   95051070110000190000000000010000000000010000002000000010410408021205283528949303160802000003950680   1030000900030000   333400010001202104000002022ACS                    Yangon        MMR11008021205283528940802000000000000000   10300005F05104100000000000000000000006000     
100   62444500200490940000000000014930000000014930002000000010410408021217125106984461480802220471812214   1030000900030000   541119000144190110000000083SeinGayHarParami Cente YANGON        MMR11008021217125106980802000000000000000   10300002F00104100000000000000000000005225     
100   62346600170158310000000000141350000000141350002000000010410408021219175107936288100802245491817214   1030000900030000   541119000162190110000000084Pro (1) Global (Pazund YANGONARTAUNG MMR11008021219175107930802000000000000000   10300005F00104100000000000000000000028270     
100   62444500200490940000000000040700000000040700002000000010410408021220055108154469620802252501805214   1030000900030000   541119000144190110000000083SeinGayHarParami Cente YANGON        MMR11008021220055108150802000000000000000   10300002F00104100000000000000000000014245     
100   95031900031690020000000000018492000000018492002000000010410408021422135150796798CF0802046522013214   1030000900030000   581219000590190110000000430The Tea Club           YANGON        MMR11008021422135150790802000000000000000   10300014F00104100000000000000000000006287     
100   62441901003762450000000000050000000000050000002000000010410408020651414978551850850802100211341214   1030000900030000   581219000185190110000000089KER Rendezvous - 4Floo YANGONONE     MMR11008020651414978550802000000000000000   10300003F00104100000000000000000000029750     
100   35710830657408790000000000007810000000007810002000000010410408021205545102773370730802135351854214   1030000900030000   581219000372190110000000244Jo Jo HotPot(CapitalHy YANGONA       MMR11008021205545102770802000000000000000   10300003F00104100000000000000000000002656     
100   9503051020757858000000000000144000000000144000200000001041040802042148492133KJGXBA0802791511048214   1030000900030000   581219000714190110000000545Akkhaya Tea House(Yank YANGON        MMR11008020421484921330802000000000000000   10300002F00104100000000000000000000000490     
100   95031900026939030000000000100200000000100200002000000010410408020302003200118953CF0802000003949913   1030000900030000   333300010001202104000002717Near Me Android        Yangon        MMR11008020302003200110802000000000000000   10300014F05104100000000000000000000020000     
100   35710500165601850000000000013860000000013860002000000010410408021410195146721350410802976402019214   1030000900030000   581219000371190110000000243Jo Jo Hot Pot (Junctio YANGONN       MMR11008021410195146720802000000000000000   10300005F00104100000000000000000000004712     
100   9503051880804188000000000007600000000007600000200000001041040802110142507674PM9KZF0802489311742214   1030000900030000   569119000433190110000000291Zoey Fashion (Market P YANGON        MMR11008021101425076740802000000000000000   10300002F00104100000000000000000000022800     
100   62346600194824010000000000120750000000120750002000000010410408020819595012960194270802923491459214   1030000900030000   581219000206190110000000108Beauty in the Pot      YANGON        MMR11008020819595012960802000000000000000   10300005F00104100000000000000000000041055     
100   35710830310344720000000000200000000000200000002000000010410408020736534996006082430802511061453214   1030000900030000   541119000618190110000000452Pro(1) Global-Hlaing T YANGONTHARYA  MMR11008020736534996000802000000000000000   10300003F00104100000000000000000000040000     
100   35710500133699370000000000019100000000019100002000000010410408020448154931050638520802976181115214   1030000900030000   541119000179190110000000086SeinGayHar (Hlaing Tha YANGONTHARYA  MMR11008020448154931050802000000000000000   10300005F00104100000000000000000000003820     
100   95031900041732680000000000113400000000113400002000000010410408020449224931431744CF0802985191122214   1030000900030000   569119000655190110000000486High Cultured Fashion  YANGONUT      MMR11008020449224931430802000000000000000   10300014F00104100000000000000000000034020     
100   62346600115851020000000000081300000000081300002000000010410408020449234931445675350802986191123214   1030000900030000   541119000283190110000000177Pro1 Global (Insein)   YANGON        MMR11008020449234931440802000000000000000   10300005F00104100000000000000000000016260     
100   62444500200157640000000000021300000000021300002000000010410408020450004931623110130802993201100214   1030000900030000   541119000115190110000000078Sein Gay Har Kan Thar  YANGONOKKALAP MMR11008020450004931620802000000000000000   10300002F00104100000000000000000000007455     
100   62346600169055030000000000021200000000021200002000000010410408021337420742672442640802000003950843   1030000900030000   333300010001202104000002717Near Me Android        Yangon        MMR11008021337420742670802000000000000000   10300005F05104100000000000000000000020000     
100   9503051020575268000000000003500000000003500000200000001041040802054829182918C7QMA80802000003950174   1030000900030000   333400010001202104000002022ACS                    Yangon        MMR11008020548291829180802000000000000000   10300002F05104100000000000000000000021000     
100   62921400050680670000000000002500000000002500002000000010410408021456252625743333330802000003950998   1030000900030000   333400010001202104000002022ACS                    Yangon        MMR11008021456252625740802000000000000000   10300009F05104100000000000000000000001500     
100   35710830338638600000000000187450000000187450002000000010410408021435215155158375250802118052121214   1030000900030000   581219000206190110000000108Beauty in the Pot      YANGON        MMR11008021435215155150802000000000000000   10300003F00104100000000000000000000063733     
100   35710830578633330000000000050000000000050000002000000010410408020917245035434200950802442471524214   1030000900030000   581219000635190110000000466King BBQ Time City     YANGONUT      MMR11008020917245035430802000000000000000   10300003F00104100000000000000000000017000     
100   35710500180890840000000000006600000000006600002000000010410408021040545068446623520802280101754214   1030000900030000   541119000114190110000000078Sein Gay Har Kan Thar  YANGONOKKALAP MMR11008021040545068440802000000000000000   10300005F00104100000000000000000000001320     
100   9503051896616071000000000001365000000001365000200000001041040802104613507054KGEC7W0802326161713214   1030000900030000   541119000144190110000000083SeinGayHarParami Cente YANGON        MMR11008021046135070540802000000000000000   10300002F00104100000000000000000000002730     
100   62441900103825230000000000086000000000086000002000000010410408021048235071416070580802344181723214   1030000900030000   594419000454190110000000307Shwe San Eain (Junctio YANGONN       MMR11008021048235071410802000000000000000   10300003F00104100000000000000000000036120     
100   950319000215269400000000001347000000001347000020000000104104080210501050722315X6CF0802367201710214   1030000900030000   597719000334190110000000229Mi Mi Dara Cosmetic    YANGONOKKALAP MMR11008021050105072230802000000000000000   10300014F00104100000000000000000000040410     
100   9503051888656754000000000001465500000001465500200000001041040802105021507231MDP00C0802369201721214   1030000900030000   581219000649190110000000480Malar City (Malar Xing YANGONUT      MMR11008021050215072310802000000000000000   10300002F00104100000000000000000000004983     
100   9503051019946736000000000003870000000003870000200000001041040802123719511457VGNIRQ0802390071919214   1030000900030000   569919000555190110000000402D & C Myanmar (MP)     YANGON        MMR11008021237195114570802000000000000000   10300002F00104100000000000000000000011610     
100   62622000712036040000000000000800000000000800002000000010410408021315555128232992310802651451955214   1030000900030000   591219000609190110000000449Shwe Ohh Pharmacy St-3 YANGONAUNG    MMR11008021315555128230802000000000000000   10300006F00104100000000000000000000000240     
100   35710830512316100000000000322250000000322250002000000010410408020510024938845404530802138401102214   1030000900030000   541119000282190110000000177Pro1 Global (Insein)   YANGON        MMR11008020510024938840802000000000000000   10300003F00104100000000000000000000064450     
100   35710500120989820000000000058600000000058600002000000010410408020511414939467456660802151411141214   1030000900030000   541119000286190110000000177Pro1 Global (Insein)   YANGON        MMR11008020511414939460802000000000000000   10300005F00104100000000000000000000011720     
100   35650883690003990000000000335000000000335000002000000010410408020512154939731853230802159421115214   1030000900030000   594419000598190110000000438Shwe NanTaw Jewellery  YANGONN       MMR11008020512154939730802000000000000000   10300005F00104100000000000000000000140700     
100   35710500120989820000000000016950000000016950002000000010410408020514424940647101630802183441142214   1030000900030000   541119000284190110000000177Pro1 Global (Insein)   YANGON        MMR11008020514424940640802000000000000000   10300005F00104100000000000000000000003390     
100   95031900011474890000000000002500000000002500002000000010410408011627415741139SR1CF0802000003949621   1030000900030000   333400010001202104000002022ACS                    Yangon        MMR11008011627415741130802000000000000000   10300014F05104100000000000000000000001500     
100   35710830032065870000000000012000000000012000002000000010410408021258485122208142530802531281948214   1030000900030000   599919000190190110000000094119 Fashion (North Okk YANGONOKKALAP MMR11008021258485122200802000000000000000   10300003F00104100000000000000000000003600     
100   9503051887758668000000000002702500000002702500200000001041040802143821515608MK4O7K0802131082121214   1030000900030000   581219000423190110000000284BCC (SYS)              YANGON        MMR11008021438215156080802000000000000000   10300002F00104100000000000000000000009188     
100   62343301013281570000000000035000000000035000002000000010410408011631230123610000000802000003949624   1030000900030000   333400010001202104000002022ACS                    Yangon        MMR11008011631230123610802000000000000000   10300004F05104100000000000000000000021000     
100   9503051882683978000000000007450000000007450000200000001041040802142303515104GOXCP40802049532003214   1030000900030000   581219000206190110000000108Beauty in the Pot      YANGON        MMR11008021423035151040802000000000000000   10300002F00104100000000000000000000025330     
100   35710500340354000000000000006000000000006000002000000010410408020925345038561662290802517551534214   1030000900030000   541119000131190110000000083SeinGayHarParami Cente YANGON        MMR11008020925345038560802000000000000000   10300005F00104100000000000000000000001200     
100   9503051896872542000000000002980300000002980300200000001041040802092537503860ZL91KZ0802519551537214   1030000900030000   581219000719190110000000550Chilli Pot Mala Xiang  YANGON        MMR11008020925375038600802000000000000000   10300002F00104100000000000000000000010133     
100   62441900001084250000000000064900000000064900002000000010410408020926205038899888920802531561520214   1030000900030000   581219000368190110000000241Beauty In The Pot (PHS YANGON        MMR11008020926205038890802000000000000000   10300003F00104100000000000000000000038615     
100   95030800095596880000000000065920000000065920002000000010410408021113315081054035350802574431731214   1030000900030000   541119000166190110000000085SeinGayHar (Dagon Cent YANGONUNG     MMR11008021113315081050802000000000000000   10300003F00104100000000000000000000013184     
100   35710500195582690000000000014280000000014280002000000010410408021150085096324404430802969201808214   1030000900030000   581219000231190110000000130MinLan Restaurant(SanC YANGONUNG     MMR11008021150085096320802000000000000000   10300005F00104100000000000000000000004855     
100   9503051020523342000000000007230000000007230000200000001041040802115217509717SREO6F0802995221817214   1030000900030000   541119000286190110000000177Pro1 Global (Insein)   YANGON        MMR11008021152175097170802000000000000000   10300002F00104100000000000000000000014460     
100   9503051886239512000000000002525000000002525000200000001041040802115227509727EWIFN00802001221827214   1030000900030000   541119000147190110000000083SeinGayHarParami Cente YANGON        MMR11008021152275097270802000000000000000   10300002F00104100000000000000000000005050     
100   35710500340281990000000000050900000000050900002000000010410408020512414939918973750802164421141214   1030000900030000   597719000530190110000000378Mon Cosmetic (1)       MANDALAYHARSA MMR11008020512414939910802000000000000000   10300005F00104100000000000000000000015270     
100   35710500192906810000000000165500000000165500002000000010410408020809165008664299280802806391416214   1030000900030000   541119000286190110000000177Pro1 Global (Insein)   YANGON        MMR11008020809165008660802000000000000000   10300005F00104100000000000000000000033100     
100   9503051881553651000000000004500000000004500000200000001041040802021139487332IB5N0N0802848410839214   1030000900030000   701119000428190110000000288Hlaine Tet Hotel       YANGONONE     MMR11008020211394873320802000000000000000   10300002F00104100000000000000000000015300     
100   95030801630054860000000000249000000000249000002000000010410408021158485099826078710802064281848214   1030000900030000   481219000043190110000000048Xiaomi Mobile Shop(Hle YANGONUT      MMR11008021158485099820802000000000000000   10300003F00104100000000000000000000074700     
100   9503051888723703000000000002400000000002400000200000001041040802091522503464MUHLF50802426451522214   1030000900030000   729819000390190110000000253The Glam Bar Beauty SP YANGONUNG     MMR11008020915225034640802000000000000000   10300002F00104100000000000000000000007200     
100   35650973630000570000000000102050000000102050002000000010410408020720314989863647560802378501331214   1030000900030000   581219000369190110000000241Beauty In The Pot (PHS YANGON        MMR11008020720314989860802000000000000000   10300005F00104100000000000000000000060720     
100   9503051020785321000000000002800000000002800000200000001041040802104421506972CPPGYB0802303141721214   1030000900030000   481219000043190110000000048Xiaomi Mobile Shop(Hle YANGONUT      MMR11008021044215069720802000000000000000   10300002F00104100000000000000000000008400     
100   62346600118907180000000000005700000000005700002000000010410408021243045116603030250802421131904214   1030000900030000   541119000170190110000000085SeinGayHar (Dagon Cent YANGONUNG     MMR11008021243045116600802000000000000000   10300005F00104100000000000000000000001140     
100   35710500380914170000000000020500000000020500002000000010410408020904095029836455270802293341509214   1030000900030000   481219000644190110000000475Remax By Telegod Times YANGONUT      MMR11008020904095029830802000000000000000   10300005F00104100000000000000000000006150     
100   35650973630004380000000000057000000000057000002000000010410408020905555030608450970802317351555214   1030000900030000   591219000501190110000000348Shwe Ohh Pharmacy (SmL YANGONUT      MMR11008020905555030600802000000000000000   10300005F00104100000000000000000000023940     
100   35710830152940010000000000089100000000089100002000000010410408020907105031104735510802327371510214   1030000900030000   569919000580190110000000420D & C Myanmar (JC)     YANGONUT      MMR11008020907105031100802000000000000000   10300003F00104100000000000000000000026730     
100   9503051019904107000000000001817000000001817000200000001041040802112127508436LB1C5D0802660511727214   1030000900030000   581219000590190110000000430The Tea Club           YANGON        MMR11008021121275084360802000000000000000   10300002F00104100000000000000000000006178     
100   95031900045065820000000000049500000000049500002000000010410408021121525084557A47CF0802665511752214   1030000900030000   569119000655190110000000486High Cultured Fashion  YANGONUT      MMR11008021121525084550802000000000000000   10300014F00104100000000000000000000014850     
100   35650973630004790000000000108000000000108000002000000010410408021124465085809492620802705541746214   1030000900030000   481219000710190110000000541I Sure Technology Co., YANGONAUNG    MMR11008021124465085800802000000000000000   10300005F00104100000000000000000000045360     
100   35710830369594590000000000178000000000178000002000000010410408021306575125175627650802588361957214   1030000900030000   594419000454190110000000307Shwe San Eain (Junctio YANGONN       MMR11008021306575125170802000000000000000   10300003F00104100000000000000000000053400     
100   35710950177844820000000000036850000000036850002000000010410408020533254948098108130802355031225214   1030000900030000   581219000005190110000000003Yoogane Korea Rest;(JM YANGON        MMR11008020533254948090802000000000000000   10300003F00104100000000000000000000012529     
100   95030800028563960000000000017535000000017535002000000010410408021316485128545068590802661461948214   1030000900030000   581219000280190110000000175Min Lan Restaurant (Ka YANGONARTAUNG MMR11008021316485128540802000000000000000   10300003F00104100000000000000000000005962     
100   950319000080640800000000000155000000000155000020000000104104080208104350091590R5CF0802825401443214   1030000900030000   594419000454190110000000307Shwe San Eain (Junctio YANGONN       MMR11008020810435009150802000000000000000   10300014F00104100000000000000000000004650     
100   95030510201663730000000000223000000000223000002000000010410408020812355009925GE9EX0802844421435214   1030000900030000   541119000077190110000000056Pro (1) Global-TheikPa MANDALAYHARSI MMR11008020812355009920802000000000000000   10300002F00104100000000000000000000044600     
100   35710500312154760000000000106000000000106000002000000010410408020812595010067273410802848421459214   1030000900030000   594419000454190110000000307Shwe San Eain (Junctio YANGONN       MMR11008020812595010060802000000000000000   10300005F00104100000000000000000000031800     
100   35710830618093970000000000019000000000019000002000000010410408020814375010713836710802865441437214   1030000900030000   569119000655190110000000486High Cultured Fashion  YANGONUT      MMR11008020814375010710802000000000000000   10300003F00104100000000000000000000005700     
100   62346600169131350000000001700000000001700000002000000010410408020728164992902923060802444581316214   1030000900030000   806219000358190110000000225Victoria Hospital      YANGONONE     MMR11008020728164992900802000000000000000   10300005F00104100000000000000000000510000     
100   95031900015183250000000000002500000000002500002000000010410408021412044204698A88CF0802000003950908   1030000900030000   333400010001202104000002022ACS                    Yangon        MMR11008021412044204690802000000000000000   10300014F05104100000000000000000000001500     
100   62346600142141300000000000067800000000067800002000000010410408020311164894387691070802215410916214   1030000900030000   581219000205190110000000107Canton Paradise        YANGON        MMR11008020311164894380802000000000000000   10300005F00104100000000000000000000023052     
100   95051080108351990000000000010000000000010000002000000010410408020452182218839930170802000003950098   1030000900030000   333800010001202104000003301uab bank               Yangon        MMR11008020452182218830802000000000000000   10300005F05104100000000000000000000006000     
100   95031900000216930000000000100200000000100200002000000010410408020302463246443F53CF0802000003949915   1030000900030000   333300010001202104000002717Near Me Android        Yangon        MMR11008020302463246440802000000000000000   10300014F05104100000000000000000000020000     
100   9503051887966089000000000001955000000001955000200000001041040802085156502532M1B5S40802209211556214   1030000900030000   581219000423190110000000284BCC (SYS)              YANGON        MMR11008020851565025320802000000000000000   10300002F00104100000000000000000000006647     
100   35650713690002880000000000011800000000011800002000000010410408020852045025360495160802210221504214   1030000900030000   541119000117190110000000078Sein Gay Har Kan Thar  YANGONOKKALAP MMR11008020852045025360802000000000000000   10300005F00104100000000000000000000004130     
100   95030518738781730000000000022300000000022300002000000010410408021017425058970BDHFU0802010471642214   1030000900030000   541119000331190110000000206Muditar Supermarket    YANGON        MMR11008021017425058970802000000000000000   10300002F00104100000000000000000000004460     
100   35710830772486300000000000009025000000009025002000000010410408021020335060126080630802043501633214   1030000900030000   541119000172190110000000085SeinGayHar (Dagon Cent YANGONUNG     MMR11008021020335060120802000000000000000   10300003F00104100000000000000000000001805     
100   9503051895431738000000000015600000000015600000200000001041040802102127506050MIYKCE0802052511627214   1030000900030000   541119000133190110000000083SeinGayHarParami Cente YANGON        MMR11008021021275060500802000000000000000   10300002F00104100000000000000000000031200     
100   35710500125289960000000000005950000000005950002000000010410408021021485060593130570802054511648214   1030000900030000   591219000795190110000000627Shwe Ohh Pharmacy ST-3 YANGONINDAING MMR11008021021485060590802000000000000000   10300005F00104100000000000000000000001785     
100   95031900011127070000000000051834000000051834002000000010410408021153155097658WB7CF0802014231815214   1030000900030000   581219000721190110000000552Chilli Pot Mala Xiang  YANGONOKKALAP MMR11008021153155097650802000000000000000   10300014F00104100000000000000000000017624     
100   9503051894550488000000000002204500000002204500200000001041040802134556513842RK7YPV0802825152056214   1030000900030000   541119000112190110000000077Sein Gay Har Chinatown YANGON        MMR11008021345565138420802000000000000000   10300002F00104100000000000000000000004409     
100   62443000803056310000000000150000000000150000002000000010410408020739284997153993660802545091428214   1030000900030000   594419000706190110000000537Zwe Htet Gems & Jewell YANGONAW      MMR11008020739284997150802000000000000000   10300005F00104100000000000000000000063000     
100   35710500125942610000000000037500000000037500002000000010410408020739344997184589330802546091434214   1030000900030000   594319000754190110000000586Sarpaylawka            YANGONUT      MMR11008020739344997180802000000000000000   10300005F00104100000000000000000000011250     
100   95031900008343270000000000058000000000058000002000000010410408020739434997227KC5CF0802547091443214   1030000900030000   581219000653190110000000484Jazz Cafe (TC)         YANGONUT      MMR11008020739434997220802000000000000000   10300014F00104100000000000000000000019720     
100   62444501100031260000000000015500000000015500002000000010410408020741034997613626630802556111403214   1030000900030000   541119000163190110000000084Pro (1) Global (Pazund YANGONARTAUNG MMR11008020741034997610802000000000000000   10300002F00104100000000000000000000005425     
100   35710500186031320000000000035530000000035530002000000010410408020741184997772121540802562111418214   1030000900030000   581219000371190110000000243Jo Jo Hot Pot (Junctio YANGONN       MMR11008020741184997770802000000000000000   10300005F00104100000000000000000000012080     
100   9503051893309662000000000004200000000004200000200000001041040802043830492744GQTKLZ0802911081130214   1030000900030000   569119000655190110000000486High Cultured Fashion  YANGONUT      MMR11008020438304927440802000000000000000   10300002F00104100000000000000000000012600     
100   62622000712036040000000000004900000000004900002000000010410408021314505127873022670802646441950214   1030000900030000   591219000609190110000000449Shwe Ohh Pharmacy St-3 YANGONAUNG    MMR11008021314505127870802000000000000000   10300006F00104100000000000000000000001470     
100   35710830042231690000000000018150000000018150002000000010410408020920135036523346250802471501513214   1030000900030000   591219000502190110000000349Shwe Ohh Pharmacy -4   YANGON        MMR11008020920135036520802000000000000000   10300003F00104100000000000000000000005445     
100   35710830169017940000000000013300000000013300002000000010410408021136095090648134000802838061809214   1030000900030000   541119000617190110000000452Pro(1) Global-Hlaing T YANGONTHARYA  MMR11008021136095090640802000000000000000   10300003F00104100000000000000000000002660     
100   95031900047876040000000000000250000000000250002000000010410408020546304953218BM4CF0802492161230214   1030000900030000   599919000193190110000000097119FashionComplex(Kyau YANGONADA     MMR11008020546304953210802000000000000000   10300014F00104100000000000000000000000075     
100   62443000140223360000000000245000000000245000002000000010410408020927205039420740020802548571520214   1030000900030000   594419000583190110000000423Zwe Htet Gems & Jewell MANDALAYHARSA MMR11008020927205039420802000000000000000   10300005F00104100000000000000000000102900     
100   95031900022566850000000000163284000000163284002000000010410408021403495144595V68CF0802939332049214   1030000900030000   701119000064190110000000024Lotte Hotel            YANGON        MMR11008021403495144590802000000000000000   10300014F00104100000000000000000000055516     
100   62346600140716700000000000018500000000018500002000000010410408021021215060458683690802051511621214   1030000900030000   564119000665190110000000496Hero Baby Fashion      YANGONUT      MMR11008021021215060450802000000000000000   10300005F00104100000000000000000000005550     
100   35650883650009890000000000046000000000046000002000000010410408020428254923744390820802836581025214   1030000900030000   563119000646190110000000477Monster Fashion Access YANGONUT      MMR11008020428254923740802000000000000000   10300005F00104100000000000000000000019320     
100   35710950989043890000000000014000000000014000002000000010410408020534134948414861740802361041213214   1030000900030000   729819000768190110000000600Urban Beauty Studio    YANGON        MMR11008020534134948410802000000000000000   10300003F00104100000000000000000000004200     
100   35710500186083390000000000178850000000178850002000000010410408020714334987482166380802316441333214   1030000900030000   541119000282190110000000177Pro1 Global (Insein)   YANGON        MMR11008020714334987480802000000000000000   10300005F00104100000000000000000000035770     
100   62443000103128300000000000040700000000040700002000000010410408020715164987754705480802324451316214   1030000900030000   541119000114190110000000078Sein Gay Har Kan Thar  YANGONOKKALAP MMR11008020715164987750802000000000000000   10300005F00104100000000000000000000014245     
100   9503051872345349000000000010210000000010210000200000001041040802071730498872IBLRRE0802344471330214   1030000900030000   581219000368190110000000241Beauty In The Pot (PHS YANGON        MMR11008020717304988720802000000000000000   10300002F00104100000000000000000000034714     
100   62443000103128300000000000020250000000020250002000000010410408020718134989061533940802355481313214   1030000900030000   541119000114190110000000078Sein Gay Har Kan Thar  YANGONOKKALAP MMR11008020718134989060802000000000000000   10300005F00104100000000000000000000007087     
100   35710500106554940000000000101250000000101250002000000010410408020356184911417054030802581261018214   1030000900030000   541119000080190110000000057Pro (1) Global (Tampaw MANDALAYHARSI MMR11008020356184911410802000000000000000   10300005F00104100000000000000000000020250     
100   62444500100001800000000000737500000000737500002000000010410408020400034912642949940802602301003214   1030000900030000   573219000379190110000000247Infinity Business-Phil YANGONUNG     MMR11008020400034912640802000000000000000   10300002F00104100000000000000000000309750     
100   35710500136181430000000000023000000000023000002000000010410408020646104976331008330802049161310214   1030000900030000   541119000614190110000000452Pro(1) Global-Hlaing T YANGONTHARYA  MMR11008020646104976330802000000000000000   10300005F00104100000000000000000000004600     
100   62444500100001800000000000180000000000180000002000000010410408020415264918863000730802750451026214   1030000900030000   573219000379190110000000247Infinity Business-Phil YANGONUNG     MMR11008020415264918860802000000000000000   10300002F00104100000000000000000000075600     
100   62346600134795510000000000248538000000248538002000000010410408020419044920320037120802773491004214   1030000900030000   806219000358190110000000225Victoria Hospital      YANGONONE     MMR11008020419044920320802000000000000000   10300005F00104100000000000000000000074561     
100   9503051887191324000000000002574000000002574000200000001041040802061757496607OMRNDM0802816471257214   1030000900030000   581219000371190110000000243Jo Jo Hot Pot (Junctio YANGONN       MMR11008020617574966070802000000000000000   10300002F00104100000000000000000000008752     
100   35710830099539190000000000100000000000100000002000000010410408020619584966625758100802829491258214   1030000900030000   729819000354190110000000221Face Art Aesthetic &Sk YANGONAW      MMR11008020619584966620802000000000000000   10300003F00104100000000000000000000030000     
100   35710830574640660000000000016500000000016500002000000010410408020622414967945976000802869521241214   1030000900030000   569119000655190110000000486High Cultured Fashion  YANGONUT      MMR11008020622414967940802000000000000000   10300003F00104100000000000000000000004950     
100   9503051883577013000000000021890000000021890000200000001041040802062409496848R7JE2I0802885541209214   1030000900030000   541119000290190110000000178Pro (1) Global (East D YANGONMYOTHIT MMR11008020624094968480802000000000000000   10300002F00104100000000000000000000043780     
100   95050202048555050000000000059800000000059800002000000010410408020627144969749190850802923571214214   1030000900030000   569119000737190110000000569Di Fashion(NorthDagon) YANGONMYOTHIT MMR11008020627144969740802000000000000000   10200002F00104100000000000000000000025116     
100   62441900002827740000000000027170000000027170002000000010410408011633564713498855190802390032356213   1030000900030000   581319000430190110000000554The Glass Bar          YANGONONE     MMR11008011633564713490802000000000000000   10300003F00104100000000000000000000016166     
100   62346600151775000000000000018522000000018522002000000010410408021252165120117298860802491221916214   1030000900030000   581219000697190110000000528Pizzamaru Myanmar (MPZ YANGON        MMR11008021252165120110802000000000000000   10300005F00104100000000000000000000006298     
100   35710500175477280000000000710000000000710000002000000010410408021253165120449206630802502231916214   1030000900030000   59441900052919011000000037729 Jewellery           YANGONUT      MMR11008021253165120440802000000000000000   10300005F00104100000000000000000000213000     
100   35710830765753630000000000029800000000029800002000000010410408021254155120905064970802511241915214   1030000900030000   599919000189190110000000093119 Fashion Complex (P YANGONN       MMR11008021254155120900802000000000000000   10300003F00104100000000000000000000008940     
100   9503051893342630000000000000500000000000500000200000001041040802160528518080TQNYCT0802268352228214   1030000900030000   581319000363190110000000236Safe House Club        YANGON        MMR11008021605285180800802000000000000000   10300002F00104100000000000000000000001700     
100   62346600120052820000000000100000000000100000002000000010410408020822005013879549150802955521400214   1030000900030000   594419000708190110000000539Zwe Htet Gems & Jewell YANGON        MMR11008020822005013870802000000000000000   10300005F00104100000000000000000000030000     
100   35710500381351150000000000002350000000002350002000000010410408020954105049805218970802786241610214   1030000900030000   541119000114190110000000078Sein Gay Har Kan Thar  YANGONOKKALAP MMR11008020954105049800802000000000000000   10300005F00104100000000000000000000000470     
100   9503051886659917000000000001040000000001040000200000001041040802095423504984SEG9BM0802788241623214   1030000900030000   599519000611190110000000451Puppy Paradise         YANGON        MMR11008020954235049840802000000000000000   10300002F00104100000000000000000000003120     
100   35710500193496690000000000027550000000027550002000000010410408020954525049994963680802793241652214   1030000900030000   541119000115190110000000078Sein Gay Har Kan Thar  YANGONOKKALAP MMR11008020954525049990802000000000000000   10300005F00104100000000000000000000005510     
100   9503051884951936000000000001800000000001800000200000001041040802044205492875JENC8M0802938121105214   1030000900030000   591219000692190110000000523Shwe Ohh Pharmacy ST-1 YANGON        MMR11008020442054928750802000000000000000   10300002F00104100000000000000000000005400     
100   9503051891808756000000000001800000000001800000200000001041040802044737493085SXVQNH0802971171137214   1030000900030000   581219000723190110000000555Shake Cake&Bakery(Capi YANGON        MMR11008020447374930850802000000000000000   10300002F00104100000000000000000000006120     
100   9503051874188739000000000005000000000005000000200000001041040802044758493097HHFR0N0802974171158214   1030000900030000   581219000807190110000000639The Local Kitchen      YANGONUT      MMR11008020447584930970802000000000000000   10300002F00104100000000000000000000017000     
100   62921400000249250000000000015800000000015800002000000010410408020636030603653333330802000003950254   1030000900030000   333300010001202104000002659MSP                    Yangon        MMR11008020636030603650802000000000000000   10300009F05104100000000000000000000020000     
100   62346600143676980000000000005000000000005000002000000010410408021546001600973233960802000003951051   1030000900030000   333400010001202104000002022ACS                    Yangon        MMR11008021546001600970802000000000000000   10300005F05104100000000000000000000003000     
100   950319000315606600000000001502000000001502000020000000104104080210543524354637Z6CF0802000003950581   1030000900030000   333300010001202104000002717Near Me Android        Yangon        MMR11008021054352435460802000000000000000   10300014F05104100000000000000000000020000     
100   95031900008244350000000000030200000000030200002000000010410408020454382438088C64CF0802000003950107   1030000900030000   333300010001202104000002717Near Me Android        Yangon        MMR11008020454382438080802000000000000000   10300014F05104100000000000000000000020000     
100   62443001760042700000000000005000000000005000002000000010410408020654382438200058480802000003950279   1030000900030000   333400010001202104000002022ACS                    Yangon        MMR11008020654382438200802000000000000000   10300005F05104100000000000000000000003000     
100   62622000837564660000000000026250000000026250002000000010410408020954265049883021860802789241626214   1030000900030000   599919000199190110000000103119 Fashion (BuyMoreGe YANGON        MMR11008020954265049880802000000000000000   10300006F00104100000000000000000000007875     
100   62444501100048680000000000048100000000048100002000000010410408020322224898612823320802304520922214   1030000900030000   701119000042190110000000019Grand Amara Hotel      NAYPYITAWIYI  MMR11008020322224898610802000000000000000   10300002F00104100000000000000000000028619     
100   35710500150708890000000000026200000000026200002000000010410408020657274980975065380802166271327214   1030000900030000   569119000350190110000000217Bench (Myanmar Plaza)  YANGON        MMR11008020657274980970802000000000000000   10300005F00104100000000000000000000007860     
100   35710500110125390000000000005000000000005000002000000010410408020643411341458263380802000003950264   1030000900030000   333400010001202104000002022ACS                    Yangon        MMR11008020643411341450802000000000000000   10300005F05104100000000000000000000003000     
100   95030518951591720000000000012500000000012500002000000010410408021211005104612HRCID0802166411800214   1030000900030000   599919000197190110000000101119 Fashion Complex (I YANGON        MMR11008021211005104610802000000000000000   10300002F00104100000000000000000000003750     
100   35710830160885350000000000016000000000016000002000000010410408020925195038463436210802513551519214   1030000900030000   554119000348190110000000215New Day Energy - 5     YANGONONE     MMR11008020925195038460802000000000000000   10300003F00104100000000000000000000002400     
100   62346600161378180000000000030000000000030000002000000010410408021119235083559585790802637491723214   1030000900030000   701119000085190110000000060Dragon Phoenix Hotel   MANDALAYHARSA MMR11008021119235083550802000000000000000   10300005F00104100000000000000000000010200     
100   9503051021353830000000000001700000000001700000200000001041040802114709509493O7LCEK0802934171809214   1030000900030000   541119000162190110000000084Pro (1) Global (Pazund YANGONARTAUNG MMR11008021147095094930802000000000000000   10300002F00104100000000000000000000003400     
100   62443000803062330000000000500000000000500000002000000010410408020431464925007937290802865011146214   1030000900030000   594419000708190110000000539Zwe Htet Gems & Jewell YANGON        MMR11008020431464925000802000000000000000   10300005F00104100000000000000000000210000     
100   35710830315448920000000000025200000000025200002000000010410408020646544976623823580802055161354214   1030000900030000   581219000697190110000000528Pizzamaru Myanmar (MPZ YANGON        MMR11008020646544976620802000000000000000   10300003F00104100000000000000000000008568     
100   95030800010079420000000000005000000000005000002000000010410408020228515851875643400802000003949870   1030000900030000   333800010001202104000003301uab bank               Yangon        MMR11008020228515851870802000000000000000   10300003F05104100000000000000000000003000     
100   9503051873341115000000000001000000000001000000200000001041040802112345534520GOB1EP0802000003950625   1030000900030000   333400010001202104000002022ACS                    Yangon        MMR11008021123455345200802000000000000000   10300002F05104100000000000000000000006000     
100   62346600104666680000000000010200000000010200002000000010410408021223525352463499500802000003950718   1030000900030000   333300010001202104000002659MSP                    Yangon        MMR11008021223525352460802000000000000000   10300005F05104100000000000000000000020000     
100   35710830171733850000000000460000000000460000002000000010410408011624055405755693640802000003949617   1030000900030000   333800010001202104000003301uab bank               Yangon        MMR11008011624055405750802000000000000000   10300003F05104100000000000000000000276000     
100   62343301009533510000000000020200000000020200002000000010410408020538580858270000000802000003950162   1030000900030000   333300010001202104000002659MSP                    Yangon        MMR11008020538580858270802000000000000000   10300004F05104100000000000000000000020000     
100   35710500140557090000000000010000000000010000002000000010410408020208393839643724620802000003949842   1030000900030000   333400010001202104000002022ACS                    Yangon        MMR11008020208393839640802000000000000000   10300005F05104100000000000000000000006000     
100   35710830872367240000000000005850000000005850002000000010410408020837095019655437430802077071509214   1030000900030000   597719000109190110000000075Girls Generation       YANGONUT      MMR11008020837095019650802000000000000000   10300003F00104100000000000000000000001755     
100   95031900008090970000000000225150000000225150002000000010410408020457164934289264CF0802041271116214   1030000900030000   541119000283190110000000177Pro1 Global (Insein)   YANGON        MMR11008020457164934280802000000000000000   10300014F00104100000000000000000000045030     
100   62444500200229840000000000015900000000015900002000000010410408020500124935173142170802058301112214   1030000900030000   541119000114190110000000078Sein Gay Har Kan Thar  YANGONOKKALAP MMR11008020500124935170802000000000000000   10300002F00104100000000000000000000005565     
100   35710830121060910000000000010000000000010000002000000010410408020500394935365988100802062301139214   1030000900030000   541119000318190110000000200Amazing Mart (No.1 Ind YANGON        MMR11008020500394935360802000000000000000   10300003F00104100000000000000000000002000     
100   35710830160986250000000002000200000002000200002000000010410408021430010001366882490802000003950948   1030000900030000   333300010001202104000002717Near Me Android        Yangon        MMR11008021430010001360802000000000000000   10300003F05104100000000000000000000020000     
100   62346600140133180000000000007000000000007000002000000010410408020241411141539842480802000003949885   1030000900030000   333400010001202104000002022ACS                    Yangon        MMR11008020241411141530802000000000000000   10300005F05104100000000000000000000004200     
100   62343301000004190000000000100200000000100200002000000010410408020450572057170000000802000003950090   1030000900030000   333300010001202104000002717Near Me Android        Yangon        MMR11008020450572057170802000000000000000   10300004F05104100000000000000000000020000     
100   95031900011880040000000000002000000000002000002000000010410408020600153015542MT4CF0802000003950201   1030000900030000   333800010001202104000003301uab bank               Yangon        MMR11008020600153015540802000000000000000   10300014F05104100000000000000000000001200     
100   62622000498597920000000000009450000000009450002000000010410408020846135023093209400802159161513214   1030000900030000   599919000192190110000000096119 Fashion Complex (H YANGON        MMR11008020846135023090802000000000000000   10300006F00104100000000000000000000002835     
100   9503051892722428000000000006090000000006090000200000001041040802095744505121A9ZPDI0802830271644214   1030000900030000   729819000594190110000000434Glamour Beauty & Spa(T YANGONUT      MMR11008020957445051210802000000000000000   10300002F00104100000000000000000000018270     
100   62444501100170840000000000014550000000014550002000000010410408021139205091894347510802867091820214   1030000900030000   541119000166190110000000085SeinGayHar (Dagon Cent YANGONUNG     MMR11008021139205091890802000000000000000   10300002F00104100000000000000000000005092     
100   95031900045303190000000000023950000000023950002000000010410408020326014899929S93CF0802336560901214   1030000900030000   541119000144190110000000083SeinGayHarParami Cente YANGON        MMR11008020326014899920802000000000000000   10300014F00104100000000000000000000004790     
100   62346600188308400000000000026000000000026000002000000010410408020519014901635441070802000003950128   1030000900030000   333400010001202104000002022ACS                    Yangon        MMR11008020519014901630802000000000000000   10300005F05104100000000000000000000015600     
100   62443000803063730000000000020500000000020500002000000010410408020547504953872190260802504171250214   1030000900030000   594319000084190110000000059Innwa Books            YANGONUT      MMR11008020547504953870802000000000000000   10300005F00104100000000000000000000008610     
100   35710830684080030000000000255600000000255600002000000010410408020759555004815772530802716291455214   1030000900030000   541119000376190110000000178Pro (1) Global (East D YANGONMYOTHIT MMR11008020759555004810802000000000000000   10300003F00104100000000000000000000051120     
100   95031100008007060000000000013250000000013250002000000010410408020800585005162991030802730301458214   1030000900030000   591219000609190110000000449Shwe Ohh Pharmacy St-3 YANGONAUNG    MMR11008020800585005160802000000000000000   10300006F00104100000000000000000000003975     
100   62346600191948400000000005000000000005000000002000000010410408020515504941020016770802191451150214   1030000900030000   594419000600190110000000440Shwe Nan Taw Jewellery YANGON        MMR11008020515504941020802000000000000000   10300005F00104100000000000000000001500000     
100   35710500122344130000000000005000000000005000002000000010410408020554452445692209770802000003950196   1030000900030000   333400010001202104000002022ACS                    Yangon        MMR11008020554452445690802000000000000000   10300005F05104100000000000000000000003000     
100   35710500101797840000000000035000000000035000002000000010410408020205463546017164120802000003949837   1030000900030000   333400010001202104000002022ACS                    Yangon        MMR11008020205463546010802000000000000000   10300005F05104100000000000000000000021000     
100   62343301016959850000000000021045000000021045002000000010410408021011295056710000000802963411629214   1030000900030000   581219000590190110000000430The Tea Club           YANGON        MMR11008021011295056710802000000000000000   10300004F00104100000000000000000000007155     
100   35710500361008710000000000001000000000001000002000000010410408020900245028381354200802267301524214   1030000900030000   541119000114190110000000078Sein Gay Har Kan Thar  YANGONOKKALAP MMR11008020900245028380802000000000000000   10300005F00104100000000000000000000000200     
100   950319000480278300000000000100000000000100000020000000104104080213055751247617Z7CF0802578351957214   1030000900030000   541119000123190110000000080Sein Gay Har BAK       YANGON        MMR11008021305575124760802000000000000000   10300014F00104100000000000000000000002000     
100   62346600165165990000000000020400000000020400002000000010410408020811355009485209230802832411435214   1030000900030000   541119000120190110000000080Sein Gay Har BAK       YANGONADA     MMR11008020811355009480802000000000000000   10300005F00104100000000000000000000004080     
100   62622000912917460000000000033300000000033300002000000010410408020633114971993158990802969031311214   1030000900030000   541119000162190110000000084Pro (1) Global (Pazund YANGONARTAUNG MMR11008020633114971990802000000000000000   10300006F00104100000000000000000000006660     
100   35710950875369030000000000038450000000038450002000000010410408020550124954704781810802528201212214   1030000900030000   541119000163190110000000084Pro (1) Global (Pazund YANGONARTAUNG MMR11008020550124954700802000000000000000   10300003F00104100000000000000000000007690     
100   62622000138489530000000000011600000000011600002000000010410408020844265022293159600802136141526214   1030000900030000   599919000192190110000000096119 Fashion Complex (H YANGON        MMR11008020844265022290802000000000000000   10300006F00104100000000000000000000003480     
100   35710500360585250000000000020000000000020000002000000010410408021504173417524589780802000003951009   1030000900030000   333400010001202104000002022ACS                    Yangon        MMR11008021504173417520802000000000000000   10300005F05104100000000000000000000012000     
100   62443000860100110000000000092499000000092499002000000010410408021419505150054079210802034492050214   1030000900030000   581219000007190110000000005Fuji Japanese FM-01    YANGON        MMR11008021419505150050802000000000000000   10300005F00104100000000000000000000055037     
100   95031900018168100000000000002100000000002100002000000010410408021255135121138FX7CF0802516251913214   1030000900030000   599919000188190110000000092119 Fashion (Sanchaung YANGONUNG     MMR11008021255135121130802000000000000000   10300014F00104100000000000000000000000630     
100   95031900040924430000000000030000000000030000002000000010410408020823115014423VT5CF0802974531411214   1030000900030000   554119000348190110000000215New Day Energy - 5     YANGONONE     MMR11008020823115014420802000000000000000   10300014F00104100000000000000000000004500     
100   35710830545928020000000000016774000000016774002000000010410408020630424970943822190802951001342214   1030000900030000   581219000371190110000000243Jo Jo Hot Pot (Junctio YANGONN       MMR11008020630424970940802000000000000000   10300003F00104100000000000000000000005703     
100   35710500321057260000000000020000000000020000002000000010410408020520444942786206940802226501144214   1030000900030000   591219000508190110000000355Shwe Ohh Pharmacy(SanP YANGONNGKUUN  MMR11008020520444942780802000000000000000   10300005F00104100000000000000000000006000     
100   95031202500264310000000000050000000000050000002000000010410408020317034703603333330802000003949940   1030000900030000   333800010001202104000003301uab bank               Yangon        MMR11008020317034703600802000000000000000   10300009F05104100000000000000000000030000     
100   35710500158667650000000000164560000000164560002000000010410408020837385019865976990802081071538214   1030000900030000   729819000184190110000000088KER Rendezvous - 3Floo YANGONONE     MMR11008020837385019860802000000000000000   10300005F00104100000000000000000000049368     
100   35710500321322170000000000008200000000008200002000000010410408020907595031480930230802338371559214   1030000900030000   591219000688190110000000519Shwe Ohh Pharmacy ST-7 YANGONUNG     MMR11008020907595031480802000000000000000   10300005F00104100000000000000000000002460     
100   35710500121975940000000000132000000000132000002000000010410408021036045066364488990802212061704214   1030000900030000   594419000631190110000000462Shwe San Eain GemsTime YANGONUT      MMR11008021036045066360802000000000000000   10300005F00104100000000000000000000039600     
100   35650710300214650000000000010050000000010050002000000010410408021036115066439311930802215061711214   1030000900030000   541119000166190110000000085SeinGayHar (Dagon Cent YANGONUNG     MMR11008021036115066430802000000000000000   10300005F00104100000000000000000000003517     
100   35710500381120230000000000016900000000016900002000000010410408021037215066902718110802229071721214   1030000900030000   541119000112190110000000077Sein Gay Har Chinatown YANGON        MMR11008021037215066900802000000000000000   10300005F00104100000000000000000000003380     
100   9503051896616071000000000001775000000001775000200000001041040802103803506720FXJQEJ0802239081703214   1030000900030000   541119000141190110000000083SeinGayHarParami Cente YANGON        MMR11008021038035067200802000000000000000   10300002F00104100000000000000000000003550     
100   95051812274912960000000000012000000000012000002000000010410408021040455068356875350802275101745214   1030000900030000   541119000144190110000000083SeinGayHarParami Cente YANGON        MMR11008021040455068350802000000000000000   10300013F00104100000000000000000000004200     
100   35710500112075010000000000019000000000019000002000000010410408021230525112172590970802339001952214   1030000900030000   569119000655190110000000486High Cultured Fashion  YANGONUT      MMR11008021230525112170802000000000000000   10300005F00104100000000000000000000005700     
100   62346600131625120000000000003000000000003000002000000010410408021012245057103043110802971421624214   1030000900030000   581219000726190110000000558Shake Cake&Bakery(SiPi YANGONMYOTHIT MMR11008021012245057100802000000000000000   10300005F00104100000000000000000000001020     
100   9503051888723703000000000009600000000009600000200000001041040802101319505744ZNDNJL0802980431619214   1030000900030000   729819000390190110000000253The Glam Bar Beauty SP YANGONUNG     MMR11008021013195057440802000000000000000   10300002F00104100000000000000000000028800     
100   35710500181548880000000000019000000000019000002000000010410408021016115058436597660802998461611214   1030000900030000   599919000195190110000000099119 Fashion Complex (P YANGONN       MMR11008021016115058430802000000000000000   10300005F00104100000000000000000000005700     
100   35710830527094650000000000011050000000011050002000000010410408021016295058535757210802999461629214   1030000900030000   541119000286190110000000177Pro1 Global (Insein)   YANGON        MMR11008021016295058530802000000000000000   10300003F00104100000000000000000000002210     
100   9503051888723703000000000002400000000002400000200000001041040802101630505855OKDWPE0802001461630214   1030000900030000   729819000390190110000000253The Glam Bar Beauty SP YANGONUNG     MMR11008021016305058550802000000000000000   10300002F00104100000000000000000000007200     
100   62441901002373300000000000046000000000046000002000000010410408021237335114691080410802392071933214   1030000900030000   554119000348190110000000215New Day Energy - 5     YANGONONE     MMR11008021237335114690802000000000000000   10300003F00104100000000000000000000009660     
100   35710830428311300000000000139150000000139150002000000010410408021239585115603372640802405091958214   1030000900030000   581219000368190110000000241Beauty In The Pot (PHS YANGON        MMR11008021239585115600802000000000000000   10300003F00104100000000000000000000047311     
100   9503051893931291000000000000270000000000270000200000001041040802124722511841MIPS7W0802458171922214   1030000900030000   581219000481190110000000334Shwepalin (TLKK)       YANGONIN      MMR11008021247225118410802000000000000000   10300002F00104100000000000000000000000918     
100   9503051019962428000000000003693400000003693400200000001041040802065615498033GBORCS0802149261315214   1030000900030000   581219000697190110000000528Pizzamaru Myanmar (MPZ YANGON        MMR11008020656154980330802000000000000000   10300002F00104100000000000000000000012558     
100   35710500351464950000000000013000000000013000002000000010410408020656504980593314000802158261350214   1030000900030000   541119000155190110000000083SeinGayHarParami Cente YANGON        MMR11008020656504980590802000000000000000   10300005F00104100000000000000000000002600     
100   9503051020509648000000000006630000000006630000200000001041040802070007498187WQLLB80802190301307214   1030000900030000   581219000205190110000000107Canton Paradise        YANGON        MMR11008020700074981870802000000000000000   10300002F00104100000000000000000000022542     
100   9503051890402619000000000002745000000002745000200000001041040802070145498246BJXXEI0802203311345214   1030000900030000   541119000282190110000000177Pro1 Global (Insein)   YANGON        MMR11008020701454982460802000000000000000   10300002F00104100000000000000000000005490     
100   35710830367033290000000000203800000000203800002000000010410408020704194983495226510802221341319214   1030000900030000   541119000286190110000000177Pro1 Global (Insein)   YANGON        MMR11008020704194983490802000000000000000   10300003F00104100000000000000000000040760     
100   35650880440010930000000000030200000000030200002000000010410408020732100210135879570802000003950323   1030000900030000   333300010001202104000002717Near Me Android        Yangon        MMR11008020732100210130802000000000000000   10300005F05104100000000000000000000020000     
100   62441900102387900000000000005000000000005000002000000010410408021253012301047990540802000003950774   1030000900030000   333400010001202104000002022ACS                    Yangon        MMR11008021253012301040802000000000000000   10300003F05104100000000000000000000003000     
100   62441901002949760000000000012200000000012200002000000010410408021208005103559788170802151381800214   1030000900030000   591219000602190110000000442Shwe Ohh Pharmacy St-5 YANGONARTAUNG MMR11008021208005103550802000000000000000   10300003F00104100000000000000000000005124     
100   9503051020602146000000000004860000000004860000200000001041040802055627495717RNGAEO0802599261227214   1030000900030000   569119000737190110000000569Di Fashion(NorthDagon) YANGONMYOTHIT MMR11008020556274957170802000000000000000   10300002F00104100000000000000000000014580     
100   35710500301512920000000000023308000000023308002000000010410408020803225006333895670802757331422214   1030000900030000   581219000649190110000000480Malar City (Malar Xing YANGONUT      MMR11008020803225006330802000000000000000   10300005F00104100000000000000000000007925     
100   9503051887652952000000000004178000000004178000200000001041040802070931498554OJ5GL90802265391331214   1030000900030000   541119000131190110000000083SeinGayHarParami Cente YANGON        MMR11008020709314985540802000000000000000   10300002F00104100000000000000000000008356     
100   35710830106584650000000000499000000000499000002000000010410408021219105107888017910802244491810214   1030000900030000   481219000043190110000000048Xiaomi Mobile Shop(Hle YANGONUT      MMR11008021219105107880802000000000000000   10300003F00104100000000000000000000149700     
100   35710950879516720000000000326583000000326583002000000010410408021346175138555601850802828162017214   1030000900030000   701119000064190110000000024Lotte Hotel            YANGON        MMR11008021346175138550802000000000000000   10300003F00104100000000000000000000111038     
100   35710830354956870000000000030000000000030000002000000010410408020739464997256336760802548091446214   1030000900030000   569119000645190110000000476Duoyi Fashion          YANGONUT      MMR11008020739464997250802000000000000000   10300003F00104100000000000000000000009000     
100   9503051873672139000000000014100000000014100000200000001041040802043909492768FQQY1T0802912091109214   1030000900030000   594419000631190110000000462Shwe San Eain GemsTime YANGONUT      MMR11008020439094927680802000000000000000   10300002F00104100000000000000000000042300     
100   62346600113594660000000000005000000000005000002000000010410408020806013601855329980802000003950371   1030000900030000   333400010001202104000002022ACS                    Yangon        MMR11008020806013601850802000000000000000   10300005F05104100000000000000000000003000     
100   35710830737034140000000000074014000000074014002000000010410408021309205125998368590802604391920214   1030000900030000   581219000721190110000000552Chilli Pot Mala Xiang  YANGONOKKALAP MMR11008021309205125990802000000000000000   10300003F00104100000000000000000000025165     
100   35710950533518650000000000200000000000200000002000000010410408021309485126158025040802611391948214   1030000900030000   581219000206190110000000108Beauty in the Pot      YANGON        MMR11008021309485126150802000000000000000   10300003F00104100000000000000000000068000     
