000   10300009200720
100   62443000804667970000000000169700000000169700002000000010410407200413448394181603200720415431044201   1030000900030000   594419000549190110000000396Yangoods (City Mall)   YANGONAW      MMR11007200413448394180720000000000000000   10300005F00104100000000000000000000071274     
100   9503051019560800000000000003555000000003555000200000001041040720071936845972S6IUHL0720725491336201   1030000900030000   581219000635190110000000466King BBQ Time City     YANGONUT      MMR11007200719368459720720000000000000000   10300002F00104100000000000000000000012087     
100   95050312482469810000000000014350000000014350002000000010410407201130138549955575640720694001813201   1030000900030000   541119000114190110000000078Sein Gay Har Kan Thar  YANGONOKKALAP MMR11007201130138549950720000000000000000   10300001F00104100000000000000000000005022     
100   62346600190635570000000000004800000000004800002000000010410407200644518448026585970720488141351201   1030000900030000   541119000112190110000000077Sein Gay Har Chinatown YANGON        MMR11007200644518448020720000000000000000   10300005F00104100000000000000000000000960     
100   62346600150088950000000000300200000000300200002000000010410407200545251525511643960720000003915449   1030000900030000   333300010001202104000002659MSP                    Yangon        MMR11007200545251525510720000000000000000   10300005F05104100000000000000000000020000     
100   95030518912272050000000000056850000000056850002000000010410407201100118538071IFZMJ0720384301711201   1030000900030000   541119000112190110000000077Sein Gay Har Chinatown YANGON        MMR11007201100118538070720000000000000000   10300002F00104100000000000000000000011370     
100   62346600189812470000000000045675000000045675002000000010410407200551288428938643730720114211228201   1030000900030000   701119000065190110000000024Lotte Hotel            YANGON        MMR11007200551288428930720000000000000000   10300005F00104100000000000000000000015530     
100   35710500162152850000000000045675000000045675002000000010410407200639358446115202570720443091335201   1030000900030000   701119000065190110000000024Lotte Hotel            YANGON        MMR11007200639358446110720000000000000000   10300005F00104100000000000000000000015530     
100   35710830372948720000000000002900000000002900002000000010410407200646368448598340000720506161336201   1030000900030000   581219000723190110000000555Shake Cake&Bakery(Capi YANGON        MMR11007200646368448590720000000000000000   10300003F00104100000000000000000000000986     
100   35710500310448190000000000465000000000465000002000000010410407200830178483998707730720244001517201   1030000900030000   594419000631190110000000462Shwe San Eain GemsTime YANGONUT      MMR11007200830178483990720000000000000000   10300005F00104100000000000000000000139500     
100   62443000103024270000000000047450000000047450002000000010410407200832368484875111820720261021536201   1030000900030000   597719000090190110000000064Kyi Pyar Cosmetic (1)  MANDALAYHARSA MMR11007200832368484870720000000000000000   10300005F00104100000000000000000000019929     
100   35710830951402070000000000677500000000677500002000000010410407200833508485344601030720274031550201   1030000900030000   541119000284190110000000177Pro1 Global (Insein)   YANGON        MMR11007200833508485340720000000000000000   10300003F00104100000000000000000000135500     
100   950305188960205400000000000130000000000130000020000000104104071919274857489424YKJA0720000003914959   1030000900030000   333400010001202104000002022ACS                    Yangon        MMR11007191927485748940720000000000000000   10300002F05104100000000000000000000007800     
100   95030518783654160000000000090250000000090250002000000010410407200921288501550FOIMN0720585511528201   1030000900030000   541119000286190110000000177Pro1 Global (Insein)   YANGON        MMR11007200921288501550720000000000000000   10300002F00104100000000000000000000018050     
100   35710900213242840000000000014200000000014200002000000010410407200922518502125761040720600521551201   1030000900030000   541119000170190110000000085SeinGayHar (Dagon Cent YANGONUNG     MMR11007200922518502120720000000000000000   10300003F00104100000000000000000000002840     
100   35710830632408070000000000008050000000008050002000000010410407201058228537207647330720359281722201   1030000900030000   541119000162190110000000084Pro (1) Global (Pazund YANGONARTAUNG MMR11007201058228537200720000000000000000   10300003F00104100000000000000000000001610     
100   9503051890873652000000000001900000000001900000200000001041040720114606855648XJ1FFQ0720870161806201   1030000900030000   569119000696190110000000527Plus Nine Five Fashion YANGONUT      MMR11007201146068556480720000000000000000   10300002F00104100000000000000000000005700     
100   62444501100075720000000000006000000000006000002000000010410407201150378558218234350720905201837201   1030000900030000   569119000433190110000000291Zoey Fashion (Market P YANGON        MMR11007201150378558210720000000000000000   10300002F00104100000000000000000000002520     
100   9503051878367537000000000001020000000001020000200000001041040720101924492418BTGOLM0720000003915907   1030000900030000   333300010001202104000002659MSP                    Yangon        MMR11007201019244924180720000000000000000   10300002F05104100000000000000000000020000     
100   95031900015042420000000000100200000000100200002000000010410407200516384638606UY91F0720000003915381   1030000900030000   333300010001202104000002717Near Me Android        Yangon        MMR11007200516384638600720000000000000000   10300014F05104100000000000000000000020000     
100   35710830684080030000000000093950000000093950002000000010410407200852538491906838900720404221553201   1030000900030000   541119000283190110000000177Pro1 Global (Insein)   YANGON        MMR11007200852538491900720000000000000000   10300003F00104100000000000000000000018790     
100   35710830589454850000000000007700000000007700002000000010410407200854218492546839900720421241521201   1030000900030000   541119000159190110000000084Pro (1) Global (Pazund YANGONIKANAUN MMR11007200854218492540720000000000000000   10300003F00104100000000000000000000001540     
100   35710830403082060000000000008300000000008300002000000010410407200854378492666840020720423241537201   1030000900030000   599919000055190110000000050119 Fashion Complex (K YANGONUT      MMR11007200854378492660720000000000000000   10300003F00104100000000000000000000002490     
100   62444500200424200000000000031500000000031500002000000010410407200858188493867755080720452281518201   1030000900030000   541119000112190110000000077Sein Gay Har Chinatown YANGON        MMR11007200858188493860720000000000000000   10300002F00104100000000000000000000011025     
100   95030518979481270000000000020370000000020370002000000010410407200525288419630QVZHG0720944551128201   1030000900030000   581219000230190110000000129MinLan Restaurant(Maya YANGONONE     MMR11007200525288419630720000000000000000   10300002F00104100000000000000000000006926     
100   62444501100196840000000000202250000000202250002000000010410407200527468420417208350720954571146201   1030000900030000   599919000183190110000000087KER Rendezvous (2)Floo YANGONONE     MMR11007200527468420410720000000000000000   10300002F00104100000000000000000000084945     
100   95031900014866710000000000050200000000050200002000000010410407200424475447532FF91F0720000003915272   1030000900030000   333300010001202104000002717Near Me Android        Yangon        MMR11007200424475447530720000000000000000   10300014F05104100000000000000000000020000     
100   9503051891844249000000000005020000000005020000200000001041040720102500550076DT19QF0720000003915913   1030000900030000   333300010001202104000002659MSP                    Yangon        MMR11007201025005500760720000000000000000   10300002F05104100000000000000000000020000     
100   35710830684434710000000000031150000000031150002000000010410407200354408387805196210720312241040201   1030000900030000   541119000159190110000000084Pro (1) Global (Pazund YANGONIKANAUN MMR11007200354408387800720000000000000000   10300003F00104100000000000000000000006230     
100   35710950407253610000000000059000000000059000002000000010410407200354428387813809820720313241042201   1030000900030000   481219000711190110000000542I Sure Technology Co., MANDALAYHARSA MMR11007200354428387810720000000000000000   10300003F00104100000000000000000000017700     
100   62346600150129470000000000058200000000058200002000000010410407201520225022282394840720000003916361   1030000900030000   333300010001202104000000109Myanmar National Airli Yangon        MMR11007201520225022280720000000000000000   10300005F05104100000000000000000000020000     
100   950319000322036700000000006300000000006300000020000000104104071919031882345314Y61F0720451330118201   1030000900030000   581319000586190110000000426K2 KTV                 YANGONMYOTHIT MMR11007191903188234530720000000000000000   10300014F00104100000000000000000000214200     
100   35710900867642830000000000003000000000003000002000000010410407201201563156774714200720000003916039   1030000900030000   333400010001202104000002022ACS                    Yangon        MMR11007201201563156770720000000000000000   10300003F05104100000000000000000000001800     
100   35710830345242060000000000009200000000009200002000000010410407201028138525770024230720105581613201   1030000900030000   581219000590190110000000430The Tea Club           YANGON        MMR11007201028138525770720000000000000000   10300003F00104100000000000000000000003128     
100   35710830635969270000000000119000000000119000002000000010410407200721558460376252900720736511355201   1030000900030000   594419000454190110000000307Shwe San Eain (Junctio YANGONN       MMR11007200721558460370720000000000000000   10300003F00104100000000000000000000035700     
100   62443000860119440000000000020900000000020900002000000010410407200759328473487499230720024291432201   1030000900030000   581219000477190110000000330Khao Kham Restaurant   YANGONUT      MMR11007200759328473480720000000000000000   10300005F00104100000000000000000000012435     
100   35710500160768360000000000005800000000005800002000000010410407201211458566443037370720122411845201   1030000900030000   541119000161190110000000084Pro (1) Global (Pazund YANGONARTAUNG MMR11007201211458566440720000000000000000   10300005F00104100000000000000000000001160     
100   35710500391321110000000000028400000000028400002000000010410407200928208503972840580720632581520201   1030000900030000   599919000192190110000000096119 Fashion Complex (H YANGON        MMR11007200928208503970720000000000000000   10300005F00104100000000000000000000008520     
100   9503051892395795000000000001157600000001157600200000001041040720114007855398NFJV6P0720805101807201   1030000900030000   581219000698190110000000529Pizzamaru Myanmar (San YANGONUNG     MMR11007201140078553980720000000000000000   10300002F00104100000000000000000000003936     
100   35710500342149550000000000531450000000531450002000000010410407200843098488352509490720320131509201   1030000900030000   541119000374190110000000178Pro (1) Global (East D YANGONMYOTHIT MMR11007200843098488350720000000000000000   10300005F00104100000000000000000000106290     
100   95030800056082160000000000461000000000461000002000000010410407201059448537864318010720382291744201   1030000900030000   594419000581190110000000421Zwe Htet Gems & Jewell MANDALAYTHARS MMR11007201059448537860720000000000000000   10300003F00104100000000000000000000138300     
100   62346600141286940000000000026450000000026450002000000010410407201103038539233632820720414331703201   1030000900030000   591219000606190110000000446Shwe Ohh Pharmacy St-2 YANGON        MMR11007201103038539230720000000000000000   10300005F00104100000000000000000000007935     
100   62443000803592990000000000052400000000052400002000000010410407201105008540031760700720428351700201   1030000900030000   591219000693190110000000524Shwe Ohh Pharmacy ST-2 YANGON        MMR11007201105008540030720000000000000000   10300005F00104100000000000000000000022008     
100   62441900102974320000000000030284000000030284002000000010410407200551218428881000830720113211221201   1030000900030000   581219000719190110000000550Chilli Pot Mala Xiang  YANGON        MMR11007200551218428880720000000000000000   10300003F00104100000000000000000000018019     
100   95030800043567420000000000155000000000155000002000000010410407200553138429538708460720131231213201   1030000900030000   541119000159190110000000084Pro (1) Global (Pazund YANGONIKANAUN MMR11007200553138429530720000000000000000   10300003F00104100000000000000000000031000     
100   35710500155422260000000000036900000000036900002000000010410407200558398431585978160720173281239201   1030000900030000   541119000283190110000000177Pro1 Global (Insein)   YANGON        MMR11007200558398431580720000000000000000   10300005F00104100000000000000000000007380     
100   62346600140823050000000000007100000000007100002000000010410407200600038432091907330720179301203201   1030000900030000   541119000144190110000000083SeinGayHarParami Cente YANGON        MMR11007200600038432090720000000000000000   10300005F00104100000000000000000000001420     
100   9503051887595607000000000012480000000012480000200000001041040720075642847247KQPDBI0720003261442201   1030000900030000   504719000410190110000000274Ye Optical             YANGONN       MMR11007200756428472470720000000000000000   10300002F00104100000000000000000000037440     
100   62443000803006650000000000029190000000029190002000000010410407200939438507934785000720717091643201   1030000900030000   581219000697190110000000528Pizzamaru Myanmar (MPZ YANGON        MMR11007200939438507930720000000000000000   10300005F00104100000000000000000000017368     
100   9503051897578056000000000001700000000001700000200000001041040720094015850814LGPZFF0720722101615201   1030000900030000   569119000272190110000000167Central Fashion Store  MANDALAYHARSA MMR11007200940158508140720000000000000000   10300002F00104100000000000000000000005100     
100   62346600152010030000000000006500000000006500002000000010410407201109518541824645900720469391751201   1030000900030000   591219000606190110000000446Shwe Ohh Pharmacy St-2 YANGON        MMR11007201109518541820720000000000000000   10300005F00104100000000000000000000001950     
100   95050318777026350000000000028835000000028835002000000010410407201110128541968767970720473401712201   1030000900030000   541119000115190110000000078Sein Gay Har Kan Thar  YANGONOKKALAP MMR11007201110128541960720000000000000000   10300001F00104100000000000000000000010093     
100   62443000103106360000000000049100000000049100002000000010410407201114518543620100140720510441751201   1030000900030000   541119000166190110000000085SeinGayHar (Dagon Cent YANGONUNG     MMR11007201114518543620720000000000000000   10300005F00104100000000000000000000017185     
100   62346600180303590000000000019900000000019900002000000010410407201115338543944179600720521451733201   1030000900030000   594419000549190110000000396Yangoods (City Mall)   YANGONAW      MMR11007201115338543940720000000000000000   10300005F00104100000000000000000000005970     
100   95051806159326550000000000003800000000003800002000000010410407200609548435738544720720251391254201   1030000900030000   581219000723190110000000555Shake Cake&Bakery(Capi YANGON        MMR11007200609548435730720000000000000000   10300013F00104100000000000000000000002261     
100   35710500390133450000000000004650000000004650002000000010410407200614148437227021180720269441214201   1030000900030000   541119000380190110000000248Victoria Hyper Mart    YANGON        MMR11007200614148437220720000000000000000   10300005F00104100000000000000000000000930     
100   95031900000523590000000000041145000000041145002000000010410407200705418455041TX02F0720637351341201   1030000900030000   581219000719190110000000550Chilli Pot Mala Xiang  YANGON        MMR11007200705418455040720000000000000000   10300014F00104100000000000000000000013989     
100   35710500102849720000000000046000000000046000002000000010410407200713188457367551040720681431318201   1030000900030000   597719000334190110000000229Mi Mi Dara Cosmetic    YANGONOKKALAP MMR11007200713188457360720000000000000000   10300005F00104100000000000000000000013800     
100   62346600189548300000000000262200000000262200002000000010410407200910418498006590530720527401541201   1030000900030000   541119000374190110000000178Pro (1) Global (East D YANGONMYOTHIT MMR11007200910418498000720000000000000000   10300005F00104100000000000000000000052440     
100   95031900044114520000000000010950000000010950002000000010410407200911578498386AZ12F0720534411557201   1030000900030000   599919000190190110000000094119 Fashion (North Okk YANGONOKKALAP MMR11007200911578498380720000000000000000   10300014F00104100000000000000000000003285     
100   62622000127570560000000000004200000000004200002000000010410407200912538498717149760720537421553201   1030000900030000   581219000031190110000000039Tom N Toms Coffee      YANGON        MMR11007200912538498710720000000000000000   10300006F00104100000000000000000000001428     
100   35710830337398620000000000005175000000005175002000000010410407200913308498915370550720540431530201   1030000900030000   581219000278190110000000173MAI SOONG KHA          YANGONARTAUNG MMR11007200913308498910720000000000000000   10300003F00104100000000000000000000001760     
100   35710950243748220000000000060050000000060050002000000010410407200953178512740020520720812231617201   1030000900030000   581219000206190110000000108Beauty in the Pot      YANGON        MMR11007200953178512740720000000000000000   10300003F00104100000000000000000000020417     
100   62443000160073350000000000039000000000039000002000000010410407201120128545882425320720575501712201   1030000900030000   569119000350190110000000217Bench (Myanmar Plaza)  YANGON        MMR11007201120128545880720000000000000000   10300005F00104100000000000000000000016380     
100   95031900030178540000000000000220000000000220002000000010410407201109238541573A132F0720464391723201   1030000900030000   541119000331190110000000206Muditar Supermarket    YANGON        MMR11007201109238541570720000000000000000   10300014F00104100000000000000000000000044     
100   35710830076515230000000000017250000000017250002000000010410407200608428435268335500720241381242201   1030000900030000   581219000590190110000000430The Tea Club           YANGON        MMR11007200608428435260720000000000000000   10300003F00104100000000000000000000005865     
100   95031900033626980000000000790000000000790000002000000010410407200851268491409EU12F0720394211526201   1030000900030000   481219000710190110000000541I Sure Technology Co., YANGONAUNG    MMR11007200851268491400720000000000000000   10300014F00104100000000000000000000237000     
100   35710830376526240000000000040000000000040000002000000010410407201007568518087289450720935371656201   1030000900030000   569119000655190110000000486High Cultured Fashion  YANGONUT      MMR11007201007568518080720000000000000000   10300003F00104100000000000000000000012000     
100   9503051887024327000000000001396500000001396500200000001041040720150126862101MHUBZD0720911312126201   1030000900030000   581219000722190110000000553Noodle Bowl            YANGON        MMR11007201501268621010720000000000000000   10300002F00104100000000000000000000004748     
100   62346600105245400000000000310250000000310250002000000010410407201341508597164746380720640112050201   1030000900030000   581219000206190110000000108Beauty in the Pot      YANGON        MMR11007201341508597160720000000000000000   10300005F00104100000000000000000000105485     
100   95030518770381210000000000012500000000012500002000000010410407200804098474978AIGVV0720047341409201   1030000900030000   481219000767190110000000599Remax By Telegod(GMP)  YANGONUT      MMR11007200804098474970720000000000000000   10300002F00104100000000000000000000003750     
100   9503051885916193000000000001020000000001020000200000001041040720122425857117X9W0IZ0720218541825201   1030000900030000   541119000166190110000000085SeinGayHar (Dagon Cent YANGONUNG     MMR11007201224258571170720000000000000000   10300002F00104100000000000000000000002040     
100   95031900012817180000000000042500000000042500002000000010410407200758018472944H912F0720014281401201   1030000900030000   581219000635190110000000466King BBQ Time City     YANGONUT      MMR11007200758018472940720000000000000000   10300014F00104100000000000000000000014450     
100   35710500139302170000000000030000000000030000002000000010410407200836048486006722940720287061504201   1030000900030000   541119000376190110000000178Pro (1) Global (East D YANGONMYOTHIT MMR11007200836048486000720000000000000000   10300005F00104100000000000000000000006000     
100   9503051891797033000000000155500000000155500000200000001041040720083646848620DKGVO90720289061546201   1030000900030000   594419000583190110000000423Zwe Htet Gems & Jewell MANDALAYHARSA MMR11007200836468486200720000000000000000   10300002F00104100000000000000000000466500     
100   9503051872686619000000000006580000000006580000200000001041040720083709848633I8KLSB0720292071509201   1030000900030000   591219000506190110000000353Shwe Ohh Pharmacy -8   YANGON        MMR11007200837098486330720000000000000000   10300002F00104100000000000000000000019740     
100   9503051884594587000000000002450000000002450000200000001041040720102605852492CSIGPC0720088561605201   1030000900030000   564119000665190110000000496Hero Baby Fashion      YANGONUT      MMR11007201026058524920720000000000000000   10300002F00104100000000000000000000007350     
100   95030510200403880000000000235500000000235500002000000010410407201029288526252GLDNQ0720119591628201   1030000900030000   541119000616190110000000452Pro(1) Global-Hlaing T YANGONTHARYA  MMR11007201029288526250720000000000000000   10300002F00104100000000000000000000047100     
100   35710500184419050000000000013090000000013090002000000010410407201032198527437462830720139021719201   1030000900030000   581219000371190110000000243Jo Jo Hot Pot (Junctio YANGONN       MMR11007201032198527430720000000000000000   10300005F00104100000000000000000000004451     
100   95030518854634850000000000143750000000143750002000000010410407201407368605324DHYIW0720760372036201   1030000900030000   581219000206190110000000108Beauty in the Pot      YANGON        MMR11007201407368605320720000000000000000   10300002F00104100000000000000000000048875     
100   9503051889378457000000000002120000000002120000200000001041040720061818843857AWDZFY0720293481218201   1030000900030000   594319000084190110000000059Innwa Books            YANGONUT      MMR11007200618188438570720000000000000000   10300002F00104100000000000000000000006360     
100   9503051890014380000000000004900000000004900000200000001041040720081123847738TMJ83Y0720104411423201   1030000900030000   481219000710190110000000541I Sure Technology Co., YANGONAUNG    MMR11007200811238477380720000000000000000   10300002F00104100000000000000000000014700     
100   9503051873101568000000000000950000000000950000200000001041040720081139847752HTFPSA0720106411439201   1030000900030000   594319000084190110000000059Innwa Books            YANGONUT      MMR11007200811398477520720000000000000000   10300002F00104100000000000000000000002850     
100   62622000046041180000000000161500000000161500002000000010410407200812278477787168610720112421427201   1030000900030000   594419000631190110000000462Shwe San Eain GemsTime YANGONUT      MMR11007200812278477780720000000000000000   10300006F00104100000000000000000000048450     
100   62346600162837520000000000038450000000038450002000000010410407201510558623525985030720918402155201   1030000900030000   581319000593190110000000433PM 3:3 Bar & Restauran YANGON        MMR11007201510558623520720000000000000000   10300005F00104100000000000000000000013073     
100   950319000163844600000000000662000000000662000020000000104104072010263056308432N22F0720000003915916   1030000900030000   333300010001202104000002717Near Me Android        Yangon        MMR11007201026305630840720000000000000000   10300014F05104100000000000000000000020000     
100   35710830588981630000000000062950000000062950002000000010410407200444398405775394030720661141139201   1030000900030000   541119000286190110000000177Pro1 Global (Insein)   YANGON        MMR11007200444398405770720000000000000000   10300003F00104100000000000000000000012590     
100   35710830192931810000000000564000000000564000002000000010410407200902418495475368730720483321541201   1030000900030000   594419000631190110000000462Shwe San Eain GemsTime YANGONUT      MMR11007200902418495470720000000000000000   10300003F00104100000000000000000000169200     
100   35710500121217270000000000019750000000019750002000000010410407201122058546611610010720595521705201   1030000900030000   541119000114190110000000078Sein Gay Har Kan Thar  YANGONOKKALAP MMR11007201122058546610720000000000000000   10300005F00104100000000000000000000003950     
100   62346600120523590000000000151000000000151000002000000010410407201123018547022546070720611531701201   1030000900030000   594419000551190110000000398Weint Sein (1)         MANDALAYHARSA MMR11007201123018547020720000000000000000   10300005F00104100000000000000000000045300     
100   9503051884707346000000000001300000000001300000200000001041040720112554854835PXOE7S0720654551754201   1030000900030000   541119000117190110000000078Sein Gay Har Kan Thar  YANGONOKKALAP MMR11007201125548548350720000000000000000   10300002F00104100000000000000000000002600     
100   62346600116935670000000000037500000000037500002000000010410407201128038549118348390720669581703201   1030000900030000   591219000505190110000000352Shwe Ohh Pharmacy (THU YANGON        MMR11007201128038549110720000000000000000   10300005F00104100000000000000000000011250     
100   35710830288953640000000000035000000000035000002000000010410407200639078445978338890720437091307201   1030000900030000   569119000696190110000000527Plus Nine Five Fashion YANGONUT      MMR11007200639078445970720000000000000000   10300003F00104100000000000000000000010500     
100   9503051019860531000000000003200000000003200000200000001041040720063950844620E8MKON0720446091350201   1030000900030000   581319000716190110000000547Chiri Sushi Grill Bar  YANGONUT      MMR11007200639508446200720000000000000000   10300002F00104100000000000000000000010880     
100   35710830288953640000000000035000000000035000002000000010410407200640028446262759810720450101302201   1030000900030000   569119000696190110000000527Plus Nine Five Fashion YANGONUT      MMR11007200640028446260720000000000000000   10300003F00104100000000000000000000010500     
100   9503051883602621000000000001322500000001322500200000001041040720082449848218SGO0ID0720207541449201   1030000900030000   581219000420190110000000281BCC (JC)               YANGONN       MMR11007200824498482180720000000000000000   10300002F00104100000000000000000000004496     
100   62443100338139870000000000010000000000010000002000000010410407200304083408164211460720000003915136   1030000900030000   333400010001202104000002022ACS                    Yangon        MMR11007200304083408160720000000000000000   10300001F05104100000000000000000000006000     
100   62346600151998430000000000028500000000028500002000000010410407200442458405049817050720643121145201   1030000900030000   569119000350190110000000217Bench (Myanmar Plaza)  YANGON        MMR11007200442458405040720000000000000000   10300005F00104100000000000000000000008550     
100   9503051891689008000000000020595000000020595000200000001041040720073701846565RRRDUI0720850071401201   1030000900030000   541119000374190110000000178Pro (1) Global (East D YANGONMYOTHIT MMR11007200737018465650720000000000000000   10300002F00104100000000000000000000041190     
100   35710500163291440000000000045000000000045000002000000010410407201149178557609904350720890191817201   1030000900030000   592119000255190110000000150HtunHtunOo Liquor (May YANGONONE     MMR11007201149178557600720000000000000000   10300005F00104100000000000000000000013500     
100   35710500195324130000000000022300000000022300002000000010410407201111048542229213520720480411704201   1030000900030000   591219000687190110000000518Shwe Ohh Pharmacy ST-6 YANGON        MMR11007201111048542220720000000000000000   10300005F00104100000000000000000000006690     
100   35710830142035400000000000012167000000012167002000000010410407200615518437714585040720276451251201   1030000900030000   581219000420190110000000281BCC (JC)               YANGONN       MMR11007200615518437710720000000000000000   10300003F00104100000000000000000000004137     
100   9503051888282890000000000002667000000002667000200000001041040720140536860478QAZKA90720750352036201   1030000900030000   581219000231190110000000130MinLan Restaurant(SanC YANGONUNG     MMR11007201405368604780720000000000000000   10300002F00104100000000000000000000009068     
100   95030518949877890000000000284000000000284000002000000010410407201041378531083G2SZL0720230111737201   1030000900030000   729819000768190110000000600Urban Beauty Studio    YANGON        MMR11007201041378531080720000000000000000   10300002F00104100000000000000000000085200     
100   62346600198066170000000000002400000000002400002000000010410407200219278355813780440720842490827201   1030000900030000   591219000503190110000000350Shwe Ohh Pharmacy (WZD YANGONNGKUUN  MMR11007200219278355810720000000000000000   10300005F00104100000000000000000000000720     
100   9503051872870171000000000007190000000007190000200000001041040720022514835763CKQWCC0720858550814201   1030000900030000   591219000501190110000000348Shwe Ohh Pharmacy (SmL YANGONUT      MMR11007200225148357630720000000000000000   10300002F00104100000000000000000000021570     
100   62444501100039690000000000060250000000060250002000000010410407200244538363656732590720911140953201   1030000900030000   581219000205190110000000107Canton Paradise        YANGON        MMR11007200244538363650720000000000000000   10300002F00104100000000000000000000035849     
100   35710500320670740000000000000550000000000550002000000010410407200248308364826998210720927180930201   1030000900030000   591219000503190110000000350Shwe Ohh Pharmacy (WZD YANGONNGKUUN  MMR11007200248308364820720000000000000000   10300005F00104100000000000000000000000165     
100   35710500102490170000000000040000000000040000002000000010410407200249068365050728660720929190906201   1030000900030000   541119000160190110000000084Pro (1) Global (Pazund YANGONARTAUNG MMR11007200249068365050720000000000000000   10300005F00104100000000000000000000008000     
100   35710950819806020000000000019793000000019793002000000010410407201318528589955871560720551481952201   1030000900030000   701119000065190110000000024Lotte Hotel            YANGON        MMR11007201318528589950720000000000000000   10300003F00104100000000000000000000006730     
100   62346600193898950000000000065000000000065000002000000010410407201319598590306895650720553491959201   1030000900030000   569119000645190110000000476Duoyi Fashion          YANGONUT      MMR11007201319598590300720000000000000000   10300005F00104100000000000000000000019500     
100   9503051882083039000000000009235000000009235000200000001041040720132322859140CN2CO50720570531922201   1030000900030000   581219000369190110000000241Beauty In The Pot (PHS YANGON        MMR11007201323228591400720000000000000000   10300002F00104100000000000000000000031399     
100   62443001760007320000000000059800000000059800002000000010410407200903048495594128450720486331504201   1030000900030000   541119000080190110000000057Pro (1) Global (Tampaw MANDALAYHARSI MMR11007200903048495590720000000000000000   10300005F00104100000000000000000000020930     
100   950319000277042000000000001450000000001450000020000000104104072010421085313355T22F0720236121710201   1030000900030000   541119000374190110000000178Pro (1) Global (East D YANGONMYOTHIT MMR11007201042108531330720000000000000000   10300014F00104100000000000000000000029000     
100   9503051874093467000000000000798000000000798000200000001041040720104220853137PIUKIY0720237121720201   1030000900030000   581219000722190110000000553Noodle Bowl            YANGON        MMR11007201042208531370720000000000000000   10300002F00104100000000000000000000002713     
100   9503051883015600000000000001250000000001250000200000001041040720104223853140GCJN8C0720239121723201   1030000900030000   597719000530190110000000378Mon Cosmetic (1)       MANDALAYHARSA MMR11007201042238531400720000000000000000   10300002F00104100000000000000000000003750     
100   35710830490906800000000000012500000000012500002000000010410407201044408532207209190720259141740201   1030000900030000   541119000122190110000000080Sein Gay Har BAK       YANGONADA     MMR11007201044408532200720000000000000000   10300003F00104100000000000000000000002500     
100   35710500175716290000000000041975000000041975002000000010410407201342168597297796050720644122016201   1030000900030000   581319000651190110000000482Piano Bar              YANGONONE     MMR11007201342168597290720000000000000000   10300005F00104100000000000000000000014272     
100   35710830121060910000000000000800000000000800002000000010410407201342438597413985890720647122043201   1030000900030000   541119000318190110000000200Amazing Mart (No.1 Ind YANGON        MMR11007201342438597410720000000000000000   10300003F00104100000000000000000000000160     
100   35710830096242700000000000038500000000038500002000000010410407201346418598875410660720676162041201   1030000900030000   591219000503190110000000350Shwe Ohh Pharmacy (WZD YANGONNGKUUN  MMR11007201346418598870720000000000000000   10300003F00104100000000000000000000011550     
100   35710830359221850000000000014000000000014000002000000010410407200359088389363677260720345291008201   1030000900030000   599919000195190110000000099119 Fashion Complex (P YANGONN       MMR11007200359088389360720000000000000000   10300003F00104100000000000000000000004200     
100   35710830920626850000000000005000000000005000002000000010410407200517344734165043990720000003915385   1030000900030000   333400010001202104000002022ACS                    Yangon        MMR11007200517344734160720000000000000000   10300003F05104100000000000000000000003000     
100   95031900027065560000000000045400000000045400002000000010410407191727145714946WN61F0720000003914927   1030000900030000   333300010001202104000000109Myanmar National Airli Yangon        MMR11007191727145714940720000000000000000   10300014F05104100000000000000000000020000     
100   35710830920626850000000000005000000000005000002000000010410407200515174517777797650720000003915378   1030000900030000   333400010001202104000002022ACS                    Yangon        MMR11007200515174517770720000000000000000   10300003F05104100000000000000000000003000     
100   62921400095780870000000000010000000000010000002000000010410407201023165316223333330720000003915897   1030000900030000   333400010001202104000002022ACS                    Yangon        MMR11007201023165316220720000000000000000   10300009F05104100000000000000000000006000     
100   95030518868131910000000000724300000000724300002000000010410407200913528499025CB1XH0720543431552201   1030000900030000   481219000269190110000000164Power Mobile(ChanayeTh MANDALAYHARSA MMR11007200913528499020720000000000000000   10300002F00104100000000000000000000217290     
100   9503051896948722000000000001760000000001760000200000001041040720091424849929XRXUDO0720548441524201   1030000900030000   581219000004190110000000002Yoogane Korea Rest;(MP YANGON        MMR11007200914248499290720000000000000000   10300002F00104100000000000000000000005984     
100   95030510211866100000000000142800000000142800002000000010410407201052558535286MFOR00720324221755201   1030000900030000   591219000501190110000000348Shwe Ohh Pharmacy (SmL YANGONUT      MMR11007201052558535280720000000000000000   10300002F00104100000000000000000000042840     
100   95030518857396110000000000129500000000129500002000000010410407201345098598286QMYDK0720667152009201   1030000900030000   581219000206190110000000108Beauty in the Pot      YANGON        MMR11007201345098598280720000000000000000   10300002F00104100000000000000000000044030     
100   62441900002096600000000000060000000000060000002000000010410407200338258382193703960720226081025201   1030000900030000   573219000239190110000000138NibbanElectronic(Hlain YANGONTHARYA  MMR11007200338258382190720000000000000000   10300003F00104100000000000000000000025200     
100   95030301100033080000000000005000000000005000002000000010410407200952192219733936410720000003915865   1030000900030000   333800010001202104000003301uab bank               Yangon        MMR11007200952192219730720000000000000000   10300001F05104100000000000000000000003000     
100   9503051877507984000000000001470000000001470000200000001041040720124328857803SBOVOE0720353131928201   1030000900030000   569119000350190110000000217Bench (Myanmar Plaza)  YANGON        MMR11007201243288578030720000000000000000   10300002F00104100000000000000000000004410     
100   950319000455302200000000000214500000000214500020000000104104072007434684682078612F0720912131446201   1030000900030000   581219000004190110000000002Yoogane Korea Rest;(MP YANGON        MMR11007200743468468200720000000000000000   10300014F00104100000000000000000000007293     
100   62343302002099930000000000047670000000047670002000000010410407201151038558400000000720909211803201   1030000900030000   581219000697190110000000528Pizzamaru Myanmar (MPZ YANGON        MMR11007201151038558400720000000000000000   10300004F00104100000000000000000000016208     
100   35710500340078050000000000026000000000026000002000000010410407200512398414921749040720845421139201   1030000900030000   594319000084190110000000059Innwa Books            YANGONUT      MMR11007200512398414920720000000000000000   10300005F00104100000000000000000000007800     
100   95030201945622200000000000003000000000003000002000000010410407200545211521680086800720000003915453   1030000900030000   333400010001202104000002022ACS                    Yangon        MMR11007200545211521680720000000000000000   10200002F05104100000000000000000000001800     
100   62443001760007240000000000067900000000067900002000000010410407201324078591633541240720574541907201   1030000900030000   581219000206190110000000108Beauty in the Pot      YANGON        MMR11007201324078591630720000000000000000   10300005F00104100000000000000000000040400     
100   9503051880547738000000000032470000000032470000200000001041040720072125846026LV6NIZ0720735511325201   1030000900030000   541119000288190110000000178Pro (1) Global (East D YANGONMYOTHIT MMR11007200721258460260720000000000000000   10300002F00104100000000000000000000064940     
100   35710830258692890000000000017350000000017350002000000010410407200758428473204596680720018281442201   1030000900030000   541119000163190110000000084Pro (1) Global (Pazund YANGONARTAUNG MMR11007200758428473200720000000000000000   10300003F00104100000000000000000000003470     
100   35710950390320680000000000099300000000099300002000000010410407200759198473366832550720019291419201   1030000900030000   581219000206190110000000108Beauty in the Pot      YANGON        MMR11007200759198473360720000000000000000   10300003F00104100000000000000000000033762     
100   62444500100017740000000000003100000000003100002000000010410407200801008474007614260720038311400201   1030000900030000   581219000093190110000000067BOBA House             YANGONUT      MMR11007200801008474000720000000000000000   10300002F00104100000000000000000000001844     
100   9503051886847140000000000030000000000030000000200000001041040720095657851406BCRCK00720840261657201   1030000900030000   541119000300190110000000184Super One Shopping Mal YANGONTHARYA  MMR11007200956578514060720000000000000000   10300002F00104100000000000000000000060000     
100   9503051021036237000000000001875000000001875000200000001041040720095801851443VABCKM0720848281601201   1030000900030000   599919000199190110000000103119 Fashion (BuyMoreGe YANGON        MMR11007200958018514430720000000000000000   10300002F00104100000000000000000000005625     
100   95031900033627550000000000400900000000400900002000000010410407201000368515253KA22F0720857301636201   1030000900030000   551119000735190110000000567My Road Auto           YANGONMYOTHIT MMR11007201000368515250720000000000000000   10300014F00104100000000000000000000120270     
100   62346600108726910000000000024435000000024435002000000010410407201349188599622177330720682192018201   1030000900030000   581219000719190110000000550Chilli Pot Mala Xiang  YANGON        MMR11007201349188599620720000000000000000   10300005F00104100000000000000000000008308     
100   62346600198066170000000000001550000000001550002000000010410407201351218600319369160720689212021201   1030000900030000   591219000503190110000000350Shwe Ohh Pharmacy (WZD YANGONNGKUUN  MMR11007201351218600310720000000000000000   10300005F00104100000000000000000000000465     
100   9503051872343070000000000003350000000003350000200000001041040720073845846639ACMIVM0720869081445201   1030000900030000   541119000288190110000000178Pro (1) Global (East D YANGONMYOTHIT MMR11007200738458466390720000000000000000   10300002F00104100000000000000000000006700     
100   62346600174009180000000000002600000000002600002000000010410407200740268466874674910720877101426201   1030000900030000   541119000170190110000000085SeinGayHar (Dagon Cent YANGONUNG     MMR11007200740268466870720000000000000000   10300005F00104100000000000000000000000520     
100   35710500171485190000000000113100000000113100002000000010410407200814258478537570540720127441425201   1030000900030000   541119000286190110000000177Pro1 Global (Insein)   YANGON        MMR11007200814258478530720000000000000000   10300005F00104100000000000000000000022620     
100   35710500149008700000000000039000000000039000002000000010410407200815148478780364930720140451414201   1030000900030000   569119000309190110000000191Fashmob Fashion        YANGON        MMR11007200815148478780720000000000000000   10300005F00104100000000000000000000011700     
100   35710830336063920000000000018340000000018340002000000010410407200815478479008351630720143451447201   1030000900030000   541119000172190110000000085SeinGayHar (Dagon Cent YANGONUNG     MMR11007200815478479000720000000000000000   10300003F00104100000000000000000000003668     
100   35710500186668650000000000918000000000918000002000000010410407201005588517319786180720909351658201   1030000900030000   541119000287190110000000177Pro1 Global (Insein)   YANGON        MMR11007201005588517310720000000000000000   10300005F00104100000000000000000000183600     
100   35710830703605720000000000007500000000007500002000000010410407201053138535397294790720329231713201   1030000900030000   591219000503190110000000350Shwe Ohh Pharmacy (WZD YANGONNGKUUN  MMR11007201053138535390720000000000000000   10300003F00104100000000000000000000002250     
100   35710830944672960000000000009500000000009500002000000010410407201053558535577295050720332231755201   1030000900030000   563119000646190110000000477Monster Fashion Access YANGONUT      MMR11007201053558535570720000000000000000   10300003F00104100000000000000000000002850     
100   35710830308561720000000000005200000000005200002000000010410407201056118536484296710720343261711201   1030000900030000   591219000502190110000000349Shwe Ohh Pharmacy -4   YANGON        MMR11007201056118536480720000000000000000   10300003F00104100000000000000000000001560     
100   95030800077353060000000000273500000000273500002000000010410407201056398536654299600720350261739201   1030000900030000   59441900052919011000000037729 Jewellery           YANGONUT      MMR11007201056398536650720000000000000000   10300003F00104100000000000000000000082050     
100   35710830505054100000000000148050000000148050002000000010410407200533028422643725110720016031202201   1030000900030000   541119000168190110000000085SeinGayHar (Dagon Cent YANGONUNG     MMR11007200533028422640720000000000000000   10300003F00104100000000000000000000029610     
100   35710500111998560000000000018900000000018900002000000010410407200534008423013017420720021041200201   1030000900030000   541119000288190110000000178Pro (1) Global (East D YANGONMYOTHIT MMR11007200534008423010720000000000000000   10300005F00104100000000000000000000003780     
100   9503051877505673000000000001525000000001525000200000001041040720053418842313FXDKPC0720024041218201   1030000900030000   591219000500190110000000347Shwe Ohh Pharmacy -2   YANGONUNG     MMR11007200534188423130720000000000000000   10300002F00104100000000000000000000004575     
100   35710500195854030000000000028500000000028500002000000010410407200535108423397683920720026051210201   1030000900030000   541119000115190110000000078Sein Gay Har Kan Thar  YANGONOKKALAP MMR11007200535108423390720000000000000000   10300005F00104100000000000000000000005700     
100   35710500141232420000000000035000000000035000002000000010410407201601313131193863340720000003916406   1030000900030000   333400010001202104000002022ACS                    Yangon        MMR11007201601313131190720000000000000000   10300005F05104100000000000000000000021000     
100   62346600161844970000000000500200000000500200002000000010410407201101533153028966310720000003915956   1030000900030000   333300010001202104000002717Near Me Android        Yangon        MMR11007201101533153020720000000000000000   10300005F05104100000000000000000000020000     
100   62346600115471510000000000013000000000013000002000000010410407200340251025678439130720000003915189   1030000900030000   333400010001202104000002022ACS                    Yangon        MMR11007200340251025670720000000000000000   10300005F05104100000000000000000000007800     
100   950319000175396300000000000052000000000052000020000000104104072011493719375242E32F0720000003916022   1030000900030000   333300010001202104000002659MSP                    Yangon        MMR11007201149371937520720000000000000000   10300014F05104100000000000000000000020000     
100   95031900031560660000000000150200000000150200002000000010410407200356092609008H791F0720000003915222   1030000900030000   333300010001202104000002717Near Me Android        Yangon        MMR11007200356092609000720000000000000000   10300014F05104100000000000000000000020000     
100   95031010980147630000000000013000000000013000002000000010410407200207273727559545040720000003915067   1030000900030000   333400010001202104000002022ACS                    Yangon        MMR11007200207273727550720000000000000000   10300005F05104100000000000000000000007800     
100   35710950868055980000000000035000000000035000002000000010410407201330010001695080350720000003916176   1030000900030000   333400010001202104000002022ACS                    Yangon        MMR11007201330010001690720000000000000000   10300003F05104100000000000000000000021000     
100   35710830124307230000000002000200000002000200002000000010410407191633100310953413170720000003914890   1030000900030000   333300010001202104000002717Near Me Android        Yangon        MMR11007191633100310950720000000000000000   10300003F05104100000000000000000000020000     
100   95031900051113740000000000017135000000017135002000000010410407201033168527767SN22F0720147031716201   1030000900030000   581219000423190110000000284BCC (SYS)              YANGON        MMR11007201033168527760720000000000000000   10300014F00104100000000000000000000005826     
100   9503054000413591000000000126000000000126000000200000001041040720121003856574KOIZT90720106401803201   1030000900030000   481219000030190110000000029I Sure Apple Service C YANGONUT      MMR11007201210038565740720000000000000000   10300002F00104100000000000000000000378000     
100   62346600151423220000000000106700000000106700002000000010410407201212468566762320940720131421846201   1030000900030000   581219000206190110000000108Beauty in the Pot      YANGON        MMR11007201212468566760720000000000000000   10300005F00104100000000000000000000036278     
100   95050318964967630000000000014150000000014150002000000010410407201214148567361675010720143441814201   1030000900030000   541119000115190110000000078Sein Gay Har Kan Thar  YANGONOKKALAP MMR11007201214148567360720000000000000000   10300001F00104100000000000000000000004952     
100   62443000160210390000000000014700000000014700002000000010410407201214188567391627570720146441818201   1030000900030000   599919000192190110000000096119 Fashion Complex (H YANGON        MMR11007201214188567390720000000000000000   10300005F00104100000000000000000000006174     
100   9503051884910619000000000001900000000001900000200000001041040720121428856744NHHELC0720149441828201   1030000900030000   569919000555190110000000402D & C Myanmar (MP)     YANGON        MMR11007201214288567440720000000000000000   10300002F00104100000000000000000000005700     
100   95030518879489620000000000169050000000169050002000000010410407200647258448890VABMS0720513171325201   1030000900030000   541119000376190110000000178Pro (1) Global (East D YANGONMYOTHIT MMR11007200647258448890720000000000000000   10300002F00104100000000000000000000033810     
100   9503051887504856000000000003192000000003192000200000001041040720143734861430SZRZO10720857072134201   1030000900030000   581219000032190110000000040Hot Pot King Time City YANGONUT      MMR11007201437348614300720000000000000000   10300002F00104100000000000000000000010853     
100   62441900103196990000000000132000000000132000002000000010410407201007018517652897250720919371601201   1030000900030000   594419000581190110000000421Zwe Htet Gems & Jewell MANDALAYTHARS MMR11007201007018517650720000000000000000   10300003F00104100000000000000000000055440     
100   62346600143505870000000000148419000000148419002000000010410407201544308632565650360720957142230201   1030000900030000   581319000651190110000000482Piano Bar              YANGONONE     MMR11007201544308632560720000000000000000   10300005F00104100000000000000000000050462     
100   9503051888023732000000000036830000000036830000200000001041040720162212864246XBLD860720980522212201   1030000900030000   581219000592190110000000432Malar Factory          YANGON        MMR11007201622128642460720000000000000000   10300002F00104100000000000000000000125222     
100   35710500380965230000000000015200000000015200002000000010410407200446088406255156250720672161108201   1030000900030000   541119000168190110000000085SeinGayHar (Dagon Cent YANGONUNG     MMR11007200446088406250720000000000000000   10300005F00104100000000000000000000003040     
100   9503051892201845000000000001380000000001380000200000001041040720050501841222JDIZKF0720787351101201   1030000900030000   581219000205190110000000107Canton Paradise        YANGON        MMR11007200505018412220720000000000000000   10300002F00104100000000000000000000004692     
100   9503051881577114000000000001475000000001475000200000001041040720123302857421Q1Y4AR0720270031902201   1030000900030000   541119000144190110000000083SeinGayHarParami Cente YANGON        MMR11007201233028574210720000000000000000   10300002F00104100000000000000000000002950     
100   95050315424817550000000000028000000000028000002000000010410407201244118578341238800720358141911201   1030000900030000   541119000112190110000000077Sein Gay Har Chinatown YANGON        MMR11007201244118578340720000000000000000   10300001F00104100000000000000000000009800     
100   35710500381618060000000000096500000000096500002000000010410407201250468580678090350720406201946201   1030000900030000   581219000369190110000000241Beauty In The Pot (PHS YANGON        MMR11007201250468580670720000000000000000   10300005F00104100000000000000000000032810     
100   95030800073797170000000000273950000000273950002000000010410407200547548427712447010720096171254201   1030000900030000   581219000368190110000000241Beauty In The Pot (PHS YANGON        MMR11007200547548427710720000000000000000   10300003F00104100000000000000000000093143     
100   9503051883058493000000000001963500000001963500200000001041040720075001847025JGWGXL0720953201401201   1030000900030000   581219000722190110000000553Noodle Bowl            YANGON        MMR11007200750018470250720000000000000000   10300002F00104100000000000000000000006676     
100   9503051891016582000000000003850000000003850000200000001041040720082621848263Q3KKXJ0720211561421201   1030000900030000   563119000646190110000000477Monster Fashion Access YANGONUT      MMR11007200826218482630720000000000000000   10300002F00104100000000000000000000011550     
100   95031900028048070000000000005000000000005000002000000010410407200827068482876AK12F0720218571406201   1030000900030000   599919000055190110000000050119 Fashion Complex (K YANGONUT      MMR11007200827068482870720000000000000000   10300014F00104100000000000000000000001500     
100   35710500190370740000000000120000000000120000002000000010410407201018528522180343140720026481652201   1030000900030000   594419000631190110000000462Shwe San Eain GemsTime YANGONUT      MMR11007201018528522180720000000000000000   10300005F00104100000000000000000000036000     
100   35710500330375060000000000018000000000018000002000000010410407201019068522297150860720028491606201   1030000900030000   546219000745190110000000577Ei Dorado Bake House(T YANGONNGKUUN  MMR11007201019068522290720000000000000000   10300005F00104100000000000000000000005400     
100   9503054000507210000000000001081500000001081500200000001041040720102005852272F6SEGW0720038501605201   1030000900030000   541119000144190110000000083SeinGayHarParami Cente YANGON        MMR11007201020058522720720000000000000000   10300002F00104100000000000000000000002163     
100   9503051877479036000000000005395000000005395000200000001041040720102027852284AZ5PIB0720043501627201   1030000900030000   581219000369190110000000241Beauty In The Pot (PHS YANGON        MMR11007201020278522840720000000000000000   10300002F00104100000000000000000000018343     
100   95031900006208740000000000050200000000050200002000000010410407200240551055668FM81F0720000003915098   1030000900030000   333300010001202104000002717Near Me Android        Yangon        MMR11007200240551055660720000000000000000   10300014F05104100000000000000000000020000     
100   62343302001729770000000000010000000000010000002000000010410407201449561956950000000720000003916311   1030000900030000   333400010001202104000002022ACS                    Yangon        MMR11007201449561956950720000000000000000   10300004F05104100000000000000000000006000     
100   62343301016837830000000000002500000000002500002000000010410407200457342734320000000720000003915349   1030000900030000   333400010001202104000002022ACS                    Yangon        MMR11007200457342734320720000000000000000   10300004F05104100000000000000000000001500     
100   35710500153408860000000000005000000000005000002000000010410407200713574357657667000720000003915605   1030000900030000   333400010001202104000002022ACS                    Yangon        MMR11007200713574357650720000000000000000   10300005F05104100000000000000000000003000     
100   95030800068521690000000000035000000000035000002000000010410407201231270127185404980720000003916085   1030000900030000   333400010001202104000002022ACS                    Yangon        MMR11007201231270127180720000000000000000   10300003F05104100000000000000000000021000     
100   95051010102270120000000000005000000000005000002000000010410407200442011201603668250720000003915306   1030000900030000   333400010001202104000002022ACS                    Yangon        MMR11007200442011201600720000000000000000   10300005F05104100000000000000000000003000     
100   62346600116757880000000000300200000000300200002000000010410407200742041204565284370720000003915655   1030000900030000   333300010001202104000002717Near Me Android        Yangon        MMR11007200742041204560720000000000000000   10300005F05104100000000000000000000020000     
100   62346600195921590000000000035000000000035000002000000010410407201148021802682918370720000003916017   1030000900030000   333400010001202104000002022ACS                    Yangon        MMR11007201148021802680720000000000000000   10300005F05104100000000000000000000021000     
100   62346600170032580000000000070863000000070863002000000010410407201438548614610799870720858082154201   1030000900030000   581219000423190110000000284BCC (SYS)              YANGON        MMR11007201438548614610720000000000000000   10300005F00104100000000000000000000024094     
100   9503051894244702000000000057000000000057000000200000001041040720042403839797CCAIUY0720494541003201   1030000900030000   481219000711190110000000542I Sure Technology Co., MANDALAYHARSA MMR11007200424038397970720000000000000000   10300002F00104100000000000000000000171000     
100   9503051885940169000000000001725000000001725000200000001041040720042624839900XLBYDK0720522561024201   1030000900030000   541119000288190110000000178Pro (1) Global (East D YANGONMYOTHIT MMR11007200426248399000720000000000000000   10300002F00104100000000000000000000003450     
100   35710500371271390000000000064500000000064500002000000010410407200722488460697496810720741521348201   1030000900030000   481219000767190110000000599Remax By Telegod(GMP)  YANGONUT      MMR11007200722488460690720000000000000000   10300005F00104100000000000000000000019350     
100   35710950815586550000000000026700000000026700002000000010410407200724418461363591140720753541341201   1030000900030000   569119000717190110000000548M.Y Fashion (401)      YANGONUT      MMR11007200724418461360720000000000000000   10300003F00104100000000000000000000008010     
100   62346600194354740000000000374300000000374300002000000010410407200732158463809261970720795021415201   1030000900030000   541119000614190110000000452Pro(1) Global-Hlaing T YANGONTHARYA  MMR11007200732158463800720000000000000000   10300005F00104100000000000000000000074860     
100   62443000110050940000000000014994000000014994002000000010410407200926458503401874580720619561545201   1030000900030000   581219000698190110000000529Pizzamaru Myanmar (San YANGONUNG     MMR11007200926458503400720000000000000000   10300005F00104100000000000000000000008921     
100   62444501100032580000000000046500000000046500002000000010410407200927158503597826810720625571515201   1030000900030000   594319000084190110000000059Innwa Books            YANGONUT      MMR11007200927158503590720000000000000000   10300002F00104100000000000000000000019530     
100   62622000272202560000000000007450000000007450002000000010410407201250468580707182270720408201946201   1030000900030000   591219000502190110000000349Shwe Ohh Pharmacy -4   YANGON        MMR11007201250468580700720000000000000000   10300006F00104100000000000000000000002235     
100   35710830598609070000000000045100000000045100002000000010410407200651298450282828510720543211329201   1030000900030000   541119000162190110000000084Pro (1) Global (Pazund YANGONARTAUNG MMR11007200651298450280720000000000000000   10300003F00104100000000000000000000009020     
100   9503051883586311000000000020300000000020300000200000001041040720065413845132GKSTM90720566241313201   1030000900030000   594419000454190110000000307Shwe San Eain (Junctio YANGONN       MMR11007200654138451320720000000000000000   10300002F00104100000000000000000000060900     
100   35710950815586550000000000038600000000038600002000000010410407200740568467074594140720882101456201   1030000900030000   594319000084190110000000059Innwa Books            YANGONUT      MMR11007200740568467070720000000000000000   10300003F00104100000000000000000000011580     
100   35710500131223930000000000094500000000094500002000000010410407200742358467699937090720899121435201   1030000900030000   594419000581190110000000421Zwe Htet Gems & Jewell MANDALAYTHARS MMR11007200742358467690720000000000000000   10300005F00104100000000000000000000028350     
100   35710830697497690000000000022800000000022800002000000010410407200743598468333143500720915131459201   1030000900030000   599919000199190110000000103119 Fashion (BuyMoreGe YANGON        MMR11007200743598468330720000000000000000   10300003F00104100000000000000000000006840     
100   35710830324213890000000000080500000000080500002000000010410407200940358508313843110720725101635201   1030000900030000   591219000796190110000000628Shwe Ohh Pharmacy ST-3 YANGONMYOTHIT MMR11007200940358508310720000000000000000   10300003F00104100000000000000000000024150     
100   9503051881742080000000000001400000000001400000200000001041040720094106850845VBUERG0720729111606201   1030000900030000   729819000218190110000000118Cherish Beauty Collect YANGONUNG     MMR11007200941068508450720000000000000000   10300002F00104100000000000000000000004200     
100   9503051020040388000000000062725000000062725000200000001041040720102200852330XI6IOJ0720049521600201   1030000900030000   541119000617190110000000452Pro(1) Global-Hlaing T YANGONTHARYA  MMR11007201022008523300720000000000000000   10300002F00104100000000000000000000125450     
100   35710500193569040000000000055000000000055000002000000010410407200422518397511313290720476521051201   1030000900030000   541119000282190110000000177Pro1 Global (Insein)   YANGON        MMR11007200422518397510720000000000000000   10300005F00104100000000000000000000011000     
100   9503051891986115000000000005420000000005420000200000001041040720053103842177XHPNJQ0720992011203201   1030000900030000   541119000376190110000000178Pro (1) Global (East D YANGONMYOTHIT MMR11007200531038421770720000000000000000   10300002F00104100000000000000000000010840     
100   35710500110021000000000000020700000000020700002000000010410407201051268534753874320720311211726201   1030000900030000   541119000159190110000000084Pro (1) Global (Pazund YANGONIKANAUN MMR11007201051268534750720000000000000000   10300005F00104100000000000000000000004140     
100   62443000803498520000000000059450000000059450002000000010410407200601338432574545310720190311233201   1030000900030000   541119000159190110000000084Pro (1) Global (Pazund YANGONIKANAUN MMR11007200601338432570720000000000000000   10300005F00104100000000000000000000020807     
100   35710500195854030000000000003000000000003000002000000010410407200304158370234953540720004340915201   1030000900030000   541119000117190110000000078Sein Gay Har Kan Thar  YANGONOKKALAP MMR11007200304158370230720000000000000000   10300005F00104100000000000000000000000600     
100   9503051021003724000000000003553000000003553000200000001041040720071224845703M8HMKE0720673421324201   1030000900030000   581219000371190110000000243Jo Jo Hot Pot (Junctio YANGONN       MMR11007200712248457030720000000000000000   10300002F00104100000000000000000000012080     
100   95050312684056650000000000035000000000035000002000000010410407201000353035310966670720000003915883   1030000900030000   333400010001202104000002022ACS                    Yangon        MMR11007201000353035310720000000000000000   10300001F05104100000000000000000000021000     
100   62343301017901580000000000035000000000035000002000000010410407201404453445990000000720000003916230   1030000900030000   333400010001202104000002022ACS                    Yangon        MMR11007201404453445990720000000000000000   10300004F05104100000000000000000000021000     
100   62346600121003230000000000250200000000250200002000000010410407201431390139823849550720000003916284   1030000900030000   333300010001202104000002659MSP                    Yangon        MMR11007201431390139820720000000000000000   10300005F05104100000000000000000000020000     
100   95031900012592760000000000100200000000100200002000000010410407201539370937806BT42F0720000003916385   1030000900030000   333300010001202104000002717Near Me Android        Yangon        MMR11007201539370937800720000000000000000   10300014F05104100000000000000000000020000     
100   35710830091754710000000000010200000000010200002000000010410407201234460446113732890720000003916088   1030000900030000   333300010001202104000002717Near Me Android        Yangon        MMR11007201234460446110720000000000000000   10300003F05104100000000000000000000020000     
100   62343301000011280000000000005000000000005000002000000010410407200650562056830000000720000003915568   1030000900030000   333400010001202104000002022ACS                    Yangon        MMR11007200650562056830720000000000000000   10300004F05104100000000000000000000003000     
100   35710500331269110000000000005200000000005200002000000010410407200435240524966136040720000003915288   1030000900030000   333300010001202104000002659MSP                    Yangon        MMR11007200435240524960720000000000000000   10300005F05104100000000000000000000020000     
100   95031900002412670000000000035000000000035000002000000010410407201459532953818CM42F0720000003916330   1030000900030000   333400010001202104000002022ACS                    Yangon        MMR11007201459532953810720000000000000000   10300014F05104100000000000000000000021000     
100   35710830124307230000000002250200000002250200002000000010410407201600113011226143610720000003916404   1030000900030000   333300010001202104000002717Near Me Android        Yangon        MMR11007201600113011220720000000000000000   10300003F05104100000000000000000000020000     
100   95030800070095460000000000034440000000034440002000000010410407201001078515474950550720865311607201   1030000900030000   581219000230190110000000129MinLan Restaurant(Maya YANGONONE     MMR11007201001078515470720000000000000000   10300003F00104100000000000000000000011710     
100   35710830217571160000000000047150000000047150002000000010410407201136538552687298960720775061853201   1030000900030000   541119000159190110000000084Pro (1) Global (Pazund YANGONIKANAUN MMR11007201136538552680720000000000000000   10300003F00104100000000000000000000009430     
100   9503051896857147000000000000970000000000970000200000001041040720113711855281YIE2CO0720778071811201   1030000900030000   594319000754190110000000586Sarpaylawka            YANGONUT      MMR11007201137118552810720000000000000000   10300002F00104100000000000000000000002910     
100   9503051891315273000000000000505000000000505000200000001041040720113731855297UO9NW00720782071831201   1030000900030000   591219000500190110000000347Shwe Ohh Pharmacy -2   YANGONUNG     MMR11007201137318552970720000000000000000   10300002F00104100000000000000000000001515     
100   35710830872537370000000000279400000000279400002000000010410407201144318555655747780720842141831201   1030000900030000   541119000286190110000000177Pro1 Global (Insein)   YANGON        MMR11007201144318555650720000000000000000   10300003F00104100000000000000000000055880     
100   35710500371251900000000000081600000000081600002000000010410407200649108449586726230720524191310201   1030000900030000   581219000205190110000000107Canton Paradise        YANGON        MMR11007200649108449580720000000000000000   10300005F00104100000000000000000000027744     
100   62622000554640080000000000250000000000250000002000000010410407200649408449697181300720527191340201   1030000900030000   594419000663190110000000494Shwe Akari Diamond & J YANGONUT      MMR11007200649408449690720000000000000000   10300006F00104100000000000000000000075000     
100   35710500160552280000000000373850000000373850002000000010410407200650528450119386080720540201352201   1030000900030000   541119000376190110000000178Pro (1) Global (East D YANGONMYOTHIT MMR11007200650528450110720000000000000000   10300005F00104100000000000000000000074770     
100   62444500100016830000000000041918000000041918002000000010410407200941388508667861790720735111638201   1030000900030000   581219000422190110000000283BCC (YIH)              YANGON        MMR11007200941388508660720000000000000000   10300002F00104100000000000000000000024941     
100   62346600180779700000000000015700000000015700002000000010410407200942028508801954950720737121602201   1030000900030000   541119000115190110000000078Sein Gay Har Kan Thar  YANGONOKKALAP MMR11007200942028508800720000000000000000   10300005F00104100000000000000000000003140     
100   35710830525059880000000000037900000000037900002000000010410407201009478518734945030720951391647201   1030000900030000   599919000198190110000000102119 Fashion Complex (T YANGON        MMR11007201009478518730720000000000000000   10300003F00104100000000000000000000011370     
100   95031900046435590000000000021500000000021500002000000010410407201150398558236HC32F0720906201839201   1030000900030000   591219000504190110000000351Shwe Ohh Pharmacy -6   YANGONAW      MMR11007201150398558230720000000000000000   10300014F00104100000000000000000000006450     
100   9503051873438994000000000004900000000004900000200000001041040720115133855857L7MPFR0720913211833201   1030000900030000   481219000634190110000000465Xiaomi Mobile Shop (Ti YANGONUT      MMR11007201151338558570720000000000000000   10300002F00104100000000000000000000014700     
100   9503051892972569000000000010125000000010125000200000001041040720115202855872JJLFCJ0720918221802201   1030000900030000   581219000206190110000000108Beauty in the Pot      YANGON        MMR11007201152028558720720000000000000000   10300002F00104100000000000000000000034425     
100   95030518818886510000000000025300000000025300002000000010410407201152348558882FNU3L0720923221834201   1030000900030000   599919000187190110000000091119 Fashion Complex (L YANGON        MMR11007201152348558880720000000000000000   10300002F00104100000000000000000000007590     
100   9503051873175869000000000200000000000200000000200000001041040720115253855902YV1DSI0720927221853201   1030000900030000   509419000624190110000000457Royal Diamond Sea Gems YANGON        MMR11007201152538559020720000000000000000   10300002F00104100000000000000000001000000     
100   95050318964967630000000000016550000000016550002000000010410407201153068559130752780720929231806201   1030000900030000   541119000115190110000000078Sein Gay Har Kan Thar  YANGONOKKALAP MMR11007201153068559130720000000000000000   10300001F00104100000000000000000000005792     
100   95031900002466470000000000004350000000004350002000000010410407200754128471695S812F0720980241412201   1030000900030000   541119000172190110000000085SeinGayHar (Dagon Cent YANGONUNG     MMR11007200754128471690720000000000000000   10300014F00104100000000000000000000000870     
100   35710500123441470000000000005200000000005200002000000010410407201202358562916789680720036321835201   1030000900030000   599919000569190110000000251Pro (1) Global (MawlaM MONLAMYAING   MMR11007201202358562910720000000000000000   10300005F00104100000000000000000000001560     
100   62346600167374500000000000030200000000030200002000000010410407201252122212917245100720000003916112   1030000900030000   333300010001202104000002717Near Me Android        Yangon        MMR11007201252122212910720000000000000000   10300005F05104100000000000000000000020000     
100   950319000153666500000000000050000000000050000020000000104104072011012531258124032F0720000003915953   1030000900030000   333400010001202104000002022ACS                    Yangon        MMR11007201101253125810720000000000000000   10300014F05104100000000000000000000003000     
100   62346600111841610000000000020200000000020200002000000010410407201109473947802724340720000003915966   1030000900030000   333300010001202104000002659MSP                    Yangon        MMR11007201109473947800720000000000000000   10300005F05104100000000000000000000020000     
100   62346600100296070000000000010000000000010000002000000010410407201543211321686416230720000003916389   1030000900030000   333400010001202104000002022ACS                    Yangon        MMR11007201543211321680720000000000000000   10300005F05104100000000000000000000006000     
100   95031900026080590000000000200200000000200200002000000010410407200550222022256S602F0720000003915459   1030000900030000   333300010001202104000002659MSP                    Yangon        MMR11007200550222022250720000000000000000   10300014F05104100000000000000000000020000     
100   95030518866544050000000000020000000000020000002000000010410407201058442844477YLYYH0720000003915952   1030000900030000   333400010001202104000002022ACS                    Yangon        MMR11007201058442844470720000000000000000   10300002F05104100000000000000000000012000     
100   95030800006039070000000000005000000000005000002000000010410407200737280728996255330720000003915647   1030000900030000   333400010001202104000002022ACS                    Yangon        MMR11007200737280728990720000000000000000   10300003F05104100000000000000000000003000     
100   62346600172628960000000000200200000000200200002000000010410407200750532053762292210720000003915669   1030000900030000   333300010001202104000002717Near Me Android        Yangon        MMR11007200750532053760720000000000000000   10300005F05104100000000000000000000020000     
100   35710500176546560000000000062400000000062400002000000010410407200840258487488814690720307101525201   1030000900030000   569119000350190110000000217Bench (Myanmar Plaza)  YANGON        MMR11007200840258487480720000000000000000   10300005F00104100000000000000000000018720     
100   9503051886434428000000000009150000000009150000200000001041040720084313848837RBVOAV0720321131513201   1030000900030000   541119000163190110000000084Pro (1) Global (Pazund YANGONARTAUNG MMR11007200843138488370720000000000000000   10300002F00104100000000000000000000018300     
100   95031201000581700000000000003000000000003000002000000010410407201415504550773333330720000003916246   1030000900030000   333400010001202104000002022ACS                    Yangon        MMR11007201415504550770720000000000000000   10300009F05104100000000000000000000001800     
100   62343301003669010000000000035000000000035000002000000010410407201316024602060000000720000003916157   1030000900030000   333400010001202104000002022ACS                    Yangon        MMR11007201316024602060720000000000000000   10300004F05104100000000000000000000021000     
100   35710830451544640000000000230000000000230000002000000010410407200930528504778664780720645001652201   1030000900030000   541119000162190110000000084Pro (1) Global (Pazund YANGONARTAUNG MMR11007200930528504770720000000000000000   10300003F00104100000000000000000000046000     
100   35710500162623370000000000201500000000201500002000000010410407200931178504917932570720646011617201   1030000900030000   594419000551190110000000398Weint Sein (1)         MANDALAYHARSA MMR11007200931178504910720000000000000000   10300005F00104100000000000000000000060450     
100   35710500102675710000000000035200000000035200002000000010410407201106108540472781850720438361710201   1030000900030000   541119000286190110000000177Pro1 Global (Insein)   YANGON        MMR11007201106108540470720000000000000000   10300005F00104100000000000000000000007040     
100   950319000113145900000000000007000000000007000020000000104104072011083085413362132F0720460381730201   1030000900030000   541119000331190110000000206Muditar Supermarket    YANGON        MMR11007201108308541330720000000000000000   10300014F00104100000000000000000000000140     
100   35710500162152850000000000045675000000045675002000000010410407200626038441529920880720360561203201   1030000900030000   701119000065190110000000024Lotte Hotel            YANGON        MMR11007200626038441520720000000000000000   10300005F00104100000000000000000000015530     
100   9503051019723366000000000005400000000005400000200000001041040720050654841276BULMNJ0720796361154201   1030000900030000   541119000288190110000000178Pro (1) Global (East D YANGONMYOTHIT MMR11007200506548412760720000000000000000   10300002F00104100000000000000000000010800     
100   35710830096069210000000000015800000000015800002000000010410407200506558412774310650720797361155201   1030000900030000   541119000163190110000000084Pro (1) Global (Pazund YANGONARTAUNG MMR11007200506558412770720000000000000000   10300003F00104100000000000000000000003160     
100   9503051894773833000000000005500000000005500000200000001041040720050853841355M54XXS0720817381153201   1030000900030000   481219000711190110000000542I Sure Technology Co., MANDALAYHARSA MMR11007200508538413550720000000000000000   10300002F00104100000000000000000000016500     
100   62346600104479810000000000063200000000063200002000000010410407200509518413938099850720823391151201   1030000900030000   581219000205190110000000107Canton Paradise        YANGON        MMR11007200509518413930720000000000000000   10300005F00104100000000000000000000021488     
100   35710500115654370000000000157600000000157600002000000010410407200510118414048270050720825401111201   1030000900030000   541119000283190110000000177Pro1 Global (Insein)   YANGON        MMR11007200510118414040720000000000000000   10300005F00104100000000000000000000031520     
100   62343301010077850000000000106800000000106800002000000010410407200924135413980000000720000003915824   1030000900030000   333300010001202104000000109Myanmar National Airli Yangon        MMR11007200924135413980720000000000000000   10300004F05104100000000000000000000020000     
100   95031900034383650000000000095550000000095550002000000010410407200326528378095SY81F0720148560952201   1030000900030000   541119000159190110000000084Pro (1) Global (Pazund YANGONIKANAUN MMR11007200326528378090720000000000000000   10300014F00104100000000000000000000019110     
100   35710500102475570000000000035000000000035000002000000010410407201558562856668565500720000003916399   1030000900030000   333400010001202104000002022ACS                    Yangon        MMR11007201558562856660720000000000000000   10300005F05104100000000000000000000021000     
100   35710500142140740000000000010200000000010200002000000010410407200802063206790222320720000003915685   1030000900030000   333300010001202104000002659MSP                    Yangon        MMR11007200802063206790720000000000000000   10300005F05104100000000000000000000020000     
100   9503051886243910000000000000600000000000600000200000001041040720043839083943UZRUFQ0720000003915279   1030000900030000   333400010001202104000002022ACS                    Yangon        MMR11007200438390839430720000000000000000   10300002F05104100000000000000000000003600     
100   95031010460036520000000000035000000000035000002000000010410407201445581558799816710720000003916305   1030000900030000   333400010001202104000002022ACS                    Yangon        MMR11007201445581558790720000000000000000   10300005F05104100000000000000000000021000     
100   95031900027646210000000000126863370000126863372000000010410407201402413241301AA42F0720000003916227   1030000900030000   333300010001202104000000109Myanmar National Airli Yangon        MMR11007201402413241300720000000000000000   10300014F05104100000000000000000000020000     
100   950305187282129900000000000070000000000070000020000000104104072013132143215643FRFE0720000003916147   1030000900030000   333400010001202104000002022ACS                    Yangon        MMR11007201313214321560720000000000000000   10300002F05104100000000000000000000004200     
100   95030101001971950000000000005000000000005000002000000010410407200636180618740276030720000003915545   1030000900030000   333400010001202104000002022ACS                    Yangon        MMR11007200636180618740720000000000000000   10200001F05104100000000000000000000003000     
100   62921400086906850000000000150200000000150200002000000010410407200455062506903333330720000003915344   1030000900030000   333300010001202104000002659MSP                    Yangon        MMR11007200455062506900720000000000000000   10300009F05104100000000000000000000020000     
100   9503051883959831000000000002760000000002760000200000001041040720110837854137P8UPHM0720461381737201   1030000900030000   581219000590190110000000430The Tea Club           YANGON        MMR11007201108378541370720000000000000000   10300002F00104100000000000000000000009384     
100   35710500191932320000000000366000000000366000002000000010410407200601388432602297160720191311238201   1030000900030000   599919000569190110000000251Pro (1) Global (MawlaM MONLAMYAING   MMR11007200601388432600720000000000000000   10300005F00104100000000000000000000109800     
100   9503051879152771000000000001890000000001890000200000001041040720060259843312OROXZJ0720202321259201   1030000900030000   599919000758190110000000590Susen Bag Collection(T YANGONUT      MMR11007200602598433120720000000000000000   10300002F00104100000000000000000000005670     
100   62444500100009900000000000195300000000195300002000000010410407200607388434747321200720228371238201   1030000900030000   541119000376190110000000178Pro (1) Global (East D YANGONMYOTHIT MMR11007200607388434740720000000000000000   10300002F00104100000000000000000000068355     
100   35710830567393510000000000073500000000073500002000000010410407200608088434934528260720233381208201   1030000900030000   541119000283190110000000177Pro1 Global (Insein)   YANGON        MMR11007200608088434930720000000000000000   10300003F00104100000000000000000000014700     
100   9503051888664550000000000018720000000018720000200000001041040720080351847486DNMUNI0720045331451201   1030000900030000   599919000569190110000000251Pro (1) Global (MawlaM MONLAMYAING   MMR11007200803518474860720000000000000000   10300002F00104100000000000000000000056160     
100   35710950804781030000000000015750000000015750002000000010410407200803578474924597220720046331457201   1030000900030000   581219000231190110000000130MinLan Restaurant(SanC YANGONUNG     MMR11007200803578474920720000000000000000   10300003F00104100000000000000000000005355     
100   62346600164016020000000000160500000000160500002000000010410407200845128489119495460720338151512201   1030000900030000   591219000504190110000000351Shwe Ohh Pharmacy -6   YANGONAW      MMR11007200845128489110720000000000000000   10300005F00104100000000000000000000048150     
100   35710500195854030000000000006550000000006550002000000010410407200329098378955150320720173590909201   1030000900030000   541119000115190110000000078Sein Gay Har Kan Thar  YANGONOKKALAP MMR11007200329098378950720000000000000000   10300005F00104100000000000000000000001310     
100   9503051893744728000000000013450000000013450000200000001041040720033319838039ABQF2S0720194031019201   1030000900030000   541119000286190110000000177Pro1 Global (Insein)   YANGON        MMR11007200333198380390720000000000000000   10300002F00104100000000000000000000026900     
100   35710830889165220000000000013000000000013000002000000010410407200120075007296583580720000003915015   1030000900030000   333400010001202104000002022ACS                    Yangon        MMR11007200120075007290720000000000000000   10300003F05104100000000000000000000007800     
100   9503051872324336000000000007185000000007185000200000001041040720065712845209XOJXXX0720583271312201   1030000900030000   591219000601190110000000441Shwe Ohh Pharmacy St-3 YANGON        MMR11007200657128452090720000000000000000   10300002F00104100000000000000000000021555     
100   62444501100196840000000000123500000000123500002000000010410407200657308452257454010720586271330201   1030000900030000   599919000183190110000000087KER Rendezvous (2)Floo YANGONONE     MMR11007200657308452250720000000000000000   10300002F00104100000000000000000000051870     
100   35710830654437970000000000116480000000116480002000000010410407200701298453602888510720614311329201   1030000900030000   541119000162190110000000084Pro (1) Global (Pazund YANGONARTAUNG MMR11007200701298453600720000000000000000   10300003F00104100000000000000000000023296     
100   35710500145084260000000000017240000000017240002000000010410407200904368496146255860720495341536201   1030000900030000   541119000144190110000000083SeinGayHarParami Cente YANGON        MMR11007200904368496140720000000000000000   10300005F00104100000000000000000000003448     
100   35710500120162730000000000025852000000025852002000000010410407200906458496764001990720506361545201   1030000900030000   581219000721190110000000552Chilli Pot Mala Xiang  YANGONOKKALAP MMR11007200906458496760720000000000000000   10300005F00104100000000000000000000008790     
100   950319000289084800000000000702000000000702000020000000104104071917551425146883T61F0720000003914941   1030000900030000   333300010001202104000002717Near Me Android        Yangon        MMR11007191755142514680720000000000000000   10300014F05104100000000000000000000020000     
100   35710830715951010000000000003000000000003000002000000010410407200647291729686248820720000003915560   1030000900030000   333400010001202104000002022ACS                    Yangon        MMR11007200647291729680720000000000000000   10300003F05104100000000000000000000001800     
100   9503051879220164000000000003500000000003500000200000001041040720030401340173TY19QJ0720000003915137   1030000900030000   333400010001202104000002022ACS                    Yangon        MMR11007200304013401730720000000000000000   10300002F05104100000000000000000000021000     
100   35710950003459450000000000010200000000010200002000000010410407200312314231230020020720000003915142   1030000900030000   333300010001202104000002659MSP                    Yangon        MMR11007200312314231230720000000000000000   10300003F05104100000000000000000000020000     
100   9503051019904826000000000015000000000015000000200000001041040719194756824626V9Q7BR0720460170256201   1030000900030000   581319000586190110000000426K2 KTV                 YANGONMYOTHIT MMR11007191947568246260720000000000000000   10300002F00104100000000000000000000051000     
100   9503051891151512000000000000200000000000200000200000001041040720001505831822FUBXLA0720519450605201   1030000900030000   581219000447190110000000301Shwepalin (Highway-4)  MONIKTO       MMR11007200015058318220720000000000000000   10300002F00104100000000000000000000000680     
100   35710500182897830000000000006700000000006700002000000010410407201257018582847415300720450271901201   1030000900030000   541119000166190110000000085SeinGayHar (Dagon Cent YANGONUNG     MMR11007201257018582840720000000000000000   10300005F00104100000000000000000000001340     
100   9503051888565591000000000402000000000402000000200000001041040720130200858450ZHFNHM0720471321900201   1030000900030000   481219000030190110000000029I Sure Apple Service C YANGONUT      MMR11007201302008584500720000000000000000   10300002F00104100000000000000000001206000     
100   9503051894703343000000000003020000000003020000200000001041040720084808849041PH37G50720379181508201   1030000900030000   541119000616190110000000452Pro(1) Global-Hlaing T YANGONTHARYA  MMR11007200848088490410720000000000000000   10300002F00104100000000000000000000006040     
100   62346600187043260000000000012250000000012250002000000010410407201037158529337733440720184071715201   1030000900030000   541119000162190110000000084Pro (1) Global (Pazund YANGONARTAUNG MMR11007201037158529330720000000000000000   10300005F00104100000000000000000000002450     
100   9503051886748066000000000001804000000001804000200000001041040720103721852940CUTYMW0720187071721201   1030000900030000   581219000371190110000000243Jo Jo Hot Pot (Junctio YANGONN       MMR11007201037218529400720000000000000000   10300002F00104100000000000000000000006134     
100   9503051883577013000000000011185000000011185000200000001041040720103816852978UI34MT0720200081716201   1030000900030000   541119000282190110000000177Pro1 Global (Insein)   YANGON        MMR11007201038168529780720000000000000000   10300002F00104100000000000000000000022370     
100   35710500184384140000000000130000000000130000002000000010410407201039228530113250910720210091722201   1030000900030000   541119000283190110000000177Pro1 Global (Insein)   YANGON        MMR11007201039228530110720000000000000000   10300005F00104100000000000000000000026000     
100   9503051872541319000000000039300000000039300000200000001041040720104005853050SVZDHH0720217101705201   1030000900030000   541119000162190110000000084Pro (1) Global (Pazund YANGONARTAUNG MMR11007201040058530500720000000000000000   10300002F00104100000000000000000000078600     
100   62346600162672010000000000012050000000012050002000000010410407201451138618257530550720893212113201   1030000900030000   541119000112190110000000077Sein Gay Har Chinatown YANGON        MMR11007201451138618250720000000000000000   10300005F00104100000000000000000000002410     
100   9503051897195364000000000000520000000000520000200000001041040720122613561370I7PMWI0720000003916074   1030000900030000   333300010001202104000002659MSP                    Yangon        MMR11007201226135613700720000000000000000   10300002F05104100000000000000000000020000     
100   95031900044114520000000000036400000000036400002000000010410407200910068497852ZY12F0720520401506201   1030000900030000   599919000190190110000000094119 Fashion (North Okk YANGONOKKALAP MMR11007200910068497850720000000000000000   10300014F00104100000000000000000000010920     
100   35710500101689770000000000020176000000020176002000000010410407200943498509318529240720745131649201   1030000900030000   581219000697190110000000528Pizzamaru Myanmar (MPZ YANGON        MMR11007200943498509310720000000000000000   10300005F00104100000000000000000000006860     
100   62443000860005090000000000042600000000042600002000000010410407200945268509842309130720751151626201   1030000900030000   599919000187190110000000091119 Fashion Complex (L YANGON        MMR11007200945268509840720000000000000000   10300005F00104100000000000000000000017892     
100   9503051877209052000000000030500000000030500000200000001041040720111552854410LEWAB10720526451752201   1030000900030000   806219000358190110000000225Victoria Hospital      YANGONONE     MMR11007201115528544100720000000000000000   10300002F00104100000000000000000000091500     
100   62441900003410260000000000016700000000016700002000000010410407201117028544511069220720535471702201   1030000900030000   599919000188190110000000092119 Fashion (Sanchaung YANGONUNG     MMR11007201117028544510720000000000000000   10300003F00104100000000000000000000007014     
100   35710830884729710000000000039500000000039500002000000010410407201118448545147649820720548481744201   1030000900030000   594419000631190110000000462Shwe San Eain GemsTime YANGONUT      MMR11007201118448545140720000000000000000   10300003F00104100000000000000000000011850     
100   62346600118042300000000000010000000000010000002000000010410407200626338441694884040720364561233201   1030000900030000   554119000346190110000000213New Day Energy - 3     YANGONOKKALAP MMR11007200626338441690720000000000000000   10300005F00104100000000000000000000001500     
100   9503051888932114000000000002880000000002880000200000001041040720063247844375MEMBOU0720399021347201   1030000900030000   541119000286190110000000177Pro1 Global (Insein)   YANGON        MMR11007200632478443750720000000000000000   10300002F00104100000000000000000000005760     
100   35710950457074970000000000106700000000106700002000000010410407201303468585193697360720486331946201   1030000900030000   581219000206190110000000108Beauty in the Pot      YANGON        MMR11007201303468585190720000000000000000   10300003F00104100000000000000000000036278     
100   62444500200212340000000000003800000000003800002000000010410407201308598586958433180720520381959201   1030000900030000   581219000723190110000000555Shake Cake&Bakery(Capi YANGON        MMR11007201308598586950720000000000000000   10300002F00104100000000000000000000002261     
100   35710830219417440000000000046000000000046000002000000010410407200713428457643589440720685431342201   1030000900030000   581219000473190110000000326Panjabi-Q              YANGONUT      MMR11007200713428457640720000000000000000   10300003F00104100000000000000000000015640     
100   9503051890761204000000000004400000000004400000200000001041040720071423845788JS2ED80720689441323201   1030000900030000   594419000454190110000000307Shwe San Eain (Junctio YANGONN       MMR11007200714238457880720000000000000000   10300002F00104100000000000000000000013200     
100   9503051890489483000000000003900000000003900000200000001041040720075219847101KS6TBL0720973221419201   1030000900030000   599919000195190110000000099119 Fashion Complex (P YANGONN       MMR11007200752198471010720000000000000000   10300002F00104100000000000000000000011700     
100   950319000176392100000000001400000000001400000020000000104104072007553384721150912F0720993251433201   1030000900030000   541119000287190110000000177Pro1 Global (Insein)   YANGON        MMR11007200755338472110720000000000000000   10300014F00104100000000000000000000028000     
100   62346600114075700000000001610500000001610500002000000010410407200953278512801296050720813231627201   1030000900030000   541119000284190110000000177Pro1 Global (Insein)   YANGON        MMR11007200953278512800720000000000000000   10300005F00104100000000000000000000322100     
100   9503051873032367000000000004662000000004662000200000001041040720095338851288QGX53Z0720816231638201   1030000900030000   581219000697190110000000528Pizzamaru Myanmar (MPZ YANGON        MMR11007200953388512880720000000000000000   10300002F00104100000000000000000000015851     
100   95031900008244350000000000030200000000030200002000000010410407200326235623536FZ81F0720000003915168   1030000900030000   333300010001202104000002717Near Me Android        Yangon        MMR11007200326235623530720000000000000000   10300014F05104100000000000000000000020000     
100   35710900885703570000000000009600000000009600002000000010410407200302218369554574860720995320921201   1030000900030000   591219000506190110000000353Shwe Ohh Pharmacy -8   YANGON        MMR11007200302218369550720000000000000000   10300003F00104100000000000000000000002880     
100   9503051893133914000000000001900000000001900000200000001041040720031523837378NEQETZ0720059450923201   1030000900030000   581219000205190110000000107Canton Paradise        YANGON        MMR11007200315238373780720000000000000000   10300002F00104100000000000000000000006460     
100   35710500136367230000000000153150000000153150002000000010410407200315318373859193570720062450931201   1030000900030000   591219000501190110000000348Shwe Ohh Pharmacy (SmL YANGONUT      MMR11007200315318373850720000000000000000   10300005F00104100000000000000000000045945     
100   9503051872916065000000000000915000000000915000200000001041040720031820837493QEKVJE0720082480920201   1030000900030000   541119000380190110000000248Victoria Hyper Mart    YANGON        MMR11007200318208374930720000000000000000   10300002F00104100000000000000000000001830     
100   62444500200204830000000000029700000000029700002000000010410407200326128377776840950720140560912201   1030000900030000   541119000077190110000000056Pro (1) Global-TheikPa MANDALAYHARSI MMR11007200326128377770720000000000000000   10300002F00104100000000000000000000010395     
100   62441901001300480000000000013973000000013973002000000010410407201325498592202828510720587551949201   1030000900030000   581219000029190110000000026BCC (TC)               YANGONUT      MMR11007201325498592200720000000000000000   10300003F00104100000000000000000000008314     
100   62444501100058240000000000330550000000330550002000000010410407201330558593738475060720600002055201   1030000900030000   541119000115190110000000078Sein Gay Har Kan Thar  YANGONOKKALAP MMR11007201330558593730720000000000000000   10300002F00104100000000000000000000115692     
100   9503051021003724000000000001437800000001437800200000001041040720063705844508KVHSPY0720418071305201   1030000900030000   581219000371190110000000243Jo Jo Hot Pot (Junctio YANGONN       MMR11007200637058445080720000000000000000   10300002F00104100000000000000000000004888     
100   9503051873380915000000000002070000000002070000200000001041040720081558847906NUE38X0720144451458201   1030000900030000   581219000590190110000000430The Tea Club           YANGON        MMR11007200815588479060720000000000000000   10300002F00104100000000000000000000007038     
100   62441900103908150000000000265000000000265000002000000010410407200817058479397862860720148471405201   1030000900030000   594419000631190110000000462Shwe San Eain GemsTime YANGONUT      MMR11007200817058479390720000000000000000   10300003F00104100000000000000000000111300     
100   95030518958189590000000000001000000000001000002000000010410407200335438381294OEP9Z0720209051043201   1030000900030000   541119000144190110000000083SeinGayHarParami Cente YANGON        MMR11007200335438381290720000000000000000   10300002F00104100000000000000000000000200     
100   9503051892722428000000000004968000000004968000200000001041040720034325838381SS7LC70720244131025201   1030000900030000   581219000423190110000000284BCC (SYS)              YANGON        MMR11007200343258383810720000000000000000   10300002F00104100000000000000000000016891     
100   62443000103157420000000000010000000000010000002000000010410407200515024502455196620720000003915377   1030000900030000   333400010001202104000002022ACS                    Yangon        MMR11007200515024502450720000000000000000   10300005F05104100000000000000000000006000     
100   35710830305698410000000000235000000000235000002000000010410407200910258497935370020720525401525201   1030000900030000   481219000030190110000000029I Sure Apple Service C YANGONUT      MMR11007200910258497930720000000000000000   10300003F00104100000000000000000000070500     
100   62443000866182680000000000108000000000108000002000000010410407201044528532317961140720263141752201   1030000900030000   594419000600190110000000440Shwe Nan Taw Jewellery YANGON        MMR11007201044528532310720000000000000000   10300005F00104100000000000000000000045360     
100   62443000141084730000000000035000000000035000002000000010410407201503163316170517000720000003916339   1030000900030000   333400010001202104000002022ACS                    Yangon        MMR11007201503163316170720000000000000000   10300005F05104100000000000000000000021000     
100   35710830086998360000000000075000000000075000002000000010410407200258132813745189140720000003915129   1030000900030000   333300010001202104000000109Myanmar National Airli Yangon        MMR11007200258132813740720000000000000000   10300003F05104100000000000000000000020000     
100   95030518901692910000000000010000000000010000002000000010410407191725555555301QROLY0720000003914928   1030000900030000   333400010001202104000002022ACS                    Yangon        MMR11007191725555555300720000000000000000   10300002F05104100000000000000000000006000     
100   62921400071573220000000000071000000000071000002000000010410407200725115511633333330720000003915618   1030000900030000   333300010001202104000000109Myanmar National Airli Yangon        MMR11007200725115511630720000000000000000   10300009F05104100000000000000000000020000     
100   95031900001955540000000000055000000000055000002000000010410407200421375137358NE91F0720000003915267   1030000900030000   333800010001202104000003301uab bank               Yangon        MMR11007200421375137350720000000000000000   10300014F05104100000000000000000000033000     
100   9503051891644185000000000003500000000003500000200000001041040720125844284480KX8HAT0720000003916123   1030000900030000   333400010001202104000002022ACS                    Yangon        MMR11007201258442844800720000000000000000   10300002F05104100000000000000000000021000     
100   95031900025399810000000000050200000000050200002000000010410407200935140514807M522F0720000003915839   1030000900030000   333300010001202104000002717Near Me Android        Yangon        MMR11007200935140514800720000000000000000   10300014F05104100000000000000000000020000     
100   35710500160515160000000000008400000000008400002000000010410407200658098452451805850720592281309201   1030000900030000   541119000166190110000000085SeinGayHar (Dagon Cent YANGONUNG     MMR11007200658098452450720000000000000000   10300005F00104100000000000000000000001680     
